{
	"contracts/ERC20Stakeable.sol": {
		"ERC20Stakeable": {
			"abi": [
				{
					"inputs": [
						{
							"internalType": "address",
							"name": "_ERC721address",
							"type": "address"
						},
						{
							"internalType": "uint256",
							"name": "_ratePersentage",
							"type": "uint256"
						},
						{
							"internalType": "address",
							"name": "_ERC20Address",
							"type": "address"
						}
					],
					"stateMutability": "nonpayable",
					"type": "constructor"
				},
				{
					"anonymous": false,
					"inputs": [
						{
							"indexed": true,
							"internalType": "address",
							"name": "previousOwner",
							"type": "address"
						},
						{
							"indexed": true,
							"internalType": "address",
							"name": "newOwner",
							"type": "address"
						}
					],
					"name": "OwnershipTransferred",
					"type": "event"
				},
				{
					"inputs": [],
					"name": "AdminAddToken",
					"outputs": [],
					"stateMutability": "nonpayable",
					"type": "function"
				},
				{
					"inputs": [
						{
							"internalType": "uint256",
							"name": "amount",
							"type": "uint256"
						}
					],
					"name": "AdminWithDrawToken",
					"outputs": [],
					"stateMutability": "nonpayable",
					"type": "function"
				},
				{
					"inputs": [
						{
							"internalType": "uint256",
							"name": "_amount",
							"type": "uint256"
						}
					],
					"name": "Deposit",
					"outputs": [],
					"stateMutability": "nonpayable",
					"type": "function"
				},
				{
					"inputs": [
						{
							"internalType": "address",
							"name": "",
							"type": "address"
						}
					],
					"name": "Details",
					"outputs": [
						{
							"internalType": "uint256",
							"name": "deposited",
							"type": "uint256"
						},
						{
							"internalType": "uint256",
							"name": "timestake",
							"type": "uint256"
						},
						{
							"internalType": "bool",
							"name": "check",
							"type": "bool"
						}
					],
					"stateMutability": "view",
					"type": "function"
				},
				{
					"inputs": [],
					"name": "ERC20Address",
					"outputs": [
						{
							"internalType": "address",
							"name": "",
							"type": "address"
						}
					],
					"stateMutability": "view",
					"type": "function"
				},
				{
					"inputs": [],
					"name": "ERC721address",
					"outputs": [
						{
							"internalType": "address",
							"name": "",
							"type": "address"
						}
					],
					"stateMutability": "view",
					"type": "function"
				},
				{
					"inputs": [
						{
							"internalType": "address",
							"name": "",
							"type": "address"
						}
					],
					"name": "OwnerTokens",
					"outputs": [
						{
							"internalType": "uint256",
							"name": "",
							"type": "uint256"
						}
					],
					"stateMutability": "view",
					"type": "function"
				},
				{
					"inputs": [
						{
							"internalType": "address",
							"name": "",
							"type": "address"
						}
					],
					"name": "Reward",
					"outputs": [
						{
							"internalType": "uint256",
							"name": "",
							"type": "uint256"
						}
					],
					"stateMutability": "view",
					"type": "function"
				},
				{
					"inputs": [
						{
							"internalType": "address",
							"name": "_ERC20Address",
							"type": "address"
						}
					],
					"name": "UpdateERC20",
					"outputs": [],
					"stateMutability": "nonpayable",
					"type": "function"
				},
				{
					"inputs": [
						{
							"internalType": "address",
							"name": "_ERC721address",
							"type": "address"
						}
					],
					"name": "UpdateERC721",
					"outputs": [],
					"stateMutability": "nonpayable",
					"type": "function"
				},
				{
					"inputs": [
						{
							"internalType": "uint256",
							"name": "_ratePersentage",
							"type": "uint256"
						}
					],
					"name": "UpdateRatePersentage",
					"outputs": [],
					"stateMutability": "nonpayable",
					"type": "function"
				},
				{
					"inputs": [],
					"name": "Utilization",
					"outputs": [
						{
							"internalType": "uint256",
							"name": "",
							"type": "uint256"
						}
					],
					"stateMutability": "view",
					"type": "function"
				},
				{
					"inputs": [],
					"name": "Withdraw",
					"outputs": [],
					"stateMutability": "nonpayable",
					"type": "function"
				},
				{
					"inputs": [],
					"name": "WithdrawReward",
					"outputs": [],
					"stateMutability": "nonpayable",
					"type": "function"
				},
				{
					"inputs": [],
					"name": "calculateIntrest",
					"outputs": [
						{
							"internalType": "uint256",
							"name": "",
							"type": "uint256"
						}
					],
					"stateMutability": "nonpayable",
					"type": "function"
				},
				{
					"inputs": [
						{
							"internalType": "uint256",
							"name": "tokenIds",
							"type": "uint256"
						}
					],
					"name": "depositNFT",
					"outputs": [],
					"stateMutability": "nonpayable",
					"type": "function"
				},
				{
					"inputs": [],
					"name": "owenerERC20",
					"outputs": [
						{
							"internalType": "address",
							"name": "",
							"type": "address"
						}
					],
					"stateMutability": "view",
					"type": "function"
				},
				{
					"inputs": [],
					"name": "owner",
					"outputs": [
						{
							"internalType": "address",
							"name": "",
							"type": "address"
						}
					],
					"stateMutability": "view",
					"type": "function"
				},
				{
					"inputs": [],
					"name": "renounceOwnership",
					"outputs": [],
					"stateMutability": "nonpayable",
					"type": "function"
				},
				{
					"inputs": [],
					"name": "rewardrate",
					"outputs": [
						{
							"internalType": "uint256",
							"name": "",
							"type": "uint256"
						}
					],
					"stateMutability": "view",
					"type": "function"
				},
				{
					"inputs": [],
					"name": "totalOwnerToken",
					"outputs": [
						{
							"internalType": "uint256",
							"name": "",
							"type": "uint256"
						}
					],
					"stateMutability": "view",
					"type": "function"
				},
				{
					"inputs": [
						{
							"internalType": "address",
							"name": "newOwner",
							"type": "address"
						}
					],
					"name": "transferOwnership",
					"outputs": [],
					"stateMutability": "nonpayable",
					"type": "function"
				},
				{
					"inputs": [],
					"name": "unstaketimeval",
					"outputs": [
						{
							"internalType": "uint256",
							"name": "",
							"type": "uint256"
						}
					],
					"stateMutability": "view",
					"type": "function"
				},
				{
					"inputs": [
						{
							"internalType": "uint256",
							"name": "tokenIds",
							"type": "uint256"
						}
					],
					"name": "withdrawNFT",
					"outputs": [],
					"stateMutability": "nonpayable",
					"type": "function"
				}
			],
			"devdoc": {
				"kind": "dev",
				"methods": {
					"owner()": {
						"details": "Returns the address of the current owner."
					},
					"renounceOwnership()": {
						"details": "Leaves the contract without owner. It will not be possible to call `onlyOwner` functions anymore. Can only be called by the current owner. NOTE: Renouncing ownership will leave the contract without an owner, thereby removing any functionality that is only available to the owner."
					},
					"transferOwnership(address)": {
						"details": "Transfers ownership of the contract to a new account (`newOwner`). Can only be called by the current owner."
					}
				},
				"version": 1
			},
			"evm": {
				"assembly": "    /* \"contracts/ERC20Stakeable.sol\":289:3925  contract ERC20Stakeable is Ownable{\r... */\n  mstore(0x40, 0x80)\n    /* \"contracts/ERC20Stakeable.sol\":1187:1427  constructor(address _ERC721address, uint256 _ratePersentage, address _ERC20Address) {\r... */\n  callvalue\n  dup1\n  iszero\n  tag_1\n  jumpi\n  0x00\n  dup1\n  revert\ntag_1:\n  pop\n  mload(0x40)\n  sub(codesize, bytecodeSize)\n  dup1\n  bytecodeSize\n  dup4\n  codecopy\n  dup2\n  dup2\n  add\n  0x40\n  mstore\n  dup2\n  add\n  swap1\n  tag_2\n  swap2\n  swap1\n  tag_3\n  jump\t// in\ntag_2:\n    /* \"@openzeppelin/contracts/access/Ownable.sol\":936:968  _transferOwnership(_msgSender()) */\n  tag_7\n    /* \"@openzeppelin/contracts/access/Ownable.sol\":955:967  _msgSender() */\n  tag_8\n    /* \"@openzeppelin/contracts/access/Ownable.sol\":955:965  _msgSender */\n  shl(0x20, tag_9)\n    /* \"@openzeppelin/contracts/access/Ownable.sol\":955:967  _msgSender() */\n  0x20\n  shr\n  jump\t// in\ntag_8:\n    /* \"@openzeppelin/contracts/access/Ownable.sol\":936:954  _transferOwnership */\n  shl(0x20, tag_10)\n    /* \"@openzeppelin/contracts/access/Ownable.sol\":936:968  _transferOwnership(_msgSender()) */\n  0x20\n  shr\n  jump\t// in\ntag_7:\n    /* \"contracts/ERC20Stakeable.sol\":1298:1312  _ERC721address */\n  dup3\n    /* \"contracts/ERC20Stakeable.sol\":1282:1295  ERC721address */\n  0x01\n  0x00\n    /* \"contracts/ERC20Stakeable.sol\":1282:1312  ERC721address = _ERC721address */\n  0x0100\n  exp\n  dup2\n  sload\n  dup2\n  0xffffffffffffffffffffffffffffffffffffffff\n  mul\n  not\n  and\n  swap1\n  dup4\n  0xffffffffffffffffffffffffffffffffffffffff\n  and\n  mul\n  or\n  swap1\n  sstore\n  pop\n    /* \"contracts/ERC20Stakeable.sol\":1330:1345  _ratePersentage */\n  dup2\n    /* \"contracts/ERC20Stakeable.sol\":1323:1327  rate */\n  0x07\n    /* \"contracts/ERC20Stakeable.sol\":1323:1345  rate = _ratePersentage */\n  dup2\n  swap1\n  sstore\n  pop\n    /* \"contracts/ERC20Stakeable.sol\":1371:1384  _ERC20Address */\n  dup1\n    /* \"contracts/ERC20Stakeable.sol\":1356:1368  ERC20Address */\n  0x03\n  0x00\n    /* \"contracts/ERC20Stakeable.sol\":1356:1384  ERC20Address = _ERC20Address */\n  0x0100\n  exp\n  dup2\n  sload\n  dup2\n  0xffffffffffffffffffffffffffffffffffffffff\n  mul\n  not\n  and\n  swap1\n  dup4\n  0xffffffffffffffffffffffffffffffffffffffff\n  and\n  mul\n  or\n  swap1\n  sstore\n  pop\n    /* \"contracts/ERC20Stakeable.sol\":1409:1419  msg.sender */\n  caller\n    /* \"contracts/ERC20Stakeable.sol\":1395:1406  owenerERC20 */\n  0x02\n  0x00\n    /* \"contracts/ERC20Stakeable.sol\":1395:1419  owenerERC20 = msg.sender */\n  0x0100\n  exp\n  dup2\n  sload\n  dup2\n  0xffffffffffffffffffffffffffffffffffffffff\n  mul\n  not\n  and\n  swap1\n  dup4\n  0xffffffffffffffffffffffffffffffffffffffff\n  and\n  mul\n  or\n  swap1\n  sstore\n  pop\n    /* \"contracts/ERC20Stakeable.sol\":1187:1427  constructor(address _ERC721address, uint256 _ratePersentage, address _ERC20Address) {\r... */\n  pop\n  pop\n  pop\n    /* \"contracts/ERC20Stakeable.sol\":289:3925  contract ERC20Stakeable is Ownable{\r... */\n  jump(tag_12)\n    /* \"@openzeppelin/contracts/utils/Context.sol\":640:736  function _msgSender() internal view virtual returns (address) {... */\ntag_9:\n    /* \"@openzeppelin/contracts/utils/Context.sol\":693:700  address */\n  0x00\n    /* \"@openzeppelin/contracts/utils/Context.sol\":719:729  msg.sender */\n  caller\n    /* \"@openzeppelin/contracts/utils/Context.sol\":712:729  return msg.sender */\n  swap1\n  pop\n    /* \"@openzeppelin/contracts/utils/Context.sol\":640:736  function _msgSender() internal view virtual returns (address) {... */\n  swap1\n  jump\t// out\n    /* \"@openzeppelin/contracts/access/Ownable.sol\":2433:2620  function _transferOwnership(address newOwner) internal virtual {... */\ntag_10:\n    /* \"@openzeppelin/contracts/access/Ownable.sol\":2506:2522  address oldOwner */\n  0x00\n    /* \"@openzeppelin/contracts/access/Ownable.sol\":2525:2531  _owner */\n  dup1\n  0x00\n  swap1\n  sload\n  swap1\n  0x0100\n  exp\n  swap1\n  div\n  0xffffffffffffffffffffffffffffffffffffffff\n  and\n    /* \"@openzeppelin/contracts/access/Ownable.sol\":2506:2531  address oldOwner = _owner */\n  swap1\n  pop\n    /* \"@openzeppelin/contracts/access/Ownable.sol\":2550:2558  newOwner */\n  dup2\n    /* \"@openzeppelin/contracts/access/Ownable.sol\":2541:2547  _owner */\n  0x00\n  dup1\n    /* \"@openzeppelin/contracts/access/Ownable.sol\":2541:2558  _owner = newOwner */\n  0x0100\n  exp\n  dup2\n  sload\n  dup2\n  0xffffffffffffffffffffffffffffffffffffffff\n  mul\n  not\n  and\n  swap1\n  dup4\n  0xffffffffffffffffffffffffffffffffffffffff\n  and\n  mul\n  or\n  swap1\n  sstore\n  pop\n    /* \"@openzeppelin/contracts/access/Ownable.sol\":2604:2612  newOwner */\n  dup2\n    /* \"@openzeppelin/contracts/access/Ownable.sol\":2573:2613  OwnershipTransferred(oldOwner, newOwner) */\n  0xffffffffffffffffffffffffffffffffffffffff\n  and\n    /* \"@openzeppelin/contracts/access/Ownable.sol\":2594:2602  oldOwner */\n  dup2\n    /* \"@openzeppelin/contracts/access/Ownable.sol\":2573:2613  OwnershipTransferred(oldOwner, newOwner) */\n  0xffffffffffffffffffffffffffffffffffffffff\n  and\n  0x8be0079c531659141344cd1fd0a4f28419497f9722a3daafe3b4186f6b6457e0\n  mload(0x40)\n  mload(0x40)\n  dup1\n  swap2\n  sub\n  swap1\n  log3\n    /* \"@openzeppelin/contracts/access/Ownable.sol\":2496:2620  {... */\n  pop\n    /* \"@openzeppelin/contracts/access/Ownable.sol\":2433:2620  function _transferOwnership(address newOwner) internal virtual {... */\n  pop\n  jump\t// out\n    /* \"#utility.yul\":7:150   */\ntag_16:\n    /* \"#utility.yul\":64:69   */\n  0x00\n    /* \"#utility.yul\":95:101   */\n  dup2\n    /* \"#utility.yul\":89:102   */\n  mload\n    /* \"#utility.yul\":80:102   */\n  swap1\n  pop\n    /* \"#utility.yul\":111:144   */\n  tag_18\n    /* \"#utility.yul\":138:143   */\n  dup2\n    /* \"#utility.yul\":111:144   */\n  tag_19\n  jump\t// in\ntag_18:\n    /* \"#utility.yul\":7:150   */\n  swap3\n  swap2\n  pop\n  pop\n  jump\t// out\n    /* \"#utility.yul\":156:299   */\ntag_20:\n    /* \"#utility.yul\":213:218   */\n  0x00\n    /* \"#utility.yul\":244:250   */\n  dup2\n    /* \"#utility.yul\":238:251   */\n  mload\n    /* \"#utility.yul\":229:251   */\n  swap1\n  pop\n    /* \"#utility.yul\":260:293   */\n  tag_22\n    /* \"#utility.yul\":287:292   */\n  dup2\n    /* \"#utility.yul\":260:293   */\n  tag_23\n  jump\t// in\ntag_22:\n    /* \"#utility.yul\":156:299   */\n  swap3\n  swap2\n  pop\n  pop\n  jump\t// out\n    /* \"#utility.yul\":305:968   */\ntag_3:\n    /* \"#utility.yul\":393:399   */\n  0x00\n    /* \"#utility.yul\":401:407   */\n  dup1\n    /* \"#utility.yul\":409:415   */\n  0x00\n    /* \"#utility.yul\":458:460   */\n  0x60\n    /* \"#utility.yul\":446:455   */\n  dup5\n    /* \"#utility.yul\":437:444   */\n  dup7\n    /* \"#utility.yul\":433:456   */\n  sub\n    /* \"#utility.yul\":429:461   */\n  slt\n    /* \"#utility.yul\":426:545   */\n  iszero\n  tag_25\n  jumpi\n    /* \"#utility.yul\":464:543   */\n  tag_26\n  tag_27\n  jump\t// in\ntag_26:\n    /* \"#utility.yul\":426:545   */\ntag_25:\n    /* \"#utility.yul\":584:585   */\n  0x00\n    /* \"#utility.yul\":609:673   */\n  tag_28\n    /* \"#utility.yul\":665:672   */\n  dup7\n    /* \"#utility.yul\":656:662   */\n  dup3\n    /* \"#utility.yul\":645:654   */\n  dup8\n    /* \"#utility.yul\":641:663   */\n  add\n    /* \"#utility.yul\":609:673   */\n  tag_16\n  jump\t// in\ntag_28:\n    /* \"#utility.yul\":599:673   */\n  swap4\n  pop\n    /* \"#utility.yul\":555:683   */\n  pop\n    /* \"#utility.yul\":722:724   */\n  0x20\n    /* \"#utility.yul\":748:812   */\n  tag_29\n    /* \"#utility.yul\":804:811   */\n  dup7\n    /* \"#utility.yul\":795:801   */\n  dup3\n    /* \"#utility.yul\":784:793   */\n  dup8\n    /* \"#utility.yul\":780:802   */\n  add\n    /* \"#utility.yul\":748:812   */\n  tag_20\n  jump\t// in\ntag_29:\n    /* \"#utility.yul\":738:812   */\n  swap3\n  pop\n    /* \"#utility.yul\":693:822   */\n  pop\n    /* \"#utility.yul\":861:863   */\n  0x40\n    /* \"#utility.yul\":887:951   */\n  tag_30\n    /* \"#utility.yul\":943:950   */\n  dup7\n    /* \"#utility.yul\":934:940   */\n  dup3\n    /* \"#utility.yul\":923:932   */\n  dup8\n    /* \"#utility.yul\":919:941   */\n  add\n    /* \"#utility.yul\":887:951   */\n  tag_16\n  jump\t// in\ntag_30:\n    /* \"#utility.yul\":877:951   */\n  swap2\n  pop\n    /* \"#utility.yul\":832:961   */\n  pop\n    /* \"#utility.yul\":305:968   */\n  swap3\n  pop\n  swap3\n  pop\n  swap3\n  jump\t// out\n    /* \"#utility.yul\":1055:1151   */\ntag_33:\n    /* \"#utility.yul\":1092:1099   */\n  0x00\n    /* \"#utility.yul\":1121:1145   */\n  tag_35\n    /* \"#utility.yul\":1139:1144   */\n  dup3\n    /* \"#utility.yul\":1121:1145   */\n  tag_36\n  jump\t// in\ntag_35:\n    /* \"#utility.yul\":1110:1145   */\n  swap1\n  pop\n    /* \"#utility.yul\":1055:1151   */\n  swap2\n  swap1\n  pop\n  jump\t// out\n    /* \"#utility.yul\":1157:1283   */\ntag_36:\n    /* \"#utility.yul\":1194:1201   */\n  0x00\n    /* \"#utility.yul\":1234:1276   */\n  0xffffffffffffffffffffffffffffffffffffffff\n    /* \"#utility.yul\":1227:1232   */\n  dup3\n    /* \"#utility.yul\":1223:1277   */\n  and\n    /* \"#utility.yul\":1212:1277   */\n  swap1\n  pop\n    /* \"#utility.yul\":1157:1283   */\n  swap2\n  swap1\n  pop\n  jump\t// out\n    /* \"#utility.yul\":1289:1366   */\ntag_38:\n    /* \"#utility.yul\":1326:1333   */\n  0x00\n    /* \"#utility.yul\":1355:1360   */\n  dup2\n    /* \"#utility.yul\":1344:1360   */\n  swap1\n  pop\n    /* \"#utility.yul\":1289:1366   */\n  swap2\n  swap1\n  pop\n  jump\t// out\n    /* \"#utility.yul\":1495:1612   */\ntag_27:\n    /* \"#utility.yul\":1604:1605   */\n  0x00\n    /* \"#utility.yul\":1601:1602   */\n  dup1\n    /* \"#utility.yul\":1594:1606   */\n  revert\n    /* \"#utility.yul\":1618:1740   */\ntag_19:\n    /* \"#utility.yul\":1691:1715   */\n  tag_44\n    /* \"#utility.yul\":1709:1714   */\n  dup2\n    /* \"#utility.yul\":1691:1715   */\n  tag_33\n  jump\t// in\ntag_44:\n    /* \"#utility.yul\":1684:1689   */\n  dup2\n    /* \"#utility.yul\":1681:1716   */\n  eq\n    /* \"#utility.yul\":1671:1734   */\n  tag_45\n  jumpi\n    /* \"#utility.yul\":1730:1731   */\n  0x00\n    /* \"#utility.yul\":1727:1728   */\n  dup1\n    /* \"#utility.yul\":1720:1732   */\n  revert\n    /* \"#utility.yul\":1671:1734   */\ntag_45:\n    /* \"#utility.yul\":1618:1740   */\n  pop\n  jump\t// out\n    /* \"#utility.yul\":1746:1868   */\ntag_23:\n    /* \"#utility.yul\":1819:1843   */\n  tag_47\n    /* \"#utility.yul\":1837:1842   */\n  dup2\n    /* \"#utility.yul\":1819:1843   */\n  tag_38\n  jump\t// in\ntag_47:\n    /* \"#utility.yul\":1812:1817   */\n  dup2\n    /* \"#utility.yul\":1809:1844   */\n  eq\n    /* \"#utility.yul\":1799:1862   */\n  tag_48\n  jumpi\n    /* \"#utility.yul\":1858:1859   */\n  0x00\n    /* \"#utility.yul\":1855:1856   */\n  dup1\n    /* \"#utility.yul\":1848:1860   */\n  revert\n    /* \"#utility.yul\":1799:1862   */\ntag_48:\n    /* \"#utility.yul\":1746:1868   */\n  pop\n  jump\t// out\n    /* \"contracts/ERC20Stakeable.sol\":289:3925  contract ERC20Stakeable is Ownable{\r... */\ntag_12:\n  dataSize(sub_0)\n  dup1\n  dataOffset(sub_0)\n  0x00\n  codecopy\n  0x00\n  return\nstop\n\nsub_0: assembly {\n        /* \"contracts/ERC20Stakeable.sol\":289:3925  contract ERC20Stakeable is Ownable{\r... */\n      mstore(0x40, 0x80)\n      callvalue\n      dup1\n      iszero\n      tag_1\n      jumpi\n      0x00\n      dup1\n      revert\n    tag_1:\n      pop\n      jumpi(tag_2, lt(calldatasize, 0x04))\n      shr(0xe0, calldataload(0x00))\n      dup1\n      0x7b2f247f\n      gt\n      tag_27\n      jumpi\n      dup1\n      0xde9d3ddb\n      gt\n      tag_28\n      jumpi\n      dup1\n      0xde9d3ddb\n      eq\n      tag_21\n      jumpi\n      dup1\n      0xe88cc2be\n      eq\n      tag_22\n      jumpi\n      dup1\n      0xe91a7ca6\n      eq\n      tag_23\n      jumpi\n      dup1\n      0xee0106d2\n      eq\n      tag_24\n      jumpi\n      dup1\n      0xf2fde38b\n      eq\n      tag_25\n      jumpi\n      dup1\n      0xf89d832f\n      eq\n      tag_26\n      jumpi\n      jump(tag_2)\n    tag_28:\n      dup1\n      0x7b2f247f\n      eq\n      tag_15\n      jumpi\n      dup1\n      0x8da5cb5b\n      eq\n      tag_16\n      jumpi\n      dup1\n      0xa6021ace\n      eq\n      tag_17\n      jumpi\n      dup1\n      0xa88e132f\n      eq\n      tag_18\n      jumpi\n      dup1\n      0xb7171a2e\n      eq\n      tag_19\n      jumpi\n      dup1\n      0xc3c917b0\n      eq\n      tag_20\n      jumpi\n      jump(tag_2)\n    tag_27:\n      dup1\n      0x2ffce210\n      gt\n      tag_29\n      jumpi\n      dup1\n      0x2ffce210\n      eq\n      tag_9\n      jumpi\n      dup1\n      0x4d6ce1e5\n      eq\n      tag_10\n      jumpi\n      dup1\n      0x57488064\n      eq\n      tag_11\n      jumpi\n      dup1\n      0x57ea89b6\n      eq\n      tag_12\n      jumpi\n      dup1\n      0x5eb82e94\n      eq\n      tag_13\n      jumpi\n      dup1\n      0x715018a6\n      eq\n      tag_14\n      jumpi\n      jump(tag_2)\n    tag_29:\n      dup1\n      0x023245d7\n      eq\n      tag_3\n      jumpi\n      dup1\n      0x0ccff6e9\n      eq\n      tag_4\n      jumpi\n      dup1\n      0x10fd4fba\n      eq\n      tag_5\n      jumpi\n      dup1\n      0x144dc29c\n      eq\n      tag_6\n      jumpi\n      dup1\n      0x275bd33f\n      eq\n      tag_7\n      jumpi\n      dup1\n      0x2c07f74f\n      eq\n      tag_8\n      jumpi\n    tag_2:\n      0x00\n      dup1\n      revert\n        /* \"contracts/ERC20Stakeable.sol\":3779:3922  function withdrawNFT(uint256 tokenIds) public {\r... */\n    tag_3:\n      tag_30\n      0x04\n      dup1\n      calldatasize\n      sub\n      dup2\n      add\n      swap1\n      tag_31\n      swap2\n      swap1\n      tag_32\n      jump\t// in\n    tag_31:\n      tag_33\n      jump\t// in\n    tag_30:\n      stop\n        /* \"contracts/ERC20Stakeable.sol\":528:555  uint public totalOwnerToken */\n    tag_4:\n      tag_34\n      tag_35\n      jump\t// in\n    tag_34:\n      mload(0x40)\n      tag_36\n      swap2\n      swap1\n      tag_37\n      jump\t// in\n    tag_36:\n      mload(0x40)\n      dup1\n      swap2\n      sub\n      swap1\n      return\n        /* \"contracts/ERC20Stakeable.sol\":398:424  address public owenerERC20 */\n    tag_5:\n      tag_38\n      tag_39\n      jump\t// in\n    tag_38:\n      mload(0x40)\n      tag_40\n      swap2\n      swap1\n      tag_41\n      jump\t// in\n    tag_40:\n      mload(0x40)\n      dup1\n      swap2\n      sub\n      swap1\n      return\n        /* \"contracts/ERC20Stakeable.sol\":1435:1712  function AdminAddToken() public onlyOwner{\r... */\n    tag_6:\n      tag_42\n      tag_43\n      jump\t// in\n    tag_42:\n      stop\n        /* \"contracts/ERC20Stakeable.sol\":3331:3440  function UpdateERC20 ( address _ERC20Address) public onlyOwner{\r... */\n    tag_7:\n      tag_44\n      0x04\n      dup1\n      calldatasize\n      sub\n      dup2\n      add\n      swap1\n      tag_45\n      swap2\n      swap1\n      tag_46\n      jump\t// in\n    tag_45:\n      tag_47\n      jump\t// in\n    tag_44:\n      stop\n        /* \"contracts/ERC20Stakeable.sol\":3001:3206  function WithdrawReward() public {\r... */\n    tag_8:\n      tag_48\n      tag_49\n      jump\t// in\n    tag_48:\n      stop\n        /* \"contracts/ERC20Stakeable.sol\":779:824  mapping (address => uint ) public OwnerTokens */\n    tag_9:\n      tag_50\n      0x04\n      dup1\n      calldatasize\n      sub\n      dup2\n      add\n      swap1\n      tag_51\n      swap2\n      swap1\n      tag_46\n      jump\t// in\n    tag_51:\n      tag_52\n      jump\t// in\n    tag_50:\n      mload(0x40)\n      tag_53\n      swap2\n      swap1\n      tag_37\n      jump\t// in\n    tag_53:\n      mload(0x40)\n      dup1\n      swap2\n      sub\n      swap1\n      return\n        /* \"contracts/ERC20Stakeable.sol\":2113:2385  function Deposit(uint256 _amount) public {\r... */\n    tag_10:\n      tag_54\n      0x04\n      dup1\n      calldatasize\n      sub\n      dup2\n      add\n      swap1\n      tag_55\n      swap2\n      swap1\n      tag_32\n      jump\t// in\n    tag_55:\n      tag_56\n      jump\t// in\n    tag_54:\n      stop\n        /* \"contracts/ERC20Stakeable.sol\":733:772  mapping (address => uint) public Reward */\n    tag_11:\n      tag_57\n      0x04\n      dup1\n      calldatasize\n      sub\n      dup2\n      add\n      swap1\n      tag_58\n      swap2\n      swap1\n      tag_46\n      jump\t// in\n    tag_58:\n      tag_59\n      jump\t// in\n    tag_57:\n      mload(0x40)\n      tag_60\n      swap2\n      swap1\n      tag_37\n      jump\t// in\n    tag_60:\n      mload(0x40)\n      dup1\n      swap2\n      sub\n      swap1\n      return\n        /* \"contracts/ERC20Stakeable.sol\":2391:2696  function Withdraw() public {\r... */\n    tag_12:\n      tag_61\n      tag_62\n      jump\t// in\n    tag_61:\n      stop\n        /* \"contracts/ERC20Stakeable.sol\":465:487  uint public rewardrate */\n    tag_13:\n      tag_63\n      tag_64\n      jump\t// in\n    tag_63:\n      mload(0x40)\n      tag_65\n      swap2\n      swap1\n      tag_37\n      jump\t// in\n    tag_65:\n      mload(0x40)\n      dup1\n      swap2\n      sub\n      swap1\n      return\n        /* \"@openzeppelin/contracts/access/Ownable.sol\":1831:1932  function renounceOwnership() public virtual onlyOwner {... */\n    tag_14:\n      tag_66\n      tag_67\n      jump\t// in\n    tag_66:\n      stop\n        /* \"contracts/ERC20Stakeable.sol\":1933:2107  function Utilization() public view onlyOwner returns(uint256) {\r... */\n    tag_15:\n      tag_68\n      tag_69\n      jump\t// in\n    tag_68:\n      mload(0x40)\n      tag_70\n      swap2\n      swap1\n      tag_37\n      jump\t// in\n    tag_70:\n      mload(0x40)\n      dup1\n      swap2\n      sub\n      swap1\n      return\n        /* \"@openzeppelin/contracts/access/Ownable.sol\":1201:1286  function owner() public view virtual returns (address) {... */\n    tag_16:\n      tag_71\n      tag_72\n      jump\t// in\n    tag_71:\n      mload(0x40)\n      tag_73\n      swap2\n      swap1\n      tag_41\n      jump\t// in\n    tag_73:\n      mload(0x40)\n      dup1\n      swap2\n      sub\n      swap1\n      return\n        /* \"contracts/ERC20Stakeable.sol\":431:458  address public ERC20Address */\n    tag_17:\n      tag_74\n      tag_75\n      jump\t// in\n    tag_74:\n      mload(0x40)\n      tag_76\n      swap2\n      swap1\n      tag_41\n      jump\t// in\n    tag_76:\n      mload(0x40)\n      dup1\n      swap2\n      sub\n      swap1\n      return\n        /* \"contracts/ERC20Stakeable.sol\":1718:1927  function AdminWithDrawToken(uint amount) public onlyOwner{\r... */\n    tag_18:\n      tag_77\n      0x04\n      dup1\n      calldatasize\n      sub\n      dup2\n      add\n      swap1\n      tag_78\n      swap2\n      swap1\n      tag_32\n      jump\t// in\n    tag_78:\n      tag_79\n      jump\t// in\n    tag_77:\n      stop\n        /* \"contracts/ERC20Stakeable.sol\":363:391  address public ERC721address */\n    tag_19:\n      tag_80\n      tag_81\n      jump\t// in\n    tag_80:\n      mload(0x40)\n      tag_82\n      swap2\n      swap1\n      tag_41\n      jump\t// in\n    tag_82:\n      mload(0x40)\n      dup1\n      swap2\n      sub\n      swap1\n      return\n        /* \"contracts/ERC20Stakeable.sol\":2702:2995  function calculateIntrest() public returns(uint256){\r... */\n    tag_20:\n      tag_83\n      tag_84\n      jump\t// in\n    tag_83:\n      mload(0x40)\n      tag_85\n      swap2\n      swap1\n      tag_37\n      jump\t// in\n    tag_85:\n      mload(0x40)\n      dup1\n      swap2\n      sub\n      swap1\n      return\n        /* \"contracts/ERC20Stakeable.sol\":495:521  uint public unstaketimeval */\n    tag_21:\n      tag_86\n      tag_87\n      jump\t// in\n    tag_86:\n      mload(0x40)\n      tag_88\n      swap2\n      swap1\n      tag_37\n      jump\t// in\n    tag_88:\n      mload(0x40)\n      dup1\n      swap2\n      sub\n      swap1\n      return\n        /* \"contracts/ERC20Stakeable.sol\":684:726  mapping (address => Staker) public Details */\n    tag_22:\n      tag_89\n      0x04\n      dup1\n      calldatasize\n      sub\n      dup2\n      add\n      swap1\n      tag_90\n      swap2\n      swap1\n      tag_46\n      jump\t// in\n    tag_90:\n      tag_91\n      jump\t// in\n    tag_89:\n      mload(0x40)\n      tag_92\n      swap4\n      swap3\n      swap2\n      swap1\n      tag_93\n      jump\t// in\n    tag_92:\n      mload(0x40)\n      dup1\n      swap2\n      sub\n      swap1\n      return\n        /* \"contracts/ERC20Stakeable.sol\":3564:3771  function depositNFT(uint256 tokenIds) public {\r... */\n    tag_23:\n      tag_94\n      0x04\n      dup1\n      calldatasize\n      sub\n      dup2\n      add\n      swap1\n      tag_95\n      swap2\n      swap1\n      tag_32\n      jump\t// in\n    tag_95:\n      tag_96\n      jump\t// in\n    tag_94:\n      stop\n        /* \"contracts/ERC20Stakeable.sol\":3212:3323  function UpdateERC721(address _ERC721address) public onlyOwner{\r... */\n    tag_24:\n      tag_97\n      0x04\n      dup1\n      calldatasize\n      sub\n      dup2\n      add\n      swap1\n      tag_98\n      swap2\n      swap1\n      tag_46\n      jump\t// in\n    tag_98:\n      tag_99\n      jump\t// in\n    tag_97:\n      stop\n        /* \"@openzeppelin/contracts/access/Ownable.sol\":2081:2279  function transferOwnership(address newOwner) public virtual onlyOwner {... */\n    tag_25:\n      tag_100\n      0x04\n      dup1\n      calldatasize\n      sub\n      dup2\n      add\n      swap1\n      tag_101\n      swap2\n      swap1\n      tag_46\n      jump\t// in\n    tag_101:\n      tag_102\n      jump\t// in\n    tag_100:\n      stop\n        /* \"contracts/ERC20Stakeable.sol\":3446:3558  function UpdateRatePersentage(uint256 _ratePersentage) public onlyOwner{\r... */\n    tag_26:\n      tag_103\n      0x04\n      dup1\n      calldatasize\n      sub\n      dup2\n      add\n      swap1\n      tag_104\n      swap2\n      swap1\n      tag_32\n      jump\t// in\n    tag_104:\n      tag_105\n      jump\t// in\n    tag_103:\n      stop\n        /* \"contracts/ERC20Stakeable.sol\":3779:3922  function withdrawNFT(uint256 tokenIds) public {\r... */\n    tag_33:\n        /* \"contracts/ERC20Stakeable.sol\":3844:3857  ERC721address */\n      0x01\n      0x00\n      swap1\n      sload\n      swap1\n      0x0100\n      exp\n      swap1\n      div\n      0xffffffffffffffffffffffffffffffffffffffff\n      and\n        /* \"contracts/ERC20Stakeable.sol\":3836:3875  IERC721(ERC721address).safeTransferFrom */\n      0xffffffffffffffffffffffffffffffffffffffff\n      and\n      0xb88d4fde\n        /* \"contracts/ERC20Stakeable.sol\":3884:3888  this */\n      address\n        /* \"contracts/ERC20Stakeable.sol\":3891:3901  msg.sender */\n      caller\n        /* \"contracts/ERC20Stakeable.sol\":3902:3910  tokenIds */\n      dup5\n        /* \"contracts/ERC20Stakeable.sol\":3836:3914  IERC721(ERC721address).safeTransferFrom(address(this), msg.sender,tokenIds,\"\") */\n      mload(0x40)\n      dup5\n      0xffffffff\n      and\n      0xe0\n      shl\n      dup2\n      mstore\n      0x04\n      add\n      tag_107\n      swap4\n      swap3\n      swap2\n      swap1\n      tag_108\n      jump\t// in\n    tag_107:\n      0x00\n      mload(0x40)\n      dup1\n      dup4\n      sub\n      dup2\n      0x00\n      dup8\n      dup1\n      extcodesize\n      iszero\n      dup1\n      iszero\n      tag_109\n      jumpi\n      0x00\n      dup1\n      revert\n    tag_109:\n      pop\n      gas\n      call\n      iszero\n      dup1\n      iszero\n      tag_111\n      jumpi\n      returndatasize\n      0x00\n      dup1\n      returndatacopy\n      revert(0x00, returndatasize)\n    tag_111:\n      pop\n      pop\n      pop\n      pop\n        /* \"contracts/ERC20Stakeable.sol\":3779:3922  function withdrawNFT(uint256 tokenIds) public {\r... */\n      pop\n      jump\t// out\n        /* \"contracts/ERC20Stakeable.sol\":528:555  uint public totalOwnerToken */\n    tag_35:\n      sload(0x06)\n      dup2\n      jump\t// out\n        /* \"contracts/ERC20Stakeable.sol\":398:424  address public owenerERC20 */\n    tag_39:\n      0x02\n      0x00\n      swap1\n      sload\n      swap1\n      0x0100\n      exp\n      swap1\n      div\n      0xffffffffffffffffffffffffffffffffffffffff\n      and\n      dup2\n      jump\t// out\n        /* \"contracts/ERC20Stakeable.sol\":1435:1712  function AdminAddToken() public onlyOwner{\r... */\n    tag_43:\n        /* \"@openzeppelin/contracts/access/Ownable.sol\":1094:1107  _checkOwner() */\n      tag_113\n        /* \"@openzeppelin/contracts/access/Ownable.sol\":1094:1105  _checkOwner */\n      tag_114\n        /* \"@openzeppelin/contracts/access/Ownable.sol\":1094:1107  _checkOwner() */\n      jump\t// in\n    tag_113:\n        /* \"contracts/ERC20Stakeable.sol\":1507:1518  owenerERC20 */\n      0x02\n      0x00\n      swap1\n      sload\n      swap1\n      0x0100\n      exp\n      swap1\n      div\n      0xffffffffffffffffffffffffffffffffffffffff\n      and\n        /* \"contracts/ERC20Stakeable.sol\":1495:1518  msg.sender==owenerERC20 */\n      0xffffffffffffffffffffffffffffffffffffffff\n      and\n        /* \"contracts/ERC20Stakeable.sol\":1495:1505  msg.sender */\n      caller\n        /* \"contracts/ERC20Stakeable.sol\":1495:1518  msg.sender==owenerERC20 */\n      0xffffffffffffffffffffffffffffffffffffffff\n      and\n      eq\n        /* \"contracts/ERC20Stakeable.sol\":1487:1545  require(msg.sender==owenerERC20,\"Only Owner can transfer\") */\n      tag_116\n      jumpi\n      mload(0x40)\n      0x08c379a000000000000000000000000000000000000000000000000000000000\n      dup2\n      mstore\n      0x04\n      add\n      tag_117\n      swap1\n      tag_118\n      jump\t// in\n    tag_117:\n      mload(0x40)\n      dup1\n      swap2\n      sub\n      swap1\n      revert\n    tag_116:\n        /* \"contracts/ERC20Stakeable.sol\":1583:1588  10000 */\n      0x2710\n        /* \"contracts/ERC20Stakeable.sol\":1556:1567  OwnerTokens */\n      0x0a\n        /* \"contracts/ERC20Stakeable.sol\":1556:1579  OwnerTokens[msg.sender] */\n      0x00\n        /* \"contracts/ERC20Stakeable.sol\":1568:1578  msg.sender */\n      caller\n        /* \"contracts/ERC20Stakeable.sol\":1556:1579  OwnerTokens[msg.sender] */\n      0xffffffffffffffffffffffffffffffffffffffff\n      and\n      0xffffffffffffffffffffffffffffffffffffffff\n      and\n      dup2\n      mstore\n      0x20\n      add\n      swap1\n      dup2\n      mstore\n      0x20\n      add\n      0x00\n      keccak256\n      0x00\n        /* \"contracts/ERC20Stakeable.sol\":1556:1588  OwnerTokens[msg.sender] += 10000 */\n      dup3\n      dup3\n      sload\n      tag_119\n      swap2\n      swap1\n      tag_120\n      jump\t// in\n    tag_119:\n      swap3\n      pop\n      pop\n      dup2\n      swap1\n      sstore\n      pop\n        /* \"contracts/ERC20Stakeable.sol\":1618:1623  10000 */\n      0x2710\n        /* \"contracts/ERC20Stakeable.sol\":1599:1614  totalOwnerToken */\n      0x06\n      0x00\n        /* \"contracts/ERC20Stakeable.sol\":1599:1623  totalOwnerToken += 10000 */\n      dup3\n      dup3\n      sload\n      tag_121\n      swap2\n      swap1\n      tag_120\n      jump\t// in\n    tag_121:\n      swap3\n      pop\n      pop\n      dup2\n      swap1\n      sstore\n      pop\n        /* \"contracts/ERC20Stakeable.sol\":1634:1704  IERC20(ERC20Address).safeTransferFrom(msg.sender, ERC20Address ,10000) */\n      tag_122\n        /* \"contracts/ERC20Stakeable.sol\":1672:1682  msg.sender */\n      caller\n        /* \"contracts/ERC20Stakeable.sol\":1684:1696  ERC20Address */\n      0x03\n      0x00\n      swap1\n      sload\n      swap1\n      0x0100\n      exp\n      swap1\n      div\n      0xffffffffffffffffffffffffffffffffffffffff\n      and\n        /* \"contracts/ERC20Stakeable.sol\":1698:1703  10000 */\n      0x2710\n        /* \"contracts/ERC20Stakeable.sol\":1641:1653  ERC20Address */\n      0x03\n      0x00\n      swap1\n      sload\n      swap1\n      0x0100\n      exp\n      swap1\n      div\n      0xffffffffffffffffffffffffffffffffffffffff\n      and\n        /* \"contracts/ERC20Stakeable.sol\":1634:1671  IERC20(ERC20Address).safeTransferFrom */\n      0xffffffffffffffffffffffffffffffffffffffff\n      and\n      tag_123\n      swap1\n        /* \"contracts/ERC20Stakeable.sol\":1634:1704  IERC20(ERC20Address).safeTransferFrom(msg.sender, ERC20Address ,10000) */\n      swap4\n      swap3\n      swap2\n      swap1\n      0xffffffff\n      and\n      jump\t// in\n    tag_122:\n        /* \"contracts/ERC20Stakeable.sol\":1435:1712  function AdminAddToken() public onlyOwner{\r... */\n      jump\t// out\n        /* \"contracts/ERC20Stakeable.sol\":3331:3440  function UpdateERC20 ( address _ERC20Address) public onlyOwner{\r... */\n    tag_47:\n        /* \"@openzeppelin/contracts/access/Ownable.sol\":1094:1107  _checkOwner() */\n      tag_125\n        /* \"@openzeppelin/contracts/access/Ownable.sol\":1094:1105  _checkOwner */\n      tag_114\n        /* \"@openzeppelin/contracts/access/Ownable.sol\":1094:1107  _checkOwner() */\n      jump\t// in\n    tag_125:\n        /* \"contracts/ERC20Stakeable.sol\":3419:3432  _ERC20Address */\n      dup1\n        /* \"contracts/ERC20Stakeable.sol\":3404:3416  ERC20Address */\n      0x03\n      0x00\n        /* \"contracts/ERC20Stakeable.sol\":3404:3432  ERC20Address = _ERC20Address */\n      0x0100\n      exp\n      dup2\n      sload\n      dup2\n      0xffffffffffffffffffffffffffffffffffffffff\n      mul\n      not\n      and\n      swap1\n      dup4\n      0xffffffffffffffffffffffffffffffffffffffff\n      and\n      mul\n      or\n      swap1\n      sstore\n      pop\n        /* \"contracts/ERC20Stakeable.sol\":3331:3440  function UpdateERC20 ( address _ERC20Address) public onlyOwner{\r... */\n      pop\n      jump\t// out\n        /* \"contracts/ERC20Stakeable.sol\":3001:3206  function WithdrawReward() public {\r... */\n    tag_49:\n        /* \"contracts/ERC20Stakeable.sol\":3052:3064  ERC20Address */\n      0x03\n      0x00\n      swap1\n      sload\n      swap1\n      0x0100\n      exp\n      swap1\n      div\n      0xffffffffffffffffffffffffffffffffffffffff\n      and\n        /* \"contracts/ERC20Stakeable.sol\":3045:3074  IERC20(ERC20Address).transfer */\n      0xffffffffffffffffffffffffffffffffffffffff\n      and\n      0xa9059cbb\n        /* \"contracts/ERC20Stakeable.sol\":3075:3085  msg.sender */\n      caller\n        /* \"contracts/ERC20Stakeable.sol\":3087:3093  Reward */\n      0x09\n        /* \"contracts/ERC20Stakeable.sol\":3087:3105  Reward[msg.sender] */\n      0x00\n        /* \"contracts/ERC20Stakeable.sol\":3094:3104  msg.sender */\n      caller\n        /* \"contracts/ERC20Stakeable.sol\":3087:3105  Reward[msg.sender] */\n      0xffffffffffffffffffffffffffffffffffffffff\n      and\n      0xffffffffffffffffffffffffffffffffffffffff\n      and\n      dup2\n      mstore\n      0x20\n      add\n      swap1\n      dup2\n      mstore\n      0x20\n      add\n      0x00\n      keccak256\n      sload\n        /* \"contracts/ERC20Stakeable.sol\":3045:3106  IERC20(ERC20Address).transfer(msg.sender, Reward[msg.sender]) */\n      mload(0x40)\n      dup4\n      0xffffffff\n      and\n      0xe0\n      shl\n      dup2\n      mstore\n      0x04\n      add\n      tag_128\n      swap3\n      swap2\n      swap1\n      tag_129\n      jump\t// in\n    tag_128:\n      0x20\n      mload(0x40)\n      dup1\n      dup4\n      sub\n      dup2\n      0x00\n      dup8\n      dup1\n      extcodesize\n      iszero\n      dup1\n      iszero\n      tag_130\n      jumpi\n      0x00\n      dup1\n      revert\n    tag_130:\n      pop\n      gas\n      call\n      iszero\n      dup1\n      iszero\n      tag_132\n      jumpi\n      returndatasize\n      0x00\n      dup1\n      returndatacopy\n      revert(0x00, returndatasize)\n    tag_132:\n      pop\n      pop\n      pop\n      pop\n      mload(0x40)\n      returndatasize\n      not(0x1f)\n      0x1f\n      dup3\n      add\n      and\n      dup3\n      add\n      dup1\n      0x40\n      mstore\n      pop\n      dup2\n      add\n      swap1\n      tag_133\n      swap2\n      swap1\n      tag_134\n      jump\t// in\n    tag_133:\n      pop\n        /* \"contracts/ERC20Stakeable.sol\":3144:3150  Reward */\n      0x09\n        /* \"contracts/ERC20Stakeable.sol\":3144:3162  Reward[msg.sender] */\n      0x00\n        /* \"contracts/ERC20Stakeable.sol\":3151:3161  msg.sender */\n      caller\n        /* \"contracts/ERC20Stakeable.sol\":3144:3162  Reward[msg.sender] */\n      0xffffffffffffffffffffffffffffffffffffffff\n      and\n      0xffffffffffffffffffffffffffffffffffffffff\n      and\n      dup2\n      mstore\n      0x20\n      add\n      swap1\n      dup2\n      mstore\n      0x20\n      add\n      0x00\n      keccak256\n      sload\n        /* \"contracts/ERC20Stakeable.sol\":3117:3128  OwnerTokens */\n      0x0a\n        /* \"contracts/ERC20Stakeable.sol\":3117:3140  OwnerTokens[msg.sender] */\n      0x00\n        /* \"contracts/ERC20Stakeable.sol\":3129:3139  msg.sender */\n      caller\n        /* \"contracts/ERC20Stakeable.sol\":3117:3140  OwnerTokens[msg.sender] */\n      0xffffffffffffffffffffffffffffffffffffffff\n      and\n      0xffffffffffffffffffffffffffffffffffffffff\n      and\n      dup2\n      mstore\n      0x20\n      add\n      swap1\n      dup2\n      mstore\n      0x20\n      add\n      0x00\n      keccak256\n      0x00\n        /* \"contracts/ERC20Stakeable.sol\":3117:3162  OwnerTokens[msg.sender] -= Reward[msg.sender] */\n      dup3\n      dup3\n      sload\n      tag_135\n      swap2\n      swap1\n      tag_136\n      jump\t// in\n    tag_135:\n      swap3\n      pop\n      pop\n      dup2\n      swap1\n      sstore\n      pop\n        /* \"contracts/ERC20Stakeable.sol\":3180:3186  Reward */\n      0x09\n        /* \"contracts/ERC20Stakeable.sol\":3180:3198  Reward[msg.sender] */\n      0x00\n        /* \"contracts/ERC20Stakeable.sol\":3187:3197  msg.sender */\n      caller\n        /* \"contracts/ERC20Stakeable.sol\":3180:3198  Reward[msg.sender] */\n      0xffffffffffffffffffffffffffffffffffffffff\n      and\n      0xffffffffffffffffffffffffffffffffffffffff\n      and\n      dup2\n      mstore\n      0x20\n      add\n      swap1\n      dup2\n      mstore\n      0x20\n      add\n      0x00\n      keccak256\n        /* \"contracts/ERC20Stakeable.sol\":3173:3198  delete Reward[msg.sender] */\n      0x00\n      swap1\n      sstore\n        /* \"contracts/ERC20Stakeable.sol\":3001:3206  function WithdrawReward() public {\r... */\n      jump\t// out\n        /* \"contracts/ERC20Stakeable.sol\":779:824  mapping (address => uint ) public OwnerTokens */\n    tag_52:\n      mstore(0x20, 0x0a)\n      dup1\n      0x00\n      mstore\n      keccak256(0x00, 0x40)\n      0x00\n      swap2\n      pop\n      swap1\n      pop\n      sload\n      dup2\n      jump\t// out\n        /* \"contracts/ERC20Stakeable.sol\":2113:2385  function Deposit(uint256 _amount) public {\r... */\n    tag_56:\n        /* \"contracts/ERC20Stakeable.sol\":2174:2181  Details */\n      0x08\n        /* \"contracts/ERC20Stakeable.sol\":2174:2193  Details[msg.sender] */\n      0x00\n        /* \"contracts/ERC20Stakeable.sol\":2182:2192  msg.sender */\n      caller\n        /* \"contracts/ERC20Stakeable.sol\":2174:2193  Details[msg.sender] */\n      0xffffffffffffffffffffffffffffffffffffffff\n      and\n      0xffffffffffffffffffffffffffffffffffffffff\n      and\n      dup2\n      mstore\n      0x20\n      add\n      swap1\n      dup2\n      mstore\n      0x20\n      add\n      0x00\n      keccak256\n        /* \"contracts/ERC20Stakeable.sol\":2174:2199  Details[msg.sender].check */\n      0x02\n      add\n      0x00\n      swap1\n      sload\n      swap1\n      0x0100\n      exp\n      swap1\n      div\n      0xff\n      and\n        /* \"contracts/ERC20Stakeable.sol\":2173:2199  !Details[msg.sender].check */\n      iszero\n        /* \"contracts/ERC20Stakeable.sol\":2165:2224  require(!Details[msg.sender].check,\"Please First WithDraw\") */\n      tag_138\n      jumpi\n      mload(0x40)\n      0x08c379a000000000000000000000000000000000000000000000000000000000\n      dup2\n      mstore\n      0x04\n      add\n      tag_139\n      swap1\n      tag_140\n      jump\t// in\n    tag_139:\n      mload(0x40)\n      dup1\n      swap2\n      sub\n      swap1\n      revert\n    tag_138:\n        /* \"contracts/ERC20Stakeable.sol\":2257:2293  Staker(_amount,block.timestamp,true) */\n      mload(0x40)\n      dup1\n      0x60\n      add\n      0x40\n      mstore\n      dup1\n        /* \"contracts/ERC20Stakeable.sol\":2264:2271  _amount */\n      dup3\n        /* \"contracts/ERC20Stakeable.sol\":2257:2293  Staker(_amount,block.timestamp,true) */\n      dup2\n      mstore\n      0x20\n      add\n        /* \"contracts/ERC20Stakeable.sol\":2272:2287  block.timestamp */\n      timestamp\n        /* \"contracts/ERC20Stakeable.sol\":2257:2293  Staker(_amount,block.timestamp,true) */\n      dup2\n      mstore\n      0x20\n      add\n        /* \"contracts/ERC20Stakeable.sol\":2288:2292  true */\n      0x01\n        /* \"contracts/ERC20Stakeable.sol\":2257:2293  Staker(_amount,block.timestamp,true) */\n      iszero\n      iszero\n      dup2\n      mstore\n      pop\n        /* \"contracts/ERC20Stakeable.sol\":2235:2242  Details */\n      0x08\n        /* \"contracts/ERC20Stakeable.sol\":2235:2254  Details[msg.sender] */\n      0x00\n        /* \"contracts/ERC20Stakeable.sol\":2243:2253  msg.sender */\n      caller\n        /* \"contracts/ERC20Stakeable.sol\":2235:2254  Details[msg.sender] */\n      0xffffffffffffffffffffffffffffffffffffffff\n      and\n      0xffffffffffffffffffffffffffffffffffffffff\n      and\n      dup2\n      mstore\n      0x20\n      add\n      swap1\n      dup2\n      mstore\n      0x20\n      add\n      0x00\n      keccak256\n        /* \"contracts/ERC20Stakeable.sol\":2235:2293  Details[msg.sender] = Staker(_amount,block.timestamp,true) */\n      0x00\n      dup3\n      add\n      mload\n      dup2\n      0x00\n      add\n      sstore\n      0x20\n      dup3\n      add\n      mload\n      dup2\n      0x01\n      add\n      sstore\n      0x40\n      dup3\n      add\n      mload\n      dup2\n      0x02\n      add\n      exp(0x0100, 0x00)\n      dup2\n      sload\n      dup2\n      0xff\n      mul\n      not\n      and\n      swap1\n      dup4\n      iszero\n      iszero\n      mul\n      or\n      swap1\n      sstore\n      pop\n      swap1\n      pop\n      pop\n        /* \"contracts/ERC20Stakeable.sol\":2304:2377  IERC20(ERC20Address).safeTransferFrom(msg.sender, ERC20Address , _amount) */\n      tag_141\n        /* \"contracts/ERC20Stakeable.sol\":2342:2352  msg.sender */\n      caller\n        /* \"contracts/ERC20Stakeable.sol\":2354:2366  ERC20Address */\n      0x03\n      0x00\n      swap1\n      sload\n      swap1\n      0x0100\n      exp\n      swap1\n      div\n      0xffffffffffffffffffffffffffffffffffffffff\n      and\n        /* \"contracts/ERC20Stakeable.sol\":2369:2376  _amount */\n      dup4\n        /* \"contracts/ERC20Stakeable.sol\":2311:2323  ERC20Address */\n      0x03\n      0x00\n      swap1\n      sload\n      swap1\n      0x0100\n      exp\n      swap1\n      div\n      0xffffffffffffffffffffffffffffffffffffffff\n      and\n        /* \"contracts/ERC20Stakeable.sol\":2304:2341  IERC20(ERC20Address).safeTransferFrom */\n      0xffffffffffffffffffffffffffffffffffffffff\n      and\n      tag_123\n      swap1\n        /* \"contracts/ERC20Stakeable.sol\":2304:2377  IERC20(ERC20Address).safeTransferFrom(msg.sender, ERC20Address , _amount) */\n      swap4\n      swap3\n      swap2\n      swap1\n      0xffffffff\n      and\n      jump\t// in\n    tag_141:\n        /* \"contracts/ERC20Stakeable.sol\":2113:2385  function Deposit(uint256 _amount) public {\r... */\n      pop\n      jump\t// out\n        /* \"contracts/ERC20Stakeable.sol\":733:772  mapping (address => uint) public Reward */\n    tag_59:\n      mstore(0x20, 0x09)\n      dup1\n      0x00\n      mstore\n      keccak256(0x00, 0x40)\n      0x00\n      swap2\n      pop\n      swap1\n      pop\n      sload\n      dup2\n      jump\t// out\n        /* \"contracts/ERC20Stakeable.sol\":2391:2696  function Withdraw() public {\r... */\n    tag_62:\n        /* \"contracts/ERC20Stakeable.sol\":2437:2444  Details */\n      0x08\n        /* \"contracts/ERC20Stakeable.sol\":2437:2456  Details[msg.sender] */\n      0x00\n        /* \"contracts/ERC20Stakeable.sol\":2445:2455  msg.sender */\n      caller\n        /* \"contracts/ERC20Stakeable.sol\":2437:2456  Details[msg.sender] */\n      0xffffffffffffffffffffffffffffffffffffffff\n      and\n      0xffffffffffffffffffffffffffffffffffffffff\n      and\n      dup2\n      mstore\n      0x20\n      add\n      swap1\n      dup2\n      mstore\n      0x20\n      add\n      0x00\n      keccak256\n        /* \"contracts/ERC20Stakeable.sol\":2437:2462  Details[msg.sender].check */\n      0x02\n      add\n      0x00\n      swap1\n      sload\n      swap1\n      0x0100\n      exp\n      swap1\n      div\n      0xff\n      and\n        /* \"contracts/ERC20Stakeable.sol\":2429:2484  require(Details[msg.sender].check,\"Please First Stake\") */\n      tag_143\n      jumpi\n      mload(0x40)\n      0x08c379a000000000000000000000000000000000000000000000000000000000\n      dup2\n      mstore\n      0x04\n      add\n      tag_144\n      swap1\n      tag_145\n      jump\t// in\n    tag_144:\n      mload(0x40)\n      dup1\n      swap2\n      sub\n      swap1\n      revert\n    tag_143:\n        /* \"contracts/ERC20Stakeable.sol\":2495:2506  uint amount */\n      0x00\n        /* \"contracts/ERC20Stakeable.sol\":2509:2516  Details */\n      0x08\n        /* \"contracts/ERC20Stakeable.sol\":2509:2528  Details[msg.sender] */\n      0x00\n        /* \"contracts/ERC20Stakeable.sol\":2517:2527  msg.sender */\n      caller\n        /* \"contracts/ERC20Stakeable.sol\":2509:2528  Details[msg.sender] */\n      0xffffffffffffffffffffffffffffffffffffffff\n      and\n      0xffffffffffffffffffffffffffffffffffffffff\n      and\n      dup2\n      mstore\n      0x20\n      add\n      swap1\n      dup2\n      mstore\n      0x20\n      add\n      0x00\n      keccak256\n        /* \"contracts/ERC20Stakeable.sol\":2509:2538  Details[msg.sender].deposited */\n      0x00\n      add\n      sload\n        /* \"contracts/ERC20Stakeable.sol\":2495:2538  uint amount = Details[msg.sender].deposited */\n      swap1\n      pop\n        /* \"contracts/ERC20Stakeable.sol\":2571:2589  calculateIntrest() */\n      tag_146\n        /* \"contracts/ERC20Stakeable.sol\":2571:2587  calculateIntrest */\n      tag_84\n        /* \"contracts/ERC20Stakeable.sol\":2571:2589  calculateIntrest() */\n      jump\t// in\n    tag_146:\n        /* \"contracts/ERC20Stakeable.sol\":2549:2555  Reward */\n      0x09\n        /* \"contracts/ERC20Stakeable.sol\":2549:2567  Reward[msg.sender] */\n      0x00\n        /* \"contracts/ERC20Stakeable.sol\":2556:2566  msg.sender */\n      caller\n        /* \"contracts/ERC20Stakeable.sol\":2549:2567  Reward[msg.sender] */\n      0xffffffffffffffffffffffffffffffffffffffff\n      and\n      0xffffffffffffffffffffffffffffffffffffffff\n      and\n      dup2\n      mstore\n      0x20\n      add\n      swap1\n      dup2\n      mstore\n      0x20\n      add\n      0x00\n      keccak256\n      0x00\n        /* \"contracts/ERC20Stakeable.sol\":2549:2589  Reward[msg.sender] += calculateIntrest() */\n      dup3\n      dup3\n      sload\n      tag_147\n      swap2\n      swap1\n      tag_120\n      jump\t// in\n    tag_147:\n      swap3\n      pop\n      pop\n      dup2\n      swap1\n      sstore\n      pop\n        /* \"contracts/ERC20Stakeable.sol\":2607:2619  ERC20Address */\n      0x03\n      0x00\n      swap1\n      sload\n      swap1\n      0x0100\n      exp\n      swap1\n      div\n      0xffffffffffffffffffffffffffffffffffffffff\n      and\n        /* \"contracts/ERC20Stakeable.sol\":2600:2629  IERC20(ERC20Address).transfer */\n      0xffffffffffffffffffffffffffffffffffffffff\n      and\n      0xa9059cbb\n        /* \"contracts/ERC20Stakeable.sol\":2630:2640  msg.sender */\n      caller\n        /* \"contracts/ERC20Stakeable.sol\":2642:2648  amount */\n      dup4\n        /* \"contracts/ERC20Stakeable.sol\":2600:2649  IERC20(ERC20Address).transfer(msg.sender, amount) */\n      mload(0x40)\n      dup4\n      0xffffffff\n      and\n      0xe0\n      shl\n      dup2\n      mstore\n      0x04\n      add\n      tag_148\n      swap3\n      swap2\n      swap1\n      tag_129\n      jump\t// in\n    tag_148:\n      0x20\n      mload(0x40)\n      dup1\n      dup4\n      sub\n      dup2\n      0x00\n      dup8\n      dup1\n      extcodesize\n      iszero\n      dup1\n      iszero\n      tag_149\n      jumpi\n      0x00\n      dup1\n      revert\n    tag_149:\n      pop\n      gas\n      call\n      iszero\n      dup1\n      iszero\n      tag_151\n      jumpi\n      returndatasize\n      0x00\n      dup1\n      returndatacopy\n      revert(0x00, returndatasize)\n    tag_151:\n      pop\n      pop\n      pop\n      pop\n      mload(0x40)\n      returndatasize\n      not(0x1f)\n      0x1f\n      dup3\n      add\n      and\n      dup3\n      add\n      dup1\n      0x40\n      mstore\n      pop\n      dup2\n      add\n      swap1\n      tag_152\n      swap2\n      swap1\n      tag_134\n      jump\t// in\n    tag_152:\n      pop\n        /* \"contracts/ERC20Stakeable.sol\":2667:2674  Details */\n      0x08\n        /* \"contracts/ERC20Stakeable.sol\":2667:2686  Details[msg.sender] */\n      0x00\n        /* \"contracts/ERC20Stakeable.sol\":2675:2685  msg.sender */\n      caller\n        /* \"contracts/ERC20Stakeable.sol\":2667:2686  Details[msg.sender] */\n      0xffffffffffffffffffffffffffffffffffffffff\n      and\n      0xffffffffffffffffffffffffffffffffffffffff\n      and\n      dup2\n      mstore\n      0x20\n      add\n      swap1\n      dup2\n      mstore\n      0x20\n      add\n      0x00\n      keccak256\n      0x00\n        /* \"contracts/ERC20Stakeable.sol\":2660:2686  delete Details[msg.sender] */\n      dup1\n      dup3\n      add\n      0x00\n      swap1\n      sstore\n      0x01\n      dup3\n      add\n      0x00\n      swap1\n      sstore\n      0x02\n      dup3\n      add\n      exp(0x0100, 0x00)\n      dup2\n      sload\n      swap1\n      0xff\n      mul\n      not\n      and\n      swap1\n      sstore\n      pop\n      pop\n        /* \"contracts/ERC20Stakeable.sol\":2418:2696  {\r... */\n      pop\n        /* \"contracts/ERC20Stakeable.sol\":2391:2696  function Withdraw() public {\r... */\n      jump\t// out\n        /* \"contracts/ERC20Stakeable.sol\":465:487  uint public rewardrate */\n    tag_64:\n      sload(0x04)\n      dup2\n      jump\t// out\n        /* \"@openzeppelin/contracts/access/Ownable.sol\":1831:1932  function renounceOwnership() public virtual onlyOwner {... */\n    tag_67:\n        /* \"@openzeppelin/contracts/access/Ownable.sol\":1094:1107  _checkOwner() */\n      tag_154\n        /* \"@openzeppelin/contracts/access/Ownable.sol\":1094:1105  _checkOwner */\n      tag_114\n        /* \"@openzeppelin/contracts/access/Ownable.sol\":1094:1107  _checkOwner() */\n      jump\t// in\n    tag_154:\n        /* \"@openzeppelin/contracts/access/Ownable.sol\":1895:1925  _transferOwnership(address(0)) */\n      tag_156\n        /* \"@openzeppelin/contracts/access/Ownable.sol\":1922:1923  0 */\n      0x00\n        /* \"@openzeppelin/contracts/access/Ownable.sol\":1895:1913  _transferOwnership */\n      tag_157\n        /* \"@openzeppelin/contracts/access/Ownable.sol\":1895:1925  _transferOwnership(address(0)) */\n      jump\t// in\n    tag_156:\n        /* \"@openzeppelin/contracts/access/Ownable.sol\":1831:1932  function renounceOwnership() public virtual onlyOwner {... */\n      jump\t// out\n        /* \"contracts/ERC20Stakeable.sol\":1933:2107  function Utilization() public view onlyOwner returns(uint256) {\r... */\n    tag_69:\n        /* \"contracts/ERC20Stakeable.sol\":1986:1993  uint256 */\n      0x00\n        /* \"@openzeppelin/contracts/access/Ownable.sol\":1094:1107  _checkOwner() */\n      tag_159\n        /* \"@openzeppelin/contracts/access/Ownable.sol\":1094:1105  _checkOwner */\n      tag_114\n        /* \"@openzeppelin/contracts/access/Ownable.sol\":1094:1107  _checkOwner() */\n      jump\t// in\n    tag_159:\n        /* \"contracts/ERC20Stakeable.sol\":2006:2021  uint Persentage */\n      0x00\n        /* \"contracts/ERC20Stakeable.sol\":2056:2071  totalOwnerToken */\n      sload(0x06)\n        /* \"contracts/ERC20Stakeable.sol\":2051:2054  100 */\n      0x64\n        /* \"contracts/ERC20Stakeable.sol\":2025:2036  OwnerTokens */\n      0x0a\n        /* \"contracts/ERC20Stakeable.sol\":2025:2048  OwnerTokens[msg.sender] */\n      0x00\n        /* \"contracts/ERC20Stakeable.sol\":2037:2047  msg.sender */\n      caller\n        /* \"contracts/ERC20Stakeable.sol\":2025:2048  OwnerTokens[msg.sender] */\n      0xffffffffffffffffffffffffffffffffffffffff\n      and\n      0xffffffffffffffffffffffffffffffffffffffff\n      and\n      dup2\n      mstore\n      0x20\n      add\n      swap1\n      dup2\n      mstore\n      0x20\n      add\n      0x00\n      keccak256\n      sload\n        /* \"contracts/ERC20Stakeable.sol\":2025:2054  OwnerTokens[msg.sender] * 100 */\n      tag_161\n      swap2\n      swap1\n      tag_162\n      jump\t// in\n    tag_161:\n        /* \"contracts/ERC20Stakeable.sol\":2024:2071  (OwnerTokens[msg.sender] * 100)/totalOwnerToken */\n      tag_163\n      swap2\n      swap1\n      tag_164\n      jump\t// in\n    tag_163:\n        /* \"contracts/ERC20Stakeable.sol\":2006:2071  uint Persentage = (OwnerTokens[msg.sender] * 100)/totalOwnerToken */\n      swap1\n      pop\n        /* \"contracts/ERC20Stakeable.sol\":2089:2099  Persentage */\n      dup1\n        /* \"contracts/ERC20Stakeable.sol\":2082:2099  return Persentage */\n      swap2\n      pop\n      pop\n        /* \"contracts/ERC20Stakeable.sol\":1933:2107  function Utilization() public view onlyOwner returns(uint256) {\r... */\n      swap1\n      jump\t// out\n        /* \"@openzeppelin/contracts/access/Ownable.sol\":1201:1286  function owner() public view virtual returns (address) {... */\n    tag_72:\n        /* \"@openzeppelin/contracts/access/Ownable.sol\":1247:1254  address */\n      0x00\n        /* \"@openzeppelin/contracts/access/Ownable.sol\":1273:1279  _owner */\n      dup1\n      0x00\n      swap1\n      sload\n      swap1\n      0x0100\n      exp\n      swap1\n      div\n      0xffffffffffffffffffffffffffffffffffffffff\n      and\n        /* \"@openzeppelin/contracts/access/Ownable.sol\":1266:1279  return _owner */\n      swap1\n      pop\n        /* \"@openzeppelin/contracts/access/Ownable.sol\":1201:1286  function owner() public view virtual returns (address) {... */\n      swap1\n      jump\t// out\n        /* \"contracts/ERC20Stakeable.sol\":431:458  address public ERC20Address */\n    tag_75:\n      0x03\n      0x00\n      swap1\n      sload\n      swap1\n      0x0100\n      exp\n      swap1\n      div\n      0xffffffffffffffffffffffffffffffffffffffff\n      and\n      dup2\n      jump\t// out\n        /* \"contracts/ERC20Stakeable.sol\":1718:1927  function AdminWithDrawToken(uint amount) public onlyOwner{\r... */\n    tag_79:\n        /* \"@openzeppelin/contracts/access/Ownable.sol\":1094:1107  _checkOwner() */\n      tag_167\n        /* \"@openzeppelin/contracts/access/Ownable.sol\":1094:1105  _checkOwner */\n      tag_114\n        /* \"@openzeppelin/contracts/access/Ownable.sol\":1094:1107  _checkOwner() */\n      jump\t// in\n    tag_167:\n        /* \"contracts/ERC20Stakeable.sol\":1813:1819  amount */\n      dup1\n        /* \"contracts/ERC20Stakeable.sol\":1786:1797  OwnerTokens */\n      0x0a\n        /* \"contracts/ERC20Stakeable.sol\":1786:1809  OwnerTokens[msg.sender] */\n      0x00\n        /* \"contracts/ERC20Stakeable.sol\":1798:1808  msg.sender */\n      caller\n        /* \"contracts/ERC20Stakeable.sol\":1786:1809  OwnerTokens[msg.sender] */\n      0xffffffffffffffffffffffffffffffffffffffff\n      and\n      0xffffffffffffffffffffffffffffffffffffffff\n      and\n      dup2\n      mstore\n      0x20\n      add\n      swap1\n      dup2\n      mstore\n      0x20\n      add\n      0x00\n      keccak256\n      0x00\n        /* \"contracts/ERC20Stakeable.sol\":1786:1819  OwnerTokens[msg.sender] -= amount */\n      dup3\n      dup3\n      sload\n      tag_169\n      swap2\n      swap1\n      tag_136\n      jump\t// in\n    tag_169:\n      swap3\n      pop\n      pop\n      dup2\n      swap1\n      sstore\n      pop\n        /* \"contracts/ERC20Stakeable.sol\":1849:1855  amount */\n      dup1\n        /* \"contracts/ERC20Stakeable.sol\":1830:1845  totalOwnerToken */\n      0x06\n      0x00\n        /* \"contracts/ERC20Stakeable.sol\":1830:1855  totalOwnerToken -= amount */\n      dup3\n      dup3\n      sload\n      tag_170\n      swap2\n      swap1\n      tag_136\n      jump\t// in\n    tag_170:\n      swap3\n      pop\n      pop\n      dup2\n      swap1\n      sstore\n      pop\n        /* \"contracts/ERC20Stakeable.sol\":1866:1919  IERC20(ERC20Address).safeTransfer(msg.sender, amount) */\n      tag_171\n        /* \"contracts/ERC20Stakeable.sol\":1900:1910  msg.sender */\n      caller\n        /* \"contracts/ERC20Stakeable.sol\":1912:1918  amount */\n      dup3\n        /* \"contracts/ERC20Stakeable.sol\":1873:1885  ERC20Address */\n      0x03\n      0x00\n      swap1\n      sload\n      swap1\n      0x0100\n      exp\n      swap1\n      div\n      0xffffffffffffffffffffffffffffffffffffffff\n      and\n        /* \"contracts/ERC20Stakeable.sol\":1866:1899  IERC20(ERC20Address).safeTransfer */\n      0xffffffffffffffffffffffffffffffffffffffff\n      and\n      tag_172\n      swap1\n        /* \"contracts/ERC20Stakeable.sol\":1866:1919  IERC20(ERC20Address).safeTransfer(msg.sender, amount) */\n      swap3\n      swap2\n      swap1\n      0xffffffff\n      and\n      jump\t// in\n    tag_171:\n        /* \"contracts/ERC20Stakeable.sol\":1718:1927  function AdminWithDrawToken(uint amount) public onlyOwner{\r... */\n      pop\n      jump\t// out\n        /* \"contracts/ERC20Stakeable.sol\":363:391  address public ERC721address */\n    tag_81:\n      0x01\n      0x00\n      swap1\n      sload\n      swap1\n      0x0100\n      exp\n      swap1\n      div\n      0xffffffffffffffffffffffffffffffffffffffff\n      and\n      dup2\n      jump\t// out\n        /* \"contracts/ERC20Stakeable.sol\":2702:2995  function calculateIntrest() public returns(uint256){\r... */\n    tag_84:\n        /* \"contracts/ERC20Stakeable.sol\":2745:2752  uint256 */\n      0x00\n        /* \"contracts/ERC20Stakeable.sol\":2764:2778  uint RewardEst */\n      dup1\n        /* \"contracts/ERC20Stakeable.sol\":2841:2848  Details */\n      0x08\n        /* \"contracts/ERC20Stakeable.sol\":2841:2860  Details[msg.sender] */\n      0x00\n        /* \"contracts/ERC20Stakeable.sol\":2849:2859  msg.sender */\n      caller\n        /* \"contracts/ERC20Stakeable.sol\":2841:2860  Details[msg.sender] */\n      0xffffffffffffffffffffffffffffffffffffffff\n      and\n      0xffffffffffffffffffffffffffffffffffffffff\n      and\n      dup2\n      mstore\n      0x20\n      add\n      swap1\n      dup2\n      mstore\n      0x20\n      add\n      0x00\n      keccak256\n        /* \"contracts/ERC20Stakeable.sol\":2841:2870  Details[msg.sender].timestake */\n      0x01\n      add\n      sload\n        /* \"contracts/ERC20Stakeable.sol\":2823:2838  block.timestamp */\n      timestamp\n        /* \"contracts/ERC20Stakeable.sol\":2823:2870  block.timestamp - Details[msg.sender].timestake */\n      tag_174\n      swap2\n      swap1\n      tag_136\n      jump\t// in\n    tag_174:\n        /* \"contracts/ERC20Stakeable.sol\":2814:2818  rate */\n      sload(0x07)\n        /* \"contracts/ERC20Stakeable.sol\":2782:2789  Details */\n      0x08\n        /* \"contracts/ERC20Stakeable.sol\":2782:2801  Details[msg.sender] */\n      0x00\n        /* \"contracts/ERC20Stakeable.sol\":2790:2800  msg.sender */\n      caller\n        /* \"contracts/ERC20Stakeable.sol\":2782:2801  Details[msg.sender] */\n      0xffffffffffffffffffffffffffffffffffffffff\n      and\n      0xffffffffffffffffffffffffffffffffffffffff\n      and\n      dup2\n      mstore\n      0x20\n      add\n      swap1\n      dup2\n      mstore\n      0x20\n      add\n      0x00\n      keccak256\n        /* \"contracts/ERC20Stakeable.sol\":2782:2811  Details[msg.sender].deposited */\n      0x00\n      add\n      sload\n        /* \"contracts/ERC20Stakeable.sol\":2782:2818  Details[msg.sender].deposited * rate */\n      tag_175\n      swap2\n      swap1\n      tag_162\n      jump\t// in\n    tag_175:\n        /* \"contracts/ERC20Stakeable.sol\":2781:2871  (Details[msg.sender].deposited * rate) * (block.timestamp - Details[msg.sender].timestake) */\n      tag_176\n      swap2\n      swap1\n      tag_162\n      jump\t// in\n    tag_176:\n        /* \"contracts/ERC20Stakeable.sol\":2764:2871  uint RewardEst = (Details[msg.sender].deposited * rate) * (block.timestamp - Details[msg.sender].timestake) */\n      swap1\n      pop\n        /* \"contracts/ERC20Stakeable.sol\":2882:2898  uint TotalReward */\n      0x00\n        /* \"contracts/ERC20Stakeable.sol\":2913:2917  6000 */\n      0x1770\n        /* \"contracts/ERC20Stakeable.sol\":2901:2910  RewardEst */\n      dup3\n        /* \"contracts/ERC20Stakeable.sol\":2901:2917  RewardEst / 6000 */\n      tag_177\n      swap2\n      swap1\n      tag_164\n      jump\t// in\n    tag_177:\n        /* \"contracts/ERC20Stakeable.sol\":2882:2917  uint TotalReward = RewardEst / 6000 */\n      swap1\n      pop\n        /* \"contracts/ERC20Stakeable.sol\":2943:2958  block.timestamp */\n      timestamp\n        /* \"contracts/ERC20Stakeable.sol\":2928:2942  unstaketimeval */\n      0x05\n        /* \"contracts/ERC20Stakeable.sol\":2928:2958  unstaketimeval=block.timestamp */\n      dup2\n      swap1\n      sstore\n      pop\n        /* \"contracts/ERC20Stakeable.sol\":2976:2987  TotalReward */\n      dup1\n        /* \"contracts/ERC20Stakeable.sol\":2969:2987  return TotalReward */\n      swap3\n      pop\n      pop\n      pop\n        /* \"contracts/ERC20Stakeable.sol\":2702:2995  function calculateIntrest() public returns(uint256){\r... */\n      swap1\n      jump\t// out\n        /* \"contracts/ERC20Stakeable.sol\":495:521  uint public unstaketimeval */\n    tag_87:\n      sload(0x05)\n      dup2\n      jump\t// out\n        /* \"contracts/ERC20Stakeable.sol\":684:726  mapping (address => Staker) public Details */\n    tag_91:\n      mstore(0x20, 0x08)\n      dup1\n      0x00\n      mstore\n      keccak256(0x00, 0x40)\n      0x00\n      swap2\n      pop\n      swap1\n      pop\n      dup1\n      0x00\n      add\n      sload\n      swap1\n      dup1\n      0x01\n      add\n      sload\n      swap1\n      dup1\n      0x02\n      add\n      0x00\n      swap1\n      sload\n      swap1\n      0x0100\n      exp\n      swap1\n      div\n      0xff\n      and\n      swap1\n      pop\n      dup4\n      jump\t// out\n        /* \"contracts/ERC20Stakeable.sol\":3564:3771  function depositNFT(uint256 tokenIds) public {\r... */\n    tag_96:\n        /* \"contracts/ERC20Stakeable.sol\":3642:3655  ERC721address */\n      0x01\n      0x00\n      swap1\n      sload\n      swap1\n      0x0100\n      exp\n      swap1\n      div\n      0xffffffffffffffffffffffffffffffffffffffff\n      and\n        /* \"contracts/ERC20Stakeable.sol\":3628:3655  msg.sender != ERC721address */\n      0xffffffffffffffffffffffffffffffffffffffff\n      and\n        /* \"contracts/ERC20Stakeable.sol\":3628:3638  msg.sender */\n      caller\n        /* \"contracts/ERC20Stakeable.sol\":3628:3655  msg.sender != ERC721address */\n      0xffffffffffffffffffffffffffffffffffffffff\n      and\n      eq\n      iszero\n        /* \"contracts/ERC20Stakeable.sol\":3620:3675  require(msg.sender != ERC721address, \"Invalid address\") */\n      tag_179\n      jumpi\n      mload(0x40)\n      0x08c379a000000000000000000000000000000000000000000000000000000000\n      dup2\n      mstore\n      0x04\n      add\n      tag_180\n      swap1\n      tag_181\n      jump\t// in\n    tag_180:\n      mload(0x40)\n      dup1\n      swap2\n      sub\n      swap1\n      revert\n    tag_179:\n        /* \"contracts/ERC20Stakeable.sol\":3694:3707  ERC721address */\n      0x01\n      0x00\n      swap1\n      sload\n      swap1\n      0x0100\n      exp\n      swap1\n      div\n      0xffffffffffffffffffffffffffffffffffffffff\n      and\n        /* \"contracts/ERC20Stakeable.sol\":3686:3725  IERC721(ERC721address).safeTransferFrom */\n      0xffffffffffffffffffffffffffffffffffffffff\n      and\n      0xb88d4fde\n        /* \"contracts/ERC20Stakeable.sol\":3726:3736  msg.sender */\n      caller\n        /* \"contracts/ERC20Stakeable.sol\":3745:3749  this */\n      address\n        /* \"contracts/ERC20Stakeable.sol\":3751:3759  tokenIds */\n      dup5\n        /* \"contracts/ERC20Stakeable.sol\":3686:3763  IERC721(ERC721address).safeTransferFrom(msg.sender,address(this),tokenIds,\"\") */\n      mload(0x40)\n      dup5\n      0xffffffff\n      and\n      0xe0\n      shl\n      dup2\n      mstore\n      0x04\n      add\n      tag_182\n      swap4\n      swap3\n      swap2\n      swap1\n      tag_108\n      jump\t// in\n    tag_182:\n      0x00\n      mload(0x40)\n      dup1\n      dup4\n      sub\n      dup2\n      0x00\n      dup8\n      dup1\n      extcodesize\n      iszero\n      dup1\n      iszero\n      tag_183\n      jumpi\n      0x00\n      dup1\n      revert\n    tag_183:\n      pop\n      gas\n      call\n      iszero\n      dup1\n      iszero\n      tag_185\n      jumpi\n      returndatasize\n      0x00\n      dup1\n      returndatacopy\n      revert(0x00, returndatasize)\n    tag_185:\n      pop\n      pop\n      pop\n      pop\n        /* \"contracts/ERC20Stakeable.sol\":3564:3771  function depositNFT(uint256 tokenIds) public {\r... */\n      pop\n      jump\t// out\n        /* \"contracts/ERC20Stakeable.sol\":3212:3323  function UpdateERC721(address _ERC721address) public onlyOwner{\r... */\n    tag_99:\n        /* \"@openzeppelin/contracts/access/Ownable.sol\":1094:1107  _checkOwner() */\n      tag_187\n        /* \"@openzeppelin/contracts/access/Ownable.sol\":1094:1105  _checkOwner */\n      tag_114\n        /* \"@openzeppelin/contracts/access/Ownable.sol\":1094:1107  _checkOwner() */\n      jump\t// in\n    tag_187:\n        /* \"contracts/ERC20Stakeable.sol\":3301:3315  _ERC721address */\n      dup1\n        /* \"contracts/ERC20Stakeable.sol\":3285:3298  ERC721address */\n      0x01\n      0x00\n        /* \"contracts/ERC20Stakeable.sol\":3285:3315  ERC721address = _ERC721address */\n      0x0100\n      exp\n      dup2\n      sload\n      dup2\n      0xffffffffffffffffffffffffffffffffffffffff\n      mul\n      not\n      and\n      swap1\n      dup4\n      0xffffffffffffffffffffffffffffffffffffffff\n      and\n      mul\n      or\n      swap1\n      sstore\n      pop\n        /* \"contracts/ERC20Stakeable.sol\":3212:3323  function UpdateERC721(address _ERC721address) public onlyOwner{\r... */\n      pop\n      jump\t// out\n        /* \"@openzeppelin/contracts/access/Ownable.sol\":2081:2279  function transferOwnership(address newOwner) public virtual onlyOwner {... */\n    tag_102:\n        /* \"@openzeppelin/contracts/access/Ownable.sol\":1094:1107  _checkOwner() */\n      tag_190\n        /* \"@openzeppelin/contracts/access/Ownable.sol\":1094:1105  _checkOwner */\n      tag_114\n        /* \"@openzeppelin/contracts/access/Ownable.sol\":1094:1107  _checkOwner() */\n      jump\t// in\n    tag_190:\n        /* \"@openzeppelin/contracts/access/Ownable.sol\":2189:2190  0 */\n      0x00\n        /* \"@openzeppelin/contracts/access/Ownable.sol\":2169:2191  newOwner != address(0) */\n      0xffffffffffffffffffffffffffffffffffffffff\n      and\n        /* \"@openzeppelin/contracts/access/Ownable.sol\":2169:2177  newOwner */\n      dup2\n        /* \"@openzeppelin/contracts/access/Ownable.sol\":2169:2191  newOwner != address(0) */\n      0xffffffffffffffffffffffffffffffffffffffff\n      and\n      eq\n      iszero\n        /* \"@openzeppelin/contracts/access/Ownable.sol\":2161:2234  require(newOwner != address(0), \"Ownable: new owner is the zero address\") */\n      tag_192\n      jumpi\n      mload(0x40)\n      0x08c379a000000000000000000000000000000000000000000000000000000000\n      dup2\n      mstore\n      0x04\n      add\n      tag_193\n      swap1\n      tag_194\n      jump\t// in\n    tag_193:\n      mload(0x40)\n      dup1\n      swap2\n      sub\n      swap1\n      revert\n    tag_192:\n        /* \"@openzeppelin/contracts/access/Ownable.sol\":2244:2272  _transferOwnership(newOwner) */\n      tag_195\n        /* \"@openzeppelin/contracts/access/Ownable.sol\":2263:2271  newOwner */\n      dup2\n        /* \"@openzeppelin/contracts/access/Ownable.sol\":2244:2262  _transferOwnership */\n      tag_157\n        /* \"@openzeppelin/contracts/access/Ownable.sol\":2244:2272  _transferOwnership(newOwner) */\n      jump\t// in\n    tag_195:\n        /* \"@openzeppelin/contracts/access/Ownable.sol\":2081:2279  function transferOwnership(address newOwner) public virtual onlyOwner {... */\n      pop\n      jump\t// out\n        /* \"contracts/ERC20Stakeable.sol\":3446:3558  function UpdateRatePersentage(uint256 _ratePersentage) public onlyOwner{\r... */\n    tag_105:\n        /* \"@openzeppelin/contracts/access/Ownable.sol\":1094:1107  _checkOwner() */\n      tag_197\n        /* \"@openzeppelin/contracts/access/Ownable.sol\":1094:1105  _checkOwner */\n      tag_114\n        /* \"@openzeppelin/contracts/access/Ownable.sol\":1094:1107  _checkOwner() */\n      jump\t// in\n    tag_197:\n        /* \"contracts/ERC20Stakeable.sol\":3535:3550  _ratePersentage */\n      dup1\n        /* \"contracts/ERC20Stakeable.sol\":3528:3532  rate */\n      0x07\n        /* \"contracts/ERC20Stakeable.sol\":3528:3550  rate = _ratePersentage */\n      dup2\n      swap1\n      sstore\n      pop\n        /* \"contracts/ERC20Stakeable.sol\":3446:3558  function UpdateRatePersentage(uint256 _ratePersentage) public onlyOwner{\r... */\n      pop\n      jump\t// out\n        /* \"@openzeppelin/contracts/access/Ownable.sol\":1359:1489  function _checkOwner() internal view virtual {... */\n    tag_114:\n        /* \"@openzeppelin/contracts/access/Ownable.sol\":1433:1445  _msgSender() */\n      tag_200\n        /* \"@openzeppelin/contracts/access/Ownable.sol\":1433:1443  _msgSender */\n      tag_201\n        /* \"@openzeppelin/contracts/access/Ownable.sol\":1433:1445  _msgSender() */\n      jump\t// in\n    tag_200:\n        /* \"@openzeppelin/contracts/access/Ownable.sol\":1422:1445  owner() == _msgSender() */\n      0xffffffffffffffffffffffffffffffffffffffff\n      and\n        /* \"@openzeppelin/contracts/access/Ownable.sol\":1422:1429  owner() */\n      tag_202\n        /* \"@openzeppelin/contracts/access/Ownable.sol\":1422:1427  owner */\n      tag_72\n        /* \"@openzeppelin/contracts/access/Ownable.sol\":1422:1429  owner() */\n      jump\t// in\n    tag_202:\n        /* \"@openzeppelin/contracts/access/Ownable.sol\":1422:1445  owner() == _msgSender() */\n      0xffffffffffffffffffffffffffffffffffffffff\n      and\n      eq\n        /* \"@openzeppelin/contracts/access/Ownable.sol\":1414:1482  require(owner() == _msgSender(), \"Ownable: caller is not the owner\") */\n      tag_203\n      jumpi\n      mload(0x40)\n      0x08c379a000000000000000000000000000000000000000000000000000000000\n      dup2\n      mstore\n      0x04\n      add\n      tag_204\n      swap1\n      tag_205\n      jump\t// in\n    tag_204:\n      mload(0x40)\n      dup1\n      swap2\n      sub\n      swap1\n      revert\n    tag_203:\n        /* \"@openzeppelin/contracts/access/Ownable.sol\":1359:1489  function _checkOwner() internal view virtual {... */\n      jump\t// out\n        /* \"@openzeppelin/contracts/token/ERC20/utils/SafeERC20.sol\":974:1215  function safeTransferFrom(... */\n    tag_123:\n        /* \"@openzeppelin/contracts/token/ERC20/utils/SafeERC20.sol\":1112:1208  _callOptionalReturn(token, abi.encodeWithSelector(token.transferFrom.selector, from, to, value)) */\n      tag_207\n        /* \"@openzeppelin/contracts/token/ERC20/utils/SafeERC20.sol\":1132:1137  token */\n      dup5\n        /* \"@openzeppelin/contracts/token/ERC20/utils/SafeERC20.sol\":1162:1189  token.transferFrom.selector */\n      shl(0xe0, 0x23b872dd)\n        /* \"@openzeppelin/contracts/token/ERC20/utils/SafeERC20.sol\":1191:1195  from */\n      dup6\n        /* \"@openzeppelin/contracts/token/ERC20/utils/SafeERC20.sol\":1197:1199  to */\n      dup6\n        /* \"@openzeppelin/contracts/token/ERC20/utils/SafeERC20.sol\":1201:1206  value */\n      dup6\n        /* \"@openzeppelin/contracts/token/ERC20/utils/SafeERC20.sol\":1139:1207  abi.encodeWithSelector(token.transferFrom.selector, from, to, value) */\n      add(0x24, mload(0x40))\n      tag_208\n      swap4\n      swap3\n      swap2\n      swap1\n      tag_209\n      jump\t// in\n    tag_208:\n      mload(0x40)\n      0x20\n      dup2\n      dup4\n      sub\n      sub\n      dup2\n      mstore\n      swap1\n      0x40\n      mstore\n      swap1\n      not(0xffffffffffffffffffffffffffffffffffffffffffffffffffffffff)\n      and\n      0x20\n      dup3\n      add\n      dup1\n      mload\n      0xffffffffffffffffffffffffffffffffffffffffffffffffffffffff\n      dup4\n      dup2\n      dup4\n      and\n      or\n      dup4\n      mstore\n      pop\n      pop\n      pop\n      pop\n        /* \"@openzeppelin/contracts/token/ERC20/utils/SafeERC20.sol\":1112:1131  _callOptionalReturn */\n      tag_210\n        /* \"@openzeppelin/contracts/token/ERC20/utils/SafeERC20.sol\":1112:1208  _callOptionalReturn(token, abi.encodeWithSelector(token.transferFrom.selector, from, to, value)) */\n      jump\t// in\n    tag_207:\n        /* \"@openzeppelin/contracts/token/ERC20/utils/SafeERC20.sol\":974:1215  function safeTransferFrom(... */\n      pop\n      pop\n      pop\n      pop\n      jump\t// out\n        /* \"@openzeppelin/contracts/access/Ownable.sol\":2433:2620  function _transferOwnership(address newOwner) internal virtual {... */\n    tag_157:\n        /* \"@openzeppelin/contracts/access/Ownable.sol\":2506:2522  address oldOwner */\n      0x00\n        /* \"@openzeppelin/contracts/access/Ownable.sol\":2525:2531  _owner */\n      dup1\n      0x00\n      swap1\n      sload\n      swap1\n      0x0100\n      exp\n      swap1\n      div\n      0xffffffffffffffffffffffffffffffffffffffff\n      and\n        /* \"@openzeppelin/contracts/access/Ownable.sol\":2506:2531  address oldOwner = _owner */\n      swap1\n      pop\n        /* \"@openzeppelin/contracts/access/Ownable.sol\":2550:2558  newOwner */\n      dup2\n        /* \"@openzeppelin/contracts/access/Ownable.sol\":2541:2547  _owner */\n      0x00\n      dup1\n        /* \"@openzeppelin/contracts/access/Ownable.sol\":2541:2558  _owner = newOwner */\n      0x0100\n      exp\n      dup2\n      sload\n      dup2\n      0xffffffffffffffffffffffffffffffffffffffff\n      mul\n      not\n      and\n      swap1\n      dup4\n      0xffffffffffffffffffffffffffffffffffffffff\n      and\n      mul\n      or\n      swap1\n      sstore\n      pop\n        /* \"@openzeppelin/contracts/access/Ownable.sol\":2604:2612  newOwner */\n      dup2\n        /* \"@openzeppelin/contracts/access/Ownable.sol\":2573:2613  OwnershipTransferred(oldOwner, newOwner) */\n      0xffffffffffffffffffffffffffffffffffffffff\n      and\n        /* \"@openzeppelin/contracts/access/Ownable.sol\":2594:2602  oldOwner */\n      dup2\n        /* \"@openzeppelin/contracts/access/Ownable.sol\":2573:2613  OwnershipTransferred(oldOwner, newOwner) */\n      0xffffffffffffffffffffffffffffffffffffffff\n      and\n      0x8be0079c531659141344cd1fd0a4f28419497f9722a3daafe3b4186f6b6457e0\n      mload(0x40)\n      mload(0x40)\n      dup1\n      swap2\n      sub\n      swap1\n      log3\n        /* \"@openzeppelin/contracts/access/Ownable.sol\":2496:2620  {... */\n      pop\n        /* \"@openzeppelin/contracts/access/Ownable.sol\":2433:2620  function _transferOwnership(address newOwner) internal virtual {... */\n      pop\n      jump\t// out\n        /* \"@openzeppelin/contracts/token/ERC20/utils/SafeERC20.sol\":763:968  function safeTransfer(... */\n    tag_172:\n        /* \"@openzeppelin/contracts/token/ERC20/utils/SafeERC20.sol\":875:961  _callOptionalReturn(token, abi.encodeWithSelector(token.transfer.selector, to, value)) */\n      tag_213\n        /* \"@openzeppelin/contracts/token/ERC20/utils/SafeERC20.sol\":895:900  token */\n      dup4\n        /* \"@openzeppelin/contracts/token/ERC20/utils/SafeERC20.sol\":925:948  token.transfer.selector */\n      shl(0xe0, 0xa9059cbb)\n        /* \"@openzeppelin/contracts/token/ERC20/utils/SafeERC20.sol\":950:952  to */\n      dup5\n        /* \"@openzeppelin/contracts/token/ERC20/utils/SafeERC20.sol\":954:959  value */\n      dup5\n        /* \"@openzeppelin/contracts/token/ERC20/utils/SafeERC20.sol\":902:960  abi.encodeWithSelector(token.transfer.selector, to, value) */\n      add(0x24, mload(0x40))\n      tag_214\n      swap3\n      swap2\n      swap1\n      tag_129\n      jump\t// in\n    tag_214:\n      mload(0x40)\n      0x20\n      dup2\n      dup4\n      sub\n      sub\n      dup2\n      mstore\n      swap1\n      0x40\n      mstore\n      swap1\n      not(0xffffffffffffffffffffffffffffffffffffffffffffffffffffffff)\n      and\n      0x20\n      dup3\n      add\n      dup1\n      mload\n      0xffffffffffffffffffffffffffffffffffffffffffffffffffffffff\n      dup4\n      dup2\n      dup4\n      and\n      or\n      dup4\n      mstore\n      pop\n      pop\n      pop\n      pop\n        /* \"@openzeppelin/contracts/token/ERC20/utils/SafeERC20.sol\":875:894  _callOptionalReturn */\n      tag_210\n        /* \"@openzeppelin/contracts/token/ERC20/utils/SafeERC20.sol\":875:961  _callOptionalReturn(token, abi.encodeWithSelector(token.transfer.selector, to, value)) */\n      jump\t// in\n    tag_213:\n        /* \"@openzeppelin/contracts/token/ERC20/utils/SafeERC20.sol\":763:968  function safeTransfer(... */\n      pop\n      pop\n      pop\n      jump\t// out\n        /* \"@openzeppelin/contracts/utils/Context.sol\":640:736  function _msgSender() internal view virtual returns (address) {... */\n    tag_201:\n        /* \"@openzeppelin/contracts/utils/Context.sol\":693:700  address */\n      0x00\n        /* \"@openzeppelin/contracts/utils/Context.sol\":719:729  msg.sender */\n      caller\n        /* \"@openzeppelin/contracts/utils/Context.sol\":712:729  return msg.sender */\n      swap1\n      pop\n        /* \"@openzeppelin/contracts/utils/Context.sol\":640:736  function _msgSender() internal view virtual returns (address) {... */\n      swap1\n      jump\t// out\n        /* \"@openzeppelin/contracts/token/ERC20/utils/SafeERC20.sol\":3747:4453  function _callOptionalReturn(IERC20 token, bytes memory data) private {... */\n    tag_210:\n        /* \"@openzeppelin/contracts/token/ERC20/utils/SafeERC20.sol\":4166:4189  bytes memory returndata */\n      0x00\n        /* \"@openzeppelin/contracts/token/ERC20/utils/SafeERC20.sol\":4192:4261  address(token).functionCall(data, \"SafeERC20: low-level call failed\") */\n      tag_217\n        /* \"@openzeppelin/contracts/token/ERC20/utils/SafeERC20.sol\":4220:4224  data */\n      dup3\n        /* \"@openzeppelin/contracts/token/ERC20/utils/SafeERC20.sol\":4192:4261  address(token).functionCall(data, \"SafeERC20: low-level call failed\") */\n      mload(0x40)\n      dup1\n      0x40\n      add\n      0x40\n      mstore\n      dup1\n      0x20\n      dup2\n      mstore\n      0x20\n      add\n      0x5361666545524332303a206c6f772d6c6576656c2063616c6c206661696c6564\n      dup2\n      mstore\n      pop\n        /* \"@openzeppelin/contracts/token/ERC20/utils/SafeERC20.sol\":4200:4205  token */\n      dup6\n        /* \"@openzeppelin/contracts/token/ERC20/utils/SafeERC20.sol\":4192:4219  address(token).functionCall */\n      0xffffffffffffffffffffffffffffffffffffffff\n      and\n      tag_218\n      swap1\n        /* \"@openzeppelin/contracts/token/ERC20/utils/SafeERC20.sol\":4192:4261  address(token).functionCall(data, \"SafeERC20: low-level call failed\") */\n      swap3\n      swap2\n      swap1\n      0xffffffff\n      and\n      jump\t// in\n    tag_217:\n        /* \"@openzeppelin/contracts/token/ERC20/utils/SafeERC20.sol\":4166:4261  bytes memory returndata = address(token).functionCall(data, \"SafeERC20: low-level call failed\") */\n      swap1\n      pop\n        /* \"@openzeppelin/contracts/token/ERC20/utils/SafeERC20.sol\":4295:4296  0 */\n      0x00\n        /* \"@openzeppelin/contracts/token/ERC20/utils/SafeERC20.sol\":4275:4285  returndata */\n      dup2\n        /* \"@openzeppelin/contracts/token/ERC20/utils/SafeERC20.sol\":4275:4292  returndata.length */\n      mload\n        /* \"@openzeppelin/contracts/token/ERC20/utils/SafeERC20.sol\":4275:4296  returndata.length > 0 */\n      gt\n        /* \"@openzeppelin/contracts/token/ERC20/utils/SafeERC20.sol\":4271:4447  if (returndata.length > 0) {... */\n      iszero\n      tag_219\n      jumpi\n        /* \"@openzeppelin/contracts/token/ERC20/utils/SafeERC20.sol\":4370:4380  returndata */\n      dup1\n        /* \"@openzeppelin/contracts/token/ERC20/utils/SafeERC20.sol\":4359:4389  abi.decode(returndata, (bool)) */\n      dup1\n      0x20\n      add\n      swap1\n      mload\n      dup2\n      add\n      swap1\n      tag_220\n      swap2\n      swap1\n      tag_134\n      jump\t// in\n    tag_220:\n        /* \"@openzeppelin/contracts/token/ERC20/utils/SafeERC20.sol\":4351:4436  require(abi.decode(returndata, (bool)), \"SafeERC20: ERC20 operation did not succeed\") */\n      tag_221\n      jumpi\n      mload(0x40)\n      0x08c379a000000000000000000000000000000000000000000000000000000000\n      dup2\n      mstore\n      0x04\n      add\n      tag_222\n      swap1\n      tag_223\n      jump\t// in\n    tag_222:\n      mload(0x40)\n      dup1\n      swap2\n      sub\n      swap1\n      revert\n    tag_221:\n        /* \"@openzeppelin/contracts/token/ERC20/utils/SafeERC20.sol\":4271:4447  if (returndata.length > 0) {... */\n    tag_219:\n        /* \"@openzeppelin/contracts/token/ERC20/utils/SafeERC20.sol\":3817:4453  {... */\n      pop\n        /* \"@openzeppelin/contracts/token/ERC20/utils/SafeERC20.sol\":3747:4453  function _callOptionalReturn(IERC20 token, bytes memory data) private {... */\n      pop\n      pop\n      jump\t// out\n        /* \"@openzeppelin/contracts/utils/Address.sol\":3861:4084  function functionCall(... */\n    tag_218:\n        /* \"@openzeppelin/contracts/utils/Address.sol\":3994:4006  bytes memory */\n      0x60\n        /* \"@openzeppelin/contracts/utils/Address.sol\":4025:4077  functionCallWithValue(target, data, 0, errorMessage) */\n      tag_225\n        /* \"@openzeppelin/contracts/utils/Address.sol\":4047:4053  target */\n      dup5\n        /* \"@openzeppelin/contracts/utils/Address.sol\":4055:4059  data */\n      dup5\n        /* \"@openzeppelin/contracts/utils/Address.sol\":4061:4062  0 */\n      0x00\n        /* \"@openzeppelin/contracts/utils/Address.sol\":4064:4076  errorMessage */\n      dup6\n        /* \"@openzeppelin/contracts/utils/Address.sol\":4025:4046  functionCallWithValue */\n      tag_226\n        /* \"@openzeppelin/contracts/utils/Address.sol\":4025:4077  functionCallWithValue(target, data, 0, errorMessage) */\n      jump\t// in\n    tag_225:\n        /* \"@openzeppelin/contracts/utils/Address.sol\":4018:4077  return functionCallWithValue(target, data, 0, errorMessage) */\n      swap1\n      pop\n        /* \"@openzeppelin/contracts/utils/Address.sol\":3861:4084  function functionCall(... */\n      swap4\n      swap3\n      pop\n      pop\n      pop\n      jump\t// out\n        /* \"@openzeppelin/contracts/utils/Address.sol\":4948:5447  function functionCallWithValue(... */\n    tag_226:\n        /* \"@openzeppelin/contracts/utils/Address.sol\":5113:5125  bytes memory */\n      0x60\n        /* \"@openzeppelin/contracts/utils/Address.sol\":5170:5175  value */\n      dup3\n        /* \"@openzeppelin/contracts/utils/Address.sol\":5145:5166  address(this).balance */\n      selfbalance\n        /* \"@openzeppelin/contracts/utils/Address.sol\":5145:5175  address(this).balance >= value */\n      lt\n      iszero\n        /* \"@openzeppelin/contracts/utils/Address.sol\":5137:5218  require(address(this).balance >= value, \"Address: insufficient balance for call\") */\n      tag_228\n      jumpi\n      mload(0x40)\n      0x08c379a000000000000000000000000000000000000000000000000000000000\n      dup2\n      mstore\n      0x04\n      add\n      tag_229\n      swap1\n      tag_230\n      jump\t// in\n    tag_229:\n      mload(0x40)\n      dup1\n      swap2\n      sub\n      swap1\n      revert\n    tag_228:\n        /* \"@openzeppelin/contracts/utils/Address.sol\":5236:5254  isContract(target) */\n      tag_231\n        /* \"@openzeppelin/contracts/utils/Address.sol\":5247:5253  target */\n      dup6\n        /* \"@openzeppelin/contracts/utils/Address.sol\":5236:5246  isContract */\n      tag_232\n        /* \"@openzeppelin/contracts/utils/Address.sol\":5236:5254  isContract(target) */\n      jump\t// in\n    tag_231:\n        /* \"@openzeppelin/contracts/utils/Address.sol\":5228:5288  require(isContract(target), \"Address: call to non-contract\") */\n      tag_233\n      jumpi\n      mload(0x40)\n      0x08c379a000000000000000000000000000000000000000000000000000000000\n      dup2\n      mstore\n      0x04\n      add\n      tag_234\n      swap1\n      tag_235\n      jump\t// in\n    tag_234:\n      mload(0x40)\n      dup1\n      swap2\n      sub\n      swap1\n      revert\n    tag_233:\n        /* \"@openzeppelin/contracts/utils/Address.sol\":5300:5312  bool success */\n      0x00\n        /* \"@openzeppelin/contracts/utils/Address.sol\":5314:5337  bytes memory returndata */\n      dup1\n        /* \"@openzeppelin/contracts/utils/Address.sol\":5341:5347  target */\n      dup7\n        /* \"@openzeppelin/contracts/utils/Address.sol\":5341:5352  target.call */\n      0xffffffffffffffffffffffffffffffffffffffff\n      and\n        /* \"@openzeppelin/contracts/utils/Address.sol\":5360:5365  value */\n      dup6\n        /* \"@openzeppelin/contracts/utils/Address.sol\":5367:5371  data */\n      dup8\n        /* \"@openzeppelin/contracts/utils/Address.sol\":5341:5372  target.call{value: value}(data) */\n      mload(0x40)\n      tag_236\n      swap2\n      swap1\n      tag_237\n      jump\t// in\n    tag_236:\n      0x00\n      mload(0x40)\n      dup1\n      dup4\n      sub\n      dup2\n      dup6\n      dup8\n      gas\n      call\n      swap3\n      pop\n      pop\n      pop\n      returndatasize\n      dup1\n      0x00\n      dup2\n      eq\n      tag_240\n      jumpi\n      mload(0x40)\n      swap2\n      pop\n      and(add(returndatasize, 0x3f), not(0x1f))\n      dup3\n      add\n      0x40\n      mstore\n      returndatasize\n      dup3\n      mstore\n      returndatasize\n      0x00\n      0x20\n      dup5\n      add\n      returndatacopy\n      jump(tag_239)\n    tag_240:\n      0x60\n      swap2\n      pop\n    tag_239:\n      pop\n        /* \"@openzeppelin/contracts/utils/Address.sol\":5299:5372  (bool success, bytes memory returndata) = target.call{value: value}(data) */\n      swap2\n      pop\n      swap2\n      pop\n        /* \"@openzeppelin/contracts/utils/Address.sol\":5389:5440  verifyCallResult(success, returndata, errorMessage) */\n      tag_241\n        /* \"@openzeppelin/contracts/utils/Address.sol\":5406:5413  success */\n      dup3\n        /* \"@openzeppelin/contracts/utils/Address.sol\":5415:5425  returndata */\n      dup3\n        /* \"@openzeppelin/contracts/utils/Address.sol\":5427:5439  errorMessage */\n      dup7\n        /* \"@openzeppelin/contracts/utils/Address.sol\":5389:5405  verifyCallResult */\n      tag_242\n        /* \"@openzeppelin/contracts/utils/Address.sol\":5389:5440  verifyCallResult(success, returndata, errorMessage) */\n      jump\t// in\n    tag_241:\n        /* \"@openzeppelin/contracts/utils/Address.sol\":5382:5440  return verifyCallResult(success, returndata, errorMessage) */\n      swap3\n      pop\n      pop\n      pop\n        /* \"@openzeppelin/contracts/utils/Address.sol\":4948:5447  function functionCallWithValue(... */\n      swap5\n      swap4\n      pop\n      pop\n      pop\n      pop\n      jump\t// out\n        /* \"@openzeppelin/contracts/utils/Address.sol\":1175:1495  function isContract(address account) internal view returns (bool) {... */\n    tag_232:\n        /* \"@openzeppelin/contracts/utils/Address.sol\":1235:1239  bool */\n      0x00\n        /* \"@openzeppelin/contracts/utils/Address.sol\":1487:1488  0 */\n      dup1\n        /* \"@openzeppelin/contracts/utils/Address.sol\":1465:1472  account */\n      dup3\n        /* \"@openzeppelin/contracts/utils/Address.sol\":1465:1484  account.code.length */\n      0xffffffffffffffffffffffffffffffffffffffff\n      and\n      extcodesize\n        /* \"@openzeppelin/contracts/utils/Address.sol\":1465:1488  account.code.length > 0 */\n      gt\n        /* \"@openzeppelin/contracts/utils/Address.sol\":1458:1488  return account.code.length > 0 */\n      swap1\n      pop\n        /* \"@openzeppelin/contracts/utils/Address.sol\":1175:1495  function isContract(address account) internal view returns (bool) {... */\n      swap2\n      swap1\n      pop\n      jump\t// out\n        /* \"@openzeppelin/contracts/utils/Address.sol\":7561:8303  function verifyCallResult(... */\n    tag_242:\n        /* \"@openzeppelin/contracts/utils/Address.sol\":7707:7719  bytes memory */\n      0x60\n        /* \"@openzeppelin/contracts/utils/Address.sol\":7735:7742  success */\n      dup4\n        /* \"@openzeppelin/contracts/utils/Address.sol\":7731:8297  if (success) {... */\n      iszero\n      tag_245\n      jumpi\n        /* \"@openzeppelin/contracts/utils/Address.sol\":7765:7775  returndata */\n      dup3\n        /* \"@openzeppelin/contracts/utils/Address.sol\":7758:7775  return returndata */\n      swap1\n      pop\n      jump(tag_244)\n        /* \"@openzeppelin/contracts/utils/Address.sol\":7731:8297  if (success) {... */\n    tag_245:\n        /* \"@openzeppelin/contracts/utils/Address.sol\":7896:7897  0 */\n      0x00\n        /* \"@openzeppelin/contracts/utils/Address.sol\":7876:7886  returndata */\n      dup4\n        /* \"@openzeppelin/contracts/utils/Address.sol\":7876:7893  returndata.length */\n      mload\n        /* \"@openzeppelin/contracts/utils/Address.sol\":7876:7897  returndata.length > 0 */\n      gt\n        /* \"@openzeppelin/contracts/utils/Address.sol\":7872:8287  if (returndata.length > 0) {... */\n      iszero\n      tag_247\n      jumpi\n        /* \"@openzeppelin/contracts/utils/Address.sol\":8120:8130  returndata */\n      dup3\n        /* \"@openzeppelin/contracts/utils/Address.sol\":8114:8131  mload(returndata) */\n      mload\n        /* \"@openzeppelin/contracts/utils/Address.sol\":8180:8195  returndata_size */\n      dup1\n        /* \"@openzeppelin/contracts/utils/Address.sol\":8167:8177  returndata */\n      dup5\n        /* \"@openzeppelin/contracts/utils/Address.sol\":8163:8165  32 */\n      0x20\n        /* \"@openzeppelin/contracts/utils/Address.sol\":8159:8178  add(32, returndata) */\n      add\n        /* \"@openzeppelin/contracts/utils/Address.sol\":8152:8196  revert(add(32, returndata), returndata_size) */\n      revert\n        /* \"@openzeppelin/contracts/utils/Address.sol\":7872:8287  if (returndata.length > 0) {... */\n    tag_247:\n        /* \"@openzeppelin/contracts/utils/Address.sol\":8259:8271  errorMessage */\n      dup2\n        /* \"@openzeppelin/contracts/utils/Address.sol\":8252:8272  revert(errorMessage) */\n      mload(0x40)\n      0x08c379a000000000000000000000000000000000000000000000000000000000\n      dup2\n      mstore\n      0x04\n      add\n      tag_249\n      swap2\n      swap1\n      tag_250\n      jump\t// in\n    tag_249:\n      mload(0x40)\n      dup1\n      swap2\n      sub\n      swap1\n      revert\n        /* \"@openzeppelin/contracts/utils/Address.sol\":7561:8303  function verifyCallResult(... */\n    tag_244:\n      swap4\n      swap3\n      pop\n      pop\n      pop\n      jump\t// out\n        /* \"#utility.yul\":7:146   */\n    tag_252:\n        /* \"#utility.yul\":53:58   */\n      0x00\n        /* \"#utility.yul\":91:97   */\n      dup2\n        /* \"#utility.yul\":78:98   */\n      calldataload\n        /* \"#utility.yul\":69:98   */\n      swap1\n      pop\n        /* \"#utility.yul\":107:140   */\n      tag_254\n        /* \"#utility.yul\":134:139   */\n      dup2\n        /* \"#utility.yul\":107:140   */\n      tag_255\n      jump\t// in\n    tag_254:\n        /* \"#utility.yul\":7:146   */\n      swap3\n      swap2\n      pop\n      pop\n      jump\t// out\n        /* \"#utility.yul\":152:289   */\n    tag_256:\n        /* \"#utility.yul\":206:211   */\n      0x00\n        /* \"#utility.yul\":237:243   */\n      dup2\n        /* \"#utility.yul\":231:244   */\n      mload\n        /* \"#utility.yul\":222:244   */\n      swap1\n      pop\n        /* \"#utility.yul\":253:283   */\n      tag_258\n        /* \"#utility.yul\":277:282   */\n      dup2\n        /* \"#utility.yul\":253:283   */\n      tag_259\n      jump\t// in\n    tag_258:\n        /* \"#utility.yul\":152:289   */\n      swap3\n      swap2\n      pop\n      pop\n      jump\t// out\n        /* \"#utility.yul\":295:434   */\n    tag_260:\n        /* \"#utility.yul\":341:346   */\n      0x00\n        /* \"#utility.yul\":379:385   */\n      dup2\n        /* \"#utility.yul\":366:386   */\n      calldataload\n        /* \"#utility.yul\":357:386   */\n      swap1\n      pop\n        /* \"#utility.yul\":395:428   */\n      tag_262\n        /* \"#utility.yul\":422:427   */\n      dup2\n        /* \"#utility.yul\":395:428   */\n      tag_263\n      jump\t// in\n    tag_262:\n        /* \"#utility.yul\":295:434   */\n      swap3\n      swap2\n      pop\n      pop\n      jump\t// out\n        /* \"#utility.yul\":440:769   */\n    tag_46:\n        /* \"#utility.yul\":499:505   */\n      0x00\n        /* \"#utility.yul\":548:550   */\n      0x20\n        /* \"#utility.yul\":536:545   */\n      dup3\n        /* \"#utility.yul\":527:534   */\n      dup5\n        /* \"#utility.yul\":523:546   */\n      sub\n        /* \"#utility.yul\":519:551   */\n      slt\n        /* \"#utility.yul\":516:635   */\n      iszero\n      tag_265\n      jumpi\n        /* \"#utility.yul\":554:633   */\n      tag_266\n      tag_267\n      jump\t// in\n    tag_266:\n        /* \"#utility.yul\":516:635   */\n    tag_265:\n        /* \"#utility.yul\":674:675   */\n      0x00\n        /* \"#utility.yul\":699:752   */\n      tag_268\n        /* \"#utility.yul\":744:751   */\n      dup5\n        /* \"#utility.yul\":735:741   */\n      dup3\n        /* \"#utility.yul\":724:733   */\n      dup6\n        /* \"#utility.yul\":720:742   */\n      add\n        /* \"#utility.yul\":699:752   */\n      tag_252\n      jump\t// in\n    tag_268:\n        /* \"#utility.yul\":689:752   */\n      swap2\n      pop\n        /* \"#utility.yul\":645:762   */\n      pop\n        /* \"#utility.yul\":440:769   */\n      swap3\n      swap2\n      pop\n      pop\n      jump\t// out\n        /* \"#utility.yul\":775:1120   */\n    tag_134:\n        /* \"#utility.yul\":842:848   */\n      0x00\n        /* \"#utility.yul\":891:893   */\n      0x20\n        /* \"#utility.yul\":879:888   */\n      dup3\n        /* \"#utility.yul\":870:877   */\n      dup5\n        /* \"#utility.yul\":866:889   */\n      sub\n        /* \"#utility.yul\":862:894   */\n      slt\n        /* \"#utility.yul\":859:978   */\n      iszero\n      tag_270\n      jumpi\n        /* \"#utility.yul\":897:976   */\n      tag_271\n      tag_267\n      jump\t// in\n    tag_271:\n        /* \"#utility.yul\":859:978   */\n    tag_270:\n        /* \"#utility.yul\":1017:1018   */\n      0x00\n        /* \"#utility.yul\":1042:1103   */\n      tag_272\n        /* \"#utility.yul\":1095:1102   */\n      dup5\n        /* \"#utility.yul\":1086:1092   */\n      dup3\n        /* \"#utility.yul\":1075:1084   */\n      dup6\n        /* \"#utility.yul\":1071:1093   */\n      add\n        /* \"#utility.yul\":1042:1103   */\n      tag_256\n      jump\t// in\n    tag_272:\n        /* \"#utility.yul\":1032:1103   */\n      swap2\n      pop\n        /* \"#utility.yul\":988:1113   */\n      pop\n        /* \"#utility.yul\":775:1120   */\n      swap3\n      swap2\n      pop\n      pop\n      jump\t// out\n        /* \"#utility.yul\":1126:1455   */\n    tag_32:\n        /* \"#utility.yul\":1185:1191   */\n      0x00\n        /* \"#utility.yul\":1234:1236   */\n      0x20\n        /* \"#utility.yul\":1222:1231   */\n      dup3\n        /* \"#utility.yul\":1213:1220   */\n      dup5\n        /* \"#utility.yul\":1209:1232   */\n      sub\n        /* \"#utility.yul\":1205:1237   */\n      slt\n        /* \"#utility.yul\":1202:1321   */\n      iszero\n      tag_274\n      jumpi\n        /* \"#utility.yul\":1240:1319   */\n      tag_275\n      tag_267\n      jump\t// in\n    tag_275:\n        /* \"#utility.yul\":1202:1321   */\n    tag_274:\n        /* \"#utility.yul\":1360:1361   */\n      0x00\n        /* \"#utility.yul\":1385:1438   */\n      tag_276\n        /* \"#utility.yul\":1430:1437   */\n      dup5\n        /* \"#utility.yul\":1421:1427   */\n      dup3\n        /* \"#utility.yul\":1410:1419   */\n      dup6\n        /* \"#utility.yul\":1406:1428   */\n      add\n        /* \"#utility.yul\":1385:1438   */\n      tag_260\n      jump\t// in\n    tag_276:\n        /* \"#utility.yul\":1375:1438   */\n      swap2\n      pop\n        /* \"#utility.yul\":1331:1448   */\n      pop\n        /* \"#utility.yul\":1126:1455   */\n      swap3\n      swap2\n      pop\n      pop\n      jump\t// out\n        /* \"#utility.yul\":1461:1579   */\n    tag_277:\n        /* \"#utility.yul\":1548:1572   */\n      tag_279\n        /* \"#utility.yul\":1566:1571   */\n      dup2\n        /* \"#utility.yul\":1548:1572   */\n      tag_280\n      jump\t// in\n    tag_279:\n        /* \"#utility.yul\":1543:1546   */\n      dup3\n        /* \"#utility.yul\":1536:1573   */\n      mstore\n        /* \"#utility.yul\":1461:1579   */\n      pop\n      pop\n      jump\t// out\n        /* \"#utility.yul\":1585:1694   */\n    tag_281:\n        /* \"#utility.yul\":1666:1687   */\n      tag_283\n        /* \"#utility.yul\":1681:1686   */\n      dup2\n        /* \"#utility.yul\":1666:1687   */\n      tag_284\n      jump\t// in\n    tag_283:\n        /* \"#utility.yul\":1661:1664   */\n      dup3\n        /* \"#utility.yul\":1654:1688   */\n      mstore\n        /* \"#utility.yul\":1585:1694   */\n      pop\n      pop\n      jump\t// out\n        /* \"#utility.yul\":1700:2073   */\n    tag_285:\n        /* \"#utility.yul\":1804:1807   */\n      0x00\n        /* \"#utility.yul\":1832:1870   */\n      tag_287\n        /* \"#utility.yul\":1864:1869   */\n      dup3\n        /* \"#utility.yul\":1832:1870   */\n      tag_288\n      jump\t// in\n    tag_287:\n        /* \"#utility.yul\":1886:1974   */\n      tag_289\n        /* \"#utility.yul\":1967:1973   */\n      dup2\n        /* \"#utility.yul\":1962:1965   */\n      dup6\n        /* \"#utility.yul\":1886:1974   */\n      tag_290\n      jump\t// in\n    tag_289:\n        /* \"#utility.yul\":1879:1974   */\n      swap4\n      pop\n        /* \"#utility.yul\":1983:2035   */\n      tag_291\n        /* \"#utility.yul\":2028:2034   */\n      dup2\n        /* \"#utility.yul\":2023:2026   */\n      dup6\n        /* \"#utility.yul\":2016:2020   */\n      0x20\n        /* \"#utility.yul\":2009:2014   */\n      dup7\n        /* \"#utility.yul\":2005:2021   */\n      add\n        /* \"#utility.yul\":1983:2035   */\n      tag_292\n      jump\t// in\n    tag_291:\n        /* \"#utility.yul\":2060:2066   */\n      dup1\n        /* \"#utility.yul\":2055:2058   */\n      dup5\n        /* \"#utility.yul\":2051:2067   */\n      add\n        /* \"#utility.yul\":2044:2067   */\n      swap2\n      pop\n        /* \"#utility.yul\":1808:2073   */\n      pop\n        /* \"#utility.yul\":1700:2073   */\n      swap3\n      swap2\n      pop\n      pop\n      jump\t// out\n        /* \"#utility.yul\":2079:2443   */\n    tag_293:\n        /* \"#utility.yul\":2167:2170   */\n      0x00\n        /* \"#utility.yul\":2195:2234   */\n      tag_295\n        /* \"#utility.yul\":2228:2233   */\n      dup3\n        /* \"#utility.yul\":2195:2234   */\n      tag_296\n      jump\t// in\n    tag_295:\n        /* \"#utility.yul\":2250:2321   */\n      tag_297\n        /* \"#utility.yul\":2314:2320   */\n      dup2\n        /* \"#utility.yul\":2309:2312   */\n      dup6\n        /* \"#utility.yul\":2250:2321   */\n      tag_298\n      jump\t// in\n    tag_297:\n        /* \"#utility.yul\":2243:2321   */\n      swap4\n      pop\n        /* \"#utility.yul\":2330:2382   */\n      tag_299\n        /* \"#utility.yul\":2375:2381   */\n      dup2\n        /* \"#utility.yul\":2370:2373   */\n      dup6\n        /* \"#utility.yul\":2363:2367   */\n      0x20\n        /* \"#utility.yul\":2356:2361   */\n      dup7\n        /* \"#utility.yul\":2352:2368   */\n      add\n        /* \"#utility.yul\":2330:2382   */\n      tag_292\n      jump\t// in\n    tag_299:\n        /* \"#utility.yul\":2407:2436   */\n      tag_300\n        /* \"#utility.yul\":2429:2435   */\n      dup2\n        /* \"#utility.yul\":2407:2436   */\n      tag_301\n      jump\t// in\n    tag_300:\n        /* \"#utility.yul\":2402:2405   */\n      dup5\n        /* \"#utility.yul\":2398:2437   */\n      add\n        /* \"#utility.yul\":2391:2437   */\n      swap2\n      pop\n        /* \"#utility.yul\":2171:2443   */\n      pop\n        /* \"#utility.yul\":2079:2443   */\n      swap3\n      swap2\n      pop\n      pop\n      jump\t// out\n        /* \"#utility.yul\":2449:2815   */\n    tag_302:\n        /* \"#utility.yul\":2591:2594   */\n      0x00\n        /* \"#utility.yul\":2612:2679   */\n      tag_304\n        /* \"#utility.yul\":2676:2678   */\n      0x0f\n        /* \"#utility.yul\":2671:2674   */\n      dup4\n        /* \"#utility.yul\":2612:2679   */\n      tag_298\n      jump\t// in\n    tag_304:\n        /* \"#utility.yul\":2605:2679   */\n      swap2\n      pop\n        /* \"#utility.yul\":2688:2781   */\n      tag_305\n        /* \"#utility.yul\":2777:2780   */\n      dup3\n        /* \"#utility.yul\":2688:2781   */\n      tag_306\n      jump\t// in\n    tag_305:\n        /* \"#utility.yul\":2806:2808   */\n      0x20\n        /* \"#utility.yul\":2801:2804   */\n      dup3\n        /* \"#utility.yul\":2797:2809   */\n      add\n        /* \"#utility.yul\":2790:2809   */\n      swap1\n      pop\n        /* \"#utility.yul\":2449:2815   */\n      swap2\n      swap1\n      pop\n      jump\t// out\n        /* \"#utility.yul\":2821:3187   */\n    tag_307:\n        /* \"#utility.yul\":2963:2966   */\n      0x00\n        /* \"#utility.yul\":2984:3051   */\n      tag_309\n        /* \"#utility.yul\":3048:3050   */\n      0x26\n        /* \"#utility.yul\":3043:3046   */\n      dup4\n        /* \"#utility.yul\":2984:3051   */\n      tag_298\n      jump\t// in\n    tag_309:\n        /* \"#utility.yul\":2977:3051   */\n      swap2\n      pop\n        /* \"#utility.yul\":3060:3153   */\n      tag_310\n        /* \"#utility.yul\":3149:3152   */\n      dup3\n        /* \"#utility.yul\":3060:3153   */\n      tag_311\n      jump\t// in\n    tag_310:\n        /* \"#utility.yul\":3178:3180   */\n      0x40\n        /* \"#utility.yul\":3173:3176   */\n      dup3\n        /* \"#utility.yul\":3169:3181   */\n      add\n        /* \"#utility.yul\":3162:3181   */\n      swap1\n      pop\n        /* \"#utility.yul\":2821:3187   */\n      swap2\n      swap1\n      pop\n      jump\t// out\n        /* \"#utility.yul\":3193:3559   */\n    tag_312:\n        /* \"#utility.yul\":3335:3338   */\n      0x00\n        /* \"#utility.yul\":3356:3423   */\n      tag_314\n        /* \"#utility.yul\":3420:3422   */\n      0x17\n        /* \"#utility.yul\":3415:3418   */\n      dup4\n        /* \"#utility.yul\":3356:3423   */\n      tag_298\n      jump\t// in\n    tag_314:\n        /* \"#utility.yul\":3349:3423   */\n      swap2\n      pop\n        /* \"#utility.yul\":3432:3525   */\n      tag_315\n        /* \"#utility.yul\":3521:3524   */\n      dup3\n        /* \"#utility.yul\":3432:3525   */\n      tag_316\n      jump\t// in\n    tag_315:\n        /* \"#utility.yul\":3550:3552   */\n      0x20\n        /* \"#utility.yul\":3545:3548   */\n      dup3\n        /* \"#utility.yul\":3541:3553   */\n      add\n        /* \"#utility.yul\":3534:3553   */\n      swap1\n      pop\n        /* \"#utility.yul\":3193:3559   */\n      swap2\n      swap1\n      pop\n      jump\t// out\n        /* \"#utility.yul\":3565:3931   */\n    tag_317:\n        /* \"#utility.yul\":3707:3710   */\n      0x00\n        /* \"#utility.yul\":3728:3795   */\n      tag_319\n        /* \"#utility.yul\":3792:3794   */\n      0x12\n        /* \"#utility.yul\":3787:3790   */\n      dup4\n        /* \"#utility.yul\":3728:3795   */\n      tag_298\n      jump\t// in\n    tag_319:\n        /* \"#utility.yul\":3721:3795   */\n      swap2\n      pop\n        /* \"#utility.yul\":3804:3897   */\n      tag_320\n        /* \"#utility.yul\":3893:3896   */\n      dup3\n        /* \"#utility.yul\":3804:3897   */\n      tag_321\n      jump\t// in\n    tag_320:\n        /* \"#utility.yul\":3922:3924   */\n      0x20\n        /* \"#utility.yul\":3917:3920   */\n      dup3\n        /* \"#utility.yul\":3913:3925   */\n      add\n        /* \"#utility.yul\":3906:3925   */\n      swap1\n      pop\n        /* \"#utility.yul\":3565:3931   */\n      swap2\n      swap1\n      pop\n      jump\t// out\n        /* \"#utility.yul\":3937:4303   */\n    tag_322:\n        /* \"#utility.yul\":4079:4082   */\n      0x00\n        /* \"#utility.yul\":4100:4167   */\n      tag_324\n        /* \"#utility.yul\":4164:4166   */\n      0x26\n        /* \"#utility.yul\":4159:4162   */\n      dup4\n        /* \"#utility.yul\":4100:4167   */\n      tag_298\n      jump\t// in\n    tag_324:\n        /* \"#utility.yul\":4093:4167   */\n      swap2\n      pop\n        /* \"#utility.yul\":4176:4269   */\n      tag_325\n        /* \"#utility.yul\":4265:4268   */\n      dup3\n        /* \"#utility.yul\":4176:4269   */\n      tag_326\n      jump\t// in\n    tag_325:\n        /* \"#utility.yul\":4294:4296   */\n      0x40\n        /* \"#utility.yul\":4289:4292   */\n      dup3\n        /* \"#utility.yul\":4285:4297   */\n      add\n        /* \"#utility.yul\":4278:4297   */\n      swap1\n      pop\n        /* \"#utility.yul\":3937:4303   */\n      swap2\n      swap1\n      pop\n      jump\t// out\n        /* \"#utility.yul\":4309:4675   */\n    tag_327:\n        /* \"#utility.yul\":4451:4454   */\n      0x00\n        /* \"#utility.yul\":4472:4539   */\n      tag_329\n        /* \"#utility.yul\":4536:4538   */\n      0x15\n        /* \"#utility.yul\":4531:4534   */\n      dup4\n        /* \"#utility.yul\":4472:4539   */\n      tag_298\n      jump\t// in\n    tag_329:\n        /* \"#utility.yul\":4465:4539   */\n      swap2\n      pop\n        /* \"#utility.yul\":4548:4641   */\n      tag_330\n        /* \"#utility.yul\":4637:4640   */\n      dup3\n        /* \"#utility.yul\":4548:4641   */\n      tag_331\n      jump\t// in\n    tag_330:\n        /* \"#utility.yul\":4666:4668   */\n      0x20\n        /* \"#utility.yul\":4661:4664   */\n      dup3\n        /* \"#utility.yul\":4657:4669   */\n      add\n        /* \"#utility.yul\":4650:4669   */\n      swap1\n      pop\n        /* \"#utility.yul\":4309:4675   */\n      swap2\n      swap1\n      pop\n      jump\t// out\n        /* \"#utility.yul\":4681:5047   */\n    tag_332:\n        /* \"#utility.yul\":4823:4826   */\n      0x00\n        /* \"#utility.yul\":4844:4911   */\n      tag_334\n        /* \"#utility.yul\":4908:4910   */\n      0x20\n        /* \"#utility.yul\":4903:4906   */\n      dup4\n        /* \"#utility.yul\":4844:4911   */\n      tag_298\n      jump\t// in\n    tag_334:\n        /* \"#utility.yul\":4837:4911   */\n      swap2\n      pop\n        /* \"#utility.yul\":4920:5013   */\n      tag_335\n        /* \"#utility.yul\":5009:5012   */\n      dup3\n        /* \"#utility.yul\":4920:5013   */\n      tag_336\n      jump\t// in\n    tag_335:\n        /* \"#utility.yul\":5038:5040   */\n      0x20\n        /* \"#utility.yul\":5033:5036   */\n      dup3\n        /* \"#utility.yul\":5029:5041   */\n      add\n        /* \"#utility.yul\":5022:5041   */\n      swap1\n      pop\n        /* \"#utility.yul\":4681:5047   */\n      swap2\n      swap1\n      pop\n      jump\t// out\n        /* \"#utility.yul\":5053:5415   */\n    tag_337:\n        /* \"#utility.yul\":5194:5197   */\n      0x00\n        /* \"#utility.yul\":5215:5280   */\n      tag_339\n        /* \"#utility.yul\":5278:5279   */\n      0x00\n        /* \"#utility.yul\":5273:5276   */\n      dup4\n        /* \"#utility.yul\":5215:5280   */\n      tag_340\n      jump\t// in\n    tag_339:\n        /* \"#utility.yul\":5208:5280   */\n      swap2\n      pop\n        /* \"#utility.yul\":5289:5382   */\n      tag_341\n        /* \"#utility.yul\":5378:5381   */\n      dup3\n        /* \"#utility.yul\":5289:5382   */\n      tag_342\n      jump\t// in\n    tag_341:\n        /* \"#utility.yul\":5407:5408   */\n      0x00\n        /* \"#utility.yul\":5402:5405   */\n      dup3\n        /* \"#utility.yul\":5398:5409   */\n      add\n        /* \"#utility.yul\":5391:5409   */\n      swap1\n      pop\n        /* \"#utility.yul\":5053:5415   */\n      swap2\n      swap1\n      pop\n      jump\t// out\n        /* \"#utility.yul\":5421:5787   */\n    tag_343:\n        /* \"#utility.yul\":5563:5566   */\n      0x00\n        /* \"#utility.yul\":5584:5651   */\n      tag_345\n        /* \"#utility.yul\":5648:5650   */\n      0x1d\n        /* \"#utility.yul\":5643:5646   */\n      dup4\n        /* \"#utility.yul\":5584:5651   */\n      tag_298\n      jump\t// in\n    tag_345:\n        /* \"#utility.yul\":5577:5651   */\n      swap2\n      pop\n        /* \"#utility.yul\":5660:5753   */\n      tag_346\n        /* \"#utility.yul\":5749:5752   */\n      dup3\n        /* \"#utility.yul\":5660:5753   */\n      tag_347\n      jump\t// in\n    tag_346:\n        /* \"#utility.yul\":5778:5780   */\n      0x20\n        /* \"#utility.yul\":5773:5776   */\n      dup3\n        /* \"#utility.yul\":5769:5781   */\n      add\n        /* \"#utility.yul\":5762:5781   */\n      swap1\n      pop\n        /* \"#utility.yul\":5421:5787   */\n      swap2\n      swap1\n      pop\n      jump\t// out\n        /* \"#utility.yul\":5793:6159   */\n    tag_348:\n        /* \"#utility.yul\":5935:5938   */\n      0x00\n        /* \"#utility.yul\":5956:6023   */\n      tag_350\n        /* \"#utility.yul\":6020:6022   */\n      0x2a\n        /* \"#utility.yul\":6015:6018   */\n      dup4\n        /* \"#utility.yul\":5956:6023   */\n      tag_298\n      jump\t// in\n    tag_350:\n        /* \"#utility.yul\":5949:6023   */\n      swap2\n      pop\n        /* \"#utility.yul\":6032:6125   */\n      tag_351\n        /* \"#utility.yul\":6121:6124   */\n      dup3\n        /* \"#utility.yul\":6032:6125   */\n      tag_352\n      jump\t// in\n    tag_351:\n        /* \"#utility.yul\":6150:6152   */\n      0x40\n        /* \"#utility.yul\":6145:6148   */\n      dup3\n        /* \"#utility.yul\":6141:6153   */\n      add\n        /* \"#utility.yul\":6134:6153   */\n      swap1\n      pop\n        /* \"#utility.yul\":5793:6159   */\n      swap2\n      swap1\n      pop\n      jump\t// out\n        /* \"#utility.yul\":6165:6283   */\n    tag_353:\n        /* \"#utility.yul\":6252:6276   */\n      tag_355\n        /* \"#utility.yul\":6270:6275   */\n      dup2\n        /* \"#utility.yul\":6252:6276   */\n      tag_356\n      jump\t// in\n    tag_355:\n        /* \"#utility.yul\":6247:6250   */\n      dup3\n        /* \"#utility.yul\":6240:6277   */\n      mstore\n        /* \"#utility.yul\":6165:6283   */\n      pop\n      pop\n      jump\t// out\n        /* \"#utility.yul\":6289:6560   */\n    tag_237:\n        /* \"#utility.yul\":6419:6422   */\n      0x00\n        /* \"#utility.yul\":6441:6534   */\n      tag_358\n        /* \"#utility.yul\":6530:6533   */\n      dup3\n        /* \"#utility.yul\":6521:6527   */\n      dup5\n        /* \"#utility.yul\":6441:6534   */\n      tag_285\n      jump\t// in\n    tag_358:\n        /* \"#utility.yul\":6434:6534   */\n      swap2\n      pop\n        /* \"#utility.yul\":6551:6554   */\n      dup2\n        /* \"#utility.yul\":6544:6554   */\n      swap1\n      pop\n        /* \"#utility.yul\":6289:6560   */\n      swap3\n      swap2\n      pop\n      pop\n      jump\t// out\n        /* \"#utility.yul\":6566:6788   */\n    tag_41:\n        /* \"#utility.yul\":6659:6663   */\n      0x00\n        /* \"#utility.yul\":6697:6699   */\n      0x20\n        /* \"#utility.yul\":6686:6695   */\n      dup3\n        /* \"#utility.yul\":6682:6700   */\n      add\n        /* \"#utility.yul\":6674:6700   */\n      swap1\n      pop\n        /* \"#utility.yul\":6710:6781   */\n      tag_360\n        /* \"#utility.yul\":6778:6779   */\n      0x00\n        /* \"#utility.yul\":6767:6776   */\n      dup4\n        /* \"#utility.yul\":6763:6780   */\n      add\n        /* \"#utility.yul\":6754:6760   */\n      dup5\n        /* \"#utility.yul\":6710:6781   */\n      tag_277\n      jump\t// in\n    tag_360:\n        /* \"#utility.yul\":6566:6788   */\n      swap3\n      swap2\n      pop\n      pop\n      jump\t// out\n        /* \"#utility.yul\":6794:7236   */\n    tag_209:\n        /* \"#utility.yul\":6943:6947   */\n      0x00\n        /* \"#utility.yul\":6981:6983   */\n      0x60\n        /* \"#utility.yul\":6970:6979   */\n      dup3\n        /* \"#utility.yul\":6966:6984   */\n      add\n        /* \"#utility.yul\":6958:6984   */\n      swap1\n      pop\n        /* \"#utility.yul\":6994:7065   */\n      tag_362\n        /* \"#utility.yul\":7062:7063   */\n      0x00\n        /* \"#utility.yul\":7051:7060   */\n      dup4\n        /* \"#utility.yul\":7047:7064   */\n      add\n        /* \"#utility.yul\":7038:7044   */\n      dup7\n        /* \"#utility.yul\":6994:7065   */\n      tag_277\n      jump\t// in\n    tag_362:\n        /* \"#utility.yul\":7075:7147   */\n      tag_363\n        /* \"#utility.yul\":7143:7145   */\n      0x20\n        /* \"#utility.yul\":7132:7141   */\n      dup4\n        /* \"#utility.yul\":7128:7146   */\n      add\n        /* \"#utility.yul\":7119:7125   */\n      dup6\n        /* \"#utility.yul\":7075:7147   */\n      tag_277\n      jump\t// in\n    tag_363:\n        /* \"#utility.yul\":7157:7229   */\n      tag_364\n        /* \"#utility.yul\":7225:7227   */\n      0x40\n        /* \"#utility.yul\":7214:7223   */\n      dup4\n        /* \"#utility.yul\":7210:7228   */\n      add\n        /* \"#utility.yul\":7201:7207   */\n      dup5\n        /* \"#utility.yul\":7157:7229   */\n      tag_353\n      jump\t// in\n    tag_364:\n        /* \"#utility.yul\":6794:7236   */\n      swap5\n      swap4\n      pop\n      pop\n      pop\n      pop\n      jump\t// out\n        /* \"#utility.yul\":7242:7990   */\n    tag_108:\n        /* \"#utility.yul\":7491:7495   */\n      0x00\n        /* \"#utility.yul\":7529:7532   */\n      0x80\n        /* \"#utility.yul\":7518:7527   */\n      dup3\n        /* \"#utility.yul\":7514:7533   */\n      add\n        /* \"#utility.yul\":7506:7533   */\n      swap1\n      pop\n        /* \"#utility.yul\":7543:7614   */\n      tag_366\n        /* \"#utility.yul\":7611:7612   */\n      0x00\n        /* \"#utility.yul\":7600:7609   */\n      dup4\n        /* \"#utility.yul\":7596:7613   */\n      add\n        /* \"#utility.yul\":7587:7593   */\n      dup7\n        /* \"#utility.yul\":7543:7614   */\n      tag_277\n      jump\t// in\n    tag_366:\n        /* \"#utility.yul\":7624:7696   */\n      tag_367\n        /* \"#utility.yul\":7692:7694   */\n      0x20\n        /* \"#utility.yul\":7681:7690   */\n      dup4\n        /* \"#utility.yul\":7677:7695   */\n      add\n        /* \"#utility.yul\":7668:7674   */\n      dup6\n        /* \"#utility.yul\":7624:7696   */\n      tag_277\n      jump\t// in\n    tag_367:\n        /* \"#utility.yul\":7706:7778   */\n      tag_368\n        /* \"#utility.yul\":7774:7776   */\n      0x40\n        /* \"#utility.yul\":7763:7772   */\n      dup4\n        /* \"#utility.yul\":7759:7777   */\n      add\n        /* \"#utility.yul\":7750:7756   */\n      dup5\n        /* \"#utility.yul\":7706:7778   */\n      tag_353\n      jump\t// in\n    tag_368:\n        /* \"#utility.yul\":7825:7834   */\n      dup2\n        /* \"#utility.yul\":7819:7823   */\n      dup2\n        /* \"#utility.yul\":7815:7835   */\n      sub\n        /* \"#utility.yul\":7810:7812   */\n      0x60\n        /* \"#utility.yul\":7799:7808   */\n      dup4\n        /* \"#utility.yul\":7795:7813   */\n      add\n        /* \"#utility.yul\":7788:7836   */\n      mstore\n        /* \"#utility.yul\":7853:7983   */\n      tag_369\n        /* \"#utility.yul\":7978:7982   */\n      dup2\n        /* \"#utility.yul\":7853:7983   */\n      tag_337\n      jump\t// in\n    tag_369:\n        /* \"#utility.yul\":7845:7983   */\n      swap1\n      pop\n        /* \"#utility.yul\":7242:7990   */\n      swap5\n      swap4\n      pop\n      pop\n      pop\n      pop\n      jump\t// out\n        /* \"#utility.yul\":7996:8328   */\n    tag_129:\n        /* \"#utility.yul\":8117:8121   */\n      0x00\n        /* \"#utility.yul\":8155:8157   */\n      0x40\n        /* \"#utility.yul\":8144:8153   */\n      dup3\n        /* \"#utility.yul\":8140:8158   */\n      add\n        /* \"#utility.yul\":8132:8158   */\n      swap1\n      pop\n        /* \"#utility.yul\":8168:8239   */\n      tag_371\n        /* \"#utility.yul\":8236:8237   */\n      0x00\n        /* \"#utility.yul\":8225:8234   */\n      dup4\n        /* \"#utility.yul\":8221:8238   */\n      add\n        /* \"#utility.yul\":8212:8218   */\n      dup6\n        /* \"#utility.yul\":8168:8239   */\n      tag_277\n      jump\t// in\n    tag_371:\n        /* \"#utility.yul\":8249:8321   */\n      tag_372\n        /* \"#utility.yul\":8317:8319   */\n      0x20\n        /* \"#utility.yul\":8306:8315   */\n      dup4\n        /* \"#utility.yul\":8302:8320   */\n      add\n        /* \"#utility.yul\":8293:8299   */\n      dup5\n        /* \"#utility.yul\":8249:8321   */\n      tag_353\n      jump\t// in\n    tag_372:\n        /* \"#utility.yul\":7996:8328   */\n      swap4\n      swap3\n      pop\n      pop\n      pop\n      jump\t// out\n        /* \"#utility.yul\":8334:8647   */\n    tag_250:\n        /* \"#utility.yul\":8447:8451   */\n      0x00\n        /* \"#utility.yul\":8485:8487   */\n      0x20\n        /* \"#utility.yul\":8474:8483   */\n      dup3\n        /* \"#utility.yul\":8470:8488   */\n      add\n        /* \"#utility.yul\":8462:8488   */\n      swap1\n      pop\n        /* \"#utility.yul\":8534:8543   */\n      dup2\n        /* \"#utility.yul\":8528:8532   */\n      dup2\n        /* \"#utility.yul\":8524:8544   */\n      sub\n        /* \"#utility.yul\":8520:8521   */\n      0x00\n        /* \"#utility.yul\":8509:8518   */\n      dup4\n        /* \"#utility.yul\":8505:8522   */\n      add\n        /* \"#utility.yul\":8498:8545   */\n      mstore\n        /* \"#utility.yul\":8562:8640   */\n      tag_374\n        /* \"#utility.yul\":8635:8639   */\n      dup2\n        /* \"#utility.yul\":8626:8632   */\n      dup5\n        /* \"#utility.yul\":8562:8640   */\n      tag_293\n      jump\t// in\n    tag_374:\n        /* \"#utility.yul\":8554:8640   */\n      swap1\n      pop\n        /* \"#utility.yul\":8334:8647   */\n      swap3\n      swap2\n      pop\n      pop\n      jump\t// out\n        /* \"#utility.yul\":8653:9072   */\n    tag_181:\n        /* \"#utility.yul\":8819:8823   */\n      0x00\n        /* \"#utility.yul\":8857:8859   */\n      0x20\n        /* \"#utility.yul\":8846:8855   */\n      dup3\n        /* \"#utility.yul\":8842:8860   */\n      add\n        /* \"#utility.yul\":8834:8860   */\n      swap1\n      pop\n        /* \"#utility.yul\":8906:8915   */\n      dup2\n        /* \"#utility.yul\":8900:8904   */\n      dup2\n        /* \"#utility.yul\":8896:8916   */\n      sub\n        /* \"#utility.yul\":8892:8893   */\n      0x00\n        /* \"#utility.yul\":8881:8890   */\n      dup4\n        /* \"#utility.yul\":8877:8894   */\n      add\n        /* \"#utility.yul\":8870:8917   */\n      mstore\n        /* \"#utility.yul\":8934:9065   */\n      tag_376\n        /* \"#utility.yul\":9060:9064   */\n      dup2\n        /* \"#utility.yul\":8934:9065   */\n      tag_302\n      jump\t// in\n    tag_376:\n        /* \"#utility.yul\":8926:9065   */\n      swap1\n      pop\n        /* \"#utility.yul\":8653:9072   */\n      swap2\n      swap1\n      pop\n      jump\t// out\n        /* \"#utility.yul\":9078:9497   */\n    tag_194:\n        /* \"#utility.yul\":9244:9248   */\n      0x00\n        /* \"#utility.yul\":9282:9284   */\n      0x20\n        /* \"#utility.yul\":9271:9280   */\n      dup3\n        /* \"#utility.yul\":9267:9285   */\n      add\n        /* \"#utility.yul\":9259:9285   */\n      swap1\n      pop\n        /* \"#utility.yul\":9331:9340   */\n      dup2\n        /* \"#utility.yul\":9325:9329   */\n      dup2\n        /* \"#utility.yul\":9321:9341   */\n      sub\n        /* \"#utility.yul\":9317:9318   */\n      0x00\n        /* \"#utility.yul\":9306:9315   */\n      dup4\n        /* \"#utility.yul\":9302:9319   */\n      add\n        /* \"#utility.yul\":9295:9342   */\n      mstore\n        /* \"#utility.yul\":9359:9490   */\n      tag_378\n        /* \"#utility.yul\":9485:9489   */\n      dup2\n        /* \"#utility.yul\":9359:9490   */\n      tag_307\n      jump\t// in\n    tag_378:\n        /* \"#utility.yul\":9351:9490   */\n      swap1\n      pop\n        /* \"#utility.yul\":9078:9497   */\n      swap2\n      swap1\n      pop\n      jump\t// out\n        /* \"#utility.yul\":9503:9922   */\n    tag_118:\n        /* \"#utility.yul\":9669:9673   */\n      0x00\n        /* \"#utility.yul\":9707:9709   */\n      0x20\n        /* \"#utility.yul\":9696:9705   */\n      dup3\n        /* \"#utility.yul\":9692:9710   */\n      add\n        /* \"#utility.yul\":9684:9710   */\n      swap1\n      pop\n        /* \"#utility.yul\":9756:9765   */\n      dup2\n        /* \"#utility.yul\":9750:9754   */\n      dup2\n        /* \"#utility.yul\":9746:9766   */\n      sub\n        /* \"#utility.yul\":9742:9743   */\n      0x00\n        /* \"#utility.yul\":9731:9740   */\n      dup4\n        /* \"#utility.yul\":9727:9744   */\n      add\n        /* \"#utility.yul\":9720:9767   */\n      mstore\n        /* \"#utility.yul\":9784:9915   */\n      tag_380\n        /* \"#utility.yul\":9910:9914   */\n      dup2\n        /* \"#utility.yul\":9784:9915   */\n      tag_312\n      jump\t// in\n    tag_380:\n        /* \"#utility.yul\":9776:9915   */\n      swap1\n      pop\n        /* \"#utility.yul\":9503:9922   */\n      swap2\n      swap1\n      pop\n      jump\t// out\n        /* \"#utility.yul\":9928:10347   */\n    tag_145:\n        /* \"#utility.yul\":10094:10098   */\n      0x00\n        /* \"#utility.yul\":10132:10134   */\n      0x20\n        /* \"#utility.yul\":10121:10130   */\n      dup3\n        /* \"#utility.yul\":10117:10135   */\n      add\n        /* \"#utility.yul\":10109:10135   */\n      swap1\n      pop\n        /* \"#utility.yul\":10181:10190   */\n      dup2\n        /* \"#utility.yul\":10175:10179   */\n      dup2\n        /* \"#utility.yul\":10171:10191   */\n      sub\n        /* \"#utility.yul\":10167:10168   */\n      0x00\n        /* \"#utility.yul\":10156:10165   */\n      dup4\n        /* \"#utility.yul\":10152:10169   */\n      add\n        /* \"#utility.yul\":10145:10192   */\n      mstore\n        /* \"#utility.yul\":10209:10340   */\n      tag_382\n        /* \"#utility.yul\":10335:10339   */\n      dup2\n        /* \"#utility.yul\":10209:10340   */\n      tag_317\n      jump\t// in\n    tag_382:\n        /* \"#utility.yul\":10201:10340   */\n      swap1\n      pop\n        /* \"#utility.yul\":9928:10347   */\n      swap2\n      swap1\n      pop\n      jump\t// out\n        /* \"#utility.yul\":10353:10772   */\n    tag_230:\n        /* \"#utility.yul\":10519:10523   */\n      0x00\n        /* \"#utility.yul\":10557:10559   */\n      0x20\n        /* \"#utility.yul\":10546:10555   */\n      dup3\n        /* \"#utility.yul\":10542:10560   */\n      add\n        /* \"#utility.yul\":10534:10560   */\n      swap1\n      pop\n        /* \"#utility.yul\":10606:10615   */\n      dup2\n        /* \"#utility.yul\":10600:10604   */\n      dup2\n        /* \"#utility.yul\":10596:10616   */\n      sub\n        /* \"#utility.yul\":10592:10593   */\n      0x00\n        /* \"#utility.yul\":10581:10590   */\n      dup4\n        /* \"#utility.yul\":10577:10594   */\n      add\n        /* \"#utility.yul\":10570:10617   */\n      mstore\n        /* \"#utility.yul\":10634:10765   */\n      tag_384\n        /* \"#utility.yul\":10760:10764   */\n      dup2\n        /* \"#utility.yul\":10634:10765   */\n      tag_322\n      jump\t// in\n    tag_384:\n        /* \"#utility.yul\":10626:10765   */\n      swap1\n      pop\n        /* \"#utility.yul\":10353:10772   */\n      swap2\n      swap1\n      pop\n      jump\t// out\n        /* \"#utility.yul\":10778:11197   */\n    tag_140:\n        /* \"#utility.yul\":10944:10948   */\n      0x00\n        /* \"#utility.yul\":10982:10984   */\n      0x20\n        /* \"#utility.yul\":10971:10980   */\n      dup3\n        /* \"#utility.yul\":10967:10985   */\n      add\n        /* \"#utility.yul\":10959:10985   */\n      swap1\n      pop\n        /* \"#utility.yul\":11031:11040   */\n      dup2\n        /* \"#utility.yul\":11025:11029   */\n      dup2\n        /* \"#utility.yul\":11021:11041   */\n      sub\n        /* \"#utility.yul\":11017:11018   */\n      0x00\n        /* \"#utility.yul\":11006:11015   */\n      dup4\n        /* \"#utility.yul\":11002:11019   */\n      add\n        /* \"#utility.yul\":10995:11042   */\n      mstore\n        /* \"#utility.yul\":11059:11190   */\n      tag_386\n        /* \"#utility.yul\":11185:11189   */\n      dup2\n        /* \"#utility.yul\":11059:11190   */\n      tag_327\n      jump\t// in\n    tag_386:\n        /* \"#utility.yul\":11051:11190   */\n      swap1\n      pop\n        /* \"#utility.yul\":10778:11197   */\n      swap2\n      swap1\n      pop\n      jump\t// out\n        /* \"#utility.yul\":11203:11622   */\n    tag_205:\n        /* \"#utility.yul\":11369:11373   */\n      0x00\n        /* \"#utility.yul\":11407:11409   */\n      0x20\n        /* \"#utility.yul\":11396:11405   */\n      dup3\n        /* \"#utility.yul\":11392:11410   */\n      add\n        /* \"#utility.yul\":11384:11410   */\n      swap1\n      pop\n        /* \"#utility.yul\":11456:11465   */\n      dup2\n        /* \"#utility.yul\":11450:11454   */\n      dup2\n        /* \"#utility.yul\":11446:11466   */\n      sub\n        /* \"#utility.yul\":11442:11443   */\n      0x00\n        /* \"#utility.yul\":11431:11440   */\n      dup4\n        /* \"#utility.yul\":11427:11444   */\n      add\n        /* \"#utility.yul\":11420:11467   */\n      mstore\n        /* \"#utility.yul\":11484:11615   */\n      tag_388\n        /* \"#utility.yul\":11610:11614   */\n      dup2\n        /* \"#utility.yul\":11484:11615   */\n      tag_332\n      jump\t// in\n    tag_388:\n        /* \"#utility.yul\":11476:11615   */\n      swap1\n      pop\n        /* \"#utility.yul\":11203:11622   */\n      swap2\n      swap1\n      pop\n      jump\t// out\n        /* \"#utility.yul\":11628:12047   */\n    tag_235:\n        /* \"#utility.yul\":11794:11798   */\n      0x00\n        /* \"#utility.yul\":11832:11834   */\n      0x20\n        /* \"#utility.yul\":11821:11830   */\n      dup3\n        /* \"#utility.yul\":11817:11835   */\n      add\n        /* \"#utility.yul\":11809:11835   */\n      swap1\n      pop\n        /* \"#utility.yul\":11881:11890   */\n      dup2\n        /* \"#utility.yul\":11875:11879   */\n      dup2\n        /* \"#utility.yul\":11871:11891   */\n      sub\n        /* \"#utility.yul\":11867:11868   */\n      0x00\n        /* \"#utility.yul\":11856:11865   */\n      dup4\n        /* \"#utility.yul\":11852:11869   */\n      add\n        /* \"#utility.yul\":11845:11892   */\n      mstore\n        /* \"#utility.yul\":11909:12040   */\n      tag_390\n        /* \"#utility.yul\":12035:12039   */\n      dup2\n        /* \"#utility.yul\":11909:12040   */\n      tag_343\n      jump\t// in\n    tag_390:\n        /* \"#utility.yul\":11901:12040   */\n      swap1\n      pop\n        /* \"#utility.yul\":11628:12047   */\n      swap2\n      swap1\n      pop\n      jump\t// out\n        /* \"#utility.yul\":12053:12472   */\n    tag_223:\n        /* \"#utility.yul\":12219:12223   */\n      0x00\n        /* \"#utility.yul\":12257:12259   */\n      0x20\n        /* \"#utility.yul\":12246:12255   */\n      dup3\n        /* \"#utility.yul\":12242:12260   */\n      add\n        /* \"#utility.yul\":12234:12260   */\n      swap1\n      pop\n        /* \"#utility.yul\":12306:12315   */\n      dup2\n        /* \"#utility.yul\":12300:12304   */\n      dup2\n        /* \"#utility.yul\":12296:12316   */\n      sub\n        /* \"#utility.yul\":12292:12293   */\n      0x00\n        /* \"#utility.yul\":12281:12290   */\n      dup4\n        /* \"#utility.yul\":12277:12294   */\n      add\n        /* \"#utility.yul\":12270:12317   */\n      mstore\n        /* \"#utility.yul\":12334:12465   */\n      tag_392\n        /* \"#utility.yul\":12460:12464   */\n      dup2\n        /* \"#utility.yul\":12334:12465   */\n      tag_348\n      jump\t// in\n    tag_392:\n        /* \"#utility.yul\":12326:12465   */\n      swap1\n      pop\n        /* \"#utility.yul\":12053:12472   */\n      swap2\n      swap1\n      pop\n      jump\t// out\n        /* \"#utility.yul\":12478:12700   */\n    tag_37:\n        /* \"#utility.yul\":12571:12575   */\n      0x00\n        /* \"#utility.yul\":12609:12611   */\n      0x20\n        /* \"#utility.yul\":12598:12607   */\n      dup3\n        /* \"#utility.yul\":12594:12612   */\n      add\n        /* \"#utility.yul\":12586:12612   */\n      swap1\n      pop\n        /* \"#utility.yul\":12622:12693   */\n      tag_394\n        /* \"#utility.yul\":12690:12691   */\n      0x00\n        /* \"#utility.yul\":12679:12688   */\n      dup4\n        /* \"#utility.yul\":12675:12692   */\n      add\n        /* \"#utility.yul\":12666:12672   */\n      dup5\n        /* \"#utility.yul\":12622:12693   */\n      tag_353\n      jump\t// in\n    tag_394:\n        /* \"#utility.yul\":12478:12700   */\n      swap3\n      swap2\n      pop\n      pop\n      jump\t// out\n        /* \"#utility.yul\":12706:13136   */\n    tag_93:\n        /* \"#utility.yul\":12849:12853   */\n      0x00\n        /* \"#utility.yul\":12887:12889   */\n      0x60\n        /* \"#utility.yul\":12876:12885   */\n      dup3\n        /* \"#utility.yul\":12872:12890   */\n      add\n        /* \"#utility.yul\":12864:12890   */\n      swap1\n      pop\n        /* \"#utility.yul\":12900:12971   */\n      tag_396\n        /* \"#utility.yul\":12968:12969   */\n      0x00\n        /* \"#utility.yul\":12957:12966   */\n      dup4\n        /* \"#utility.yul\":12953:12970   */\n      add\n        /* \"#utility.yul\":12944:12950   */\n      dup7\n        /* \"#utility.yul\":12900:12971   */\n      tag_353\n      jump\t// in\n    tag_396:\n        /* \"#utility.yul\":12981:13053   */\n      tag_397\n        /* \"#utility.yul\":13049:13051   */\n      0x20\n        /* \"#utility.yul\":13038:13047   */\n      dup4\n        /* \"#utility.yul\":13034:13052   */\n      add\n        /* \"#utility.yul\":13025:13031   */\n      dup6\n        /* \"#utility.yul\":12981:13053   */\n      tag_353\n      jump\t// in\n    tag_397:\n        /* \"#utility.yul\":13063:13129   */\n      tag_398\n        /* \"#utility.yul\":13125:13127   */\n      0x40\n        /* \"#utility.yul\":13114:13123   */\n      dup4\n        /* \"#utility.yul\":13110:13128   */\n      add\n        /* \"#utility.yul\":13101:13107   */\n      dup5\n        /* \"#utility.yul\":13063:13129   */\n      tag_281\n      jump\t// in\n    tag_398:\n        /* \"#utility.yul\":12706:13136   */\n      swap5\n      swap4\n      pop\n      pop\n      pop\n      pop\n      jump\t// out\n        /* \"#utility.yul\":13223:13321   */\n    tag_288:\n        /* \"#utility.yul\":13274:13280   */\n      0x00\n        /* \"#utility.yul\":13308:13313   */\n      dup2\n        /* \"#utility.yul\":13302:13314   */\n      mload\n        /* \"#utility.yul\":13292:13314   */\n      swap1\n      pop\n        /* \"#utility.yul\":13223:13321   */\n      swap2\n      swap1\n      pop\n      jump\t// out\n        /* \"#utility.yul\":13327:13426   */\n    tag_296:\n        /* \"#utility.yul\":13379:13385   */\n      0x00\n        /* \"#utility.yul\":13413:13418   */\n      dup2\n        /* \"#utility.yul\":13407:13419   */\n      mload\n        /* \"#utility.yul\":13397:13419   */\n      swap1\n      pop\n        /* \"#utility.yul\":13327:13426   */\n      swap2\n      swap1\n      pop\n      jump\t// out\n        /* \"#utility.yul\":13432:13600   */\n    tag_340:\n        /* \"#utility.yul\":13515:13526   */\n      0x00\n        /* \"#utility.yul\":13549:13555   */\n      dup3\n        /* \"#utility.yul\":13544:13547   */\n      dup3\n        /* \"#utility.yul\":13537:13556   */\n      mstore\n        /* \"#utility.yul\":13589:13593   */\n      0x20\n        /* \"#utility.yul\":13584:13587   */\n      dup3\n        /* \"#utility.yul\":13580:13594   */\n      add\n        /* \"#utility.yul\":13565:13594   */\n      swap1\n      pop\n        /* \"#utility.yul\":13432:13600   */\n      swap3\n      swap2\n      pop\n      pop\n      jump\t// out\n        /* \"#utility.yul\":13606:13753   */\n    tag_290:\n        /* \"#utility.yul\":13707:13718   */\n      0x00\n        /* \"#utility.yul\":13744:13747   */\n      dup2\n        /* \"#utility.yul\":13729:13747   */\n      swap1\n      pop\n        /* \"#utility.yul\":13606:13753   */\n      swap3\n      swap2\n      pop\n      pop\n      jump\t// out\n        /* \"#utility.yul\":13759:13928   */\n    tag_298:\n        /* \"#utility.yul\":13843:13854   */\n      0x00\n        /* \"#utility.yul\":13877:13883   */\n      dup3\n        /* \"#utility.yul\":13872:13875   */\n      dup3\n        /* \"#utility.yul\":13865:13884   */\n      mstore\n        /* \"#utility.yul\":13917:13921   */\n      0x20\n        /* \"#utility.yul\":13912:13915   */\n      dup3\n        /* \"#utility.yul\":13908:13922   */\n      add\n        /* \"#utility.yul\":13893:13922   */\n      swap1\n      pop\n        /* \"#utility.yul\":13759:13928   */\n      swap3\n      swap2\n      pop\n      pop\n      jump\t// out\n        /* \"#utility.yul\":13934:14239   */\n    tag_120:\n        /* \"#utility.yul\":13974:13977   */\n      0x00\n        /* \"#utility.yul\":13993:14013   */\n      tag_407\n        /* \"#utility.yul\":14011:14012   */\n      dup3\n        /* \"#utility.yul\":13993:14013   */\n      tag_356\n      jump\t// in\n    tag_407:\n        /* \"#utility.yul\":13988:14013   */\n      swap2\n      pop\n        /* \"#utility.yul\":14027:14047   */\n      tag_408\n        /* \"#utility.yul\":14045:14046   */\n      dup4\n        /* \"#utility.yul\":14027:14047   */\n      tag_356\n      jump\t// in\n    tag_408:\n        /* \"#utility.yul\":14022:14047   */\n      swap3\n      pop\n        /* \"#utility.yul\":14181:14182   */\n      dup3\n        /* \"#utility.yul\":14113:14179   */\n      0xffffffffffffffffffffffffffffffffffffffffffffffffffffffffffffffff\n        /* \"#utility.yul\":14109:14183   */\n      sub\n        /* \"#utility.yul\":14106:14107   */\n      dup3\n        /* \"#utility.yul\":14103:14184   */\n      gt\n        /* \"#utility.yul\":14100:14207   */\n      iszero\n      tag_409\n      jumpi\n        /* \"#utility.yul\":14187:14205   */\n      tag_410\n      tag_411\n      jump\t// in\n    tag_410:\n        /* \"#utility.yul\":14100:14207   */\n    tag_409:\n        /* \"#utility.yul\":14231:14232   */\n      dup3\n        /* \"#utility.yul\":14228:14229   */\n      dup3\n        /* \"#utility.yul\":14224:14233   */\n      add\n        /* \"#utility.yul\":14217:14233   */\n      swap1\n      pop\n        /* \"#utility.yul\":13934:14239   */\n      swap3\n      swap2\n      pop\n      pop\n      jump\t// out\n        /* \"#utility.yul\":14245:14430   */\n    tag_164:\n        /* \"#utility.yul\":14285:14286   */\n      0x00\n        /* \"#utility.yul\":14302:14322   */\n      tag_413\n        /* \"#utility.yul\":14320:14321   */\n      dup3\n        /* \"#utility.yul\":14302:14322   */\n      tag_356\n      jump\t// in\n    tag_413:\n        /* \"#utility.yul\":14297:14322   */\n      swap2\n      pop\n        /* \"#utility.yul\":14336:14356   */\n      tag_414\n        /* \"#utility.yul\":14354:14355   */\n      dup4\n        /* \"#utility.yul\":14336:14356   */\n      tag_356\n      jump\t// in\n    tag_414:\n        /* \"#utility.yul\":14331:14356   */\n      swap3\n      pop\n        /* \"#utility.yul\":14375:14376   */\n      dup3\n        /* \"#utility.yul\":14365:14400   */\n      tag_415\n      jumpi\n        /* \"#utility.yul\":14380:14398   */\n      tag_416\n      tag_417\n      jump\t// in\n    tag_416:\n        /* \"#utility.yul\":14365:14400   */\n    tag_415:\n        /* \"#utility.yul\":14422:14423   */\n      dup3\n        /* \"#utility.yul\":14419:14420   */\n      dup3\n        /* \"#utility.yul\":14415:14424   */\n      div\n        /* \"#utility.yul\":14410:14424   */\n      swap1\n      pop\n        /* \"#utility.yul\":14245:14430   */\n      swap3\n      swap2\n      pop\n      pop\n      jump\t// out\n        /* \"#utility.yul\":14436:14784   */\n    tag_162:\n        /* \"#utility.yul\":14476:14483   */\n      0x00\n        /* \"#utility.yul\":14499:14519   */\n      tag_419\n        /* \"#utility.yul\":14517:14518   */\n      dup3\n        /* \"#utility.yul\":14499:14519   */\n      tag_356\n      jump\t// in\n    tag_419:\n        /* \"#utility.yul\":14494:14519   */\n      swap2\n      pop\n        /* \"#utility.yul\":14533:14553   */\n      tag_420\n        /* \"#utility.yul\":14551:14552   */\n      dup4\n        /* \"#utility.yul\":14533:14553   */\n      tag_356\n      jump\t// in\n    tag_420:\n        /* \"#utility.yul\":14528:14553   */\n      swap3\n      pop\n        /* \"#utility.yul\":14721:14722   */\n      dup2\n        /* \"#utility.yul\":14653:14719   */\n      0xffffffffffffffffffffffffffffffffffffffffffffffffffffffffffffffff\n        /* \"#utility.yul\":14649:14723   */\n      div\n        /* \"#utility.yul\":14646:14647   */\n      dup4\n        /* \"#utility.yul\":14643:14724   */\n      gt\n        /* \"#utility.yul\":14638:14639   */\n      dup3\n        /* \"#utility.yul\":14631:14640   */\n      iszero\n        /* \"#utility.yul\":14624:14641   */\n      iszero\n        /* \"#utility.yul\":14620:14725   */\n      and\n        /* \"#utility.yul\":14617:14748   */\n      iszero\n      tag_421\n      jumpi\n        /* \"#utility.yul\":14728:14746   */\n      tag_422\n      tag_411\n      jump\t// in\n    tag_422:\n        /* \"#utility.yul\":14617:14748   */\n    tag_421:\n        /* \"#utility.yul\":14776:14777   */\n      dup3\n        /* \"#utility.yul\":14773:14774   */\n      dup3\n        /* \"#utility.yul\":14769:14778   */\n      mul\n        /* \"#utility.yul\":14758:14778   */\n      swap1\n      pop\n        /* \"#utility.yul\":14436:14784   */\n      swap3\n      swap2\n      pop\n      pop\n      jump\t// out\n        /* \"#utility.yul\":14790:14981   */\n    tag_136:\n        /* \"#utility.yul\":14830:14834   */\n      0x00\n        /* \"#utility.yul\":14850:14870   */\n      tag_424\n        /* \"#utility.yul\":14868:14869   */\n      dup3\n        /* \"#utility.yul\":14850:14870   */\n      tag_356\n      jump\t// in\n    tag_424:\n        /* \"#utility.yul\":14845:14870   */\n      swap2\n      pop\n        /* \"#utility.yul\":14884:14904   */\n      tag_425\n        /* \"#utility.yul\":14902:14903   */\n      dup4\n        /* \"#utility.yul\":14884:14904   */\n      tag_356\n      jump\t// in\n    tag_425:\n        /* \"#utility.yul\":14879:14904   */\n      swap3\n      pop\n        /* \"#utility.yul\":14923:14924   */\n      dup3\n        /* \"#utility.yul\":14920:14921   */\n      dup3\n        /* \"#utility.yul\":14917:14925   */\n      lt\n        /* \"#utility.yul\":14914:14948   */\n      iszero\n      tag_426\n      jumpi\n        /* \"#utility.yul\":14928:14946   */\n      tag_427\n      tag_411\n      jump\t// in\n    tag_427:\n        /* \"#utility.yul\":14914:14948   */\n    tag_426:\n        /* \"#utility.yul\":14973:14974   */\n      dup3\n        /* \"#utility.yul\":14970:14971   */\n      dup3\n        /* \"#utility.yul\":14966:14975   */\n      sub\n        /* \"#utility.yul\":14958:14975   */\n      swap1\n      pop\n        /* \"#utility.yul\":14790:14981   */\n      swap3\n      swap2\n      pop\n      pop\n      jump\t// out\n        /* \"#utility.yul\":14987:15083   */\n    tag_280:\n        /* \"#utility.yul\":15024:15031   */\n      0x00\n        /* \"#utility.yul\":15053:15077   */\n      tag_429\n        /* \"#utility.yul\":15071:15076   */\n      dup3\n        /* \"#utility.yul\":15053:15077   */\n      tag_430\n      jump\t// in\n    tag_429:\n        /* \"#utility.yul\":15042:15077   */\n      swap1\n      pop\n        /* \"#utility.yul\":14987:15083   */\n      swap2\n      swap1\n      pop\n      jump\t// out\n        /* \"#utility.yul\":15089:15179   */\n    tag_284:\n        /* \"#utility.yul\":15123:15130   */\n      0x00\n        /* \"#utility.yul\":15166:15171   */\n      dup2\n        /* \"#utility.yul\":15159:15172   */\n      iszero\n        /* \"#utility.yul\":15152:15173   */\n      iszero\n        /* \"#utility.yul\":15141:15173   */\n      swap1\n      pop\n        /* \"#utility.yul\":15089:15179   */\n      swap2\n      swap1\n      pop\n      jump\t// out\n        /* \"#utility.yul\":15185:15311   */\n    tag_430:\n        /* \"#utility.yul\":15222:15229   */\n      0x00\n        /* \"#utility.yul\":15262:15304   */\n      0xffffffffffffffffffffffffffffffffffffffff\n        /* \"#utility.yul\":15255:15260   */\n      dup3\n        /* \"#utility.yul\":15251:15305   */\n      and\n        /* \"#utility.yul\":15240:15305   */\n      swap1\n      pop\n        /* \"#utility.yul\":15185:15311   */\n      swap2\n      swap1\n      pop\n      jump\t// out\n        /* \"#utility.yul\":15317:15394   */\n    tag_356:\n        /* \"#utility.yul\":15354:15361   */\n      0x00\n        /* \"#utility.yul\":15383:15388   */\n      dup2\n        /* \"#utility.yul\":15372:15388   */\n      swap1\n      pop\n        /* \"#utility.yul\":15317:15394   */\n      swap2\n      swap1\n      pop\n      jump\t// out\n        /* \"#utility.yul\":15400:15707   */\n    tag_292:\n        /* \"#utility.yul\":15468:15469   */\n      0x00\n        /* \"#utility.yul\":15478:15591   */\n    tag_435:\n        /* \"#utility.yul\":15492:15498   */\n      dup4\n        /* \"#utility.yul\":15489:15490   */\n      dup2\n        /* \"#utility.yul\":15486:15499   */\n      lt\n        /* \"#utility.yul\":15478:15591   */\n      iszero\n      tag_437\n      jumpi\n        /* \"#utility.yul\":15577:15578   */\n      dup1\n        /* \"#utility.yul\":15572:15575   */\n      dup3\n        /* \"#utility.yul\":15568:15579   */\n      add\n        /* \"#utility.yul\":15562:15580   */\n      mload\n        /* \"#utility.yul\":15558:15559   */\n      dup2\n        /* \"#utility.yul\":15553:15556   */\n      dup5\n        /* \"#utility.yul\":15549:15560   */\n      add\n        /* \"#utility.yul\":15542:15581   */\n      mstore\n        /* \"#utility.yul\":15514:15516   */\n      0x20\n        /* \"#utility.yul\":15511:15512   */\n      dup2\n        /* \"#utility.yul\":15507:15517   */\n      add\n        /* \"#utility.yul\":15502:15517   */\n      swap1\n      pop\n        /* \"#utility.yul\":15478:15591   */\n      jump(tag_435)\n    tag_437:\n        /* \"#utility.yul\":15609:15615   */\n      dup4\n        /* \"#utility.yul\":15606:15607   */\n      dup2\n        /* \"#utility.yul\":15603:15616   */\n      gt\n        /* \"#utility.yul\":15600:15701   */\n      iszero\n      tag_438\n      jumpi\n        /* \"#utility.yul\":15689:15690   */\n      0x00\n        /* \"#utility.yul\":15680:15686   */\n      dup5\n        /* \"#utility.yul\":15675:15678   */\n      dup5\n        /* \"#utility.yul\":15671:15687   */\n      add\n        /* \"#utility.yul\":15664:15691   */\n      mstore\n        /* \"#utility.yul\":15600:15701   */\n    tag_438:\n        /* \"#utility.yul\":15449:15707   */\n      pop\n        /* \"#utility.yul\":15400:15707   */\n      pop\n      pop\n      pop\n      jump\t// out\n        /* \"#utility.yul\":15713:15893   */\n    tag_411:\n        /* \"#utility.yul\":15761:15838   */\n      0x4e487b7100000000000000000000000000000000000000000000000000000000\n        /* \"#utility.yul\":15758:15759   */\n      0x00\n        /* \"#utility.yul\":15751:15839   */\n      mstore\n        /* \"#utility.yul\":15858:15862   */\n      0x11\n        /* \"#utility.yul\":15855:15856   */\n      0x04\n        /* \"#utility.yul\":15848:15863   */\n      mstore\n        /* \"#utility.yul\":15882:15886   */\n      0x24\n        /* \"#utility.yul\":15879:15880   */\n      0x00\n        /* \"#utility.yul\":15872:15887   */\n      revert\n        /* \"#utility.yul\":15899:16079   */\n    tag_417:\n        /* \"#utility.yul\":15947:16024   */\n      0x4e487b7100000000000000000000000000000000000000000000000000000000\n        /* \"#utility.yul\":15944:15945   */\n      0x00\n        /* \"#utility.yul\":15937:16025   */\n      mstore\n        /* \"#utility.yul\":16044:16048   */\n      0x12\n        /* \"#utility.yul\":16041:16042   */\n      0x04\n        /* \"#utility.yul\":16034:16049   */\n      mstore\n        /* \"#utility.yul\":16068:16072   */\n      0x24\n        /* \"#utility.yul\":16065:16066   */\n      0x00\n        /* \"#utility.yul\":16058:16073   */\n      revert\n        /* \"#utility.yul\":16208:16325   */\n    tag_267:\n        /* \"#utility.yul\":16317:16318   */\n      0x00\n        /* \"#utility.yul\":16314:16315   */\n      dup1\n        /* \"#utility.yul\":16307:16319   */\n      revert\n        /* \"#utility.yul\":16331:16433   */\n    tag_301:\n        /* \"#utility.yul\":16372:16378   */\n      0x00\n        /* \"#utility.yul\":16423:16425   */\n      0x1f\n        /* \"#utility.yul\":16419:16426   */\n      not\n        /* \"#utility.yul\":16414:16416   */\n      0x1f\n        /* \"#utility.yul\":16407:16412   */\n      dup4\n        /* \"#utility.yul\":16403:16417   */\n      add\n        /* \"#utility.yul\":16399:16427   */\n      and\n        /* \"#utility.yul\":16389:16427   */\n      swap1\n      pop\n        /* \"#utility.yul\":16331:16433   */\n      swap2\n      swap1\n      pop\n      jump\t// out\n        /* \"#utility.yul\":16439:16604   */\n    tag_306:\n        /* \"#utility.yul\":16579:16596   */\n      0x496e76616c696420616464726573730000000000000000000000000000000000\n        /* \"#utility.yul\":16575:16576   */\n      0x00\n        /* \"#utility.yul\":16567:16573   */\n      dup3\n        /* \"#utility.yul\":16563:16577   */\n      add\n        /* \"#utility.yul\":16556:16597   */\n      mstore\n        /* \"#utility.yul\":16439:16604   */\n      pop\n      jump\t// out\n        /* \"#utility.yul\":16610:16835   */\n    tag_311:\n        /* \"#utility.yul\":16750:16784   */\n      0x4f776e61626c653a206e6577206f776e657220697320746865207a65726f2061\n        /* \"#utility.yul\":16746:16747   */\n      0x00\n        /* \"#utility.yul\":16738:16744   */\n      dup3\n        /* \"#utility.yul\":16734:16748   */\n      add\n        /* \"#utility.yul\":16727:16785   */\n      mstore\n        /* \"#utility.yul\":16819:16827   */\n      0x6464726573730000000000000000000000000000000000000000000000000000\n        /* \"#utility.yul\":16814:16816   */\n      0x20\n        /* \"#utility.yul\":16806:16812   */\n      dup3\n        /* \"#utility.yul\":16802:16817   */\n      add\n        /* \"#utility.yul\":16795:16828   */\n      mstore\n        /* \"#utility.yul\":16610:16835   */\n      pop\n      jump\t// out\n        /* \"#utility.yul\":16841:17014   */\n    tag_316:\n        /* \"#utility.yul\":16981:17006   */\n      0x4f6e6c79204f776e65722063616e207472616e73666572000000000000000000\n        /* \"#utility.yul\":16977:16978   */\n      0x00\n        /* \"#utility.yul\":16969:16975   */\n      dup3\n        /* \"#utility.yul\":16965:16979   */\n      add\n        /* \"#utility.yul\":16958:17007   */\n      mstore\n        /* \"#utility.yul\":16841:17014   */\n      pop\n      jump\t// out\n        /* \"#utility.yul\":17020:17188   */\n    tag_321:\n        /* \"#utility.yul\":17160:17180   */\n      0x506c65617365204669727374205374616b650000000000000000000000000000\n        /* \"#utility.yul\":17156:17157   */\n      0x00\n        /* \"#utility.yul\":17148:17154   */\n      dup3\n        /* \"#utility.yul\":17144:17158   */\n      add\n        /* \"#utility.yul\":17137:17181   */\n      mstore\n        /* \"#utility.yul\":17020:17188   */\n      pop\n      jump\t// out\n        /* \"#utility.yul\":17194:17419   */\n    tag_326:\n        /* \"#utility.yul\":17334:17368   */\n      0x416464726573733a20696e73756666696369656e742062616c616e636520666f\n        /* \"#utility.yul\":17330:17331   */\n      0x00\n        /* \"#utility.yul\":17322:17328   */\n      dup3\n        /* \"#utility.yul\":17318:17332   */\n      add\n        /* \"#utility.yul\":17311:17369   */\n      mstore\n        /* \"#utility.yul\":17403:17411   */\n      0x722063616c6c0000000000000000000000000000000000000000000000000000\n        /* \"#utility.yul\":17398:17400   */\n      0x20\n        /* \"#utility.yul\":17390:17396   */\n      dup3\n        /* \"#utility.yul\":17386:17401   */\n      add\n        /* \"#utility.yul\":17379:17412   */\n      mstore\n        /* \"#utility.yul\":17194:17419   */\n      pop\n      jump\t// out\n        /* \"#utility.yul\":17425:17596   */\n    tag_331:\n        /* \"#utility.yul\":17565:17588   */\n      0x506c656173652046697273742057697468447261770000000000000000000000\n        /* \"#utility.yul\":17561:17562   */\n      0x00\n        /* \"#utility.yul\":17553:17559   */\n      dup3\n        /* \"#utility.yul\":17549:17563   */\n      add\n        /* \"#utility.yul\":17542:17589   */\n      mstore\n        /* \"#utility.yul\":17425:17596   */\n      pop\n      jump\t// out\n        /* \"#utility.yul\":17602:17784   */\n    tag_336:\n        /* \"#utility.yul\":17742:17776   */\n      0x4f776e61626c653a2063616c6c6572206973206e6f7420746865206f776e6572\n        /* \"#utility.yul\":17738:17739   */\n      0x00\n        /* \"#utility.yul\":17730:17736   */\n      dup3\n        /* \"#utility.yul\":17726:17740   */\n      add\n        /* \"#utility.yul\":17719:17777   */\n      mstore\n        /* \"#utility.yul\":17602:17784   */\n      pop\n      jump\t// out\n        /* \"#utility.yul\":17790:17904   */\n    tag_342:\n      pop\n      jump\t// out\n        /* \"#utility.yul\":17910:18089   */\n    tag_347:\n        /* \"#utility.yul\":18050:18081   */\n      0x416464726573733a2063616c6c20746f206e6f6e2d636f6e7472616374000000\n        /* \"#utility.yul\":18046:18047   */\n      0x00\n        /* \"#utility.yul\":18038:18044   */\n      dup3\n        /* \"#utility.yul\":18034:18048   */\n      add\n        /* \"#utility.yul\":18027:18082   */\n      mstore\n        /* \"#utility.yul\":17910:18089   */\n      pop\n      jump\t// out\n        /* \"#utility.yul\":18095:18324   */\n    tag_352:\n        /* \"#utility.yul\":18235:18269   */\n      0x5361666545524332303a204552433230206f7065726174696f6e20646964206e\n        /* \"#utility.yul\":18231:18232   */\n      0x00\n        /* \"#utility.yul\":18223:18229   */\n      dup3\n        /* \"#utility.yul\":18219:18233   */\n      add\n        /* \"#utility.yul\":18212:18270   */\n      mstore\n        /* \"#utility.yul\":18304:18316   */\n      0x6f74207375636365656400000000000000000000000000000000000000000000\n        /* \"#utility.yul\":18299:18301   */\n      0x20\n        /* \"#utility.yul\":18291:18297   */\n      dup3\n        /* \"#utility.yul\":18287:18302   */\n      add\n        /* \"#utility.yul\":18280:18317   */\n      mstore\n        /* \"#utility.yul\":18095:18324   */\n      pop\n      jump\t// out\n        /* \"#utility.yul\":18330:18452   */\n    tag_255:\n        /* \"#utility.yul\":18403:18427   */\n      tag_456\n        /* \"#utility.yul\":18421:18426   */\n      dup2\n        /* \"#utility.yul\":18403:18427   */\n      tag_280\n      jump\t// in\n    tag_456:\n        /* \"#utility.yul\":18396:18401   */\n      dup2\n        /* \"#utility.yul\":18393:18428   */\n      eq\n        /* \"#utility.yul\":18383:18446   */\n      tag_457\n      jumpi\n        /* \"#utility.yul\":18442:18443   */\n      0x00\n        /* \"#utility.yul\":18439:18440   */\n      dup1\n        /* \"#utility.yul\":18432:18444   */\n      revert\n        /* \"#utility.yul\":18383:18446   */\n    tag_457:\n        /* \"#utility.yul\":18330:18452   */\n      pop\n      jump\t// out\n        /* \"#utility.yul\":18458:18574   */\n    tag_259:\n        /* \"#utility.yul\":18528:18549   */\n      tag_459\n        /* \"#utility.yul\":18543:18548   */\n      dup2\n        /* \"#utility.yul\":18528:18549   */\n      tag_284\n      jump\t// in\n    tag_459:\n        /* \"#utility.yul\":18521:18526   */\n      dup2\n        /* \"#utility.yul\":18518:18550   */\n      eq\n        /* \"#utility.yul\":18508:18568   */\n      tag_460\n      jumpi\n        /* \"#utility.yul\":18564:18565   */\n      0x00\n        /* \"#utility.yul\":18561:18562   */\n      dup1\n        /* \"#utility.yul\":18554:18566   */\n      revert\n        /* \"#utility.yul\":18508:18568   */\n    tag_460:\n        /* \"#utility.yul\":18458:18574   */\n      pop\n      jump\t// out\n        /* \"#utility.yul\":18580:18702   */\n    tag_263:\n        /* \"#utility.yul\":18653:18677   */\n      tag_462\n        /* \"#utility.yul\":18671:18676   */\n      dup2\n        /* \"#utility.yul\":18653:18677   */\n      tag_356\n      jump\t// in\n    tag_462:\n        /* \"#utility.yul\":18646:18651   */\n      dup2\n        /* \"#utility.yul\":18643:18678   */\n      eq\n        /* \"#utility.yul\":18633:18696   */\n      tag_463\n      jumpi\n        /* \"#utility.yul\":18692:18693   */\n      0x00\n        /* \"#utility.yul\":18689:18690   */\n      dup1\n        /* \"#utility.yul\":18682:18694   */\n      revert\n        /* \"#utility.yul\":18633:18696   */\n    tag_463:\n        /* \"#utility.yul\":18580:18702   */\n      pop\n      jump\t// out\n\n    auxdata: 0xa26469706673582212206cde418511b7b8c98279c3835841abbbebff99b29893577f3d8eeefb5d278f6264736f6c63430008070033\n}\n",
				"bytecode": {
					"linkReferences": {},
					"object": "60806040523480156200001157600080fd5b50604051620022f4380380620022f4833981810160405281019062000037919062000224565b620000576200004b6200012a60201b60201c565b6200013260201b60201c565b82600160006101000a81548173ffffffffffffffffffffffffffffffffffffffff021916908373ffffffffffffffffffffffffffffffffffffffff1602179055508160078190555080600360006101000a81548173ffffffffffffffffffffffffffffffffffffffff021916908373ffffffffffffffffffffffffffffffffffffffff16021790555033600260006101000a81548173ffffffffffffffffffffffffffffffffffffffff021916908373ffffffffffffffffffffffffffffffffffffffff160217905550505050620002f7565b600033905090565b60008060009054906101000a900473ffffffffffffffffffffffffffffffffffffffff169050816000806101000a81548173ffffffffffffffffffffffffffffffffffffffff021916908373ffffffffffffffffffffffffffffffffffffffff1602179055508173ffffffffffffffffffffffffffffffffffffffff168173ffffffffffffffffffffffffffffffffffffffff167f8be0079c531659141344cd1fd0a4f28419497f9722a3daafe3b4186f6b6457e060405160405180910390a35050565b6000815190506200020781620002c3565b92915050565b6000815190506200021e81620002dd565b92915050565b60008060006060848603121562000240576200023f620002be565b5b60006200025086828701620001f6565b935050602062000263868287016200020d565b92505060406200027686828701620001f6565b9150509250925092565b60006200028d8262000294565b9050919050565b600073ffffffffffffffffffffffffffffffffffffffff82169050919050565b6000819050919050565b600080fd5b620002ce8162000280565b8114620002da57600080fd5b50565b620002e881620002b4565b8114620002f457600080fd5b50565b611fed80620003076000396000f3fe608060405234801561001057600080fd5b50600436106101585760003560e01c80637b2f247f116100c3578063de9d3ddb1161007c578063de9d3ddb14610345578063e88cc2be14610363578063e91a7ca614610395578063ee0106d2146103b1578063f2fde38b146103cd578063f89d832f146103e957610158565b80637b2f247f146102935780638da5cb5b146102b1578063a6021ace146102cf578063a88e132f146102ed578063b7171a2e14610309578063c3c917b01461032757610158565b80632ffce210116101155780632ffce210146101e55780634d6ce1e514610215578063574880641461023157806357ea89b6146102615780635eb82e941461026b578063715018a61461028957610158565b8063023245d71461015d5780630ccff6e91461017957806310fd4fba14610197578063144dc29c146101b5578063275bd33f146101bf5780632c07f74f146101db575b600080fd5b610177600480360381019061017291906116b3565b610405565b005b610181610499565b60405161018e9190611af3565b60405180910390f35b61019f61049f565b6040516101ac91906118ec565b60405180910390f35b6101bd6104c5565b005b6101d960048036038101906101d49190611659565b610645565b005b6101e3610691565b005b6101ff60048036038101906101fa9190611659565b61085a565b60405161020c9190611af3565b60405180910390f35b61022f600480360381019061022a91906116b3565b610872565b005b61024b60048036038101906102469190611659565b610a0a565b6040516102589190611af3565b60405180910390f35b610269610a22565b005b610273610c6e565b6040516102809190611af3565b60405180910390f35b610291610c74565b005b61029b610c88565b6040516102a89190611af3565b60405180910390f35b6102b9610cf6565b6040516102c691906118ec565b60405180910390f35b6102d7610d1f565b6040516102e491906118ec565b60405180910390f35b610307600480360381019061030291906116b3565b610d45565b005b610311610e0c565b60405161031e91906118ec565b60405180910390f35b61032f610e32565b60405161033c9190611af3565b60405180910390f35b61034d610f00565b60405161035a9190611af3565b60405180910390f35b61037d60048036038101906103789190611659565b610f06565b60405161038c93929190611b0e565b60405180910390f35b6103af60048036038101906103aa91906116b3565b610f3d565b005b6103cb60048036038101906103c69190611659565b611062565b005b6103e760048036038101906103e29190611659565b6110ae565b005b61040360048036038101906103fe91906116b3565b611132565b005b600160009054906101000a900473ffffffffffffffffffffffffffffffffffffffff1673ffffffffffffffffffffffffffffffffffffffff1663b88d4fde3033846040518463ffffffff1660e01b81526004016104649392919061193e565b600060405180830381600087803b15801561047e57600080fd5b505af1158015610492573d6000803e3d6000fd5b5050505050565b60065481565b600260009054906101000a900473ffffffffffffffffffffffffffffffffffffffff1681565b6104cd611144565b600260009054906101000a900473ffffffffffffffffffffffffffffffffffffffff1673ffffffffffffffffffffffffffffffffffffffff163373ffffffffffffffffffffffffffffffffffffffff161461055d576040517f08c379a000000000000000000000000000000000000000000000000000000000815260040161055490611a13565b60405180910390fd5b612710600a60003373ffffffffffffffffffffffffffffffffffffffff1673ffffffffffffffffffffffffffffffffffffffff16815260200190815260200160002060008282546105ae9190611b88565b92505081905550612710600660008282546105c99190611b88565b9250508190555061064333600360009054906101000a900473ffffffffffffffffffffffffffffffffffffffff16612710600360009054906101000a900473ffffffffffffffffffffffffffffffffffffffff1673ffffffffffffffffffffffffffffffffffffffff166111c2909392919063ffffffff16565b565b61064d611144565b80600360006101000a81548173ffffffffffffffffffffffffffffffffffffffff021916908373ffffffffffffffffffffffffffffffffffffffff16021790555050565b600360009054906101000a900473ffffffffffffffffffffffffffffffffffffffff1673ffffffffffffffffffffffffffffffffffffffff1663a9059cbb33600960003373ffffffffffffffffffffffffffffffffffffffff1673ffffffffffffffffffffffffffffffffffffffff168152602001908152602001600020546040518363ffffffff1660e01b815260040161072d929190611988565b602060405180830381600087803b15801561074757600080fd5b505af115801561075b573d6000803e3d6000fd5b505050506040513d601f19601f8201168201806040525081019061077f9190611686565b50600960003373ffffffffffffffffffffffffffffffffffffffff1673ffffffffffffffffffffffffffffffffffffffff16815260200190815260200160002054600a60003373ffffffffffffffffffffffffffffffffffffffff1673ffffffffffffffffffffffffffffffffffffffff168152602001908152602001600020600082825461080e9190611c69565b92505081905550600960003373ffffffffffffffffffffffffffffffffffffffff1673ffffffffffffffffffffffffffffffffffffffff16815260200190815260200160002060009055565b600a6020528060005260406000206000915090505481565b600860003373ffffffffffffffffffffffffffffffffffffffff1673ffffffffffffffffffffffffffffffffffffffff16815260200190815260200160002060020160009054906101000a900460ff1615610902576040517f08c379a00000000000000000000000000000000000000000000000000000000081526004016108f990611a73565b60405180910390fd5b604051806060016040528082815260200142815260200160011515815250600860003373ffffffffffffffffffffffffffffffffffffffff1673ffffffffffffffffffffffffffffffffffffffff168152602001908152602001600020600082015181600001556020820151816001015560408201518160020160006101000a81548160ff021916908315150217905550905050610a0733600360009054906101000a900473ffffffffffffffffffffffffffffffffffffffff1683600360009054906101000a900473ffffffffffffffffffffffffffffffffffffffff1673ffffffffffffffffffffffffffffffffffffffff166111c2909392919063ffffffff16565b50565b60096020528060005260406000206000915090505481565b600860003373ffffffffffffffffffffffffffffffffffffffff1673ffffffffffffffffffffffffffffffffffffffff16815260200190815260200160002060020160009054906101000a900460ff16610ab1576040517f08c379a0000000000000000000000000000000000000000000000000000000008152600401610aa890611a33565b60405180910390fd5b6000600860003373ffffffffffffffffffffffffffffffffffffffff1673ffffffffffffffffffffffffffffffffffffffff168152602001908152602001600020600001549050610b00610e32565b600960003373ffffffffffffffffffffffffffffffffffffffff1673ffffffffffffffffffffffffffffffffffffffff1681526020019081526020016000206000828254610b4e9190611b88565b92505081905550600360009054906101000a900473ffffffffffffffffffffffffffffffffffffffff1673ffffffffffffffffffffffffffffffffffffffff1663a9059cbb33836040518363ffffffff1660e01b8152600401610bb2929190611988565b602060405180830381600087803b158015610bcc57600080fd5b505af1158015610be0573d6000803e3d6000fd5b505050506040513d601f19601f82011682018060405250810190610c049190611686565b50600860003373ffffffffffffffffffffffffffffffffffffffff1673ffffffffffffffffffffffffffffffffffffffff16815260200190815260200160002060008082016000905560018201600090556002820160006101000a81549060ff0219169055505050565b60045481565b610c7c611144565b610c86600061124b565b565b6000610c92611144565b60006006546064600a60003373ffffffffffffffffffffffffffffffffffffffff1673ffffffffffffffffffffffffffffffffffffffff16815260200190815260200160002054610ce39190611c0f565b610ced9190611bde565b90508091505090565b60008060009054906101000a900473ffffffffffffffffffffffffffffffffffffffff16905090565b600360009054906101000a900473ffffffffffffffffffffffffffffffffffffffff1681565b610d4d611144565b80600a60003373ffffffffffffffffffffffffffffffffffffffff1673ffffffffffffffffffffffffffffffffffffffff1681526020019081526020016000206000828254610d9c9190611c69565b925050819055508060066000828254610db59190611c69565b92505081905550610e093382600360009054906101000a900473ffffffffffffffffffffffffffffffffffffffff1673ffffffffffffffffffffffffffffffffffffffff1661130f9092919063ffffffff16565b50565b600160009054906101000a900473ffffffffffffffffffffffffffffffffffffffff1681565b600080600860003373ffffffffffffffffffffffffffffffffffffffff1673ffffffffffffffffffffffffffffffffffffffff1681526020019081526020016000206001015442610e839190611c69565b600754600860003373ffffffffffffffffffffffffffffffffffffffff1673ffffffffffffffffffffffffffffffffffffffff16815260200190815260200160002060000154610ed39190611c0f565b610edd9190611c0f565b9050600061177082610eef9190611bde565b905042600581905550809250505090565b60055481565b60086020528060005260406000206000915090508060000154908060010154908060020160009054906101000a900460ff16905083565b600160009054906101000a900473ffffffffffffffffffffffffffffffffffffffff1673ffffffffffffffffffffffffffffffffffffffff163373ffffffffffffffffffffffffffffffffffffffff161415610fce576040517f08c379a0000000000000000000000000000000000000000000000000000000008152600401610fc5906119d3565b60405180910390fd5b600160009054906101000a900473ffffffffffffffffffffffffffffffffffffffff1673ffffffffffffffffffffffffffffffffffffffff1663b88d4fde3330846040518463ffffffff1660e01b815260040161102d9392919061193e565b600060405180830381600087803b15801561104757600080fd5b505af115801561105b573d6000803e3d6000fd5b5050505050565b61106a611144565b80600160006101000a81548173ffffffffffffffffffffffffffffffffffffffff021916908373ffffffffffffffffffffffffffffffffffffffff16021790555050565b6110b6611144565b600073ffffffffffffffffffffffffffffffffffffffff168173ffffffffffffffffffffffffffffffffffffffff161415611126576040517f08c379a000000000000000000000000000000000000000000000000000000000815260040161111d906119f3565b60405180910390fd5b61112f8161124b565b50565b61113a611144565b8060078190555050565b61114c611395565b73ffffffffffffffffffffffffffffffffffffffff1661116a610cf6565b73ffffffffffffffffffffffffffffffffffffffff16146111c0576040517f08c379a00000000000000000000000000000000000000000000000000000000081526004016111b790611a93565b60405180910390fd5b565b611245846323b872dd60e01b8585856040516024016111e393929190611907565b604051602081830303815290604052907bffffffffffffffffffffffffffffffffffffffffffffffffffffffff19166020820180517bffffffffffffffffffffffffffffffffffffffffffffffffffffffff838183161783525050505061139d565b50505050565b60008060009054906101000a900473ffffffffffffffffffffffffffffffffffffffff169050816000806101000a81548173ffffffffffffffffffffffffffffffffffffffff021916908373ffffffffffffffffffffffffffffffffffffffff1602179055508173ffffffffffffffffffffffffffffffffffffffff168173ffffffffffffffffffffffffffffffffffffffff167f8be0079c531659141344cd1fd0a4f28419497f9722a3daafe3b4186f6b6457e060405160405180910390a35050565b6113908363a9059cbb60e01b848460405160240161132e929190611988565b604051602081830303815290604052907bffffffffffffffffffffffffffffffffffffffffffffffffffffffff19166020820180517bffffffffffffffffffffffffffffffffffffffffffffffffffffffff838183161783525050505061139d565b505050565b600033905090565b60006113ff826040518060400160405280602081526020017f5361666545524332303a206c6f772d6c6576656c2063616c6c206661696c65648152508573ffffffffffffffffffffffffffffffffffffffff166114649092919063ffffffff16565b905060008151111561145f578080602001905181019061141f9190611686565b61145e576040517f08c379a000000000000000000000000000000000000000000000000000000000815260040161145590611ad3565b60405180910390fd5b5b505050565b6060611473848460008561147c565b90509392505050565b6060824710156114c1576040517f08c379a00000000000000000000000000000000000000000000000000000000081526004016114b890611a53565b60405180910390fd5b6114ca85611590565b611509576040517f08c379a000000000000000000000000000000000000000000000000000000000815260040161150090611ab3565b60405180910390fd5b6000808673ffffffffffffffffffffffffffffffffffffffff16858760405161153291906118d5565b60006040518083038185875af1925050503d806000811461156f576040519150601f19603f3d011682016040523d82523d6000602084013e611574565b606091505b50915091506115848282866115b3565b92505050949350505050565b6000808273ffffffffffffffffffffffffffffffffffffffff163b119050919050565b606083156115c357829050611613565b6000835111156115d65782518084602001fd5b816040517f08c379a000000000000000000000000000000000000000000000000000000000815260040161160a91906119b1565b60405180910390fd5b9392505050565b60008135905061162981611f72565b92915050565b60008151905061163e81611f89565b92915050565b60008135905061165381611fa0565b92915050565b60006020828403121561166f5761166e611d76565b5b600061167d8482850161161a565b91505092915050565b60006020828403121561169c5761169b611d76565b5b60006116aa8482850161162f565b91505092915050565b6000602082840312156116c9576116c8611d76565b5b60006116d784828501611644565b91505092915050565b6116e981611c9d565b82525050565b6116f881611caf565b82525050565b600061170982611b45565b6117138185611b6c565b9350611723818560208601611ce5565b80840191505092915050565b600061173a82611b50565b6117448185611b77565b9350611754818560208601611ce5565b61175d81611d7b565b840191505092915050565b6000611775600f83611b77565b915061178082611d8c565b602082019050919050565b6000611798602683611b77565b91506117a382611db5565b604082019050919050565b60006117bb601783611b77565b91506117c682611e04565b602082019050919050565b60006117de601283611b77565b91506117e982611e2d565b602082019050919050565b6000611801602683611b77565b915061180c82611e56565b604082019050919050565b6000611824601583611b77565b915061182f82611ea5565b602082019050919050565b6000611847602083611b77565b915061185282611ece565b602082019050919050565b600061186a600083611b5b565b915061187582611ef7565b600082019050919050565b600061188d601d83611b77565b915061189882611efa565b602082019050919050565b60006118b0602a83611b77565b91506118bb82611f23565b604082019050919050565b6118cf81611cdb565b82525050565b60006118e182846116fe565b915081905092915050565b600060208201905061190160008301846116e0565b92915050565b600060608201905061191c60008301866116e0565b61192960208301856116e0565b61193660408301846118c6565b949350505050565b600060808201905061195360008301866116e0565b61196060208301856116e0565b61196d60408301846118c6565b818103606083015261197e8161185d565b9050949350505050565b600060408201905061199d60008301856116e0565b6119aa60208301846118c6565b9392505050565b600060208201905081810360008301526119cb818461172f565b905092915050565b600060208201905081810360008301526119ec81611768565b9050919050565b60006020820190508181036000830152611a0c8161178b565b9050919050565b60006020820190508181036000830152611a2c816117ae565b9050919050565b60006020820190508181036000830152611a4c816117d1565b9050919050565b60006020820190508181036000830152611a6c816117f4565b9050919050565b60006020820190508181036000830152611a8c81611817565b9050919050565b60006020820190508181036000830152611aac8161183a565b9050919050565b60006020820190508181036000830152611acc81611880565b9050919050565b60006020820190508181036000830152611aec816118a3565b9050919050565b6000602082019050611b0860008301846118c6565b92915050565b6000606082019050611b2360008301866118c6565b611b3060208301856118c6565b611b3d60408301846116ef565b949350505050565b600081519050919050565b600081519050919050565b600082825260208201905092915050565b600081905092915050565b600082825260208201905092915050565b6000611b9382611cdb565b9150611b9e83611cdb565b9250827fffffffffffffffffffffffffffffffffffffffffffffffffffffffffffffffff03821115611bd357611bd2611d18565b5b828201905092915050565b6000611be982611cdb565b9150611bf483611cdb565b925082611c0457611c03611d47565b5b828204905092915050565b6000611c1a82611cdb565b9150611c2583611cdb565b9250817fffffffffffffffffffffffffffffffffffffffffffffffffffffffffffffffff0483118215151615611c5e57611c5d611d18565b5b828202905092915050565b6000611c7482611cdb565b9150611c7f83611cdb565b925082821015611c9257611c91611d18565b5b828203905092915050565b6000611ca882611cbb565b9050919050565b60008115159050919050565b600073ffffffffffffffffffffffffffffffffffffffff82169050919050565b6000819050919050565b60005b83811015611d03578082015181840152602081019050611ce8565b83811115611d12576000848401525b50505050565b7f4e487b7100000000000000000000000000000000000000000000000000000000600052601160045260246000fd5b7f4e487b7100000000000000000000000000000000000000000000000000000000600052601260045260246000fd5b600080fd5b6000601f19601f8301169050919050565b7f496e76616c696420616464726573730000000000000000000000000000000000600082015250565b7f4f776e61626c653a206e6577206f776e657220697320746865207a65726f206160008201527f6464726573730000000000000000000000000000000000000000000000000000602082015250565b7f4f6e6c79204f776e65722063616e207472616e73666572000000000000000000600082015250565b7f506c65617365204669727374205374616b650000000000000000000000000000600082015250565b7f416464726573733a20696e73756666696369656e742062616c616e636520666f60008201527f722063616c6c0000000000000000000000000000000000000000000000000000602082015250565b7f506c656173652046697273742057697468447261770000000000000000000000600082015250565b7f4f776e61626c653a2063616c6c6572206973206e6f7420746865206f776e6572600082015250565b50565b7f416464726573733a2063616c6c20746f206e6f6e2d636f6e7472616374000000600082015250565b7f5361666545524332303a204552433230206f7065726174696f6e20646964206e60008201527f6f74207375636365656400000000000000000000000000000000000000000000602082015250565b611f7b81611c9d565b8114611f8657600080fd5b50565b611f9281611caf565b8114611f9d57600080fd5b50565b611fa981611cdb565b8114611fb457600080fd5b5056fea26469706673582212206cde418511b7b8c98279c3835841abbbebff99b29893577f3d8eeefb5d278f6264736f6c63430008070033",
					"opcodes": "PUSH1 0x80 PUSH1 0x40 MSTORE CALLVALUE DUP1 ISZERO PUSH3 0x11 JUMPI PUSH1 0x0 DUP1 REVERT JUMPDEST POP PUSH1 0x40 MLOAD PUSH3 0x22F4 CODESIZE SUB DUP1 PUSH3 0x22F4 DUP4 CODECOPY DUP2 DUP2 ADD PUSH1 0x40 MSTORE DUP2 ADD SWAP1 PUSH3 0x37 SWAP2 SWAP1 PUSH3 0x224 JUMP JUMPDEST PUSH3 0x57 PUSH3 0x4B PUSH3 0x12A PUSH1 0x20 SHL PUSH1 0x20 SHR JUMP JUMPDEST PUSH3 0x132 PUSH1 0x20 SHL PUSH1 0x20 SHR JUMP JUMPDEST DUP3 PUSH1 0x1 PUSH1 0x0 PUSH2 0x100 EXP DUP2 SLOAD DUP2 PUSH20 0xFFFFFFFFFFFFFFFFFFFFFFFFFFFFFFFFFFFFFFFF MUL NOT AND SWAP1 DUP4 PUSH20 0xFFFFFFFFFFFFFFFFFFFFFFFFFFFFFFFFFFFFFFFF AND MUL OR SWAP1 SSTORE POP DUP2 PUSH1 0x7 DUP2 SWAP1 SSTORE POP DUP1 PUSH1 0x3 PUSH1 0x0 PUSH2 0x100 EXP DUP2 SLOAD DUP2 PUSH20 0xFFFFFFFFFFFFFFFFFFFFFFFFFFFFFFFFFFFFFFFF MUL NOT AND SWAP1 DUP4 PUSH20 0xFFFFFFFFFFFFFFFFFFFFFFFFFFFFFFFFFFFFFFFF AND MUL OR SWAP1 SSTORE POP CALLER PUSH1 0x2 PUSH1 0x0 PUSH2 0x100 EXP DUP2 SLOAD DUP2 PUSH20 0xFFFFFFFFFFFFFFFFFFFFFFFFFFFFFFFFFFFFFFFF MUL NOT AND SWAP1 DUP4 PUSH20 0xFFFFFFFFFFFFFFFFFFFFFFFFFFFFFFFFFFFFFFFF AND MUL OR SWAP1 SSTORE POP POP POP POP PUSH3 0x2F7 JUMP JUMPDEST PUSH1 0x0 CALLER SWAP1 POP SWAP1 JUMP JUMPDEST PUSH1 0x0 DUP1 PUSH1 0x0 SWAP1 SLOAD SWAP1 PUSH2 0x100 EXP SWAP1 DIV PUSH20 0xFFFFFFFFFFFFFFFFFFFFFFFFFFFFFFFFFFFFFFFF AND SWAP1 POP DUP2 PUSH1 0x0 DUP1 PUSH2 0x100 EXP DUP2 SLOAD DUP2 PUSH20 0xFFFFFFFFFFFFFFFFFFFFFFFFFFFFFFFFFFFFFFFF MUL NOT AND SWAP1 DUP4 PUSH20 0xFFFFFFFFFFFFFFFFFFFFFFFFFFFFFFFFFFFFFFFF AND MUL OR SWAP1 SSTORE POP DUP2 PUSH20 0xFFFFFFFFFFFFFFFFFFFFFFFFFFFFFFFFFFFFFFFF AND DUP2 PUSH20 0xFFFFFFFFFFFFFFFFFFFFFFFFFFFFFFFFFFFFFFFF AND PUSH32 0x8BE0079C531659141344CD1FD0A4F28419497F9722A3DAAFE3B4186F6B6457E0 PUSH1 0x40 MLOAD PUSH1 0x40 MLOAD DUP1 SWAP2 SUB SWAP1 LOG3 POP POP JUMP JUMPDEST PUSH1 0x0 DUP2 MLOAD SWAP1 POP PUSH3 0x207 DUP2 PUSH3 0x2C3 JUMP JUMPDEST SWAP3 SWAP2 POP POP JUMP JUMPDEST PUSH1 0x0 DUP2 MLOAD SWAP1 POP PUSH3 0x21E DUP2 PUSH3 0x2DD JUMP JUMPDEST SWAP3 SWAP2 POP POP JUMP JUMPDEST PUSH1 0x0 DUP1 PUSH1 0x0 PUSH1 0x60 DUP5 DUP7 SUB SLT ISZERO PUSH3 0x240 JUMPI PUSH3 0x23F PUSH3 0x2BE JUMP JUMPDEST JUMPDEST PUSH1 0x0 PUSH3 0x250 DUP7 DUP3 DUP8 ADD PUSH3 0x1F6 JUMP JUMPDEST SWAP4 POP POP PUSH1 0x20 PUSH3 0x263 DUP7 DUP3 DUP8 ADD PUSH3 0x20D JUMP JUMPDEST SWAP3 POP POP PUSH1 0x40 PUSH3 0x276 DUP7 DUP3 DUP8 ADD PUSH3 0x1F6 JUMP JUMPDEST SWAP2 POP POP SWAP3 POP SWAP3 POP SWAP3 JUMP JUMPDEST PUSH1 0x0 PUSH3 0x28D DUP3 PUSH3 0x294 JUMP JUMPDEST SWAP1 POP SWAP2 SWAP1 POP JUMP JUMPDEST PUSH1 0x0 PUSH20 0xFFFFFFFFFFFFFFFFFFFFFFFFFFFFFFFFFFFFFFFF DUP3 AND SWAP1 POP SWAP2 SWAP1 POP JUMP JUMPDEST PUSH1 0x0 DUP2 SWAP1 POP SWAP2 SWAP1 POP JUMP JUMPDEST PUSH1 0x0 DUP1 REVERT JUMPDEST PUSH3 0x2CE DUP2 PUSH3 0x280 JUMP JUMPDEST DUP2 EQ PUSH3 0x2DA JUMPI PUSH1 0x0 DUP1 REVERT JUMPDEST POP JUMP JUMPDEST PUSH3 0x2E8 DUP2 PUSH3 0x2B4 JUMP JUMPDEST DUP2 EQ PUSH3 0x2F4 JUMPI PUSH1 0x0 DUP1 REVERT JUMPDEST POP JUMP JUMPDEST PUSH2 0x1FED DUP1 PUSH3 0x307 PUSH1 0x0 CODECOPY PUSH1 0x0 RETURN INVALID PUSH1 0x80 PUSH1 0x40 MSTORE CALLVALUE DUP1 ISZERO PUSH2 0x10 JUMPI PUSH1 0x0 DUP1 REVERT JUMPDEST POP PUSH1 0x4 CALLDATASIZE LT PUSH2 0x158 JUMPI PUSH1 0x0 CALLDATALOAD PUSH1 0xE0 SHR DUP1 PUSH4 0x7B2F247F GT PUSH2 0xC3 JUMPI DUP1 PUSH4 0xDE9D3DDB GT PUSH2 0x7C JUMPI DUP1 PUSH4 0xDE9D3DDB EQ PUSH2 0x345 JUMPI DUP1 PUSH4 0xE88CC2BE EQ PUSH2 0x363 JUMPI DUP1 PUSH4 0xE91A7CA6 EQ PUSH2 0x395 JUMPI DUP1 PUSH4 0xEE0106D2 EQ PUSH2 0x3B1 JUMPI DUP1 PUSH4 0xF2FDE38B EQ PUSH2 0x3CD JUMPI DUP1 PUSH4 0xF89D832F EQ PUSH2 0x3E9 JUMPI PUSH2 0x158 JUMP JUMPDEST DUP1 PUSH4 0x7B2F247F EQ PUSH2 0x293 JUMPI DUP1 PUSH4 0x8DA5CB5B EQ PUSH2 0x2B1 JUMPI DUP1 PUSH4 0xA6021ACE EQ PUSH2 0x2CF JUMPI DUP1 PUSH4 0xA88E132F EQ PUSH2 0x2ED JUMPI DUP1 PUSH4 0xB7171A2E EQ PUSH2 0x309 JUMPI DUP1 PUSH4 0xC3C917B0 EQ PUSH2 0x327 JUMPI PUSH2 0x158 JUMP JUMPDEST DUP1 PUSH4 0x2FFCE210 GT PUSH2 0x115 JUMPI DUP1 PUSH4 0x2FFCE210 EQ PUSH2 0x1E5 JUMPI DUP1 PUSH4 0x4D6CE1E5 EQ PUSH2 0x215 JUMPI DUP1 PUSH4 0x57488064 EQ PUSH2 0x231 JUMPI DUP1 PUSH4 0x57EA89B6 EQ PUSH2 0x261 JUMPI DUP1 PUSH4 0x5EB82E94 EQ PUSH2 0x26B JUMPI DUP1 PUSH4 0x715018A6 EQ PUSH2 0x289 JUMPI PUSH2 0x158 JUMP JUMPDEST DUP1 PUSH4 0x23245D7 EQ PUSH2 0x15D JUMPI DUP1 PUSH4 0xCCFF6E9 EQ PUSH2 0x179 JUMPI DUP1 PUSH4 0x10FD4FBA EQ PUSH2 0x197 JUMPI DUP1 PUSH4 0x144DC29C EQ PUSH2 0x1B5 JUMPI DUP1 PUSH4 0x275BD33F EQ PUSH2 0x1BF JUMPI DUP1 PUSH4 0x2C07F74F EQ PUSH2 0x1DB JUMPI JUMPDEST PUSH1 0x0 DUP1 REVERT JUMPDEST PUSH2 0x177 PUSH1 0x4 DUP1 CALLDATASIZE SUB DUP2 ADD SWAP1 PUSH2 0x172 SWAP2 SWAP1 PUSH2 0x16B3 JUMP JUMPDEST PUSH2 0x405 JUMP JUMPDEST STOP JUMPDEST PUSH2 0x181 PUSH2 0x499 JUMP JUMPDEST PUSH1 0x40 MLOAD PUSH2 0x18E SWAP2 SWAP1 PUSH2 0x1AF3 JUMP JUMPDEST PUSH1 0x40 MLOAD DUP1 SWAP2 SUB SWAP1 RETURN JUMPDEST PUSH2 0x19F PUSH2 0x49F JUMP JUMPDEST PUSH1 0x40 MLOAD PUSH2 0x1AC SWAP2 SWAP1 PUSH2 0x18EC JUMP JUMPDEST PUSH1 0x40 MLOAD DUP1 SWAP2 SUB SWAP1 RETURN JUMPDEST PUSH2 0x1BD PUSH2 0x4C5 JUMP JUMPDEST STOP JUMPDEST PUSH2 0x1D9 PUSH1 0x4 DUP1 CALLDATASIZE SUB DUP2 ADD SWAP1 PUSH2 0x1D4 SWAP2 SWAP1 PUSH2 0x1659 JUMP JUMPDEST PUSH2 0x645 JUMP JUMPDEST STOP JUMPDEST PUSH2 0x1E3 PUSH2 0x691 JUMP JUMPDEST STOP JUMPDEST PUSH2 0x1FF PUSH1 0x4 DUP1 CALLDATASIZE SUB DUP2 ADD SWAP1 PUSH2 0x1FA SWAP2 SWAP1 PUSH2 0x1659 JUMP JUMPDEST PUSH2 0x85A JUMP JUMPDEST PUSH1 0x40 MLOAD PUSH2 0x20C SWAP2 SWAP1 PUSH2 0x1AF3 JUMP JUMPDEST PUSH1 0x40 MLOAD DUP1 SWAP2 SUB SWAP1 RETURN JUMPDEST PUSH2 0x22F PUSH1 0x4 DUP1 CALLDATASIZE SUB DUP2 ADD SWAP1 PUSH2 0x22A SWAP2 SWAP1 PUSH2 0x16B3 JUMP JUMPDEST PUSH2 0x872 JUMP JUMPDEST STOP JUMPDEST PUSH2 0x24B PUSH1 0x4 DUP1 CALLDATASIZE SUB DUP2 ADD SWAP1 PUSH2 0x246 SWAP2 SWAP1 PUSH2 0x1659 JUMP JUMPDEST PUSH2 0xA0A JUMP JUMPDEST PUSH1 0x40 MLOAD PUSH2 0x258 SWAP2 SWAP1 PUSH2 0x1AF3 JUMP JUMPDEST PUSH1 0x40 MLOAD DUP1 SWAP2 SUB SWAP1 RETURN JUMPDEST PUSH2 0x269 PUSH2 0xA22 JUMP JUMPDEST STOP JUMPDEST PUSH2 0x273 PUSH2 0xC6E JUMP JUMPDEST PUSH1 0x40 MLOAD PUSH2 0x280 SWAP2 SWAP1 PUSH2 0x1AF3 JUMP JUMPDEST PUSH1 0x40 MLOAD DUP1 SWAP2 SUB SWAP1 RETURN JUMPDEST PUSH2 0x291 PUSH2 0xC74 JUMP JUMPDEST STOP JUMPDEST PUSH2 0x29B PUSH2 0xC88 JUMP JUMPDEST PUSH1 0x40 MLOAD PUSH2 0x2A8 SWAP2 SWAP1 PUSH2 0x1AF3 JUMP JUMPDEST PUSH1 0x40 MLOAD DUP1 SWAP2 SUB SWAP1 RETURN JUMPDEST PUSH2 0x2B9 PUSH2 0xCF6 JUMP JUMPDEST PUSH1 0x40 MLOAD PUSH2 0x2C6 SWAP2 SWAP1 PUSH2 0x18EC JUMP JUMPDEST PUSH1 0x40 MLOAD DUP1 SWAP2 SUB SWAP1 RETURN JUMPDEST PUSH2 0x2D7 PUSH2 0xD1F JUMP JUMPDEST PUSH1 0x40 MLOAD PUSH2 0x2E4 SWAP2 SWAP1 PUSH2 0x18EC JUMP JUMPDEST PUSH1 0x40 MLOAD DUP1 SWAP2 SUB SWAP1 RETURN JUMPDEST PUSH2 0x307 PUSH1 0x4 DUP1 CALLDATASIZE SUB DUP2 ADD SWAP1 PUSH2 0x302 SWAP2 SWAP1 PUSH2 0x16B3 JUMP JUMPDEST PUSH2 0xD45 JUMP JUMPDEST STOP JUMPDEST PUSH2 0x311 PUSH2 0xE0C JUMP JUMPDEST PUSH1 0x40 MLOAD PUSH2 0x31E SWAP2 SWAP1 PUSH2 0x18EC JUMP JUMPDEST PUSH1 0x40 MLOAD DUP1 SWAP2 SUB SWAP1 RETURN JUMPDEST PUSH2 0x32F PUSH2 0xE32 JUMP JUMPDEST PUSH1 0x40 MLOAD PUSH2 0x33C SWAP2 SWAP1 PUSH2 0x1AF3 JUMP JUMPDEST PUSH1 0x40 MLOAD DUP1 SWAP2 SUB SWAP1 RETURN JUMPDEST PUSH2 0x34D PUSH2 0xF00 JUMP JUMPDEST PUSH1 0x40 MLOAD PUSH2 0x35A SWAP2 SWAP1 PUSH2 0x1AF3 JUMP JUMPDEST PUSH1 0x40 MLOAD DUP1 SWAP2 SUB SWAP1 RETURN JUMPDEST PUSH2 0x37D PUSH1 0x4 DUP1 CALLDATASIZE SUB DUP2 ADD SWAP1 PUSH2 0x378 SWAP2 SWAP1 PUSH2 0x1659 JUMP JUMPDEST PUSH2 0xF06 JUMP JUMPDEST PUSH1 0x40 MLOAD PUSH2 0x38C SWAP4 SWAP3 SWAP2 SWAP1 PUSH2 0x1B0E JUMP JUMPDEST PUSH1 0x40 MLOAD DUP1 SWAP2 SUB SWAP1 RETURN JUMPDEST PUSH2 0x3AF PUSH1 0x4 DUP1 CALLDATASIZE SUB DUP2 ADD SWAP1 PUSH2 0x3AA SWAP2 SWAP1 PUSH2 0x16B3 JUMP JUMPDEST PUSH2 0xF3D JUMP JUMPDEST STOP JUMPDEST PUSH2 0x3CB PUSH1 0x4 DUP1 CALLDATASIZE SUB DUP2 ADD SWAP1 PUSH2 0x3C6 SWAP2 SWAP1 PUSH2 0x1659 JUMP JUMPDEST PUSH2 0x1062 JUMP JUMPDEST STOP JUMPDEST PUSH2 0x3E7 PUSH1 0x4 DUP1 CALLDATASIZE SUB DUP2 ADD SWAP1 PUSH2 0x3E2 SWAP2 SWAP1 PUSH2 0x1659 JUMP JUMPDEST PUSH2 0x10AE JUMP JUMPDEST STOP JUMPDEST PUSH2 0x403 PUSH1 0x4 DUP1 CALLDATASIZE SUB DUP2 ADD SWAP1 PUSH2 0x3FE SWAP2 SWAP1 PUSH2 0x16B3 JUMP JUMPDEST PUSH2 0x1132 JUMP JUMPDEST STOP JUMPDEST PUSH1 0x1 PUSH1 0x0 SWAP1 SLOAD SWAP1 PUSH2 0x100 EXP SWAP1 DIV PUSH20 0xFFFFFFFFFFFFFFFFFFFFFFFFFFFFFFFFFFFFFFFF AND PUSH20 0xFFFFFFFFFFFFFFFFFFFFFFFFFFFFFFFFFFFFFFFF AND PUSH4 0xB88D4FDE ADDRESS CALLER DUP5 PUSH1 0x40 MLOAD DUP5 PUSH4 0xFFFFFFFF AND PUSH1 0xE0 SHL DUP2 MSTORE PUSH1 0x4 ADD PUSH2 0x464 SWAP4 SWAP3 SWAP2 SWAP1 PUSH2 0x193E JUMP JUMPDEST PUSH1 0x0 PUSH1 0x40 MLOAD DUP1 DUP4 SUB DUP2 PUSH1 0x0 DUP8 DUP1 EXTCODESIZE ISZERO DUP1 ISZERO PUSH2 0x47E JUMPI PUSH1 0x0 DUP1 REVERT JUMPDEST POP GAS CALL ISZERO DUP1 ISZERO PUSH2 0x492 JUMPI RETURNDATASIZE PUSH1 0x0 DUP1 RETURNDATACOPY RETURNDATASIZE PUSH1 0x0 REVERT JUMPDEST POP POP POP POP POP JUMP JUMPDEST PUSH1 0x6 SLOAD DUP2 JUMP JUMPDEST PUSH1 0x2 PUSH1 0x0 SWAP1 SLOAD SWAP1 PUSH2 0x100 EXP SWAP1 DIV PUSH20 0xFFFFFFFFFFFFFFFFFFFFFFFFFFFFFFFFFFFFFFFF AND DUP2 JUMP JUMPDEST PUSH2 0x4CD PUSH2 0x1144 JUMP JUMPDEST PUSH1 0x2 PUSH1 0x0 SWAP1 SLOAD SWAP1 PUSH2 0x100 EXP SWAP1 DIV PUSH20 0xFFFFFFFFFFFFFFFFFFFFFFFFFFFFFFFFFFFFFFFF AND PUSH20 0xFFFFFFFFFFFFFFFFFFFFFFFFFFFFFFFFFFFFFFFF AND CALLER PUSH20 0xFFFFFFFFFFFFFFFFFFFFFFFFFFFFFFFFFFFFFFFF AND EQ PUSH2 0x55D JUMPI PUSH1 0x40 MLOAD PUSH32 0x8C379A000000000000000000000000000000000000000000000000000000000 DUP2 MSTORE PUSH1 0x4 ADD PUSH2 0x554 SWAP1 PUSH2 0x1A13 JUMP JUMPDEST PUSH1 0x40 MLOAD DUP1 SWAP2 SUB SWAP1 REVERT JUMPDEST PUSH2 0x2710 PUSH1 0xA PUSH1 0x0 CALLER PUSH20 0xFFFFFFFFFFFFFFFFFFFFFFFFFFFFFFFFFFFFFFFF AND PUSH20 0xFFFFFFFFFFFFFFFFFFFFFFFFFFFFFFFFFFFFFFFF AND DUP2 MSTORE PUSH1 0x20 ADD SWAP1 DUP2 MSTORE PUSH1 0x20 ADD PUSH1 0x0 KECCAK256 PUSH1 0x0 DUP3 DUP3 SLOAD PUSH2 0x5AE SWAP2 SWAP1 PUSH2 0x1B88 JUMP JUMPDEST SWAP3 POP POP DUP2 SWAP1 SSTORE POP PUSH2 0x2710 PUSH1 0x6 PUSH1 0x0 DUP3 DUP3 SLOAD PUSH2 0x5C9 SWAP2 SWAP1 PUSH2 0x1B88 JUMP JUMPDEST SWAP3 POP POP DUP2 SWAP1 SSTORE POP PUSH2 0x643 CALLER PUSH1 0x3 PUSH1 0x0 SWAP1 SLOAD SWAP1 PUSH2 0x100 EXP SWAP1 DIV PUSH20 0xFFFFFFFFFFFFFFFFFFFFFFFFFFFFFFFFFFFFFFFF AND PUSH2 0x2710 PUSH1 0x3 PUSH1 0x0 SWAP1 SLOAD SWAP1 PUSH2 0x100 EXP SWAP1 DIV PUSH20 0xFFFFFFFFFFFFFFFFFFFFFFFFFFFFFFFFFFFFFFFF AND PUSH20 0xFFFFFFFFFFFFFFFFFFFFFFFFFFFFFFFFFFFFFFFF AND PUSH2 0x11C2 SWAP1 SWAP4 SWAP3 SWAP2 SWAP1 PUSH4 0xFFFFFFFF AND JUMP JUMPDEST JUMP JUMPDEST PUSH2 0x64D PUSH2 0x1144 JUMP JUMPDEST DUP1 PUSH1 0x3 PUSH1 0x0 PUSH2 0x100 EXP DUP2 SLOAD DUP2 PUSH20 0xFFFFFFFFFFFFFFFFFFFFFFFFFFFFFFFFFFFFFFFF MUL NOT AND SWAP1 DUP4 PUSH20 0xFFFFFFFFFFFFFFFFFFFFFFFFFFFFFFFFFFFFFFFF AND MUL OR SWAP1 SSTORE POP POP JUMP JUMPDEST PUSH1 0x3 PUSH1 0x0 SWAP1 SLOAD SWAP1 PUSH2 0x100 EXP SWAP1 DIV PUSH20 0xFFFFFFFFFFFFFFFFFFFFFFFFFFFFFFFFFFFFFFFF AND PUSH20 0xFFFFFFFFFFFFFFFFFFFFFFFFFFFFFFFFFFFFFFFF AND PUSH4 0xA9059CBB CALLER PUSH1 0x9 PUSH1 0x0 CALLER PUSH20 0xFFFFFFFFFFFFFFFFFFFFFFFFFFFFFFFFFFFFFFFF AND PUSH20 0xFFFFFFFFFFFFFFFFFFFFFFFFFFFFFFFFFFFFFFFF AND DUP2 MSTORE PUSH1 0x20 ADD SWAP1 DUP2 MSTORE PUSH1 0x20 ADD PUSH1 0x0 KECCAK256 SLOAD PUSH1 0x40 MLOAD DUP4 PUSH4 0xFFFFFFFF AND PUSH1 0xE0 SHL DUP2 MSTORE PUSH1 0x4 ADD PUSH2 0x72D SWAP3 SWAP2 SWAP1 PUSH2 0x1988 JUMP JUMPDEST PUSH1 0x20 PUSH1 0x40 MLOAD DUP1 DUP4 SUB DUP2 PUSH1 0x0 DUP8 DUP1 EXTCODESIZE ISZERO DUP1 ISZERO PUSH2 0x747 JUMPI PUSH1 0x0 DUP1 REVERT JUMPDEST POP GAS CALL ISZERO DUP1 ISZERO PUSH2 0x75B JUMPI RETURNDATASIZE PUSH1 0x0 DUP1 RETURNDATACOPY RETURNDATASIZE PUSH1 0x0 REVERT JUMPDEST POP POP POP POP PUSH1 0x40 MLOAD RETURNDATASIZE PUSH1 0x1F NOT PUSH1 0x1F DUP3 ADD AND DUP3 ADD DUP1 PUSH1 0x40 MSTORE POP DUP2 ADD SWAP1 PUSH2 0x77F SWAP2 SWAP1 PUSH2 0x1686 JUMP JUMPDEST POP PUSH1 0x9 PUSH1 0x0 CALLER PUSH20 0xFFFFFFFFFFFFFFFFFFFFFFFFFFFFFFFFFFFFFFFF AND PUSH20 0xFFFFFFFFFFFFFFFFFFFFFFFFFFFFFFFFFFFFFFFF AND DUP2 MSTORE PUSH1 0x20 ADD SWAP1 DUP2 MSTORE PUSH1 0x20 ADD PUSH1 0x0 KECCAK256 SLOAD PUSH1 0xA PUSH1 0x0 CALLER PUSH20 0xFFFFFFFFFFFFFFFFFFFFFFFFFFFFFFFFFFFFFFFF AND PUSH20 0xFFFFFFFFFFFFFFFFFFFFFFFFFFFFFFFFFFFFFFFF AND DUP2 MSTORE PUSH1 0x20 ADD SWAP1 DUP2 MSTORE PUSH1 0x20 ADD PUSH1 0x0 KECCAK256 PUSH1 0x0 DUP3 DUP3 SLOAD PUSH2 0x80E SWAP2 SWAP1 PUSH2 0x1C69 JUMP JUMPDEST SWAP3 POP POP DUP2 SWAP1 SSTORE POP PUSH1 0x9 PUSH1 0x0 CALLER PUSH20 0xFFFFFFFFFFFFFFFFFFFFFFFFFFFFFFFFFFFFFFFF AND PUSH20 0xFFFFFFFFFFFFFFFFFFFFFFFFFFFFFFFFFFFFFFFF AND DUP2 MSTORE PUSH1 0x20 ADD SWAP1 DUP2 MSTORE PUSH1 0x20 ADD PUSH1 0x0 KECCAK256 PUSH1 0x0 SWAP1 SSTORE JUMP JUMPDEST PUSH1 0xA PUSH1 0x20 MSTORE DUP1 PUSH1 0x0 MSTORE PUSH1 0x40 PUSH1 0x0 KECCAK256 PUSH1 0x0 SWAP2 POP SWAP1 POP SLOAD DUP2 JUMP JUMPDEST PUSH1 0x8 PUSH1 0x0 CALLER PUSH20 0xFFFFFFFFFFFFFFFFFFFFFFFFFFFFFFFFFFFFFFFF AND PUSH20 0xFFFFFFFFFFFFFFFFFFFFFFFFFFFFFFFFFFFFFFFF AND DUP2 MSTORE PUSH1 0x20 ADD SWAP1 DUP2 MSTORE PUSH1 0x20 ADD PUSH1 0x0 KECCAK256 PUSH1 0x2 ADD PUSH1 0x0 SWAP1 SLOAD SWAP1 PUSH2 0x100 EXP SWAP1 DIV PUSH1 0xFF AND ISZERO PUSH2 0x902 JUMPI PUSH1 0x40 MLOAD PUSH32 0x8C379A000000000000000000000000000000000000000000000000000000000 DUP2 MSTORE PUSH1 0x4 ADD PUSH2 0x8F9 SWAP1 PUSH2 0x1A73 JUMP JUMPDEST PUSH1 0x40 MLOAD DUP1 SWAP2 SUB SWAP1 REVERT JUMPDEST PUSH1 0x40 MLOAD DUP1 PUSH1 0x60 ADD PUSH1 0x40 MSTORE DUP1 DUP3 DUP2 MSTORE PUSH1 0x20 ADD TIMESTAMP DUP2 MSTORE PUSH1 0x20 ADD PUSH1 0x1 ISZERO ISZERO DUP2 MSTORE POP PUSH1 0x8 PUSH1 0x0 CALLER PUSH20 0xFFFFFFFFFFFFFFFFFFFFFFFFFFFFFFFFFFFFFFFF AND PUSH20 0xFFFFFFFFFFFFFFFFFFFFFFFFFFFFFFFFFFFFFFFF AND DUP2 MSTORE PUSH1 0x20 ADD SWAP1 DUP2 MSTORE PUSH1 0x20 ADD PUSH1 0x0 KECCAK256 PUSH1 0x0 DUP3 ADD MLOAD DUP2 PUSH1 0x0 ADD SSTORE PUSH1 0x20 DUP3 ADD MLOAD DUP2 PUSH1 0x1 ADD SSTORE PUSH1 0x40 DUP3 ADD MLOAD DUP2 PUSH1 0x2 ADD PUSH1 0x0 PUSH2 0x100 EXP DUP2 SLOAD DUP2 PUSH1 0xFF MUL NOT AND SWAP1 DUP4 ISZERO ISZERO MUL OR SWAP1 SSTORE POP SWAP1 POP POP PUSH2 0xA07 CALLER PUSH1 0x3 PUSH1 0x0 SWAP1 SLOAD SWAP1 PUSH2 0x100 EXP SWAP1 DIV PUSH20 0xFFFFFFFFFFFFFFFFFFFFFFFFFFFFFFFFFFFFFFFF AND DUP4 PUSH1 0x3 PUSH1 0x0 SWAP1 SLOAD SWAP1 PUSH2 0x100 EXP SWAP1 DIV PUSH20 0xFFFFFFFFFFFFFFFFFFFFFFFFFFFFFFFFFFFFFFFF AND PUSH20 0xFFFFFFFFFFFFFFFFFFFFFFFFFFFFFFFFFFFFFFFF AND PUSH2 0x11C2 SWAP1 SWAP4 SWAP3 SWAP2 SWAP1 PUSH4 0xFFFFFFFF AND JUMP JUMPDEST POP JUMP JUMPDEST PUSH1 0x9 PUSH1 0x20 MSTORE DUP1 PUSH1 0x0 MSTORE PUSH1 0x40 PUSH1 0x0 KECCAK256 PUSH1 0x0 SWAP2 POP SWAP1 POP SLOAD DUP2 JUMP JUMPDEST PUSH1 0x8 PUSH1 0x0 CALLER PUSH20 0xFFFFFFFFFFFFFFFFFFFFFFFFFFFFFFFFFFFFFFFF AND PUSH20 0xFFFFFFFFFFFFFFFFFFFFFFFFFFFFFFFFFFFFFFFF AND DUP2 MSTORE PUSH1 0x20 ADD SWAP1 DUP2 MSTORE PUSH1 0x20 ADD PUSH1 0x0 KECCAK256 PUSH1 0x2 ADD PUSH1 0x0 SWAP1 SLOAD SWAP1 PUSH2 0x100 EXP SWAP1 DIV PUSH1 0xFF AND PUSH2 0xAB1 JUMPI PUSH1 0x40 MLOAD PUSH32 0x8C379A000000000000000000000000000000000000000000000000000000000 DUP2 MSTORE PUSH1 0x4 ADD PUSH2 0xAA8 SWAP1 PUSH2 0x1A33 JUMP JUMPDEST PUSH1 0x40 MLOAD DUP1 SWAP2 SUB SWAP1 REVERT JUMPDEST PUSH1 0x0 PUSH1 0x8 PUSH1 0x0 CALLER PUSH20 0xFFFFFFFFFFFFFFFFFFFFFFFFFFFFFFFFFFFFFFFF AND PUSH20 0xFFFFFFFFFFFFFFFFFFFFFFFFFFFFFFFFFFFFFFFF AND DUP2 MSTORE PUSH1 0x20 ADD SWAP1 DUP2 MSTORE PUSH1 0x20 ADD PUSH1 0x0 KECCAK256 PUSH1 0x0 ADD SLOAD SWAP1 POP PUSH2 0xB00 PUSH2 0xE32 JUMP JUMPDEST PUSH1 0x9 PUSH1 0x0 CALLER PUSH20 0xFFFFFFFFFFFFFFFFFFFFFFFFFFFFFFFFFFFFFFFF AND PUSH20 0xFFFFFFFFFFFFFFFFFFFFFFFFFFFFFFFFFFFFFFFF AND DUP2 MSTORE PUSH1 0x20 ADD SWAP1 DUP2 MSTORE PUSH1 0x20 ADD PUSH1 0x0 KECCAK256 PUSH1 0x0 DUP3 DUP3 SLOAD PUSH2 0xB4E SWAP2 SWAP1 PUSH2 0x1B88 JUMP JUMPDEST SWAP3 POP POP DUP2 SWAP1 SSTORE POP PUSH1 0x3 PUSH1 0x0 SWAP1 SLOAD SWAP1 PUSH2 0x100 EXP SWAP1 DIV PUSH20 0xFFFFFFFFFFFFFFFFFFFFFFFFFFFFFFFFFFFFFFFF AND PUSH20 0xFFFFFFFFFFFFFFFFFFFFFFFFFFFFFFFFFFFFFFFF AND PUSH4 0xA9059CBB CALLER DUP4 PUSH1 0x40 MLOAD DUP4 PUSH4 0xFFFFFFFF AND PUSH1 0xE0 SHL DUP2 MSTORE PUSH1 0x4 ADD PUSH2 0xBB2 SWAP3 SWAP2 SWAP1 PUSH2 0x1988 JUMP JUMPDEST PUSH1 0x20 PUSH1 0x40 MLOAD DUP1 DUP4 SUB DUP2 PUSH1 0x0 DUP8 DUP1 EXTCODESIZE ISZERO DUP1 ISZERO PUSH2 0xBCC JUMPI PUSH1 0x0 DUP1 REVERT JUMPDEST POP GAS CALL ISZERO DUP1 ISZERO PUSH2 0xBE0 JUMPI RETURNDATASIZE PUSH1 0x0 DUP1 RETURNDATACOPY RETURNDATASIZE PUSH1 0x0 REVERT JUMPDEST POP POP POP POP PUSH1 0x40 MLOAD RETURNDATASIZE PUSH1 0x1F NOT PUSH1 0x1F DUP3 ADD AND DUP3 ADD DUP1 PUSH1 0x40 MSTORE POP DUP2 ADD SWAP1 PUSH2 0xC04 SWAP2 SWAP1 PUSH2 0x1686 JUMP JUMPDEST POP PUSH1 0x8 PUSH1 0x0 CALLER PUSH20 0xFFFFFFFFFFFFFFFFFFFFFFFFFFFFFFFFFFFFFFFF AND PUSH20 0xFFFFFFFFFFFFFFFFFFFFFFFFFFFFFFFFFFFFFFFF AND DUP2 MSTORE PUSH1 0x20 ADD SWAP1 DUP2 MSTORE PUSH1 0x20 ADD PUSH1 0x0 KECCAK256 PUSH1 0x0 DUP1 DUP3 ADD PUSH1 0x0 SWAP1 SSTORE PUSH1 0x1 DUP3 ADD PUSH1 0x0 SWAP1 SSTORE PUSH1 0x2 DUP3 ADD PUSH1 0x0 PUSH2 0x100 EXP DUP2 SLOAD SWAP1 PUSH1 0xFF MUL NOT AND SWAP1 SSTORE POP POP POP JUMP JUMPDEST PUSH1 0x4 SLOAD DUP2 JUMP JUMPDEST PUSH2 0xC7C PUSH2 0x1144 JUMP JUMPDEST PUSH2 0xC86 PUSH1 0x0 PUSH2 0x124B JUMP JUMPDEST JUMP JUMPDEST PUSH1 0x0 PUSH2 0xC92 PUSH2 0x1144 JUMP JUMPDEST PUSH1 0x0 PUSH1 0x6 SLOAD PUSH1 0x64 PUSH1 0xA PUSH1 0x0 CALLER PUSH20 0xFFFFFFFFFFFFFFFFFFFFFFFFFFFFFFFFFFFFFFFF AND PUSH20 0xFFFFFFFFFFFFFFFFFFFFFFFFFFFFFFFFFFFFFFFF AND DUP2 MSTORE PUSH1 0x20 ADD SWAP1 DUP2 MSTORE PUSH1 0x20 ADD PUSH1 0x0 KECCAK256 SLOAD PUSH2 0xCE3 SWAP2 SWAP1 PUSH2 0x1C0F JUMP JUMPDEST PUSH2 0xCED SWAP2 SWAP1 PUSH2 0x1BDE JUMP JUMPDEST SWAP1 POP DUP1 SWAP2 POP POP SWAP1 JUMP JUMPDEST PUSH1 0x0 DUP1 PUSH1 0x0 SWAP1 SLOAD SWAP1 PUSH2 0x100 EXP SWAP1 DIV PUSH20 0xFFFFFFFFFFFFFFFFFFFFFFFFFFFFFFFFFFFFFFFF AND SWAP1 POP SWAP1 JUMP JUMPDEST PUSH1 0x3 PUSH1 0x0 SWAP1 SLOAD SWAP1 PUSH2 0x100 EXP SWAP1 DIV PUSH20 0xFFFFFFFFFFFFFFFFFFFFFFFFFFFFFFFFFFFFFFFF AND DUP2 JUMP JUMPDEST PUSH2 0xD4D PUSH2 0x1144 JUMP JUMPDEST DUP1 PUSH1 0xA PUSH1 0x0 CALLER PUSH20 0xFFFFFFFFFFFFFFFFFFFFFFFFFFFFFFFFFFFFFFFF AND PUSH20 0xFFFFFFFFFFFFFFFFFFFFFFFFFFFFFFFFFFFFFFFF AND DUP2 MSTORE PUSH1 0x20 ADD SWAP1 DUP2 MSTORE PUSH1 0x20 ADD PUSH1 0x0 KECCAK256 PUSH1 0x0 DUP3 DUP3 SLOAD PUSH2 0xD9C SWAP2 SWAP1 PUSH2 0x1C69 JUMP JUMPDEST SWAP3 POP POP DUP2 SWAP1 SSTORE POP DUP1 PUSH1 0x6 PUSH1 0x0 DUP3 DUP3 SLOAD PUSH2 0xDB5 SWAP2 SWAP1 PUSH2 0x1C69 JUMP JUMPDEST SWAP3 POP POP DUP2 SWAP1 SSTORE POP PUSH2 0xE09 CALLER DUP3 PUSH1 0x3 PUSH1 0x0 SWAP1 SLOAD SWAP1 PUSH2 0x100 EXP SWAP1 DIV PUSH20 0xFFFFFFFFFFFFFFFFFFFFFFFFFFFFFFFFFFFFFFFF AND PUSH20 0xFFFFFFFFFFFFFFFFFFFFFFFFFFFFFFFFFFFFFFFF AND PUSH2 0x130F SWAP1 SWAP3 SWAP2 SWAP1 PUSH4 0xFFFFFFFF AND JUMP JUMPDEST POP JUMP JUMPDEST PUSH1 0x1 PUSH1 0x0 SWAP1 SLOAD SWAP1 PUSH2 0x100 EXP SWAP1 DIV PUSH20 0xFFFFFFFFFFFFFFFFFFFFFFFFFFFFFFFFFFFFFFFF AND DUP2 JUMP JUMPDEST PUSH1 0x0 DUP1 PUSH1 0x8 PUSH1 0x0 CALLER PUSH20 0xFFFFFFFFFFFFFFFFFFFFFFFFFFFFFFFFFFFFFFFF AND PUSH20 0xFFFFFFFFFFFFFFFFFFFFFFFFFFFFFFFFFFFFFFFF AND DUP2 MSTORE PUSH1 0x20 ADD SWAP1 DUP2 MSTORE PUSH1 0x20 ADD PUSH1 0x0 KECCAK256 PUSH1 0x1 ADD SLOAD TIMESTAMP PUSH2 0xE83 SWAP2 SWAP1 PUSH2 0x1C69 JUMP JUMPDEST PUSH1 0x7 SLOAD PUSH1 0x8 PUSH1 0x0 CALLER PUSH20 0xFFFFFFFFFFFFFFFFFFFFFFFFFFFFFFFFFFFFFFFF AND PUSH20 0xFFFFFFFFFFFFFFFFFFFFFFFFFFFFFFFFFFFFFFFF AND DUP2 MSTORE PUSH1 0x20 ADD SWAP1 DUP2 MSTORE PUSH1 0x20 ADD PUSH1 0x0 KECCAK256 PUSH1 0x0 ADD SLOAD PUSH2 0xED3 SWAP2 SWAP1 PUSH2 0x1C0F JUMP JUMPDEST PUSH2 0xEDD SWAP2 SWAP1 PUSH2 0x1C0F JUMP JUMPDEST SWAP1 POP PUSH1 0x0 PUSH2 0x1770 DUP3 PUSH2 0xEEF SWAP2 SWAP1 PUSH2 0x1BDE JUMP JUMPDEST SWAP1 POP TIMESTAMP PUSH1 0x5 DUP2 SWAP1 SSTORE POP DUP1 SWAP3 POP POP POP SWAP1 JUMP JUMPDEST PUSH1 0x5 SLOAD DUP2 JUMP JUMPDEST PUSH1 0x8 PUSH1 0x20 MSTORE DUP1 PUSH1 0x0 MSTORE PUSH1 0x40 PUSH1 0x0 KECCAK256 PUSH1 0x0 SWAP2 POP SWAP1 POP DUP1 PUSH1 0x0 ADD SLOAD SWAP1 DUP1 PUSH1 0x1 ADD SLOAD SWAP1 DUP1 PUSH1 0x2 ADD PUSH1 0x0 SWAP1 SLOAD SWAP1 PUSH2 0x100 EXP SWAP1 DIV PUSH1 0xFF AND SWAP1 POP DUP4 JUMP JUMPDEST PUSH1 0x1 PUSH1 0x0 SWAP1 SLOAD SWAP1 PUSH2 0x100 EXP SWAP1 DIV PUSH20 0xFFFFFFFFFFFFFFFFFFFFFFFFFFFFFFFFFFFFFFFF AND PUSH20 0xFFFFFFFFFFFFFFFFFFFFFFFFFFFFFFFFFFFFFFFF AND CALLER PUSH20 0xFFFFFFFFFFFFFFFFFFFFFFFFFFFFFFFFFFFFFFFF AND EQ ISZERO PUSH2 0xFCE JUMPI PUSH1 0x40 MLOAD PUSH32 0x8C379A000000000000000000000000000000000000000000000000000000000 DUP2 MSTORE PUSH1 0x4 ADD PUSH2 0xFC5 SWAP1 PUSH2 0x19D3 JUMP JUMPDEST PUSH1 0x40 MLOAD DUP1 SWAP2 SUB SWAP1 REVERT JUMPDEST PUSH1 0x1 PUSH1 0x0 SWAP1 SLOAD SWAP1 PUSH2 0x100 EXP SWAP1 DIV PUSH20 0xFFFFFFFFFFFFFFFFFFFFFFFFFFFFFFFFFFFFFFFF AND PUSH20 0xFFFFFFFFFFFFFFFFFFFFFFFFFFFFFFFFFFFFFFFF AND PUSH4 0xB88D4FDE CALLER ADDRESS DUP5 PUSH1 0x40 MLOAD DUP5 PUSH4 0xFFFFFFFF AND PUSH1 0xE0 SHL DUP2 MSTORE PUSH1 0x4 ADD PUSH2 0x102D SWAP4 SWAP3 SWAP2 SWAP1 PUSH2 0x193E JUMP JUMPDEST PUSH1 0x0 PUSH1 0x40 MLOAD DUP1 DUP4 SUB DUP2 PUSH1 0x0 DUP8 DUP1 EXTCODESIZE ISZERO DUP1 ISZERO PUSH2 0x1047 JUMPI PUSH1 0x0 DUP1 REVERT JUMPDEST POP GAS CALL ISZERO DUP1 ISZERO PUSH2 0x105B JUMPI RETURNDATASIZE PUSH1 0x0 DUP1 RETURNDATACOPY RETURNDATASIZE PUSH1 0x0 REVERT JUMPDEST POP POP POP POP POP JUMP JUMPDEST PUSH2 0x106A PUSH2 0x1144 JUMP JUMPDEST DUP1 PUSH1 0x1 PUSH1 0x0 PUSH2 0x100 EXP DUP2 SLOAD DUP2 PUSH20 0xFFFFFFFFFFFFFFFFFFFFFFFFFFFFFFFFFFFFFFFF MUL NOT AND SWAP1 DUP4 PUSH20 0xFFFFFFFFFFFFFFFFFFFFFFFFFFFFFFFFFFFFFFFF AND MUL OR SWAP1 SSTORE POP POP JUMP JUMPDEST PUSH2 0x10B6 PUSH2 0x1144 JUMP JUMPDEST PUSH1 0x0 PUSH20 0xFFFFFFFFFFFFFFFFFFFFFFFFFFFFFFFFFFFFFFFF AND DUP2 PUSH20 0xFFFFFFFFFFFFFFFFFFFFFFFFFFFFFFFFFFFFFFFF AND EQ ISZERO PUSH2 0x1126 JUMPI PUSH1 0x40 MLOAD PUSH32 0x8C379A000000000000000000000000000000000000000000000000000000000 DUP2 MSTORE PUSH1 0x4 ADD PUSH2 0x111D SWAP1 PUSH2 0x19F3 JUMP JUMPDEST PUSH1 0x40 MLOAD DUP1 SWAP2 SUB SWAP1 REVERT JUMPDEST PUSH2 0x112F DUP2 PUSH2 0x124B JUMP JUMPDEST POP JUMP JUMPDEST PUSH2 0x113A PUSH2 0x1144 JUMP JUMPDEST DUP1 PUSH1 0x7 DUP2 SWAP1 SSTORE POP POP JUMP JUMPDEST PUSH2 0x114C PUSH2 0x1395 JUMP JUMPDEST PUSH20 0xFFFFFFFFFFFFFFFFFFFFFFFFFFFFFFFFFFFFFFFF AND PUSH2 0x116A PUSH2 0xCF6 JUMP JUMPDEST PUSH20 0xFFFFFFFFFFFFFFFFFFFFFFFFFFFFFFFFFFFFFFFF AND EQ PUSH2 0x11C0 JUMPI PUSH1 0x40 MLOAD PUSH32 0x8C379A000000000000000000000000000000000000000000000000000000000 DUP2 MSTORE PUSH1 0x4 ADD PUSH2 0x11B7 SWAP1 PUSH2 0x1A93 JUMP JUMPDEST PUSH1 0x40 MLOAD DUP1 SWAP2 SUB SWAP1 REVERT JUMPDEST JUMP JUMPDEST PUSH2 0x1245 DUP5 PUSH4 0x23B872DD PUSH1 0xE0 SHL DUP6 DUP6 DUP6 PUSH1 0x40 MLOAD PUSH1 0x24 ADD PUSH2 0x11E3 SWAP4 SWAP3 SWAP2 SWAP1 PUSH2 0x1907 JUMP JUMPDEST PUSH1 0x40 MLOAD PUSH1 0x20 DUP2 DUP4 SUB SUB DUP2 MSTORE SWAP1 PUSH1 0x40 MSTORE SWAP1 PUSH28 0xFFFFFFFFFFFFFFFFFFFFFFFFFFFFFFFFFFFFFFFFFFFFFFFFFFFFFFFF NOT AND PUSH1 0x20 DUP3 ADD DUP1 MLOAD PUSH28 0xFFFFFFFFFFFFFFFFFFFFFFFFFFFFFFFFFFFFFFFFFFFFFFFFFFFFFFFF DUP4 DUP2 DUP4 AND OR DUP4 MSTORE POP POP POP POP PUSH2 0x139D JUMP JUMPDEST POP POP POP POP JUMP JUMPDEST PUSH1 0x0 DUP1 PUSH1 0x0 SWAP1 SLOAD SWAP1 PUSH2 0x100 EXP SWAP1 DIV PUSH20 0xFFFFFFFFFFFFFFFFFFFFFFFFFFFFFFFFFFFFFFFF AND SWAP1 POP DUP2 PUSH1 0x0 DUP1 PUSH2 0x100 EXP DUP2 SLOAD DUP2 PUSH20 0xFFFFFFFFFFFFFFFFFFFFFFFFFFFFFFFFFFFFFFFF MUL NOT AND SWAP1 DUP4 PUSH20 0xFFFFFFFFFFFFFFFFFFFFFFFFFFFFFFFFFFFFFFFF AND MUL OR SWAP1 SSTORE POP DUP2 PUSH20 0xFFFFFFFFFFFFFFFFFFFFFFFFFFFFFFFFFFFFFFFF AND DUP2 PUSH20 0xFFFFFFFFFFFFFFFFFFFFFFFFFFFFFFFFFFFFFFFF AND PUSH32 0x8BE0079C531659141344CD1FD0A4F28419497F9722A3DAAFE3B4186F6B6457E0 PUSH1 0x40 MLOAD PUSH1 0x40 MLOAD DUP1 SWAP2 SUB SWAP1 LOG3 POP POP JUMP JUMPDEST PUSH2 0x1390 DUP4 PUSH4 0xA9059CBB PUSH1 0xE0 SHL DUP5 DUP5 PUSH1 0x40 MLOAD PUSH1 0x24 ADD PUSH2 0x132E SWAP3 SWAP2 SWAP1 PUSH2 0x1988 JUMP JUMPDEST PUSH1 0x40 MLOAD PUSH1 0x20 DUP2 DUP4 SUB SUB DUP2 MSTORE SWAP1 PUSH1 0x40 MSTORE SWAP1 PUSH28 0xFFFFFFFFFFFFFFFFFFFFFFFFFFFFFFFFFFFFFFFFFFFFFFFFFFFFFFFF NOT AND PUSH1 0x20 DUP3 ADD DUP1 MLOAD PUSH28 0xFFFFFFFFFFFFFFFFFFFFFFFFFFFFFFFFFFFFFFFFFFFFFFFFFFFFFFFF DUP4 DUP2 DUP4 AND OR DUP4 MSTORE POP POP POP POP PUSH2 0x139D JUMP JUMPDEST POP POP POP JUMP JUMPDEST PUSH1 0x0 CALLER SWAP1 POP SWAP1 JUMP JUMPDEST PUSH1 0x0 PUSH2 0x13FF DUP3 PUSH1 0x40 MLOAD DUP1 PUSH1 0x40 ADD PUSH1 0x40 MSTORE DUP1 PUSH1 0x20 DUP2 MSTORE PUSH1 0x20 ADD PUSH32 0x5361666545524332303A206C6F772D6C6576656C2063616C6C206661696C6564 DUP2 MSTORE POP DUP6 PUSH20 0xFFFFFFFFFFFFFFFFFFFFFFFFFFFFFFFFFFFFFFFF AND PUSH2 0x1464 SWAP1 SWAP3 SWAP2 SWAP1 PUSH4 0xFFFFFFFF AND JUMP JUMPDEST SWAP1 POP PUSH1 0x0 DUP2 MLOAD GT ISZERO PUSH2 0x145F JUMPI DUP1 DUP1 PUSH1 0x20 ADD SWAP1 MLOAD DUP2 ADD SWAP1 PUSH2 0x141F SWAP2 SWAP1 PUSH2 0x1686 JUMP JUMPDEST PUSH2 0x145E JUMPI PUSH1 0x40 MLOAD PUSH32 0x8C379A000000000000000000000000000000000000000000000000000000000 DUP2 MSTORE PUSH1 0x4 ADD PUSH2 0x1455 SWAP1 PUSH2 0x1AD3 JUMP JUMPDEST PUSH1 0x40 MLOAD DUP1 SWAP2 SUB SWAP1 REVERT JUMPDEST JUMPDEST POP POP POP JUMP JUMPDEST PUSH1 0x60 PUSH2 0x1473 DUP5 DUP5 PUSH1 0x0 DUP6 PUSH2 0x147C JUMP JUMPDEST SWAP1 POP SWAP4 SWAP3 POP POP POP JUMP JUMPDEST PUSH1 0x60 DUP3 SELFBALANCE LT ISZERO PUSH2 0x14C1 JUMPI PUSH1 0x40 MLOAD PUSH32 0x8C379A000000000000000000000000000000000000000000000000000000000 DUP2 MSTORE PUSH1 0x4 ADD PUSH2 0x14B8 SWAP1 PUSH2 0x1A53 JUMP JUMPDEST PUSH1 0x40 MLOAD DUP1 SWAP2 SUB SWAP1 REVERT JUMPDEST PUSH2 0x14CA DUP6 PUSH2 0x1590 JUMP JUMPDEST PUSH2 0x1509 JUMPI PUSH1 0x40 MLOAD PUSH32 0x8C379A000000000000000000000000000000000000000000000000000000000 DUP2 MSTORE PUSH1 0x4 ADD PUSH2 0x1500 SWAP1 PUSH2 0x1AB3 JUMP JUMPDEST PUSH1 0x40 MLOAD DUP1 SWAP2 SUB SWAP1 REVERT JUMPDEST PUSH1 0x0 DUP1 DUP7 PUSH20 0xFFFFFFFFFFFFFFFFFFFFFFFFFFFFFFFFFFFFFFFF AND DUP6 DUP8 PUSH1 0x40 MLOAD PUSH2 0x1532 SWAP2 SWAP1 PUSH2 0x18D5 JUMP JUMPDEST PUSH1 0x0 PUSH1 0x40 MLOAD DUP1 DUP4 SUB DUP2 DUP6 DUP8 GAS CALL SWAP3 POP POP POP RETURNDATASIZE DUP1 PUSH1 0x0 DUP2 EQ PUSH2 0x156F JUMPI PUSH1 0x40 MLOAD SWAP2 POP PUSH1 0x1F NOT PUSH1 0x3F RETURNDATASIZE ADD AND DUP3 ADD PUSH1 0x40 MSTORE RETURNDATASIZE DUP3 MSTORE RETURNDATASIZE PUSH1 0x0 PUSH1 0x20 DUP5 ADD RETURNDATACOPY PUSH2 0x1574 JUMP JUMPDEST PUSH1 0x60 SWAP2 POP JUMPDEST POP SWAP2 POP SWAP2 POP PUSH2 0x1584 DUP3 DUP3 DUP7 PUSH2 0x15B3 JUMP JUMPDEST SWAP3 POP POP POP SWAP5 SWAP4 POP POP POP POP JUMP JUMPDEST PUSH1 0x0 DUP1 DUP3 PUSH20 0xFFFFFFFFFFFFFFFFFFFFFFFFFFFFFFFFFFFFFFFF AND EXTCODESIZE GT SWAP1 POP SWAP2 SWAP1 POP JUMP JUMPDEST PUSH1 0x60 DUP4 ISZERO PUSH2 0x15C3 JUMPI DUP3 SWAP1 POP PUSH2 0x1613 JUMP JUMPDEST PUSH1 0x0 DUP4 MLOAD GT ISZERO PUSH2 0x15D6 JUMPI DUP3 MLOAD DUP1 DUP5 PUSH1 0x20 ADD REVERT JUMPDEST DUP2 PUSH1 0x40 MLOAD PUSH32 0x8C379A000000000000000000000000000000000000000000000000000000000 DUP2 MSTORE PUSH1 0x4 ADD PUSH2 0x160A SWAP2 SWAP1 PUSH2 0x19B1 JUMP JUMPDEST PUSH1 0x40 MLOAD DUP1 SWAP2 SUB SWAP1 REVERT JUMPDEST SWAP4 SWAP3 POP POP POP JUMP JUMPDEST PUSH1 0x0 DUP2 CALLDATALOAD SWAP1 POP PUSH2 0x1629 DUP2 PUSH2 0x1F72 JUMP JUMPDEST SWAP3 SWAP2 POP POP JUMP JUMPDEST PUSH1 0x0 DUP2 MLOAD SWAP1 POP PUSH2 0x163E DUP2 PUSH2 0x1F89 JUMP JUMPDEST SWAP3 SWAP2 POP POP JUMP JUMPDEST PUSH1 0x0 DUP2 CALLDATALOAD SWAP1 POP PUSH2 0x1653 DUP2 PUSH2 0x1FA0 JUMP JUMPDEST SWAP3 SWAP2 POP POP JUMP JUMPDEST PUSH1 0x0 PUSH1 0x20 DUP3 DUP5 SUB SLT ISZERO PUSH2 0x166F JUMPI PUSH2 0x166E PUSH2 0x1D76 JUMP JUMPDEST JUMPDEST PUSH1 0x0 PUSH2 0x167D DUP5 DUP3 DUP6 ADD PUSH2 0x161A JUMP JUMPDEST SWAP2 POP POP SWAP3 SWAP2 POP POP JUMP JUMPDEST PUSH1 0x0 PUSH1 0x20 DUP3 DUP5 SUB SLT ISZERO PUSH2 0x169C JUMPI PUSH2 0x169B PUSH2 0x1D76 JUMP JUMPDEST JUMPDEST PUSH1 0x0 PUSH2 0x16AA DUP5 DUP3 DUP6 ADD PUSH2 0x162F JUMP JUMPDEST SWAP2 POP POP SWAP3 SWAP2 POP POP JUMP JUMPDEST PUSH1 0x0 PUSH1 0x20 DUP3 DUP5 SUB SLT ISZERO PUSH2 0x16C9 JUMPI PUSH2 0x16C8 PUSH2 0x1D76 JUMP JUMPDEST JUMPDEST PUSH1 0x0 PUSH2 0x16D7 DUP5 DUP3 DUP6 ADD PUSH2 0x1644 JUMP JUMPDEST SWAP2 POP POP SWAP3 SWAP2 POP POP JUMP JUMPDEST PUSH2 0x16E9 DUP2 PUSH2 0x1C9D JUMP JUMPDEST DUP3 MSTORE POP POP JUMP JUMPDEST PUSH2 0x16F8 DUP2 PUSH2 0x1CAF JUMP JUMPDEST DUP3 MSTORE POP POP JUMP JUMPDEST PUSH1 0x0 PUSH2 0x1709 DUP3 PUSH2 0x1B45 JUMP JUMPDEST PUSH2 0x1713 DUP2 DUP6 PUSH2 0x1B6C JUMP JUMPDEST SWAP4 POP PUSH2 0x1723 DUP2 DUP6 PUSH1 0x20 DUP7 ADD PUSH2 0x1CE5 JUMP JUMPDEST DUP1 DUP5 ADD SWAP2 POP POP SWAP3 SWAP2 POP POP JUMP JUMPDEST PUSH1 0x0 PUSH2 0x173A DUP3 PUSH2 0x1B50 JUMP JUMPDEST PUSH2 0x1744 DUP2 DUP6 PUSH2 0x1B77 JUMP JUMPDEST SWAP4 POP PUSH2 0x1754 DUP2 DUP6 PUSH1 0x20 DUP7 ADD PUSH2 0x1CE5 JUMP JUMPDEST PUSH2 0x175D DUP2 PUSH2 0x1D7B JUMP JUMPDEST DUP5 ADD SWAP2 POP POP SWAP3 SWAP2 POP POP JUMP JUMPDEST PUSH1 0x0 PUSH2 0x1775 PUSH1 0xF DUP4 PUSH2 0x1B77 JUMP JUMPDEST SWAP2 POP PUSH2 0x1780 DUP3 PUSH2 0x1D8C JUMP JUMPDEST PUSH1 0x20 DUP3 ADD SWAP1 POP SWAP2 SWAP1 POP JUMP JUMPDEST PUSH1 0x0 PUSH2 0x1798 PUSH1 0x26 DUP4 PUSH2 0x1B77 JUMP JUMPDEST SWAP2 POP PUSH2 0x17A3 DUP3 PUSH2 0x1DB5 JUMP JUMPDEST PUSH1 0x40 DUP3 ADD SWAP1 POP SWAP2 SWAP1 POP JUMP JUMPDEST PUSH1 0x0 PUSH2 0x17BB PUSH1 0x17 DUP4 PUSH2 0x1B77 JUMP JUMPDEST SWAP2 POP PUSH2 0x17C6 DUP3 PUSH2 0x1E04 JUMP JUMPDEST PUSH1 0x20 DUP3 ADD SWAP1 POP SWAP2 SWAP1 POP JUMP JUMPDEST PUSH1 0x0 PUSH2 0x17DE PUSH1 0x12 DUP4 PUSH2 0x1B77 JUMP JUMPDEST SWAP2 POP PUSH2 0x17E9 DUP3 PUSH2 0x1E2D JUMP JUMPDEST PUSH1 0x20 DUP3 ADD SWAP1 POP SWAP2 SWAP1 POP JUMP JUMPDEST PUSH1 0x0 PUSH2 0x1801 PUSH1 0x26 DUP4 PUSH2 0x1B77 JUMP JUMPDEST SWAP2 POP PUSH2 0x180C DUP3 PUSH2 0x1E56 JUMP JUMPDEST PUSH1 0x40 DUP3 ADD SWAP1 POP SWAP2 SWAP1 POP JUMP JUMPDEST PUSH1 0x0 PUSH2 0x1824 PUSH1 0x15 DUP4 PUSH2 0x1B77 JUMP JUMPDEST SWAP2 POP PUSH2 0x182F DUP3 PUSH2 0x1EA5 JUMP JUMPDEST PUSH1 0x20 DUP3 ADD SWAP1 POP SWAP2 SWAP1 POP JUMP JUMPDEST PUSH1 0x0 PUSH2 0x1847 PUSH1 0x20 DUP4 PUSH2 0x1B77 JUMP JUMPDEST SWAP2 POP PUSH2 0x1852 DUP3 PUSH2 0x1ECE JUMP JUMPDEST PUSH1 0x20 DUP3 ADD SWAP1 POP SWAP2 SWAP1 POP JUMP JUMPDEST PUSH1 0x0 PUSH2 0x186A PUSH1 0x0 DUP4 PUSH2 0x1B5B JUMP JUMPDEST SWAP2 POP PUSH2 0x1875 DUP3 PUSH2 0x1EF7 JUMP JUMPDEST PUSH1 0x0 DUP3 ADD SWAP1 POP SWAP2 SWAP1 POP JUMP JUMPDEST PUSH1 0x0 PUSH2 0x188D PUSH1 0x1D DUP4 PUSH2 0x1B77 JUMP JUMPDEST SWAP2 POP PUSH2 0x1898 DUP3 PUSH2 0x1EFA JUMP JUMPDEST PUSH1 0x20 DUP3 ADD SWAP1 POP SWAP2 SWAP1 POP JUMP JUMPDEST PUSH1 0x0 PUSH2 0x18B0 PUSH1 0x2A DUP4 PUSH2 0x1B77 JUMP JUMPDEST SWAP2 POP PUSH2 0x18BB DUP3 PUSH2 0x1F23 JUMP JUMPDEST PUSH1 0x40 DUP3 ADD SWAP1 POP SWAP2 SWAP1 POP JUMP JUMPDEST PUSH2 0x18CF DUP2 PUSH2 0x1CDB JUMP JUMPDEST DUP3 MSTORE POP POP JUMP JUMPDEST PUSH1 0x0 PUSH2 0x18E1 DUP3 DUP5 PUSH2 0x16FE JUMP JUMPDEST SWAP2 POP DUP2 SWAP1 POP SWAP3 SWAP2 POP POP JUMP JUMPDEST PUSH1 0x0 PUSH1 0x20 DUP3 ADD SWAP1 POP PUSH2 0x1901 PUSH1 0x0 DUP4 ADD DUP5 PUSH2 0x16E0 JUMP JUMPDEST SWAP3 SWAP2 POP POP JUMP JUMPDEST PUSH1 0x0 PUSH1 0x60 DUP3 ADD SWAP1 POP PUSH2 0x191C PUSH1 0x0 DUP4 ADD DUP7 PUSH2 0x16E0 JUMP JUMPDEST PUSH2 0x1929 PUSH1 0x20 DUP4 ADD DUP6 PUSH2 0x16E0 JUMP JUMPDEST PUSH2 0x1936 PUSH1 0x40 DUP4 ADD DUP5 PUSH2 0x18C6 JUMP JUMPDEST SWAP5 SWAP4 POP POP POP POP JUMP JUMPDEST PUSH1 0x0 PUSH1 0x80 DUP3 ADD SWAP1 POP PUSH2 0x1953 PUSH1 0x0 DUP4 ADD DUP7 PUSH2 0x16E0 JUMP JUMPDEST PUSH2 0x1960 PUSH1 0x20 DUP4 ADD DUP6 PUSH2 0x16E0 JUMP JUMPDEST PUSH2 0x196D PUSH1 0x40 DUP4 ADD DUP5 PUSH2 0x18C6 JUMP JUMPDEST DUP2 DUP2 SUB PUSH1 0x60 DUP4 ADD MSTORE PUSH2 0x197E DUP2 PUSH2 0x185D JUMP JUMPDEST SWAP1 POP SWAP5 SWAP4 POP POP POP POP JUMP JUMPDEST PUSH1 0x0 PUSH1 0x40 DUP3 ADD SWAP1 POP PUSH2 0x199D PUSH1 0x0 DUP4 ADD DUP6 PUSH2 0x16E0 JUMP JUMPDEST PUSH2 0x19AA PUSH1 0x20 DUP4 ADD DUP5 PUSH2 0x18C6 JUMP JUMPDEST SWAP4 SWAP3 POP POP POP JUMP JUMPDEST PUSH1 0x0 PUSH1 0x20 DUP3 ADD SWAP1 POP DUP2 DUP2 SUB PUSH1 0x0 DUP4 ADD MSTORE PUSH2 0x19CB DUP2 DUP5 PUSH2 0x172F JUMP JUMPDEST SWAP1 POP SWAP3 SWAP2 POP POP JUMP JUMPDEST PUSH1 0x0 PUSH1 0x20 DUP3 ADD SWAP1 POP DUP2 DUP2 SUB PUSH1 0x0 DUP4 ADD MSTORE PUSH2 0x19EC DUP2 PUSH2 0x1768 JUMP JUMPDEST SWAP1 POP SWAP2 SWAP1 POP JUMP JUMPDEST PUSH1 0x0 PUSH1 0x20 DUP3 ADD SWAP1 POP DUP2 DUP2 SUB PUSH1 0x0 DUP4 ADD MSTORE PUSH2 0x1A0C DUP2 PUSH2 0x178B JUMP JUMPDEST SWAP1 POP SWAP2 SWAP1 POP JUMP JUMPDEST PUSH1 0x0 PUSH1 0x20 DUP3 ADD SWAP1 POP DUP2 DUP2 SUB PUSH1 0x0 DUP4 ADD MSTORE PUSH2 0x1A2C DUP2 PUSH2 0x17AE JUMP JUMPDEST SWAP1 POP SWAP2 SWAP1 POP JUMP JUMPDEST PUSH1 0x0 PUSH1 0x20 DUP3 ADD SWAP1 POP DUP2 DUP2 SUB PUSH1 0x0 DUP4 ADD MSTORE PUSH2 0x1A4C DUP2 PUSH2 0x17D1 JUMP JUMPDEST SWAP1 POP SWAP2 SWAP1 POP JUMP JUMPDEST PUSH1 0x0 PUSH1 0x20 DUP3 ADD SWAP1 POP DUP2 DUP2 SUB PUSH1 0x0 DUP4 ADD MSTORE PUSH2 0x1A6C DUP2 PUSH2 0x17F4 JUMP JUMPDEST SWAP1 POP SWAP2 SWAP1 POP JUMP JUMPDEST PUSH1 0x0 PUSH1 0x20 DUP3 ADD SWAP1 POP DUP2 DUP2 SUB PUSH1 0x0 DUP4 ADD MSTORE PUSH2 0x1A8C DUP2 PUSH2 0x1817 JUMP JUMPDEST SWAP1 POP SWAP2 SWAP1 POP JUMP JUMPDEST PUSH1 0x0 PUSH1 0x20 DUP3 ADD SWAP1 POP DUP2 DUP2 SUB PUSH1 0x0 DUP4 ADD MSTORE PUSH2 0x1AAC DUP2 PUSH2 0x183A JUMP JUMPDEST SWAP1 POP SWAP2 SWAP1 POP JUMP JUMPDEST PUSH1 0x0 PUSH1 0x20 DUP3 ADD SWAP1 POP DUP2 DUP2 SUB PUSH1 0x0 DUP4 ADD MSTORE PUSH2 0x1ACC DUP2 PUSH2 0x1880 JUMP JUMPDEST SWAP1 POP SWAP2 SWAP1 POP JUMP JUMPDEST PUSH1 0x0 PUSH1 0x20 DUP3 ADD SWAP1 POP DUP2 DUP2 SUB PUSH1 0x0 DUP4 ADD MSTORE PUSH2 0x1AEC DUP2 PUSH2 0x18A3 JUMP JUMPDEST SWAP1 POP SWAP2 SWAP1 POP JUMP JUMPDEST PUSH1 0x0 PUSH1 0x20 DUP3 ADD SWAP1 POP PUSH2 0x1B08 PUSH1 0x0 DUP4 ADD DUP5 PUSH2 0x18C6 JUMP JUMPDEST SWAP3 SWAP2 POP POP JUMP JUMPDEST PUSH1 0x0 PUSH1 0x60 DUP3 ADD SWAP1 POP PUSH2 0x1B23 PUSH1 0x0 DUP4 ADD DUP7 PUSH2 0x18C6 JUMP JUMPDEST PUSH2 0x1B30 PUSH1 0x20 DUP4 ADD DUP6 PUSH2 0x18C6 JUMP JUMPDEST PUSH2 0x1B3D PUSH1 0x40 DUP4 ADD DUP5 PUSH2 0x16EF JUMP JUMPDEST SWAP5 SWAP4 POP POP POP POP JUMP JUMPDEST PUSH1 0x0 DUP2 MLOAD SWAP1 POP SWAP2 SWAP1 POP JUMP JUMPDEST PUSH1 0x0 DUP2 MLOAD SWAP1 POP SWAP2 SWAP1 POP JUMP JUMPDEST PUSH1 0x0 DUP3 DUP3 MSTORE PUSH1 0x20 DUP3 ADD SWAP1 POP SWAP3 SWAP2 POP POP JUMP JUMPDEST PUSH1 0x0 DUP2 SWAP1 POP SWAP3 SWAP2 POP POP JUMP JUMPDEST PUSH1 0x0 DUP3 DUP3 MSTORE PUSH1 0x20 DUP3 ADD SWAP1 POP SWAP3 SWAP2 POP POP JUMP JUMPDEST PUSH1 0x0 PUSH2 0x1B93 DUP3 PUSH2 0x1CDB JUMP JUMPDEST SWAP2 POP PUSH2 0x1B9E DUP4 PUSH2 0x1CDB JUMP JUMPDEST SWAP3 POP DUP3 PUSH32 0xFFFFFFFFFFFFFFFFFFFFFFFFFFFFFFFFFFFFFFFFFFFFFFFFFFFFFFFFFFFFFFFF SUB DUP3 GT ISZERO PUSH2 0x1BD3 JUMPI PUSH2 0x1BD2 PUSH2 0x1D18 JUMP JUMPDEST JUMPDEST DUP3 DUP3 ADD SWAP1 POP SWAP3 SWAP2 POP POP JUMP JUMPDEST PUSH1 0x0 PUSH2 0x1BE9 DUP3 PUSH2 0x1CDB JUMP JUMPDEST SWAP2 POP PUSH2 0x1BF4 DUP4 PUSH2 0x1CDB JUMP JUMPDEST SWAP3 POP DUP3 PUSH2 0x1C04 JUMPI PUSH2 0x1C03 PUSH2 0x1D47 JUMP JUMPDEST JUMPDEST DUP3 DUP3 DIV SWAP1 POP SWAP3 SWAP2 POP POP JUMP JUMPDEST PUSH1 0x0 PUSH2 0x1C1A DUP3 PUSH2 0x1CDB JUMP JUMPDEST SWAP2 POP PUSH2 0x1C25 DUP4 PUSH2 0x1CDB JUMP JUMPDEST SWAP3 POP DUP2 PUSH32 0xFFFFFFFFFFFFFFFFFFFFFFFFFFFFFFFFFFFFFFFFFFFFFFFFFFFFFFFFFFFFFFFF DIV DUP4 GT DUP3 ISZERO ISZERO AND ISZERO PUSH2 0x1C5E JUMPI PUSH2 0x1C5D PUSH2 0x1D18 JUMP JUMPDEST JUMPDEST DUP3 DUP3 MUL SWAP1 POP SWAP3 SWAP2 POP POP JUMP JUMPDEST PUSH1 0x0 PUSH2 0x1C74 DUP3 PUSH2 0x1CDB JUMP JUMPDEST SWAP2 POP PUSH2 0x1C7F DUP4 PUSH2 0x1CDB JUMP JUMPDEST SWAP3 POP DUP3 DUP3 LT ISZERO PUSH2 0x1C92 JUMPI PUSH2 0x1C91 PUSH2 0x1D18 JUMP JUMPDEST JUMPDEST DUP3 DUP3 SUB SWAP1 POP SWAP3 SWAP2 POP POP JUMP JUMPDEST PUSH1 0x0 PUSH2 0x1CA8 DUP3 PUSH2 0x1CBB JUMP JUMPDEST SWAP1 POP SWAP2 SWAP1 POP JUMP JUMPDEST PUSH1 0x0 DUP2 ISZERO ISZERO SWAP1 POP SWAP2 SWAP1 POP JUMP JUMPDEST PUSH1 0x0 PUSH20 0xFFFFFFFFFFFFFFFFFFFFFFFFFFFFFFFFFFFFFFFF DUP3 AND SWAP1 POP SWAP2 SWAP1 POP JUMP JUMPDEST PUSH1 0x0 DUP2 SWAP1 POP SWAP2 SWAP1 POP JUMP JUMPDEST PUSH1 0x0 JUMPDEST DUP4 DUP2 LT ISZERO PUSH2 0x1D03 JUMPI DUP1 DUP3 ADD MLOAD DUP2 DUP5 ADD MSTORE PUSH1 0x20 DUP2 ADD SWAP1 POP PUSH2 0x1CE8 JUMP JUMPDEST DUP4 DUP2 GT ISZERO PUSH2 0x1D12 JUMPI PUSH1 0x0 DUP5 DUP5 ADD MSTORE JUMPDEST POP POP POP POP JUMP JUMPDEST PUSH32 0x4E487B7100000000000000000000000000000000000000000000000000000000 PUSH1 0x0 MSTORE PUSH1 0x11 PUSH1 0x4 MSTORE PUSH1 0x24 PUSH1 0x0 REVERT JUMPDEST PUSH32 0x4E487B7100000000000000000000000000000000000000000000000000000000 PUSH1 0x0 MSTORE PUSH1 0x12 PUSH1 0x4 MSTORE PUSH1 0x24 PUSH1 0x0 REVERT JUMPDEST PUSH1 0x0 DUP1 REVERT JUMPDEST PUSH1 0x0 PUSH1 0x1F NOT PUSH1 0x1F DUP4 ADD AND SWAP1 POP SWAP2 SWAP1 POP JUMP JUMPDEST PUSH32 0x496E76616C696420616464726573730000000000000000000000000000000000 PUSH1 0x0 DUP3 ADD MSTORE POP JUMP JUMPDEST PUSH32 0x4F776E61626C653A206E6577206F776E657220697320746865207A65726F2061 PUSH1 0x0 DUP3 ADD MSTORE PUSH32 0x6464726573730000000000000000000000000000000000000000000000000000 PUSH1 0x20 DUP3 ADD MSTORE POP JUMP JUMPDEST PUSH32 0x4F6E6C79204F776E65722063616E207472616E73666572000000000000000000 PUSH1 0x0 DUP3 ADD MSTORE POP JUMP JUMPDEST PUSH32 0x506C65617365204669727374205374616B650000000000000000000000000000 PUSH1 0x0 DUP3 ADD MSTORE POP JUMP JUMPDEST PUSH32 0x416464726573733A20696E73756666696369656E742062616C616E636520666F PUSH1 0x0 DUP3 ADD MSTORE PUSH32 0x722063616C6C0000000000000000000000000000000000000000000000000000 PUSH1 0x20 DUP3 ADD MSTORE POP JUMP JUMPDEST PUSH32 0x506C656173652046697273742057697468447261770000000000000000000000 PUSH1 0x0 DUP3 ADD MSTORE POP JUMP JUMPDEST PUSH32 0x4F776E61626C653A2063616C6C6572206973206E6F7420746865206F776E6572 PUSH1 0x0 DUP3 ADD MSTORE POP JUMP JUMPDEST POP JUMP JUMPDEST PUSH32 0x416464726573733A2063616C6C20746F206E6F6E2D636F6E7472616374000000 PUSH1 0x0 DUP3 ADD MSTORE POP JUMP JUMPDEST PUSH32 0x5361666545524332303A204552433230206F7065726174696F6E20646964206E PUSH1 0x0 DUP3 ADD MSTORE PUSH32 0x6F74207375636365656400000000000000000000000000000000000000000000 PUSH1 0x20 DUP3 ADD MSTORE POP JUMP JUMPDEST PUSH2 0x1F7B DUP2 PUSH2 0x1C9D JUMP JUMPDEST DUP2 EQ PUSH2 0x1F86 JUMPI PUSH1 0x0 DUP1 REVERT JUMPDEST POP JUMP JUMPDEST PUSH2 0x1F92 DUP2 PUSH2 0x1CAF JUMP JUMPDEST DUP2 EQ PUSH2 0x1F9D JUMPI PUSH1 0x0 DUP1 REVERT JUMPDEST POP JUMP JUMPDEST PUSH2 0x1FA9 DUP2 PUSH2 0x1CDB JUMP JUMPDEST DUP2 EQ PUSH2 0x1FB4 JUMPI PUSH1 0x0 DUP1 REVERT JUMPDEST POP JUMP INVALID LOG2 PUSH5 0x6970667358 0x22 SLT KECCAK256 PUSH13 0xDE418511B7B8C98279C3835841 0xAB 0xBB 0xEB SELFDESTRUCT SWAP10 0xB2 SWAP9 SWAP4 JUMPI PUSH32 0x3D8EEEFB5D278F6264736F6C6343000807003300000000000000000000000000 "
				},
				"gasEstimates": {
					"creation": {
						"codeDepositCost": "1634600",
						"executionCost": "infinite",
						"totalCost": "infinite"
					},
					"external": {
						"AdminAddToken()": "infinite",
						"AdminWithDrawToken(uint256)": "infinite",
						"Deposit(uint256)": "infinite",
						"Details(address)": "infinite",
						"ERC20Address()": "2581",
						"ERC721address()": "2625",
						"OwnerTokens(address)": "2837",
						"Reward(address)": "2881",
						"UpdateERC20(address)": "27098",
						"UpdateERC721(address)": "27074",
						"UpdateRatePersentage(uint256)": "24916",
						"Utilization()": "infinite",
						"Withdraw()": "infinite",
						"WithdrawReward()": "infinite",
						"calculateIntrest()": "infinite",
						"depositNFT(uint256)": "infinite",
						"owenerERC20()": "2582",
						"owner()": "2567",
						"renounceOwnership()": "30531",
						"rewardrate()": "2540",
						"totalOwnerToken()": "2475",
						"transferOwnership(address)": "30857",
						"unstaketimeval()": "2451",
						"withdrawNFT(uint256)": "infinite"
					}
				},
				"methodIdentifiers": {
					"AdminAddToken()": "144dc29c",
					"AdminWithDrawToken(uint256)": "a88e132f",
					"Deposit(uint256)": "4d6ce1e5",
					"Details(address)": "e88cc2be",
					"ERC20Address()": "a6021ace",
					"ERC721address()": "b7171a2e",
					"OwnerTokens(address)": "2ffce210",
					"Reward(address)": "57488064",
					"UpdateERC20(address)": "275bd33f",
					"UpdateERC721(address)": "ee0106d2",
					"UpdateRatePersentage(uint256)": "f89d832f",
					"Utilization()": "7b2f247f",
					"Withdraw()": "57ea89b6",
					"WithdrawReward()": "2c07f74f",
					"calculateIntrest()": "c3c917b0",
					"depositNFT(uint256)": "e91a7ca6",
					"owenerERC20()": "10fd4fba",
					"owner()": "8da5cb5b",
					"renounceOwnership()": "715018a6",
					"rewardrate()": "5eb82e94",
					"totalOwnerToken()": "0ccff6e9",
					"transferOwnership(address)": "f2fde38b",
					"unstaketimeval()": "de9d3ddb",
					"withdrawNFT(uint256)": "023245d7"
				}
			},
			"storageLayout": {
				"storage": [
					{
						"astId": 7,
						"contract": "contracts/ERC20Stakeable.sol:ERC20Stakeable",
						"label": "_owner",
						"offset": 0,
						"slot": "0",
						"type": "t_address"
					},
					{
						"astId": 996,
						"contract": "contracts/ERC20Stakeable.sol:ERC20Stakeable",
						"label": "ERC721address",
						"offset": 0,
						"slot": "1",
						"type": "t_address"
					},
					{
						"astId": 998,
						"contract": "contracts/ERC20Stakeable.sol:ERC20Stakeable",
						"label": "owenerERC20",
						"offset": 0,
						"slot": "2",
						"type": "t_address"
					},
					{
						"astId": 1000,
						"contract": "contracts/ERC20Stakeable.sol:ERC20Stakeable",
						"label": "ERC20Address",
						"offset": 0,
						"slot": "3",
						"type": "t_address"
					},
					{
						"astId": 1002,
						"contract": "contracts/ERC20Stakeable.sol:ERC20Stakeable",
						"label": "rewardrate",
						"offset": 0,
						"slot": "4",
						"type": "t_uint256"
					},
					{
						"astId": 1004,
						"contract": "contracts/ERC20Stakeable.sol:ERC20Stakeable",
						"label": "unstaketimeval",
						"offset": 0,
						"slot": "5",
						"type": "t_uint256"
					},
					{
						"astId": 1006,
						"contract": "contracts/ERC20Stakeable.sol:ERC20Stakeable",
						"label": "totalOwnerToken",
						"offset": 0,
						"slot": "6",
						"type": "t_uint256"
					},
					{
						"astId": 1008,
						"contract": "contracts/ERC20Stakeable.sol:ERC20Stakeable",
						"label": "rate",
						"offset": 0,
						"slot": "7",
						"type": "t_uint256"
					},
					{
						"astId": 1020,
						"contract": "contracts/ERC20Stakeable.sol:ERC20Stakeable",
						"label": "Details",
						"offset": 0,
						"slot": "8",
						"type": "t_mapping(t_address,t_struct(Staker)1015_storage)"
					},
					{
						"astId": 1024,
						"contract": "contracts/ERC20Stakeable.sol:ERC20Stakeable",
						"label": "Reward",
						"offset": 0,
						"slot": "9",
						"type": "t_mapping(t_address,t_uint256)"
					},
					{
						"astId": 1028,
						"contract": "contracts/ERC20Stakeable.sol:ERC20Stakeable",
						"label": "OwnerTokens",
						"offset": 0,
						"slot": "10",
						"type": "t_mapping(t_address,t_uint256)"
					}
				],
				"types": {
					"t_address": {
						"encoding": "inplace",
						"label": "address",
						"numberOfBytes": "20"
					},
					"t_bool": {
						"encoding": "inplace",
						"label": "bool",
						"numberOfBytes": "1"
					},
					"t_mapping(t_address,t_struct(Staker)1015_storage)": {
						"encoding": "mapping",
						"key": "t_address",
						"label": "mapping(address => struct ERC20Stakeable.Staker)",
						"numberOfBytes": "32",
						"value": "t_struct(Staker)1015_storage"
					},
					"t_mapping(t_address,t_uint256)": {
						"encoding": "mapping",
						"key": "t_address",
						"label": "mapping(address => uint256)",
						"numberOfBytes": "32",
						"value": "t_uint256"
					},
					"t_struct(Staker)1015_storage": {
						"encoding": "inplace",
						"label": "struct ERC20Stakeable.Staker",
						"members": [
							{
								"astId": 1010,
								"contract": "contracts/ERC20Stakeable.sol:ERC20Stakeable",
								"label": "deposited",
								"offset": 0,
								"slot": "0",
								"type": "t_uint256"
							},
							{
								"astId": 1012,
								"contract": "contracts/ERC20Stakeable.sol:ERC20Stakeable",
								"label": "timestake",
								"offset": 0,
								"slot": "1",
								"type": "t_uint256"
							},
							{
								"astId": 1014,
								"contract": "contracts/ERC20Stakeable.sol:ERC20Stakeable",
								"label": "check",
								"offset": 0,
								"slot": "2",
								"type": "t_bool"
							}
						],
						"numberOfBytes": "96"
					},
					"t_uint256": {
						"encoding": "inplace",
						"label": "uint256",
						"numberOfBytes": "32"
					}
				}
			},
			"userdoc": {
				"kind": "user",
				"methods": {},
				"version": 1
			}
		}
	}
}