{
	"contracts/ERC20Stakeable.sol": {
		"ERC20Stakeable": {
			"abi": [
				{
					"inputs": [
						{
							"internalType": "address",
							"name": "_ERC721address",
							"type": "address"
						},
						{
							"internalType": "uint256",
							"name": "_ratePersentage",
							"type": "uint256"
						},
						{
							"internalType": "address",
							"name": "_ERC20Address",
							"type": "address"
						}
					],
					"stateMutability": "nonpayable",
					"type": "constructor"
				},
				{
					"anonymous": false,
					"inputs": [
						{
							"indexed": true,
							"internalType": "address",
							"name": "previousOwner",
							"type": "address"
						},
						{
							"indexed": true,
							"internalType": "address",
							"name": "newOwner",
							"type": "address"
						}
					],
					"name": "OwnershipTransferred",
					"type": "event"
				},
				{
					"inputs": [],
					"name": "AdminAddToken",
					"outputs": [],
					"stateMutability": "nonpayable",
					"type": "function"
				},
				{
					"inputs": [
						{
							"internalType": "uint256",
							"name": "amount",
							"type": "uint256"
						}
					],
					"name": "AdminWithDrawToken",
					"outputs": [],
					"stateMutability": "nonpayable",
					"type": "function"
				},
				{
					"inputs": [
						{
							"internalType": "uint256",
							"name": "_amount",
							"type": "uint256"
						}
					],
					"name": "Deposit",
					"outputs": [],
					"stateMutability": "nonpayable",
					"type": "function"
				},
				{
					"inputs": [
						{
							"internalType": "address",
							"name": "",
							"type": "address"
						}
					],
					"name": "Details",
					"outputs": [
						{
							"internalType": "uint256",
							"name": "deposited",
							"type": "uint256"
						},
						{
							"internalType": "uint256",
							"name": "timestake",
							"type": "uint256"
						},
						{
							"internalType": "bool",
							"name": "check",
							"type": "bool"
						}
					],
					"stateMutability": "view",
					"type": "function"
				},
				{
					"inputs": [],
					"name": "ERC20Address",
					"outputs": [
						{
							"internalType": "address",
							"name": "",
							"type": "address"
						}
					],
					"stateMutability": "view",
					"type": "function"
				},
				{
					"inputs": [],
					"name": "ERC721address",
					"outputs": [
						{
							"internalType": "address",
							"name": "",
							"type": "address"
						}
					],
					"stateMutability": "view",
					"type": "function"
				},
				{
					"inputs": [
						{
							"internalType": "address",
							"name": "",
							"type": "address"
						}
					],
					"name": "OwnerTokens",
					"outputs": [
						{
							"internalType": "uint256",
							"name": "",
							"type": "uint256"
						}
					],
					"stateMutability": "view",
					"type": "function"
				},
				{
					"inputs": [
						{
							"internalType": "address",
							"name": "",
							"type": "address"
						}
					],
					"name": "Reward",
					"outputs": [
						{
							"internalType": "uint256",
							"name": "",
							"type": "uint256"
						}
					],
					"stateMutability": "view",
					"type": "function"
				},
				{
					"inputs": [
						{
							"internalType": "address",
							"name": "_ERC20Address",
							"type": "address"
						}
					],
					"name": "UpdateERC20",
					"outputs": [],
					"stateMutability": "nonpayable",
					"type": "function"
				},
				{
					"inputs": [
						{
							"internalType": "address",
							"name": "_ERC721address",
							"type": "address"
						}
					],
					"name": "UpdateERC721",
					"outputs": [],
					"stateMutability": "nonpayable",
					"type": "function"
				},
				{
					"inputs": [
						{
							"internalType": "uint256",
							"name": "_ratePersentage",
							"type": "uint256"
						}
					],
					"name": "UpdateRatePersentage",
					"outputs": [],
					"stateMutability": "nonpayable",
					"type": "function"
				},
				{
					"inputs": [],
					"name": "Utilization",
					"outputs": [
						{
							"internalType": "uint256",
							"name": "",
							"type": "uint256"
						}
					],
					"stateMutability": "view",
					"type": "function"
				},
				{
					"inputs": [],
					"name": "Withdraw",
					"outputs": [],
					"stateMutability": "nonpayable",
					"type": "function"
				},
				{
					"inputs": [],
					"name": "WithdrawReward",
					"outputs": [],
					"stateMutability": "nonpayable",
					"type": "function"
				},
				{
					"inputs": [],
					"name": "calculateIntrest",
					"outputs": [
						{
							"internalType": "uint256",
							"name": "",
							"type": "uint256"
						}
					],
					"stateMutability": "nonpayable",
					"type": "function"
				},
				{
					"inputs": [],
					"name": "owenerERC20",
					"outputs": [
						{
							"internalType": "address",
							"name": "",
							"type": "address"
						}
					],
					"stateMutability": "view",
					"type": "function"
				},
				{
					"inputs": [],
					"name": "owner",
					"outputs": [
						{
							"internalType": "address",
							"name": "",
							"type": "address"
						}
					],
					"stateMutability": "view",
					"type": "function"
				},
				{
					"inputs": [],
					"name": "renounceOwnership",
					"outputs": [],
					"stateMutability": "nonpayable",
					"type": "function"
				},
				{
					"inputs": [],
					"name": "rewardrate",
					"outputs": [
						{
							"internalType": "uint256",
							"name": "",
							"type": "uint256"
						}
					],
					"stateMutability": "view",
					"type": "function"
				},
				{
					"inputs": [],
					"name": "totalOwnerToken",
					"outputs": [
						{
							"internalType": "uint256",
							"name": "",
							"type": "uint256"
						}
					],
					"stateMutability": "view",
					"type": "function"
				},
				{
					"inputs": [
						{
							"internalType": "address",
							"name": "newOwner",
							"type": "address"
						}
					],
					"name": "transferOwnership",
					"outputs": [],
					"stateMutability": "nonpayable",
					"type": "function"
				},
				{
					"inputs": [],
					"name": "unstaketimeval",
					"outputs": [
						{
							"internalType": "uint256",
							"name": "",
							"type": "uint256"
						}
					],
					"stateMutability": "view",
					"type": "function"
				},
				{
					"inputs": [
						{
							"internalType": "uint256",
							"name": "tokenIds",
							"type": "uint256"
						}
					],
					"name": "withdrawNFT",
					"outputs": [],
					"stateMutability": "nonpayable",
					"type": "function"
				}
			],
			"devdoc": {
				"kind": "dev",
				"methods": {
					"owner()": {
						"details": "Returns the address of the current owner."
					},
					"renounceOwnership()": {
						"details": "Leaves the contract without owner. It will not be possible to call `onlyOwner` functions anymore. Can only be called by the current owner. NOTE: Renouncing ownership will leave the contract without an owner, thereby removing any functionality that is only available to the owner."
					},
					"transferOwnership(address)": {
						"details": "Transfers ownership of the contract to a new account (`newOwner`). Can only be called by the current owner."
					}
				},
				"version": 1
			},
			"evm": {
				"assembly": "    /* \"contracts/ERC20Stakeable.sol\":289:6366  contract ERC20Stakeable is Ownable{\r... */\n  mstore(0x40, 0x80)\n    /* \"contracts/ERC20Stakeable.sol\":1241:1481  constructor(address _ERC721address, uint256 _ratePersentage, address _ERC20Address) {\r... */\n  callvalue\n  dup1\n  iszero\n  tag_1\n  jumpi\n  0x00\n  dup1\n  revert\ntag_1:\n  pop\n  mload(0x40)\n  sub(codesize, bytecodeSize)\n  dup1\n  bytecodeSize\n  dup4\n  codecopy\n  dup2\n  dup2\n  add\n  0x40\n  mstore\n  dup2\n  add\n  swap1\n  tag_2\n  swap2\n  swap1\n  tag_3\n  jump\t// in\ntag_2:\n    /* \"@openzeppelin/contracts/access/Ownable.sol\":936:968  _transferOwnership(_msgSender()) */\n  tag_7\n    /* \"@openzeppelin/contracts/access/Ownable.sol\":955:967  _msgSender() */\n  tag_8\n    /* \"@openzeppelin/contracts/access/Ownable.sol\":955:965  _msgSender */\n  shl(0x20, tag_9)\n    /* \"@openzeppelin/contracts/access/Ownable.sol\":955:967  _msgSender() */\n  0x20\n  shr\n  jump\t// in\ntag_8:\n    /* \"@openzeppelin/contracts/access/Ownable.sol\":936:954  _transferOwnership */\n  shl(0x20, tag_10)\n    /* \"@openzeppelin/contracts/access/Ownable.sol\":936:968  _transferOwnership(_msgSender()) */\n  0x20\n  shr\n  jump\t// in\ntag_7:\n    /* \"contracts/ERC20Stakeable.sol\":1352:1366  _ERC721address */\n  dup3\n    /* \"contracts/ERC20Stakeable.sol\":1336:1349  ERC721address */\n  0x01\n  0x00\n    /* \"contracts/ERC20Stakeable.sol\":1336:1366  ERC721address = _ERC721address */\n  0x0100\n  exp\n  dup2\n  sload\n  dup2\n  0xffffffffffffffffffffffffffffffffffffffff\n  mul\n  not\n  and\n  swap1\n  dup4\n  0xffffffffffffffffffffffffffffffffffffffff\n  and\n  mul\n  or\n  swap1\n  sstore\n  pop\n    /* \"contracts/ERC20Stakeable.sol\":1384:1399  _ratePersentage */\n  dup2\n    /* \"contracts/ERC20Stakeable.sol\":1377:1381  rate */\n  0x07\n    /* \"contracts/ERC20Stakeable.sol\":1377:1399  rate = _ratePersentage */\n  dup2\n  swap1\n  sstore\n  pop\n    /* \"contracts/ERC20Stakeable.sol\":1425:1438  _ERC20Address */\n  dup1\n    /* \"contracts/ERC20Stakeable.sol\":1410:1422  ERC20Address */\n  0x03\n  0x00\n    /* \"contracts/ERC20Stakeable.sol\":1410:1438  ERC20Address = _ERC20Address */\n  0x0100\n  exp\n  dup2\n  sload\n  dup2\n  0xffffffffffffffffffffffffffffffffffffffff\n  mul\n  not\n  and\n  swap1\n  dup4\n  0xffffffffffffffffffffffffffffffffffffffff\n  and\n  mul\n  or\n  swap1\n  sstore\n  pop\n    /* \"contracts/ERC20Stakeable.sol\":1463:1473  msg.sender */\n  caller\n    /* \"contracts/ERC20Stakeable.sol\":1449:1460  owenerERC20 */\n  0x02\n  0x00\n    /* \"contracts/ERC20Stakeable.sol\":1449:1473  owenerERC20 = msg.sender */\n  0x0100\n  exp\n  dup2\n  sload\n  dup2\n  0xffffffffffffffffffffffffffffffffffffffff\n  mul\n  not\n  and\n  swap1\n  dup4\n  0xffffffffffffffffffffffffffffffffffffffff\n  and\n  mul\n  or\n  swap1\n  sstore\n  pop\n    /* \"contracts/ERC20Stakeable.sol\":1241:1481  constructor(address _ERC721address, uint256 _ratePersentage, address _ERC20Address) {\r... */\n  pop\n  pop\n  pop\n    /* \"contracts/ERC20Stakeable.sol\":289:6366  contract ERC20Stakeable is Ownable{\r... */\n  jump(tag_12)\n    /* \"@openzeppelin/contracts/utils/Context.sol\":640:736  function _msgSender() internal view virtual returns (address) {... */\ntag_9:\n    /* \"@openzeppelin/contracts/utils/Context.sol\":693:700  address */\n  0x00\n    /* \"@openzeppelin/contracts/utils/Context.sol\":719:729  msg.sender */\n  caller\n    /* \"@openzeppelin/contracts/utils/Context.sol\":712:729  return msg.sender */\n  swap1\n  pop\n    /* \"@openzeppelin/contracts/utils/Context.sol\":640:736  function _msgSender() internal view virtual returns (address) {... */\n  swap1\n  jump\t// out\n    /* \"@openzeppelin/contracts/access/Ownable.sol\":2433:2620  function _transferOwnership(address newOwner) internal virtual {... */\ntag_10:\n    /* \"@openzeppelin/contracts/access/Ownable.sol\":2506:2522  address oldOwner */\n  0x00\n    /* \"@openzeppelin/contracts/access/Ownable.sol\":2525:2531  _owner */\n  dup1\n  0x00\n  swap1\n  sload\n  swap1\n  0x0100\n  exp\n  swap1\n  div\n  0xffffffffffffffffffffffffffffffffffffffff\n  and\n    /* \"@openzeppelin/contracts/access/Ownable.sol\":2506:2531  address oldOwner = _owner */\n  swap1\n  pop\n    /* \"@openzeppelin/contracts/access/Ownable.sol\":2550:2558  newOwner */\n  dup2\n    /* \"@openzeppelin/contracts/access/Ownable.sol\":2541:2547  _owner */\n  0x00\n  dup1\n    /* \"@openzeppelin/contracts/access/Ownable.sol\":2541:2558  _owner = newOwner */\n  0x0100\n  exp\n  dup2\n  sload\n  dup2\n  0xffffffffffffffffffffffffffffffffffffffff\n  mul\n  not\n  and\n  swap1\n  dup4\n  0xffffffffffffffffffffffffffffffffffffffff\n  and\n  mul\n  or\n  swap1\n  sstore\n  pop\n    /* \"@openzeppelin/contracts/access/Ownable.sol\":2604:2612  newOwner */\n  dup2\n    /* \"@openzeppelin/contracts/access/Ownable.sol\":2573:2613  OwnershipTransferred(oldOwner, newOwner) */\n  0xffffffffffffffffffffffffffffffffffffffff\n  and\n    /* \"@openzeppelin/contracts/access/Ownable.sol\":2594:2602  oldOwner */\n  dup2\n    /* \"@openzeppelin/contracts/access/Ownable.sol\":2573:2613  OwnershipTransferred(oldOwner, newOwner) */\n  0xffffffffffffffffffffffffffffffffffffffff\n  and\n  0x8be0079c531659141344cd1fd0a4f28419497f9722a3daafe3b4186f6b6457e0\n  mload(0x40)\n  mload(0x40)\n  dup1\n  swap2\n  sub\n  swap1\n  log3\n    /* \"@openzeppelin/contracts/access/Ownable.sol\":2496:2620  {... */\n  pop\n    /* \"@openzeppelin/contracts/access/Ownable.sol\":2433:2620  function _transferOwnership(address newOwner) internal virtual {... */\n  pop\n  jump\t// out\n    /* \"#utility.yul\":7:150   */\ntag_16:\n    /* \"#utility.yul\":64:69   */\n  0x00\n    /* \"#utility.yul\":95:101   */\n  dup2\n    /* \"#utility.yul\":89:102   */\n  mload\n    /* \"#utility.yul\":80:102   */\n  swap1\n  pop\n    /* \"#utility.yul\":111:144   */\n  tag_18\n    /* \"#utility.yul\":138:143   */\n  dup2\n    /* \"#utility.yul\":111:144   */\n  tag_19\n  jump\t// in\ntag_18:\n    /* \"#utility.yul\":7:150   */\n  swap3\n  swap2\n  pop\n  pop\n  jump\t// out\n    /* \"#utility.yul\":156:299   */\ntag_20:\n    /* \"#utility.yul\":213:218   */\n  0x00\n    /* \"#utility.yul\":244:250   */\n  dup2\n    /* \"#utility.yul\":238:251   */\n  mload\n    /* \"#utility.yul\":229:251   */\n  swap1\n  pop\n    /* \"#utility.yul\":260:293   */\n  tag_22\n    /* \"#utility.yul\":287:292   */\n  dup2\n    /* \"#utility.yul\":260:293   */\n  tag_23\n  jump\t// in\ntag_22:\n    /* \"#utility.yul\":156:299   */\n  swap3\n  swap2\n  pop\n  pop\n  jump\t// out\n    /* \"#utility.yul\":305:968   */\ntag_3:\n    /* \"#utility.yul\":393:399   */\n  0x00\n    /* \"#utility.yul\":401:407   */\n  dup1\n    /* \"#utility.yul\":409:415   */\n  0x00\n    /* \"#utility.yul\":458:460   */\n  0x60\n    /* \"#utility.yul\":446:455   */\n  dup5\n    /* \"#utility.yul\":437:444   */\n  dup7\n    /* \"#utility.yul\":433:456   */\n  sub\n    /* \"#utility.yul\":429:461   */\n  slt\n    /* \"#utility.yul\":426:545   */\n  iszero\n  tag_25\n  jumpi\n    /* \"#utility.yul\":464:543   */\n  tag_26\n  tag_27\n  jump\t// in\ntag_26:\n    /* \"#utility.yul\":426:545   */\ntag_25:\n    /* \"#utility.yul\":584:585   */\n  0x00\n    /* \"#utility.yul\":609:673   */\n  tag_28\n    /* \"#utility.yul\":665:672   */\n  dup7\n    /* \"#utility.yul\":656:662   */\n  dup3\n    /* \"#utility.yul\":645:654   */\n  dup8\n    /* \"#utility.yul\":641:663   */\n  add\n    /* \"#utility.yul\":609:673   */\n  tag_16\n  jump\t// in\ntag_28:\n    /* \"#utility.yul\":599:673   */\n  swap4\n  pop\n    /* \"#utility.yul\":555:683   */\n  pop\n    /* \"#utility.yul\":722:724   */\n  0x20\n    /* \"#utility.yul\":748:812   */\n  tag_29\n    /* \"#utility.yul\":804:811   */\n  dup7\n    /* \"#utility.yul\":795:801   */\n  dup3\n    /* \"#utility.yul\":784:793   */\n  dup8\n    /* \"#utility.yul\":780:802   */\n  add\n    /* \"#utility.yul\":748:812   */\n  tag_20\n  jump\t// in\ntag_29:\n    /* \"#utility.yul\":738:812   */\n  swap3\n  pop\n    /* \"#utility.yul\":693:822   */\n  pop\n    /* \"#utility.yul\":861:863   */\n  0x40\n    /* \"#utility.yul\":887:951   */\n  tag_30\n    /* \"#utility.yul\":943:950   */\n  dup7\n    /* \"#utility.yul\":934:940   */\n  dup3\n    /* \"#utility.yul\":923:932   */\n  dup8\n    /* \"#utility.yul\":919:941   */\n  add\n    /* \"#utility.yul\":887:951   */\n  tag_16\n  jump\t// in\ntag_30:\n    /* \"#utility.yul\":877:951   */\n  swap2\n  pop\n    /* \"#utility.yul\":832:961   */\n  pop\n    /* \"#utility.yul\":305:968   */\n  swap3\n  pop\n  swap3\n  pop\n  swap3\n  jump\t// out\n    /* \"#utility.yul\":1055:1151   */\ntag_33:\n    /* \"#utility.yul\":1092:1099   */\n  0x00\n    /* \"#utility.yul\":1121:1145   */\n  tag_35\n    /* \"#utility.yul\":1139:1144   */\n  dup3\n    /* \"#utility.yul\":1121:1145   */\n  tag_36\n  jump\t// in\ntag_35:\n    /* \"#utility.yul\":1110:1145   */\n  swap1\n  pop\n    /* \"#utility.yul\":1055:1151   */\n  swap2\n  swap1\n  pop\n  jump\t// out\n    /* \"#utility.yul\":1157:1283   */\ntag_36:\n    /* \"#utility.yul\":1194:1201   */\n  0x00\n    /* \"#utility.yul\":1234:1276   */\n  0xffffffffffffffffffffffffffffffffffffffff\n    /* \"#utility.yul\":1227:1232   */\n  dup3\n    /* \"#utility.yul\":1223:1277   */\n  and\n    /* \"#utility.yul\":1212:1277   */\n  swap1\n  pop\n    /* \"#utility.yul\":1157:1283   */\n  swap2\n  swap1\n  pop\n  jump\t// out\n    /* \"#utility.yul\":1289:1366   */\ntag_38:\n    /* \"#utility.yul\":1326:1333   */\n  0x00\n    /* \"#utility.yul\":1355:1360   */\n  dup2\n    /* \"#utility.yul\":1344:1360   */\n  swap1\n  pop\n    /* \"#utility.yul\":1289:1366   */\n  swap2\n  swap1\n  pop\n  jump\t// out\n    /* \"#utility.yul\":1495:1612   */\ntag_27:\n    /* \"#utility.yul\":1604:1605   */\n  0x00\n    /* \"#utility.yul\":1601:1602   */\n  dup1\n    /* \"#utility.yul\":1594:1606   */\n  revert\n    /* \"#utility.yul\":1618:1740   */\ntag_19:\n    /* \"#utility.yul\":1691:1715   */\n  tag_44\n    /* \"#utility.yul\":1709:1714   */\n  dup2\n    /* \"#utility.yul\":1691:1715   */\n  tag_33\n  jump\t// in\ntag_44:\n    /* \"#utility.yul\":1684:1689   */\n  dup2\n    /* \"#utility.yul\":1681:1716   */\n  eq\n    /* \"#utility.yul\":1671:1734   */\n  tag_45\n  jumpi\n    /* \"#utility.yul\":1730:1731   */\n  0x00\n    /* \"#utility.yul\":1727:1728   */\n  dup1\n    /* \"#utility.yul\":1720:1732   */\n  revert\n    /* \"#utility.yul\":1671:1734   */\ntag_45:\n    /* \"#utility.yul\":1618:1740   */\n  pop\n  jump\t// out\n    /* \"#utility.yul\":1746:1868   */\ntag_23:\n    /* \"#utility.yul\":1819:1843   */\n  tag_47\n    /* \"#utility.yul\":1837:1842   */\n  dup2\n    /* \"#utility.yul\":1819:1843   */\n  tag_38\n  jump\t// in\ntag_47:\n    /* \"#utility.yul\":1812:1817   */\n  dup2\n    /* \"#utility.yul\":1809:1844   */\n  eq\n    /* \"#utility.yul\":1799:1862   */\n  tag_48\n  jumpi\n    /* \"#utility.yul\":1858:1859   */\n  0x00\n    /* \"#utility.yul\":1855:1856   */\n  dup1\n    /* \"#utility.yul\":1848:1860   */\n  revert\n    /* \"#utility.yul\":1799:1862   */\ntag_48:\n    /* \"#utility.yul\":1746:1868   */\n  pop\n  jump\t// out\n    /* \"contracts/ERC20Stakeable.sol\":289:6366  contract ERC20Stakeable is Ownable{\r... */\ntag_12:\n  dataSize(sub_0)\n  dup1\n  dataOffset(sub_0)\n  0x00\n  codecopy\n  0x00\n  return\nstop\n\nsub_0: assembly {\n        /* \"contracts/ERC20Stakeable.sol\":289:6366  contract ERC20Stakeable is Ownable{\r... */\n      mstore(0x40, 0x80)\n      callvalue\n      dup1\n      iszero\n      tag_1\n      jumpi\n      0x00\n      dup1\n      revert\n    tag_1:\n      pop\n      jumpi(tag_2, lt(calldatasize, 0x04))\n      shr(0xe0, calldataload(0x00))\n      dup1\n      0x715018a6\n      gt\n      tag_26\n      jumpi\n      dup1\n      0xc3c917b0\n      gt\n      tag_27\n      jumpi\n      dup1\n      0xc3c917b0\n      eq\n      tag_20\n      jumpi\n      dup1\n      0xde9d3ddb\n      eq\n      tag_21\n      jumpi\n      dup1\n      0xe88cc2be\n      eq\n      tag_22\n      jumpi\n      dup1\n      0xee0106d2\n      eq\n      tag_23\n      jumpi\n      dup1\n      0xf2fde38b\n      eq\n      tag_24\n      jumpi\n      dup1\n      0xf89d832f\n      eq\n      tag_25\n      jumpi\n      jump(tag_2)\n    tag_27:\n      dup1\n      0x715018a6\n      eq\n      tag_14\n      jumpi\n      dup1\n      0x7b2f247f\n      eq\n      tag_15\n      jumpi\n      dup1\n      0x8da5cb5b\n      eq\n      tag_16\n      jumpi\n      dup1\n      0xa6021ace\n      eq\n      tag_17\n      jumpi\n      dup1\n      0xa88e132f\n      eq\n      tag_18\n      jumpi\n      dup1\n      0xb7171a2e\n      eq\n      tag_19\n      jumpi\n      jump(tag_2)\n    tag_26:\n      dup1\n      0x2c07f74f\n      gt\n      tag_28\n      jumpi\n      dup1\n      0x2c07f74f\n      eq\n      tag_8\n      jumpi\n      dup1\n      0x2ffce210\n      eq\n      tag_9\n      jumpi\n      dup1\n      0x4d6ce1e5\n      eq\n      tag_10\n      jumpi\n      dup1\n      0x57488064\n      eq\n      tag_11\n      jumpi\n      dup1\n      0x57ea89b6\n      eq\n      tag_12\n      jumpi\n      dup1\n      0x5eb82e94\n      eq\n      tag_13\n      jumpi\n      jump(tag_2)\n    tag_28:\n      dup1\n      0x023245d7\n      eq\n      tag_3\n      jumpi\n      dup1\n      0x0ccff6e9\n      eq\n      tag_4\n      jumpi\n      dup1\n      0x10fd4fba\n      eq\n      tag_5\n      jumpi\n      dup1\n      0x144dc29c\n      eq\n      tag_6\n      jumpi\n      dup1\n      0x275bd33f\n      eq\n      tag_7\n      jumpi\n    tag_2:\n      0x00\n      dup1\n      revert\n        /* \"contracts/ERC20Stakeable.sol\":6220:6363  function withdrawNFT(uint256 tokenIds) public {\r... */\n    tag_3:\n      tag_29\n      0x04\n      dup1\n      calldatasize\n      sub\n      dup2\n      add\n      swap1\n      tag_30\n      swap2\n      swap1\n      tag_31\n      jump\t// in\n    tag_30:\n      tag_32\n      jump\t// in\n    tag_29:\n      stop\n        /* \"contracts/ERC20Stakeable.sol\":528:555  uint public totalOwnerToken */\n    tag_4:\n      tag_33\n      tag_34\n      jump\t// in\n    tag_33:\n      mload(0x40)\n      tag_35\n      swap2\n      swap1\n      tag_36\n      jump\t// in\n    tag_35:\n      mload(0x40)\n      dup1\n      swap2\n      sub\n      swap1\n      return\n        /* \"contracts/ERC20Stakeable.sol\":398:424  address public owenerERC20 */\n    tag_5:\n      tag_37\n      tag_38\n      jump\t// in\n    tag_37:\n      mload(0x40)\n      tag_39\n      swap2\n      swap1\n      tag_40\n      jump\t// in\n    tag_39:\n      mload(0x40)\n      dup1\n      swap2\n      sub\n      swap1\n      return\n        /* \"contracts/ERC20Stakeable.sol\":1714:1991  function AdminAddToken() public onlyOwner{\r... */\n    tag_6:\n      tag_41\n      tag_42\n      jump\t// in\n    tag_41:\n      stop\n        /* \"contracts/ERC20Stakeable.sol\":5421:5530  function UpdateERC20 ( address _ERC20Address) public onlyOwner{\r... */\n    tag_7:\n      tag_43\n      0x04\n      dup1\n      calldatasize\n      sub\n      dup2\n      add\n      swap1\n      tag_44\n      swap2\n      swap1\n      tag_45\n      jump\t// in\n    tag_44:\n      tag_46\n      jump\t// in\n    tag_43:\n      stop\n        /* \"contracts/ERC20Stakeable.sol\":4736:4941  function WithdrawReward() public {\r... */\n    tag_8:\n      tag_47\n      tag_48\n      jump\t// in\n    tag_47:\n      stop\n        /* \"contracts/ERC20Stakeable.sol\":779:824  mapping (address => uint ) public OwnerTokens */\n    tag_9:\n      tag_49\n      0x04\n      dup1\n      calldatasize\n      sub\n      dup2\n      add\n      swap1\n      tag_50\n      swap2\n      swap1\n      tag_45\n      jump\t// in\n    tag_50:\n      tag_51\n      jump\t// in\n    tag_49:\n      mload(0x40)\n      tag_52\n      swap2\n      swap1\n      tag_36\n      jump\t// in\n    tag_52:\n      mload(0x40)\n      dup1\n      swap2\n      sub\n      swap1\n      return\n        /* \"contracts/ERC20Stakeable.sol\":3085:3357  function Deposit(uint256 _amount) public {\r... */\n    tag_10:\n      tag_53\n      0x04\n      dup1\n      calldatasize\n      sub\n      dup2\n      add\n      swap1\n      tag_54\n      swap2\n      swap1\n      tag_31\n      jump\t// in\n    tag_54:\n      tag_55\n      jump\t// in\n    tag_53:\n      stop\n        /* \"contracts/ERC20Stakeable.sol\":733:772  mapping (address => uint) public Reward */\n    tag_11:\n      tag_56\n      0x04\n      dup1\n      calldatasize\n      sub\n      dup2\n      add\n      swap1\n      tag_57\n      swap2\n      swap1\n      tag_45\n      jump\t// in\n    tag_57:\n      tag_58\n      jump\t// in\n    tag_56:\n      mload(0x40)\n      tag_59\n      swap2\n      swap1\n      tag_36\n      jump\t// in\n    tag_59:\n      mload(0x40)\n      dup1\n      swap2\n      sub\n      swap1\n      return\n        /* \"contracts/ERC20Stakeable.sol\":3557:3862  function Withdraw() public {\r... */\n    tag_12:\n      tag_60\n      tag_61\n      jump\t// in\n    tag_60:\n      stop\n        /* \"contracts/ERC20Stakeable.sol\":465:487  uint public rewardrate */\n    tag_13:\n      tag_62\n      tag_63\n      jump\t// in\n    tag_62:\n      mload(0x40)\n      tag_64\n      swap2\n      swap1\n      tag_36\n      jump\t// in\n    tag_64:\n      mload(0x40)\n      dup1\n      swap2\n      sub\n      swap1\n      return\n        /* \"@openzeppelin/contracts/access/Ownable.sol\":1831:1932  function renounceOwnership() public virtual onlyOwner {... */\n    tag_14:\n      tag_65\n      tag_66\n      jump\t// in\n    tag_65:\n      stop\n        /* \"contracts/ERC20Stakeable.sol\":2612:2786  function Utilization() public view onlyOwner returns(uint256) {\r... */\n    tag_15:\n      tag_67\n      tag_68\n      jump\t// in\n    tag_67:\n      mload(0x40)\n      tag_69\n      swap2\n      swap1\n      tag_36\n      jump\t// in\n    tag_69:\n      mload(0x40)\n      dup1\n      swap2\n      sub\n      swap1\n      return\n        /* \"@openzeppelin/contracts/access/Ownable.sol\":1201:1286  function owner() public view virtual returns (address) {... */\n    tag_16:\n      tag_70\n      tag_71\n      jump\t// in\n    tag_70:\n      mload(0x40)\n      tag_72\n      swap2\n      swap1\n      tag_40\n      jump\t// in\n    tag_72:\n      mload(0x40)\n      dup1\n      swap2\n      sub\n      swap1\n      return\n        /* \"contracts/ERC20Stakeable.sol\":431:458  address public ERC20Address */\n    tag_17:\n      tag_73\n      tag_74\n      jump\t// in\n    tag_73:\n      mload(0x40)\n      tag_75\n      swap2\n      swap1\n      tag_40\n      jump\t// in\n    tag_75:\n      mload(0x40)\n      dup1\n      swap2\n      sub\n      swap1\n      return\n        /* \"contracts/ERC20Stakeable.sol\":2189:2398  function AdminWithDrawToken(uint amount) public onlyOwner{\r... */\n    tag_18:\n      tag_76\n      0x04\n      dup1\n      calldatasize\n      sub\n      dup2\n      add\n      swap1\n      tag_77\n      swap2\n      swap1\n      tag_31\n      jump\t// in\n    tag_77:\n      tag_78\n      jump\t// in\n    tag_76:\n      stop\n        /* \"contracts/ERC20Stakeable.sol\":363:391  address public ERC721address */\n    tag_19:\n      tag_79\n      tag_80\n      jump\t// in\n    tag_79:\n      mload(0x40)\n      tag_81\n      swap2\n      swap1\n      tag_40\n      jump\t// in\n    tag_81:\n      mload(0x40)\n      dup1\n      swap2\n      sub\n      swap1\n      return\n        /* \"contracts/ERC20Stakeable.sol\":4131:4424  function calculateIntrest() public returns(uint256){\r... */\n    tag_20:\n      tag_82\n      tag_83\n      jump\t// in\n    tag_82:\n      mload(0x40)\n      tag_84\n      swap2\n      swap1\n      tag_36\n      jump\t// in\n    tag_84:\n      mload(0x40)\n      dup1\n      swap2\n      sub\n      swap1\n      return\n        /* \"contracts/ERC20Stakeable.sol\":495:521  uint public unstaketimeval */\n    tag_21:\n      tag_85\n      tag_86\n      jump\t// in\n    tag_85:\n      mload(0x40)\n      tag_87\n      swap2\n      swap1\n      tag_36\n      jump\t// in\n    tag_87:\n      mload(0x40)\n      dup1\n      swap2\n      sub\n      swap1\n      return\n        /* \"contracts/ERC20Stakeable.sol\":684:726  mapping (address => Staker) public Details */\n    tag_22:\n      tag_88\n      0x04\n      dup1\n      calldatasize\n      sub\n      dup2\n      add\n      swap1\n      tag_89\n      swap2\n      swap1\n      tag_45\n      jump\t// in\n    tag_89:\n      tag_90\n      jump\t// in\n    tag_88:\n      mload(0x40)\n      tag_91\n      swap4\n      swap3\n      swap2\n      swap1\n      tag_92\n      jump\t// in\n    tag_91:\n      mload(0x40)\n      dup1\n      swap2\n      sub\n      swap1\n      return\n        /* \"contracts/ERC20Stakeable.sol\":5128:5239  function UpdateERC721(address _ERC721address) public onlyOwner{\r... */\n    tag_23:\n      tag_93\n      0x04\n      dup1\n      calldatasize\n      sub\n      dup2\n      add\n      swap1\n      tag_94\n      swap2\n      swap1\n      tag_45\n      jump\t// in\n    tag_94:\n      tag_95\n      jump\t// in\n    tag_93:\n      stop\n        /* \"@openzeppelin/contracts/access/Ownable.sol\":2081:2279  function transferOwnership(address newOwner) public virtual onlyOwner {... */\n    tag_24:\n      tag_96\n      0x04\n      dup1\n      calldatasize\n      sub\n      dup2\n      add\n      swap1\n      tag_97\n      swap2\n      swap1\n      tag_45\n      jump\t// in\n    tag_97:\n      tag_98\n      jump\t// in\n    tag_96:\n      stop\n        /* \"contracts/ERC20Stakeable.sol\":5717:5829  function UpdateRatePersentage(uint256 _ratePersentage) public onlyOwner{\r... */\n    tag_25:\n      tag_99\n      0x04\n      dup1\n      calldatasize\n      sub\n      dup2\n      add\n      swap1\n      tag_100\n      swap2\n      swap1\n      tag_31\n      jump\t// in\n    tag_100:\n      tag_101\n      jump\t// in\n    tag_99:\n      stop\n        /* \"contracts/ERC20Stakeable.sol\":6220:6363  function withdrawNFT(uint256 tokenIds) public {\r... */\n    tag_32:\n        /* \"contracts/ERC20Stakeable.sol\":6285:6298  ERC721address */\n      0x01\n      0x00\n      swap1\n      sload\n      swap1\n      0x0100\n      exp\n      swap1\n      div\n      0xffffffffffffffffffffffffffffffffffffffff\n      and\n        /* \"contracts/ERC20Stakeable.sol\":6277:6316  IERC721(ERC721address).safeTransferFrom */\n      0xffffffffffffffffffffffffffffffffffffffff\n      and\n      0xb88d4fde\n        /* \"contracts/ERC20Stakeable.sol\":6325:6329  this */\n      address\n        /* \"contracts/ERC20Stakeable.sol\":6332:6342  msg.sender */\n      caller\n        /* \"contracts/ERC20Stakeable.sol\":6343:6351  tokenIds */\n      dup5\n        /* \"contracts/ERC20Stakeable.sol\":6277:6355  IERC721(ERC721address).safeTransferFrom(address(this), msg.sender,tokenIds,\"\") */\n      mload(0x40)\n      dup5\n      0xffffffff\n      and\n      0xe0\n      shl\n      dup2\n      mstore\n      0x04\n      add\n      tag_103\n      swap4\n      swap3\n      swap2\n      swap1\n      tag_104\n      jump\t// in\n    tag_103:\n      0x00\n      mload(0x40)\n      dup1\n      dup4\n      sub\n      dup2\n      0x00\n      dup8\n      dup1\n      extcodesize\n      iszero\n      dup1\n      iszero\n      tag_105\n      jumpi\n      0x00\n      dup1\n      revert\n    tag_105:\n      pop\n      gas\n      call\n      iszero\n      dup1\n      iszero\n      tag_107\n      jumpi\n      returndatasize\n      0x00\n      dup1\n      returndatacopy\n      revert(0x00, returndatasize)\n    tag_107:\n      pop\n      pop\n      pop\n      pop\n        /* \"contracts/ERC20Stakeable.sol\":6220:6363  function withdrawNFT(uint256 tokenIds) public {\r... */\n      pop\n      jump\t// out\n        /* \"contracts/ERC20Stakeable.sol\":528:555  uint public totalOwnerToken */\n    tag_34:\n      sload(0x06)\n      dup2\n      jump\t// out\n        /* \"contracts/ERC20Stakeable.sol\":398:424  address public owenerERC20 */\n    tag_38:\n      0x02\n      0x00\n      swap1\n      sload\n      swap1\n      0x0100\n      exp\n      swap1\n      div\n      0xffffffffffffffffffffffffffffffffffffffff\n      and\n      dup2\n      jump\t// out\n        /* \"contracts/ERC20Stakeable.sol\":1714:1991  function AdminAddToken() public onlyOwner{\r... */\n    tag_42:\n        /* \"@openzeppelin/contracts/access/Ownable.sol\":1094:1107  _checkOwner() */\n      tag_109\n        /* \"@openzeppelin/contracts/access/Ownable.sol\":1094:1105  _checkOwner */\n      tag_110\n        /* \"@openzeppelin/contracts/access/Ownable.sol\":1094:1107  _checkOwner() */\n      jump\t// in\n    tag_109:\n        /* \"contracts/ERC20Stakeable.sol\":1786:1797  owenerERC20 */\n      0x02\n      0x00\n      swap1\n      sload\n      swap1\n      0x0100\n      exp\n      swap1\n      div\n      0xffffffffffffffffffffffffffffffffffffffff\n      and\n        /* \"contracts/ERC20Stakeable.sol\":1774:1797  msg.sender==owenerERC20 */\n      0xffffffffffffffffffffffffffffffffffffffff\n      and\n        /* \"contracts/ERC20Stakeable.sol\":1774:1784  msg.sender */\n      caller\n        /* \"contracts/ERC20Stakeable.sol\":1774:1797  msg.sender==owenerERC20 */\n      0xffffffffffffffffffffffffffffffffffffffff\n      and\n      eq\n        /* \"contracts/ERC20Stakeable.sol\":1766:1824  require(msg.sender==owenerERC20,\"Only Owner can transfer\") */\n      tag_112\n      jumpi\n      mload(0x40)\n      0x08c379a000000000000000000000000000000000000000000000000000000000\n      dup2\n      mstore\n      0x04\n      add\n      tag_113\n      swap1\n      tag_114\n      jump\t// in\n    tag_113:\n      mload(0x40)\n      dup1\n      swap2\n      sub\n      swap1\n      revert\n    tag_112:\n        /* \"contracts/ERC20Stakeable.sol\":1862:1867  10000 */\n      0x2710\n        /* \"contracts/ERC20Stakeable.sol\":1835:1846  OwnerTokens */\n      0x0a\n        /* \"contracts/ERC20Stakeable.sol\":1835:1858  OwnerTokens[msg.sender] */\n      0x00\n        /* \"contracts/ERC20Stakeable.sol\":1847:1857  msg.sender */\n      caller\n        /* \"contracts/ERC20Stakeable.sol\":1835:1858  OwnerTokens[msg.sender] */\n      0xffffffffffffffffffffffffffffffffffffffff\n      and\n      0xffffffffffffffffffffffffffffffffffffffff\n      and\n      dup2\n      mstore\n      0x20\n      add\n      swap1\n      dup2\n      mstore\n      0x20\n      add\n      0x00\n      keccak256\n      0x00\n        /* \"contracts/ERC20Stakeable.sol\":1835:1867  OwnerTokens[msg.sender] += 10000 */\n      dup3\n      dup3\n      sload\n      tag_115\n      swap2\n      swap1\n      tag_116\n      jump\t// in\n    tag_115:\n      swap3\n      pop\n      pop\n      dup2\n      swap1\n      sstore\n      pop\n        /* \"contracts/ERC20Stakeable.sol\":1897:1902  10000 */\n      0x2710\n        /* \"contracts/ERC20Stakeable.sol\":1878:1893  totalOwnerToken */\n      0x06\n      0x00\n        /* \"contracts/ERC20Stakeable.sol\":1878:1902  totalOwnerToken += 10000 */\n      dup3\n      dup3\n      sload\n      tag_117\n      swap2\n      swap1\n      tag_116\n      jump\t// in\n    tag_117:\n      swap3\n      pop\n      pop\n      dup2\n      swap1\n      sstore\n      pop\n        /* \"contracts/ERC20Stakeable.sol\":1913:1983  IERC20(ERC20Address).safeTransferFrom(msg.sender, ERC20Address ,10000) */\n      tag_118\n        /* \"contracts/ERC20Stakeable.sol\":1951:1961  msg.sender */\n      caller\n        /* \"contracts/ERC20Stakeable.sol\":1963:1975  ERC20Address */\n      0x03\n      0x00\n      swap1\n      sload\n      swap1\n      0x0100\n      exp\n      swap1\n      div\n      0xffffffffffffffffffffffffffffffffffffffff\n      and\n        /* \"contracts/ERC20Stakeable.sol\":1977:1982  10000 */\n      0x2710\n        /* \"contracts/ERC20Stakeable.sol\":1920:1932  ERC20Address */\n      0x03\n      0x00\n      swap1\n      sload\n      swap1\n      0x0100\n      exp\n      swap1\n      div\n      0xffffffffffffffffffffffffffffffffffffffff\n      and\n        /* \"contracts/ERC20Stakeable.sol\":1913:1950  IERC20(ERC20Address).safeTransferFrom */\n      0xffffffffffffffffffffffffffffffffffffffff\n      and\n      tag_119\n      swap1\n        /* \"contracts/ERC20Stakeable.sol\":1913:1983  IERC20(ERC20Address).safeTransferFrom(msg.sender, ERC20Address ,10000) */\n      swap4\n      swap3\n      swap2\n      swap1\n      0xffffffff\n      and\n      jump\t// in\n    tag_118:\n        /* \"contracts/ERC20Stakeable.sol\":1714:1991  function AdminAddToken() public onlyOwner{\r... */\n      jump\t// out\n        /* \"contracts/ERC20Stakeable.sol\":5421:5530  function UpdateERC20 ( address _ERC20Address) public onlyOwner{\r... */\n    tag_46:\n        /* \"@openzeppelin/contracts/access/Ownable.sol\":1094:1107  _checkOwner() */\n      tag_121\n        /* \"@openzeppelin/contracts/access/Ownable.sol\":1094:1105  _checkOwner */\n      tag_110\n        /* \"@openzeppelin/contracts/access/Ownable.sol\":1094:1107  _checkOwner() */\n      jump\t// in\n    tag_121:\n        /* \"contracts/ERC20Stakeable.sol\":5509:5522  _ERC20Address */\n      dup1\n        /* \"contracts/ERC20Stakeable.sol\":5494:5506  ERC20Address */\n      0x03\n      0x00\n        /* \"contracts/ERC20Stakeable.sol\":5494:5522  ERC20Address = _ERC20Address */\n      0x0100\n      exp\n      dup2\n      sload\n      dup2\n      0xffffffffffffffffffffffffffffffffffffffff\n      mul\n      not\n      and\n      swap1\n      dup4\n      0xffffffffffffffffffffffffffffffffffffffff\n      and\n      mul\n      or\n      swap1\n      sstore\n      pop\n        /* \"contracts/ERC20Stakeable.sol\":5421:5530  function UpdateERC20 ( address _ERC20Address) public onlyOwner{\r... */\n      pop\n      jump\t// out\n        /* \"contracts/ERC20Stakeable.sol\":4736:4941  function WithdrawReward() public {\r... */\n    tag_48:\n        /* \"contracts/ERC20Stakeable.sol\":4787:4799  ERC20Address */\n      0x03\n      0x00\n      swap1\n      sload\n      swap1\n      0x0100\n      exp\n      swap1\n      div\n      0xffffffffffffffffffffffffffffffffffffffff\n      and\n        /* \"contracts/ERC20Stakeable.sol\":4780:4809  IERC20(ERC20Address).transfer */\n      0xffffffffffffffffffffffffffffffffffffffff\n      and\n      0xa9059cbb\n        /* \"contracts/ERC20Stakeable.sol\":4810:4820  msg.sender */\n      caller\n        /* \"contracts/ERC20Stakeable.sol\":4822:4828  Reward */\n      0x09\n        /* \"contracts/ERC20Stakeable.sol\":4822:4840  Reward[msg.sender] */\n      0x00\n        /* \"contracts/ERC20Stakeable.sol\":4829:4839  msg.sender */\n      caller\n        /* \"contracts/ERC20Stakeable.sol\":4822:4840  Reward[msg.sender] */\n      0xffffffffffffffffffffffffffffffffffffffff\n      and\n      0xffffffffffffffffffffffffffffffffffffffff\n      and\n      dup2\n      mstore\n      0x20\n      add\n      swap1\n      dup2\n      mstore\n      0x20\n      add\n      0x00\n      keccak256\n      sload\n        /* \"contracts/ERC20Stakeable.sol\":4780:4841  IERC20(ERC20Address).transfer(msg.sender, Reward[msg.sender]) */\n      mload(0x40)\n      dup4\n      0xffffffff\n      and\n      0xe0\n      shl\n      dup2\n      mstore\n      0x04\n      add\n      tag_124\n      swap3\n      swap2\n      swap1\n      tag_125\n      jump\t// in\n    tag_124:\n      0x20\n      mload(0x40)\n      dup1\n      dup4\n      sub\n      dup2\n      0x00\n      dup8\n      dup1\n      extcodesize\n      iszero\n      dup1\n      iszero\n      tag_126\n      jumpi\n      0x00\n      dup1\n      revert\n    tag_126:\n      pop\n      gas\n      call\n      iszero\n      dup1\n      iszero\n      tag_128\n      jumpi\n      returndatasize\n      0x00\n      dup1\n      returndatacopy\n      revert(0x00, returndatasize)\n    tag_128:\n      pop\n      pop\n      pop\n      pop\n      mload(0x40)\n      returndatasize\n      not(0x1f)\n      0x1f\n      dup3\n      add\n      and\n      dup3\n      add\n      dup1\n      0x40\n      mstore\n      pop\n      dup2\n      add\n      swap1\n      tag_129\n      swap2\n      swap1\n      tag_130\n      jump\t// in\n    tag_129:\n      pop\n        /* \"contracts/ERC20Stakeable.sol\":4879:4885  Reward */\n      0x09\n        /* \"contracts/ERC20Stakeable.sol\":4879:4897  Reward[msg.sender] */\n      0x00\n        /* \"contracts/ERC20Stakeable.sol\":4886:4896  msg.sender */\n      caller\n        /* \"contracts/ERC20Stakeable.sol\":4879:4897  Reward[msg.sender] */\n      0xffffffffffffffffffffffffffffffffffffffff\n      and\n      0xffffffffffffffffffffffffffffffffffffffff\n      and\n      dup2\n      mstore\n      0x20\n      add\n      swap1\n      dup2\n      mstore\n      0x20\n      add\n      0x00\n      keccak256\n      sload\n        /* \"contracts/ERC20Stakeable.sol\":4852:4863  OwnerTokens */\n      0x0a\n        /* \"contracts/ERC20Stakeable.sol\":4852:4875  OwnerTokens[msg.sender] */\n      0x00\n        /* \"contracts/ERC20Stakeable.sol\":4864:4874  msg.sender */\n      caller\n        /* \"contracts/ERC20Stakeable.sol\":4852:4875  OwnerTokens[msg.sender] */\n      0xffffffffffffffffffffffffffffffffffffffff\n      and\n      0xffffffffffffffffffffffffffffffffffffffff\n      and\n      dup2\n      mstore\n      0x20\n      add\n      swap1\n      dup2\n      mstore\n      0x20\n      add\n      0x00\n      keccak256\n      0x00\n        /* \"contracts/ERC20Stakeable.sol\":4852:4897  OwnerTokens[msg.sender] -= Reward[msg.sender] */\n      dup3\n      dup3\n      sload\n      tag_131\n      swap2\n      swap1\n      tag_132\n      jump\t// in\n    tag_131:\n      swap3\n      pop\n      pop\n      dup2\n      swap1\n      sstore\n      pop\n        /* \"contracts/ERC20Stakeable.sol\":4915:4921  Reward */\n      0x09\n        /* \"contracts/ERC20Stakeable.sol\":4915:4933  Reward[msg.sender] */\n      0x00\n        /* \"contracts/ERC20Stakeable.sol\":4922:4932  msg.sender */\n      caller\n        /* \"contracts/ERC20Stakeable.sol\":4915:4933  Reward[msg.sender] */\n      0xffffffffffffffffffffffffffffffffffffffff\n      and\n      0xffffffffffffffffffffffffffffffffffffffff\n      and\n      dup2\n      mstore\n      0x20\n      add\n      swap1\n      dup2\n      mstore\n      0x20\n      add\n      0x00\n      keccak256\n        /* \"contracts/ERC20Stakeable.sol\":4908:4933  delete Reward[msg.sender] */\n      0x00\n      swap1\n      sstore\n        /* \"contracts/ERC20Stakeable.sol\":4736:4941  function WithdrawReward() public {\r... */\n      jump\t// out\n        /* \"contracts/ERC20Stakeable.sol\":779:824  mapping (address => uint ) public OwnerTokens */\n    tag_51:\n      mstore(0x20, 0x0a)\n      dup1\n      0x00\n      mstore\n      keccak256(0x00, 0x40)\n      0x00\n      swap2\n      pop\n      swap1\n      pop\n      sload\n      dup2\n      jump\t// out\n        /* \"contracts/ERC20Stakeable.sol\":3085:3357  function Deposit(uint256 _amount) public {\r... */\n    tag_55:\n        /* \"contracts/ERC20Stakeable.sol\":3146:3153  Details */\n      0x08\n        /* \"contracts/ERC20Stakeable.sol\":3146:3165  Details[msg.sender] */\n      0x00\n        /* \"contracts/ERC20Stakeable.sol\":3154:3164  msg.sender */\n      caller\n        /* \"contracts/ERC20Stakeable.sol\":3146:3165  Details[msg.sender] */\n      0xffffffffffffffffffffffffffffffffffffffff\n      and\n      0xffffffffffffffffffffffffffffffffffffffff\n      and\n      dup2\n      mstore\n      0x20\n      add\n      swap1\n      dup2\n      mstore\n      0x20\n      add\n      0x00\n      keccak256\n        /* \"contracts/ERC20Stakeable.sol\":3146:3171  Details[msg.sender].check */\n      0x02\n      add\n      0x00\n      swap1\n      sload\n      swap1\n      0x0100\n      exp\n      swap1\n      div\n      0xff\n      and\n        /* \"contracts/ERC20Stakeable.sol\":3145:3171  !Details[msg.sender].check */\n      iszero\n        /* \"contracts/ERC20Stakeable.sol\":3137:3196  require(!Details[msg.sender].check,\"Please First WithDraw\") */\n      tag_134\n      jumpi\n      mload(0x40)\n      0x08c379a000000000000000000000000000000000000000000000000000000000\n      dup2\n      mstore\n      0x04\n      add\n      tag_135\n      swap1\n      tag_136\n      jump\t// in\n    tag_135:\n      mload(0x40)\n      dup1\n      swap2\n      sub\n      swap1\n      revert\n    tag_134:\n        /* \"contracts/ERC20Stakeable.sol\":3229:3265  Staker(_amount,block.timestamp,true) */\n      mload(0x40)\n      dup1\n      0x60\n      add\n      0x40\n      mstore\n      dup1\n        /* \"contracts/ERC20Stakeable.sol\":3236:3243  _amount */\n      dup3\n        /* \"contracts/ERC20Stakeable.sol\":3229:3265  Staker(_amount,block.timestamp,true) */\n      dup2\n      mstore\n      0x20\n      add\n        /* \"contracts/ERC20Stakeable.sol\":3244:3259  block.timestamp */\n      timestamp\n        /* \"contracts/ERC20Stakeable.sol\":3229:3265  Staker(_amount,block.timestamp,true) */\n      dup2\n      mstore\n      0x20\n      add\n        /* \"contracts/ERC20Stakeable.sol\":3260:3264  true */\n      0x01\n        /* \"contracts/ERC20Stakeable.sol\":3229:3265  Staker(_amount,block.timestamp,true) */\n      iszero\n      iszero\n      dup2\n      mstore\n      pop\n        /* \"contracts/ERC20Stakeable.sol\":3207:3214  Details */\n      0x08\n        /* \"contracts/ERC20Stakeable.sol\":3207:3226  Details[msg.sender] */\n      0x00\n        /* \"contracts/ERC20Stakeable.sol\":3215:3225  msg.sender */\n      caller\n        /* \"contracts/ERC20Stakeable.sol\":3207:3226  Details[msg.sender] */\n      0xffffffffffffffffffffffffffffffffffffffff\n      and\n      0xffffffffffffffffffffffffffffffffffffffff\n      and\n      dup2\n      mstore\n      0x20\n      add\n      swap1\n      dup2\n      mstore\n      0x20\n      add\n      0x00\n      keccak256\n        /* \"contracts/ERC20Stakeable.sol\":3207:3265  Details[msg.sender] = Staker(_amount,block.timestamp,true) */\n      0x00\n      dup3\n      add\n      mload\n      dup2\n      0x00\n      add\n      sstore\n      0x20\n      dup3\n      add\n      mload\n      dup2\n      0x01\n      add\n      sstore\n      0x40\n      dup3\n      add\n      mload\n      dup2\n      0x02\n      add\n      exp(0x0100, 0x00)\n      dup2\n      sload\n      dup2\n      0xff\n      mul\n      not\n      and\n      swap1\n      dup4\n      iszero\n      iszero\n      mul\n      or\n      swap1\n      sstore\n      pop\n      swap1\n      pop\n      pop\n        /* \"contracts/ERC20Stakeable.sol\":3276:3349  IERC20(ERC20Address).safeTransferFrom(msg.sender, ERC20Address , _amount) */\n      tag_137\n        /* \"contracts/ERC20Stakeable.sol\":3314:3324  msg.sender */\n      caller\n        /* \"contracts/ERC20Stakeable.sol\":3326:3338  ERC20Address */\n      0x03\n      0x00\n      swap1\n      sload\n      swap1\n      0x0100\n      exp\n      swap1\n      div\n      0xffffffffffffffffffffffffffffffffffffffff\n      and\n        /* \"contracts/ERC20Stakeable.sol\":3341:3348  _amount */\n      dup4\n        /* \"contracts/ERC20Stakeable.sol\":3283:3295  ERC20Address */\n      0x03\n      0x00\n      swap1\n      sload\n      swap1\n      0x0100\n      exp\n      swap1\n      div\n      0xffffffffffffffffffffffffffffffffffffffff\n      and\n        /* \"contracts/ERC20Stakeable.sol\":3276:3313  IERC20(ERC20Address).safeTransferFrom */\n      0xffffffffffffffffffffffffffffffffffffffff\n      and\n      tag_119\n      swap1\n        /* \"contracts/ERC20Stakeable.sol\":3276:3349  IERC20(ERC20Address).safeTransferFrom(msg.sender, ERC20Address , _amount) */\n      swap4\n      swap3\n      swap2\n      swap1\n      0xffffffff\n      and\n      jump\t// in\n    tag_137:\n        /* \"contracts/ERC20Stakeable.sol\":3085:3357  function Deposit(uint256 _amount) public {\r... */\n      pop\n      jump\t// out\n        /* \"contracts/ERC20Stakeable.sol\":733:772  mapping (address => uint) public Reward */\n    tag_58:\n      mstore(0x20, 0x09)\n      dup1\n      0x00\n      mstore\n      keccak256(0x00, 0x40)\n      0x00\n      swap2\n      pop\n      swap1\n      pop\n      sload\n      dup2\n      jump\t// out\n        /* \"contracts/ERC20Stakeable.sol\":3557:3862  function Withdraw() public {\r... */\n    tag_61:\n        /* \"contracts/ERC20Stakeable.sol\":3603:3610  Details */\n      0x08\n        /* \"contracts/ERC20Stakeable.sol\":3603:3622  Details[msg.sender] */\n      0x00\n        /* \"contracts/ERC20Stakeable.sol\":3611:3621  msg.sender */\n      caller\n        /* \"contracts/ERC20Stakeable.sol\":3603:3622  Details[msg.sender] */\n      0xffffffffffffffffffffffffffffffffffffffff\n      and\n      0xffffffffffffffffffffffffffffffffffffffff\n      and\n      dup2\n      mstore\n      0x20\n      add\n      swap1\n      dup2\n      mstore\n      0x20\n      add\n      0x00\n      keccak256\n        /* \"contracts/ERC20Stakeable.sol\":3603:3628  Details[msg.sender].check */\n      0x02\n      add\n      0x00\n      swap1\n      sload\n      swap1\n      0x0100\n      exp\n      swap1\n      div\n      0xff\n      and\n        /* \"contracts/ERC20Stakeable.sol\":3595:3650  require(Details[msg.sender].check,\"Please First Stake\") */\n      tag_139\n      jumpi\n      mload(0x40)\n      0x08c379a000000000000000000000000000000000000000000000000000000000\n      dup2\n      mstore\n      0x04\n      add\n      tag_140\n      swap1\n      tag_141\n      jump\t// in\n    tag_140:\n      mload(0x40)\n      dup1\n      swap2\n      sub\n      swap1\n      revert\n    tag_139:\n        /* \"contracts/ERC20Stakeable.sol\":3661:3672  uint amount */\n      0x00\n        /* \"contracts/ERC20Stakeable.sol\":3675:3682  Details */\n      0x08\n        /* \"contracts/ERC20Stakeable.sol\":3675:3694  Details[msg.sender] */\n      0x00\n        /* \"contracts/ERC20Stakeable.sol\":3683:3693  msg.sender */\n      caller\n        /* \"contracts/ERC20Stakeable.sol\":3675:3694  Details[msg.sender] */\n      0xffffffffffffffffffffffffffffffffffffffff\n      and\n      0xffffffffffffffffffffffffffffffffffffffff\n      and\n      dup2\n      mstore\n      0x20\n      add\n      swap1\n      dup2\n      mstore\n      0x20\n      add\n      0x00\n      keccak256\n        /* \"contracts/ERC20Stakeable.sol\":3675:3704  Details[msg.sender].deposited */\n      0x00\n      add\n      sload\n        /* \"contracts/ERC20Stakeable.sol\":3661:3704  uint amount = Details[msg.sender].deposited */\n      swap1\n      pop\n        /* \"contracts/ERC20Stakeable.sol\":3737:3755  calculateIntrest() */\n      tag_142\n        /* \"contracts/ERC20Stakeable.sol\":3737:3753  calculateIntrest */\n      tag_83\n        /* \"contracts/ERC20Stakeable.sol\":3737:3755  calculateIntrest() */\n      jump\t// in\n    tag_142:\n        /* \"contracts/ERC20Stakeable.sol\":3715:3721  Reward */\n      0x09\n        /* \"contracts/ERC20Stakeable.sol\":3715:3733  Reward[msg.sender] */\n      0x00\n        /* \"contracts/ERC20Stakeable.sol\":3722:3732  msg.sender */\n      caller\n        /* \"contracts/ERC20Stakeable.sol\":3715:3733  Reward[msg.sender] */\n      0xffffffffffffffffffffffffffffffffffffffff\n      and\n      0xffffffffffffffffffffffffffffffffffffffff\n      and\n      dup2\n      mstore\n      0x20\n      add\n      swap1\n      dup2\n      mstore\n      0x20\n      add\n      0x00\n      keccak256\n      0x00\n        /* \"contracts/ERC20Stakeable.sol\":3715:3755  Reward[msg.sender] += calculateIntrest() */\n      dup3\n      dup3\n      sload\n      tag_143\n      swap2\n      swap1\n      tag_116\n      jump\t// in\n    tag_143:\n      swap3\n      pop\n      pop\n      dup2\n      swap1\n      sstore\n      pop\n        /* \"contracts/ERC20Stakeable.sol\":3773:3785  ERC20Address */\n      0x03\n      0x00\n      swap1\n      sload\n      swap1\n      0x0100\n      exp\n      swap1\n      div\n      0xffffffffffffffffffffffffffffffffffffffff\n      and\n        /* \"contracts/ERC20Stakeable.sol\":3766:3795  IERC20(ERC20Address).transfer */\n      0xffffffffffffffffffffffffffffffffffffffff\n      and\n      0xa9059cbb\n        /* \"contracts/ERC20Stakeable.sol\":3796:3806  msg.sender */\n      caller\n        /* \"contracts/ERC20Stakeable.sol\":3808:3814  amount */\n      dup4\n        /* \"contracts/ERC20Stakeable.sol\":3766:3815  IERC20(ERC20Address).transfer(msg.sender, amount) */\n      mload(0x40)\n      dup4\n      0xffffffff\n      and\n      0xe0\n      shl\n      dup2\n      mstore\n      0x04\n      add\n      tag_144\n      swap3\n      swap2\n      swap1\n      tag_125\n      jump\t// in\n    tag_144:\n      0x20\n      mload(0x40)\n      dup1\n      dup4\n      sub\n      dup2\n      0x00\n      dup8\n      dup1\n      extcodesize\n      iszero\n      dup1\n      iszero\n      tag_145\n      jumpi\n      0x00\n      dup1\n      revert\n    tag_145:\n      pop\n      gas\n      call\n      iszero\n      dup1\n      iszero\n      tag_147\n      jumpi\n      returndatasize\n      0x00\n      dup1\n      returndatacopy\n      revert(0x00, returndatasize)\n    tag_147:\n      pop\n      pop\n      pop\n      pop\n      mload(0x40)\n      returndatasize\n      not(0x1f)\n      0x1f\n      dup3\n      add\n      and\n      dup3\n      add\n      dup1\n      0x40\n      mstore\n      pop\n      dup2\n      add\n      swap1\n      tag_148\n      swap2\n      swap1\n      tag_130\n      jump\t// in\n    tag_148:\n      pop\n        /* \"contracts/ERC20Stakeable.sol\":3833:3840  Details */\n      0x08\n        /* \"contracts/ERC20Stakeable.sol\":3833:3852  Details[msg.sender] */\n      0x00\n        /* \"contracts/ERC20Stakeable.sol\":3841:3851  msg.sender */\n      caller\n        /* \"contracts/ERC20Stakeable.sol\":3833:3852  Details[msg.sender] */\n      0xffffffffffffffffffffffffffffffffffffffff\n      and\n      0xffffffffffffffffffffffffffffffffffffffff\n      and\n      dup2\n      mstore\n      0x20\n      add\n      swap1\n      dup2\n      mstore\n      0x20\n      add\n      0x00\n      keccak256\n      0x00\n        /* \"contracts/ERC20Stakeable.sol\":3826:3852  delete Details[msg.sender] */\n      dup1\n      dup3\n      add\n      0x00\n      swap1\n      sstore\n      0x01\n      dup3\n      add\n      0x00\n      swap1\n      sstore\n      0x02\n      dup3\n      add\n      exp(0x0100, 0x00)\n      dup2\n      sload\n      swap1\n      0xff\n      mul\n      not\n      and\n      swap1\n      sstore\n      pop\n      pop\n        /* \"contracts/ERC20Stakeable.sol\":3584:3862  {\r... */\n      pop\n        /* \"contracts/ERC20Stakeable.sol\":3557:3862  function Withdraw() public {\r... */\n      jump\t// out\n        /* \"contracts/ERC20Stakeable.sol\":465:487  uint public rewardrate */\n    tag_63:\n      sload(0x04)\n      dup2\n      jump\t// out\n        /* \"@openzeppelin/contracts/access/Ownable.sol\":1831:1932  function renounceOwnership() public virtual onlyOwner {... */\n    tag_66:\n        /* \"@openzeppelin/contracts/access/Ownable.sol\":1094:1107  _checkOwner() */\n      tag_150\n        /* \"@openzeppelin/contracts/access/Ownable.sol\":1094:1105  _checkOwner */\n      tag_110\n        /* \"@openzeppelin/contracts/access/Ownable.sol\":1094:1107  _checkOwner() */\n      jump\t// in\n    tag_150:\n        /* \"@openzeppelin/contracts/access/Ownable.sol\":1895:1925  _transferOwnership(address(0)) */\n      tag_152\n        /* \"@openzeppelin/contracts/access/Ownable.sol\":1922:1923  0 */\n      0x00\n        /* \"@openzeppelin/contracts/access/Ownable.sol\":1895:1913  _transferOwnership */\n      tag_153\n        /* \"@openzeppelin/contracts/access/Ownable.sol\":1895:1925  _transferOwnership(address(0)) */\n      jump\t// in\n    tag_152:\n        /* \"@openzeppelin/contracts/access/Ownable.sol\":1831:1932  function renounceOwnership() public virtual onlyOwner {... */\n      jump\t// out\n        /* \"contracts/ERC20Stakeable.sol\":2612:2786  function Utilization() public view onlyOwner returns(uint256) {\r... */\n    tag_68:\n        /* \"contracts/ERC20Stakeable.sol\":2665:2672  uint256 */\n      0x00\n        /* \"@openzeppelin/contracts/access/Ownable.sol\":1094:1107  _checkOwner() */\n      tag_155\n        /* \"@openzeppelin/contracts/access/Ownable.sol\":1094:1105  _checkOwner */\n      tag_110\n        /* \"@openzeppelin/contracts/access/Ownable.sol\":1094:1107  _checkOwner() */\n      jump\t// in\n    tag_155:\n        /* \"contracts/ERC20Stakeable.sol\":2685:2700  uint Persentage */\n      0x00\n        /* \"contracts/ERC20Stakeable.sol\":2735:2750  totalOwnerToken */\n      sload(0x06)\n        /* \"contracts/ERC20Stakeable.sol\":2730:2733  100 */\n      0x64\n        /* \"contracts/ERC20Stakeable.sol\":2704:2715  OwnerTokens */\n      0x0a\n        /* \"contracts/ERC20Stakeable.sol\":2704:2727  OwnerTokens[msg.sender] */\n      0x00\n        /* \"contracts/ERC20Stakeable.sol\":2716:2726  msg.sender */\n      caller\n        /* \"contracts/ERC20Stakeable.sol\":2704:2727  OwnerTokens[msg.sender] */\n      0xffffffffffffffffffffffffffffffffffffffff\n      and\n      0xffffffffffffffffffffffffffffffffffffffff\n      and\n      dup2\n      mstore\n      0x20\n      add\n      swap1\n      dup2\n      mstore\n      0x20\n      add\n      0x00\n      keccak256\n      sload\n        /* \"contracts/ERC20Stakeable.sol\":2704:2733  OwnerTokens[msg.sender] * 100 */\n      tag_157\n      swap2\n      swap1\n      tag_158\n      jump\t// in\n    tag_157:\n        /* \"contracts/ERC20Stakeable.sol\":2703:2750  (OwnerTokens[msg.sender] * 100)/totalOwnerToken */\n      tag_159\n      swap2\n      swap1\n      tag_160\n      jump\t// in\n    tag_159:\n        /* \"contracts/ERC20Stakeable.sol\":2685:2750  uint Persentage = (OwnerTokens[msg.sender] * 100)/totalOwnerToken */\n      swap1\n      pop\n        /* \"contracts/ERC20Stakeable.sol\":2768:2778  Persentage */\n      dup1\n        /* \"contracts/ERC20Stakeable.sol\":2761:2778  return Persentage */\n      swap2\n      pop\n      pop\n        /* \"contracts/ERC20Stakeable.sol\":2612:2786  function Utilization() public view onlyOwner returns(uint256) {\r... */\n      swap1\n      jump\t// out\n        /* \"@openzeppelin/contracts/access/Ownable.sol\":1201:1286  function owner() public view virtual returns (address) {... */\n    tag_71:\n        /* \"@openzeppelin/contracts/access/Ownable.sol\":1247:1254  address */\n      0x00\n        /* \"@openzeppelin/contracts/access/Ownable.sol\":1273:1279  _owner */\n      dup1\n      0x00\n      swap1\n      sload\n      swap1\n      0x0100\n      exp\n      swap1\n      div\n      0xffffffffffffffffffffffffffffffffffffffff\n      and\n        /* \"@openzeppelin/contracts/access/Ownable.sol\":1266:1279  return _owner */\n      swap1\n      pop\n        /* \"@openzeppelin/contracts/access/Ownable.sol\":1201:1286  function owner() public view virtual returns (address) {... */\n      swap1\n      jump\t// out\n        /* \"contracts/ERC20Stakeable.sol\":431:458  address public ERC20Address */\n    tag_74:\n      0x03\n      0x00\n      swap1\n      sload\n      swap1\n      0x0100\n      exp\n      swap1\n      div\n      0xffffffffffffffffffffffffffffffffffffffff\n      and\n      dup2\n      jump\t// out\n        /* \"contracts/ERC20Stakeable.sol\":2189:2398  function AdminWithDrawToken(uint amount) public onlyOwner{\r... */\n    tag_78:\n        /* \"@openzeppelin/contracts/access/Ownable.sol\":1094:1107  _checkOwner() */\n      tag_163\n        /* \"@openzeppelin/contracts/access/Ownable.sol\":1094:1105  _checkOwner */\n      tag_110\n        /* \"@openzeppelin/contracts/access/Ownable.sol\":1094:1107  _checkOwner() */\n      jump\t// in\n    tag_163:\n        /* \"contracts/ERC20Stakeable.sol\":2284:2290  amount */\n      dup1\n        /* \"contracts/ERC20Stakeable.sol\":2257:2268  OwnerTokens */\n      0x0a\n        /* \"contracts/ERC20Stakeable.sol\":2257:2280  OwnerTokens[msg.sender] */\n      0x00\n        /* \"contracts/ERC20Stakeable.sol\":2269:2279  msg.sender */\n      caller\n        /* \"contracts/ERC20Stakeable.sol\":2257:2280  OwnerTokens[msg.sender] */\n      0xffffffffffffffffffffffffffffffffffffffff\n      and\n      0xffffffffffffffffffffffffffffffffffffffff\n      and\n      dup2\n      mstore\n      0x20\n      add\n      swap1\n      dup2\n      mstore\n      0x20\n      add\n      0x00\n      keccak256\n      0x00\n        /* \"contracts/ERC20Stakeable.sol\":2257:2290  OwnerTokens[msg.sender] -= amount */\n      dup3\n      dup3\n      sload\n      tag_165\n      swap2\n      swap1\n      tag_132\n      jump\t// in\n    tag_165:\n      swap3\n      pop\n      pop\n      dup2\n      swap1\n      sstore\n      pop\n        /* \"contracts/ERC20Stakeable.sol\":2320:2326  amount */\n      dup1\n        /* \"contracts/ERC20Stakeable.sol\":2301:2316  totalOwnerToken */\n      0x06\n      0x00\n        /* \"contracts/ERC20Stakeable.sol\":2301:2326  totalOwnerToken -= amount */\n      dup3\n      dup3\n      sload\n      tag_166\n      swap2\n      swap1\n      tag_132\n      jump\t// in\n    tag_166:\n      swap3\n      pop\n      pop\n      dup2\n      swap1\n      sstore\n      pop\n        /* \"contracts/ERC20Stakeable.sol\":2337:2390  IERC20(ERC20Address).safeTransfer(msg.sender, amount) */\n      tag_167\n        /* \"contracts/ERC20Stakeable.sol\":2371:2381  msg.sender */\n      caller\n        /* \"contracts/ERC20Stakeable.sol\":2383:2389  amount */\n      dup3\n        /* \"contracts/ERC20Stakeable.sol\":2344:2356  ERC20Address */\n      0x03\n      0x00\n      swap1\n      sload\n      swap1\n      0x0100\n      exp\n      swap1\n      div\n      0xffffffffffffffffffffffffffffffffffffffff\n      and\n        /* \"contracts/ERC20Stakeable.sol\":2337:2370  IERC20(ERC20Address).safeTransfer */\n      0xffffffffffffffffffffffffffffffffffffffff\n      and\n      tag_168\n      swap1\n        /* \"contracts/ERC20Stakeable.sol\":2337:2390  IERC20(ERC20Address).safeTransfer(msg.sender, amount) */\n      swap3\n      swap2\n      swap1\n      0xffffffff\n      and\n      jump\t// in\n    tag_167:\n        /* \"contracts/ERC20Stakeable.sol\":2189:2398  function AdminWithDrawToken(uint amount) public onlyOwner{\r... */\n      pop\n      jump\t// out\n        /* \"contracts/ERC20Stakeable.sol\":363:391  address public ERC721address */\n    tag_80:\n      0x01\n      0x00\n      swap1\n      sload\n      swap1\n      0x0100\n      exp\n      swap1\n      div\n      0xffffffffffffffffffffffffffffffffffffffff\n      and\n      dup2\n      jump\t// out\n        /* \"contracts/ERC20Stakeable.sol\":4131:4424  function calculateIntrest() public returns(uint256){\r... */\n    tag_83:\n        /* \"contracts/ERC20Stakeable.sol\":4174:4181  uint256 */\n      0x00\n        /* \"contracts/ERC20Stakeable.sol\":4193:4207  uint RewardEst */\n      dup1\n        /* \"contracts/ERC20Stakeable.sol\":4270:4277  Details */\n      0x08\n        /* \"contracts/ERC20Stakeable.sol\":4270:4289  Details[msg.sender] */\n      0x00\n        /* \"contracts/ERC20Stakeable.sol\":4278:4288  msg.sender */\n      caller\n        /* \"contracts/ERC20Stakeable.sol\":4270:4289  Details[msg.sender] */\n      0xffffffffffffffffffffffffffffffffffffffff\n      and\n      0xffffffffffffffffffffffffffffffffffffffff\n      and\n      dup2\n      mstore\n      0x20\n      add\n      swap1\n      dup2\n      mstore\n      0x20\n      add\n      0x00\n      keccak256\n        /* \"contracts/ERC20Stakeable.sol\":4270:4299  Details[msg.sender].timestake */\n      0x01\n      add\n      sload\n        /* \"contracts/ERC20Stakeable.sol\":4252:4267  block.timestamp */\n      timestamp\n        /* \"contracts/ERC20Stakeable.sol\":4252:4299  block.timestamp - Details[msg.sender].timestake */\n      tag_170\n      swap2\n      swap1\n      tag_132\n      jump\t// in\n    tag_170:\n        /* \"contracts/ERC20Stakeable.sol\":4243:4247  rate */\n      sload(0x07)\n        /* \"contracts/ERC20Stakeable.sol\":4211:4218  Details */\n      0x08\n        /* \"contracts/ERC20Stakeable.sol\":4211:4230  Details[msg.sender] */\n      0x00\n        /* \"contracts/ERC20Stakeable.sol\":4219:4229  msg.sender */\n      caller\n        /* \"contracts/ERC20Stakeable.sol\":4211:4230  Details[msg.sender] */\n      0xffffffffffffffffffffffffffffffffffffffff\n      and\n      0xffffffffffffffffffffffffffffffffffffffff\n      and\n      dup2\n      mstore\n      0x20\n      add\n      swap1\n      dup2\n      mstore\n      0x20\n      add\n      0x00\n      keccak256\n        /* \"contracts/ERC20Stakeable.sol\":4211:4240  Details[msg.sender].deposited */\n      0x00\n      add\n      sload\n        /* \"contracts/ERC20Stakeable.sol\":4211:4247  Details[msg.sender].deposited * rate */\n      tag_171\n      swap2\n      swap1\n      tag_158\n      jump\t// in\n    tag_171:\n        /* \"contracts/ERC20Stakeable.sol\":4210:4300  (Details[msg.sender].deposited * rate) * (block.timestamp - Details[msg.sender].timestake) */\n      tag_172\n      swap2\n      swap1\n      tag_158\n      jump\t// in\n    tag_172:\n        /* \"contracts/ERC20Stakeable.sol\":4193:4300  uint RewardEst = (Details[msg.sender].deposited * rate) * (block.timestamp - Details[msg.sender].timestake) */\n      swap1\n      pop\n        /* \"contracts/ERC20Stakeable.sol\":4311:4327  uint TotalReward */\n      0x00\n        /* \"contracts/ERC20Stakeable.sol\":4342:4346  6000 */\n      0x1770\n        /* \"contracts/ERC20Stakeable.sol\":4330:4339  RewardEst */\n      dup3\n        /* \"contracts/ERC20Stakeable.sol\":4330:4346  RewardEst / 6000 */\n      tag_173\n      swap2\n      swap1\n      tag_160\n      jump\t// in\n    tag_173:\n        /* \"contracts/ERC20Stakeable.sol\":4311:4346  uint TotalReward = RewardEst / 6000 */\n      swap1\n      pop\n        /* \"contracts/ERC20Stakeable.sol\":4372:4387  block.timestamp */\n      timestamp\n        /* \"contracts/ERC20Stakeable.sol\":4357:4371  unstaketimeval */\n      0x05\n        /* \"contracts/ERC20Stakeable.sol\":4357:4387  unstaketimeval=block.timestamp */\n      dup2\n      swap1\n      sstore\n      pop\n        /* \"contracts/ERC20Stakeable.sol\":4405:4416  TotalReward */\n      dup1\n        /* \"contracts/ERC20Stakeable.sol\":4398:4416  return TotalReward */\n      swap3\n      pop\n      pop\n      pop\n        /* \"contracts/ERC20Stakeable.sol\":4131:4424  function calculateIntrest() public returns(uint256){\r... */\n      swap1\n      jump\t// out\n        /* \"contracts/ERC20Stakeable.sol\":495:521  uint public unstaketimeval */\n    tag_86:\n      sload(0x05)\n      dup2\n      jump\t// out\n        /* \"contracts/ERC20Stakeable.sol\":684:726  mapping (address => Staker) public Details */\n    tag_90:\n      mstore(0x20, 0x08)\n      dup1\n      0x00\n      mstore\n      keccak256(0x00, 0x40)\n      0x00\n      swap2\n      pop\n      swap1\n      pop\n      dup1\n      0x00\n      add\n      sload\n      swap1\n      dup1\n      0x01\n      add\n      sload\n      swap1\n      dup1\n      0x02\n      add\n      0x00\n      swap1\n      sload\n      swap1\n      0x0100\n      exp\n      swap1\n      div\n      0xff\n      and\n      swap1\n      pop\n      dup4\n      jump\t// out\n        /* \"contracts/ERC20Stakeable.sol\":5128:5239  function UpdateERC721(address _ERC721address) public onlyOwner{\r... */\n    tag_95:\n        /* \"@openzeppelin/contracts/access/Ownable.sol\":1094:1107  _checkOwner() */\n      tag_175\n        /* \"@openzeppelin/contracts/access/Ownable.sol\":1094:1105  _checkOwner */\n      tag_110\n        /* \"@openzeppelin/contracts/access/Ownable.sol\":1094:1107  _checkOwner() */\n      jump\t// in\n    tag_175:\n        /* \"contracts/ERC20Stakeable.sol\":5217:5231  _ERC721address */\n      dup1\n        /* \"contracts/ERC20Stakeable.sol\":5201:5214  ERC721address */\n      0x01\n      0x00\n        /* \"contracts/ERC20Stakeable.sol\":5201:5231  ERC721address = _ERC721address */\n      0x0100\n      exp\n      dup2\n      sload\n      dup2\n      0xffffffffffffffffffffffffffffffffffffffff\n      mul\n      not\n      and\n      swap1\n      dup4\n      0xffffffffffffffffffffffffffffffffffffffff\n      and\n      mul\n      or\n      swap1\n      sstore\n      pop\n        /* \"contracts/ERC20Stakeable.sol\":5128:5239  function UpdateERC721(address _ERC721address) public onlyOwner{\r... */\n      pop\n      jump\t// out\n        /* \"@openzeppelin/contracts/access/Ownable.sol\":2081:2279  function transferOwnership(address newOwner) public virtual onlyOwner {... */\n    tag_98:\n        /* \"@openzeppelin/contracts/access/Ownable.sol\":1094:1107  _checkOwner() */\n      tag_178\n        /* \"@openzeppelin/contracts/access/Ownable.sol\":1094:1105  _checkOwner */\n      tag_110\n        /* \"@openzeppelin/contracts/access/Ownable.sol\":1094:1107  _checkOwner() */\n      jump\t// in\n    tag_178:\n        /* \"@openzeppelin/contracts/access/Ownable.sol\":2189:2190  0 */\n      0x00\n        /* \"@openzeppelin/contracts/access/Ownable.sol\":2169:2191  newOwner != address(0) */\n      0xffffffffffffffffffffffffffffffffffffffff\n      and\n        /* \"@openzeppelin/contracts/access/Ownable.sol\":2169:2177  newOwner */\n      dup2\n        /* \"@openzeppelin/contracts/access/Ownable.sol\":2169:2191  newOwner != address(0) */\n      0xffffffffffffffffffffffffffffffffffffffff\n      and\n      eq\n      iszero\n        /* \"@openzeppelin/contracts/access/Ownable.sol\":2161:2234  require(newOwner != address(0), \"Ownable: new owner is the zero address\") */\n      tag_180\n      jumpi\n      mload(0x40)\n      0x08c379a000000000000000000000000000000000000000000000000000000000\n      dup2\n      mstore\n      0x04\n      add\n      tag_181\n      swap1\n      tag_182\n      jump\t// in\n    tag_181:\n      mload(0x40)\n      dup1\n      swap2\n      sub\n      swap1\n      revert\n    tag_180:\n        /* \"@openzeppelin/contracts/access/Ownable.sol\":2244:2272  _transferOwnership(newOwner) */\n      tag_183\n        /* \"@openzeppelin/contracts/access/Ownable.sol\":2263:2271  newOwner */\n      dup2\n        /* \"@openzeppelin/contracts/access/Ownable.sol\":2244:2262  _transferOwnership */\n      tag_153\n        /* \"@openzeppelin/contracts/access/Ownable.sol\":2244:2272  _transferOwnership(newOwner) */\n      jump\t// in\n    tag_183:\n        /* \"@openzeppelin/contracts/access/Ownable.sol\":2081:2279  function transferOwnership(address newOwner) public virtual onlyOwner {... */\n      pop\n      jump\t// out\n        /* \"contracts/ERC20Stakeable.sol\":5717:5829  function UpdateRatePersentage(uint256 _ratePersentage) public onlyOwner{\r... */\n    tag_101:\n        /* \"@openzeppelin/contracts/access/Ownable.sol\":1094:1107  _checkOwner() */\n      tag_185\n        /* \"@openzeppelin/contracts/access/Ownable.sol\":1094:1105  _checkOwner */\n      tag_110\n        /* \"@openzeppelin/contracts/access/Ownable.sol\":1094:1107  _checkOwner() */\n      jump\t// in\n    tag_185:\n        /* \"contracts/ERC20Stakeable.sol\":5806:5821  _ratePersentage */\n      dup1\n        /* \"contracts/ERC20Stakeable.sol\":5799:5803  rate */\n      0x07\n        /* \"contracts/ERC20Stakeable.sol\":5799:5821  rate = _ratePersentage */\n      dup2\n      swap1\n      sstore\n      pop\n        /* \"contracts/ERC20Stakeable.sol\":5717:5829  function UpdateRatePersentage(uint256 _ratePersentage) public onlyOwner{\r... */\n      pop\n      jump\t// out\n        /* \"@openzeppelin/contracts/access/Ownable.sol\":1359:1489  function _checkOwner() internal view virtual {... */\n    tag_110:\n        /* \"@openzeppelin/contracts/access/Ownable.sol\":1433:1445  _msgSender() */\n      tag_188\n        /* \"@openzeppelin/contracts/access/Ownable.sol\":1433:1443  _msgSender */\n      tag_189\n        /* \"@openzeppelin/contracts/access/Ownable.sol\":1433:1445  _msgSender() */\n      jump\t// in\n    tag_188:\n        /* \"@openzeppelin/contracts/access/Ownable.sol\":1422:1445  owner() == _msgSender() */\n      0xffffffffffffffffffffffffffffffffffffffff\n      and\n        /* \"@openzeppelin/contracts/access/Ownable.sol\":1422:1429  owner() */\n      tag_190\n        /* \"@openzeppelin/contracts/access/Ownable.sol\":1422:1427  owner */\n      tag_71\n        /* \"@openzeppelin/contracts/access/Ownable.sol\":1422:1429  owner() */\n      jump\t// in\n    tag_190:\n        /* \"@openzeppelin/contracts/access/Ownable.sol\":1422:1445  owner() == _msgSender() */\n      0xffffffffffffffffffffffffffffffffffffffff\n      and\n      eq\n        /* \"@openzeppelin/contracts/access/Ownable.sol\":1414:1482  require(owner() == _msgSender(), \"Ownable: caller is not the owner\") */\n      tag_191\n      jumpi\n      mload(0x40)\n      0x08c379a000000000000000000000000000000000000000000000000000000000\n      dup2\n      mstore\n      0x04\n      add\n      tag_192\n      swap1\n      tag_193\n      jump\t// in\n    tag_192:\n      mload(0x40)\n      dup1\n      swap2\n      sub\n      swap1\n      revert\n    tag_191:\n        /* \"@openzeppelin/contracts/access/Ownable.sol\":1359:1489  function _checkOwner() internal view virtual {... */\n      jump\t// out\n        /* \"@openzeppelin/contracts/token/ERC20/utils/SafeERC20.sol\":974:1215  function safeTransferFrom(... */\n    tag_119:\n        /* \"@openzeppelin/contracts/token/ERC20/utils/SafeERC20.sol\":1112:1208  _callOptionalReturn(token, abi.encodeWithSelector(token.transferFrom.selector, from, to, value)) */\n      tag_195\n        /* \"@openzeppelin/contracts/token/ERC20/utils/SafeERC20.sol\":1132:1137  token */\n      dup5\n        /* \"@openzeppelin/contracts/token/ERC20/utils/SafeERC20.sol\":1162:1189  token.transferFrom.selector */\n      shl(0xe0, 0x23b872dd)\n        /* \"@openzeppelin/contracts/token/ERC20/utils/SafeERC20.sol\":1191:1195  from */\n      dup6\n        /* \"@openzeppelin/contracts/token/ERC20/utils/SafeERC20.sol\":1197:1199  to */\n      dup6\n        /* \"@openzeppelin/contracts/token/ERC20/utils/SafeERC20.sol\":1201:1206  value */\n      dup6\n        /* \"@openzeppelin/contracts/token/ERC20/utils/SafeERC20.sol\":1139:1207  abi.encodeWithSelector(token.transferFrom.selector, from, to, value) */\n      add(0x24, mload(0x40))\n      tag_196\n      swap4\n      swap3\n      swap2\n      swap1\n      tag_197\n      jump\t// in\n    tag_196:\n      mload(0x40)\n      0x20\n      dup2\n      dup4\n      sub\n      sub\n      dup2\n      mstore\n      swap1\n      0x40\n      mstore\n      swap1\n      not(0xffffffffffffffffffffffffffffffffffffffffffffffffffffffff)\n      and\n      0x20\n      dup3\n      add\n      dup1\n      mload\n      0xffffffffffffffffffffffffffffffffffffffffffffffffffffffff\n      dup4\n      dup2\n      dup4\n      and\n      or\n      dup4\n      mstore\n      pop\n      pop\n      pop\n      pop\n        /* \"@openzeppelin/contracts/token/ERC20/utils/SafeERC20.sol\":1112:1131  _callOptionalReturn */\n      tag_198\n        /* \"@openzeppelin/contracts/token/ERC20/utils/SafeERC20.sol\":1112:1208  _callOptionalReturn(token, abi.encodeWithSelector(token.transferFrom.selector, from, to, value)) */\n      jump\t// in\n    tag_195:\n        /* \"@openzeppelin/contracts/token/ERC20/utils/SafeERC20.sol\":974:1215  function safeTransferFrom(... */\n      pop\n      pop\n      pop\n      pop\n      jump\t// out\n        /* \"@openzeppelin/contracts/access/Ownable.sol\":2433:2620  function _transferOwnership(address newOwner) internal virtual {... */\n    tag_153:\n        /* \"@openzeppelin/contracts/access/Ownable.sol\":2506:2522  address oldOwner */\n      0x00\n        /* \"@openzeppelin/contracts/access/Ownable.sol\":2525:2531  _owner */\n      dup1\n      0x00\n      swap1\n      sload\n      swap1\n      0x0100\n      exp\n      swap1\n      div\n      0xffffffffffffffffffffffffffffffffffffffff\n      and\n        /* \"@openzeppelin/contracts/access/Ownable.sol\":2506:2531  address oldOwner = _owner */\n      swap1\n      pop\n        /* \"@openzeppelin/contracts/access/Ownable.sol\":2550:2558  newOwner */\n      dup2\n        /* \"@openzeppelin/contracts/access/Ownable.sol\":2541:2547  _owner */\n      0x00\n      dup1\n        /* \"@openzeppelin/contracts/access/Ownable.sol\":2541:2558  _owner = newOwner */\n      0x0100\n      exp\n      dup2\n      sload\n      dup2\n      0xffffffffffffffffffffffffffffffffffffffff\n      mul\n      not\n      and\n      swap1\n      dup4\n      0xffffffffffffffffffffffffffffffffffffffff\n      and\n      mul\n      or\n      swap1\n      sstore\n      pop\n        /* \"@openzeppelin/contracts/access/Ownable.sol\":2604:2612  newOwner */\n      dup2\n        /* \"@openzeppelin/contracts/access/Ownable.sol\":2573:2613  OwnershipTransferred(oldOwner, newOwner) */\n      0xffffffffffffffffffffffffffffffffffffffff\n      and\n        /* \"@openzeppelin/contracts/access/Ownable.sol\":2594:2602  oldOwner */\n      dup2\n        /* \"@openzeppelin/contracts/access/Ownable.sol\":2573:2613  OwnershipTransferred(oldOwner, newOwner) */\n      0xffffffffffffffffffffffffffffffffffffffff\n      and\n      0x8be0079c531659141344cd1fd0a4f28419497f9722a3daafe3b4186f6b6457e0\n      mload(0x40)\n      mload(0x40)\n      dup1\n      swap2\n      sub\n      swap1\n      log3\n        /* \"@openzeppelin/contracts/access/Ownable.sol\":2496:2620  {... */\n      pop\n        /* \"@openzeppelin/contracts/access/Ownable.sol\":2433:2620  function _transferOwnership(address newOwner) internal virtual {... */\n      pop\n      jump\t// out\n        /* \"@openzeppelin/contracts/token/ERC20/utils/SafeERC20.sol\":763:968  function safeTransfer(... */\n    tag_168:\n        /* \"@openzeppelin/contracts/token/ERC20/utils/SafeERC20.sol\":875:961  _callOptionalReturn(token, abi.encodeWithSelector(token.transfer.selector, to, value)) */\n      tag_201\n        /* \"@openzeppelin/contracts/token/ERC20/utils/SafeERC20.sol\":895:900  token */\n      dup4\n        /* \"@openzeppelin/contracts/token/ERC20/utils/SafeERC20.sol\":925:948  token.transfer.selector */\n      shl(0xe0, 0xa9059cbb)\n        /* \"@openzeppelin/contracts/token/ERC20/utils/SafeERC20.sol\":950:952  to */\n      dup5\n        /* \"@openzeppelin/contracts/token/ERC20/utils/SafeERC20.sol\":954:959  value */\n      dup5\n        /* \"@openzeppelin/contracts/token/ERC20/utils/SafeERC20.sol\":902:960  abi.encodeWithSelector(token.transfer.selector, to, value) */\n      add(0x24, mload(0x40))\n      tag_202\n      swap3\n      swap2\n      swap1\n      tag_125\n      jump\t// in\n    tag_202:\n      mload(0x40)\n      0x20\n      dup2\n      dup4\n      sub\n      sub\n      dup2\n      mstore\n      swap1\n      0x40\n      mstore\n      swap1\n      not(0xffffffffffffffffffffffffffffffffffffffffffffffffffffffff)\n      and\n      0x20\n      dup3\n      add\n      dup1\n      mload\n      0xffffffffffffffffffffffffffffffffffffffffffffffffffffffff\n      dup4\n      dup2\n      dup4\n      and\n      or\n      dup4\n      mstore\n      pop\n      pop\n      pop\n      pop\n        /* \"@openzeppelin/contracts/token/ERC20/utils/SafeERC20.sol\":875:894  _callOptionalReturn */\n      tag_198\n        /* \"@openzeppelin/contracts/token/ERC20/utils/SafeERC20.sol\":875:961  _callOptionalReturn(token, abi.encodeWithSelector(token.transfer.selector, to, value)) */\n      jump\t// in\n    tag_201:\n        /* \"@openzeppelin/contracts/token/ERC20/utils/SafeERC20.sol\":763:968  function safeTransfer(... */\n      pop\n      pop\n      pop\n      jump\t// out\n        /* \"@openzeppelin/contracts/utils/Context.sol\":640:736  function _msgSender() internal view virtual returns (address) {... */\n    tag_189:\n        /* \"@openzeppelin/contracts/utils/Context.sol\":693:700  address */\n      0x00\n        /* \"@openzeppelin/contracts/utils/Context.sol\":719:729  msg.sender */\n      caller\n        /* \"@openzeppelin/contracts/utils/Context.sol\":712:729  return msg.sender */\n      swap1\n      pop\n        /* \"@openzeppelin/contracts/utils/Context.sol\":640:736  function _msgSender() internal view virtual returns (address) {... */\n      swap1\n      jump\t// out\n        /* \"@openzeppelin/contracts/token/ERC20/utils/SafeERC20.sol\":3747:4453  function _callOptionalReturn(IERC20 token, bytes memory data) private {... */\n    tag_198:\n        /* \"@openzeppelin/contracts/token/ERC20/utils/SafeERC20.sol\":4166:4189  bytes memory returndata */\n      0x00\n        /* \"@openzeppelin/contracts/token/ERC20/utils/SafeERC20.sol\":4192:4261  address(token).functionCall(data, \"SafeERC20: low-level call failed\") */\n      tag_205\n        /* \"@openzeppelin/contracts/token/ERC20/utils/SafeERC20.sol\":4220:4224  data */\n      dup3\n        /* \"@openzeppelin/contracts/token/ERC20/utils/SafeERC20.sol\":4192:4261  address(token).functionCall(data, \"SafeERC20: low-level call failed\") */\n      mload(0x40)\n      dup1\n      0x40\n      add\n      0x40\n      mstore\n      dup1\n      0x20\n      dup2\n      mstore\n      0x20\n      add\n      0x5361666545524332303a206c6f772d6c6576656c2063616c6c206661696c6564\n      dup2\n      mstore\n      pop\n        /* \"@openzeppelin/contracts/token/ERC20/utils/SafeERC20.sol\":4200:4205  token */\n      dup6\n        /* \"@openzeppelin/contracts/token/ERC20/utils/SafeERC20.sol\":4192:4219  address(token).functionCall */\n      0xffffffffffffffffffffffffffffffffffffffff\n      and\n      tag_206\n      swap1\n        /* \"@openzeppelin/contracts/token/ERC20/utils/SafeERC20.sol\":4192:4261  address(token).functionCall(data, \"SafeERC20: low-level call failed\") */\n      swap3\n      swap2\n      swap1\n      0xffffffff\n      and\n      jump\t// in\n    tag_205:\n        /* \"@openzeppelin/contracts/token/ERC20/utils/SafeERC20.sol\":4166:4261  bytes memory returndata = address(token).functionCall(data, \"SafeERC20: low-level call failed\") */\n      swap1\n      pop\n        /* \"@openzeppelin/contracts/token/ERC20/utils/SafeERC20.sol\":4295:4296  0 */\n      0x00\n        /* \"@openzeppelin/contracts/token/ERC20/utils/SafeERC20.sol\":4275:4285  returndata */\n      dup2\n        /* \"@openzeppelin/contracts/token/ERC20/utils/SafeERC20.sol\":4275:4292  returndata.length */\n      mload\n        /* \"@openzeppelin/contracts/token/ERC20/utils/SafeERC20.sol\":4275:4296  returndata.length > 0 */\n      gt\n        /* \"@openzeppelin/contracts/token/ERC20/utils/SafeERC20.sol\":4271:4447  if (returndata.length > 0) {... */\n      iszero\n      tag_207\n      jumpi\n        /* \"@openzeppelin/contracts/token/ERC20/utils/SafeERC20.sol\":4370:4380  returndata */\n      dup1\n        /* \"@openzeppelin/contracts/token/ERC20/utils/SafeERC20.sol\":4359:4389  abi.decode(returndata, (bool)) */\n      dup1\n      0x20\n      add\n      swap1\n      mload\n      dup2\n      add\n      swap1\n      tag_208\n      swap2\n      swap1\n      tag_130\n      jump\t// in\n    tag_208:\n        /* \"@openzeppelin/contracts/token/ERC20/utils/SafeERC20.sol\":4351:4436  require(abi.decode(returndata, (bool)), \"SafeERC20: ERC20 operation did not succeed\") */\n      tag_209\n      jumpi\n      mload(0x40)\n      0x08c379a000000000000000000000000000000000000000000000000000000000\n      dup2\n      mstore\n      0x04\n      add\n      tag_210\n      swap1\n      tag_211\n      jump\t// in\n    tag_210:\n      mload(0x40)\n      dup1\n      swap2\n      sub\n      swap1\n      revert\n    tag_209:\n        /* \"@openzeppelin/contracts/token/ERC20/utils/SafeERC20.sol\":4271:4447  if (returndata.length > 0) {... */\n    tag_207:\n        /* \"@openzeppelin/contracts/token/ERC20/utils/SafeERC20.sol\":3817:4453  {... */\n      pop\n        /* \"@openzeppelin/contracts/token/ERC20/utils/SafeERC20.sol\":3747:4453  function _callOptionalReturn(IERC20 token, bytes memory data) private {... */\n      pop\n      pop\n      jump\t// out\n        /* \"@openzeppelin/contracts/utils/Address.sol\":3861:4084  function functionCall(... */\n    tag_206:\n        /* \"@openzeppelin/contracts/utils/Address.sol\":3994:4006  bytes memory */\n      0x60\n        /* \"@openzeppelin/contracts/utils/Address.sol\":4025:4077  functionCallWithValue(target, data, 0, errorMessage) */\n      tag_213\n        /* \"@openzeppelin/contracts/utils/Address.sol\":4047:4053  target */\n      dup5\n        /* \"@openzeppelin/contracts/utils/Address.sol\":4055:4059  data */\n      dup5\n        /* \"@openzeppelin/contracts/utils/Address.sol\":4061:4062  0 */\n      0x00\n        /* \"@openzeppelin/contracts/utils/Address.sol\":4064:4076  errorMessage */\n      dup6\n        /* \"@openzeppelin/contracts/utils/Address.sol\":4025:4046  functionCallWithValue */\n      tag_214\n        /* \"@openzeppelin/contracts/utils/Address.sol\":4025:4077  functionCallWithValue(target, data, 0, errorMessage) */\n      jump\t// in\n    tag_213:\n        /* \"@openzeppelin/contracts/utils/Address.sol\":4018:4077  return functionCallWithValue(target, data, 0, errorMessage) */\n      swap1\n      pop\n        /* \"@openzeppelin/contracts/utils/Address.sol\":3861:4084  function functionCall(... */\n      swap4\n      swap3\n      pop\n      pop\n      pop\n      jump\t// out\n        /* \"@openzeppelin/contracts/utils/Address.sol\":4948:5447  function functionCallWithValue(... */\n    tag_214:\n        /* \"@openzeppelin/contracts/utils/Address.sol\":5113:5125  bytes memory */\n      0x60\n        /* \"@openzeppelin/contracts/utils/Address.sol\":5170:5175  value */\n      dup3\n        /* \"@openzeppelin/contracts/utils/Address.sol\":5145:5166  address(this).balance */\n      selfbalance\n        /* \"@openzeppelin/contracts/utils/Address.sol\":5145:5175  address(this).balance >= value */\n      lt\n      iszero\n        /* \"@openzeppelin/contracts/utils/Address.sol\":5137:5218  require(address(this).balance >= value, \"Address: insufficient balance for call\") */\n      tag_216\n      jumpi\n      mload(0x40)\n      0x08c379a000000000000000000000000000000000000000000000000000000000\n      dup2\n      mstore\n      0x04\n      add\n      tag_217\n      swap1\n      tag_218\n      jump\t// in\n    tag_217:\n      mload(0x40)\n      dup1\n      swap2\n      sub\n      swap1\n      revert\n    tag_216:\n        /* \"@openzeppelin/contracts/utils/Address.sol\":5236:5254  isContract(target) */\n      tag_219\n        /* \"@openzeppelin/contracts/utils/Address.sol\":5247:5253  target */\n      dup6\n        /* \"@openzeppelin/contracts/utils/Address.sol\":5236:5246  isContract */\n      tag_220\n        /* \"@openzeppelin/contracts/utils/Address.sol\":5236:5254  isContract(target) */\n      jump\t// in\n    tag_219:\n        /* \"@openzeppelin/contracts/utils/Address.sol\":5228:5288  require(isContract(target), \"Address: call to non-contract\") */\n      tag_221\n      jumpi\n      mload(0x40)\n      0x08c379a000000000000000000000000000000000000000000000000000000000\n      dup2\n      mstore\n      0x04\n      add\n      tag_222\n      swap1\n      tag_223\n      jump\t// in\n    tag_222:\n      mload(0x40)\n      dup1\n      swap2\n      sub\n      swap1\n      revert\n    tag_221:\n        /* \"@openzeppelin/contracts/utils/Address.sol\":5300:5312  bool success */\n      0x00\n        /* \"@openzeppelin/contracts/utils/Address.sol\":5314:5337  bytes memory returndata */\n      dup1\n        /* \"@openzeppelin/contracts/utils/Address.sol\":5341:5347  target */\n      dup7\n        /* \"@openzeppelin/contracts/utils/Address.sol\":5341:5352  target.call */\n      0xffffffffffffffffffffffffffffffffffffffff\n      and\n        /* \"@openzeppelin/contracts/utils/Address.sol\":5360:5365  value */\n      dup6\n        /* \"@openzeppelin/contracts/utils/Address.sol\":5367:5371  data */\n      dup8\n        /* \"@openzeppelin/contracts/utils/Address.sol\":5341:5372  target.call{value: value}(data) */\n      mload(0x40)\n      tag_224\n      swap2\n      swap1\n      tag_225\n      jump\t// in\n    tag_224:\n      0x00\n      mload(0x40)\n      dup1\n      dup4\n      sub\n      dup2\n      dup6\n      dup8\n      gas\n      call\n      swap3\n      pop\n      pop\n      pop\n      returndatasize\n      dup1\n      0x00\n      dup2\n      eq\n      tag_228\n      jumpi\n      mload(0x40)\n      swap2\n      pop\n      and(add(returndatasize, 0x3f), not(0x1f))\n      dup3\n      add\n      0x40\n      mstore\n      returndatasize\n      dup3\n      mstore\n      returndatasize\n      0x00\n      0x20\n      dup5\n      add\n      returndatacopy\n      jump(tag_227)\n    tag_228:\n      0x60\n      swap2\n      pop\n    tag_227:\n      pop\n        /* \"@openzeppelin/contracts/utils/Address.sol\":5299:5372  (bool success, bytes memory returndata) = target.call{value: value}(data) */\n      swap2\n      pop\n      swap2\n      pop\n        /* \"@openzeppelin/contracts/utils/Address.sol\":5389:5440  verifyCallResult(success, returndata, errorMessage) */\n      tag_229\n        /* \"@openzeppelin/contracts/utils/Address.sol\":5406:5413  success */\n      dup3\n        /* \"@openzeppelin/contracts/utils/Address.sol\":5415:5425  returndata */\n      dup3\n        /* \"@openzeppelin/contracts/utils/Address.sol\":5427:5439  errorMessage */\n      dup7\n        /* \"@openzeppelin/contracts/utils/Address.sol\":5389:5405  verifyCallResult */\n      tag_230\n        /* \"@openzeppelin/contracts/utils/Address.sol\":5389:5440  verifyCallResult(success, returndata, errorMessage) */\n      jump\t// in\n    tag_229:\n        /* \"@openzeppelin/contracts/utils/Address.sol\":5382:5440  return verifyCallResult(success, returndata, errorMessage) */\n      swap3\n      pop\n      pop\n      pop\n        /* \"@openzeppelin/contracts/utils/Address.sol\":4948:5447  function functionCallWithValue(... */\n      swap5\n      swap4\n      pop\n      pop\n      pop\n      pop\n      jump\t// out\n        /* \"@openzeppelin/contracts/utils/Address.sol\":1175:1495  function isContract(address account) internal view returns (bool) {... */\n    tag_220:\n        /* \"@openzeppelin/contracts/utils/Address.sol\":1235:1239  bool */\n      0x00\n        /* \"@openzeppelin/contracts/utils/Address.sol\":1487:1488  0 */\n      dup1\n        /* \"@openzeppelin/contracts/utils/Address.sol\":1465:1472  account */\n      dup3\n        /* \"@openzeppelin/contracts/utils/Address.sol\":1465:1484  account.code.length */\n      0xffffffffffffffffffffffffffffffffffffffff\n      and\n      extcodesize\n        /* \"@openzeppelin/contracts/utils/Address.sol\":1465:1488  account.code.length > 0 */\n      gt\n        /* \"@openzeppelin/contracts/utils/Address.sol\":1458:1488  return account.code.length > 0 */\n      swap1\n      pop\n        /* \"@openzeppelin/contracts/utils/Address.sol\":1175:1495  function isContract(address account) internal view returns (bool) {... */\n      swap2\n      swap1\n      pop\n      jump\t// out\n        /* \"@openzeppelin/contracts/utils/Address.sol\":7561:8303  function verifyCallResult(... */\n    tag_230:\n        /* \"@openzeppelin/contracts/utils/Address.sol\":7707:7719  bytes memory */\n      0x60\n        /* \"@openzeppelin/contracts/utils/Address.sol\":7735:7742  success */\n      dup4\n        /* \"@openzeppelin/contracts/utils/Address.sol\":7731:8297  if (success) {... */\n      iszero\n      tag_233\n      jumpi\n        /* \"@openzeppelin/contracts/utils/Address.sol\":7765:7775  returndata */\n      dup3\n        /* \"@openzeppelin/contracts/utils/Address.sol\":7758:7775  return returndata */\n      swap1\n      pop\n      jump(tag_232)\n        /* \"@openzeppelin/contracts/utils/Address.sol\":7731:8297  if (success) {... */\n    tag_233:\n        /* \"@openzeppelin/contracts/utils/Address.sol\":7896:7897  0 */\n      0x00\n        /* \"@openzeppelin/contracts/utils/Address.sol\":7876:7886  returndata */\n      dup4\n        /* \"@openzeppelin/contracts/utils/Address.sol\":7876:7893  returndata.length */\n      mload\n        /* \"@openzeppelin/contracts/utils/Address.sol\":7876:7897  returndata.length > 0 */\n      gt\n        /* \"@openzeppelin/contracts/utils/Address.sol\":7872:8287  if (returndata.length > 0) {... */\n      iszero\n      tag_235\n      jumpi\n        /* \"@openzeppelin/contracts/utils/Address.sol\":8120:8130  returndata */\n      dup3\n        /* \"@openzeppelin/contracts/utils/Address.sol\":8114:8131  mload(returndata) */\n      mload\n        /* \"@openzeppelin/contracts/utils/Address.sol\":8180:8195  returndata_size */\n      dup1\n        /* \"@openzeppelin/contracts/utils/Address.sol\":8167:8177  returndata */\n      dup5\n        /* \"@openzeppelin/contracts/utils/Address.sol\":8163:8165  32 */\n      0x20\n        /* \"@openzeppelin/contracts/utils/Address.sol\":8159:8178  add(32, returndata) */\n      add\n        /* \"@openzeppelin/contracts/utils/Address.sol\":8152:8196  revert(add(32, returndata), returndata_size) */\n      revert\n        /* \"@openzeppelin/contracts/utils/Address.sol\":7872:8287  if (returndata.length > 0) {... */\n    tag_235:\n        /* \"@openzeppelin/contracts/utils/Address.sol\":8259:8271  errorMessage */\n      dup2\n        /* \"@openzeppelin/contracts/utils/Address.sol\":8252:8272  revert(errorMessage) */\n      mload(0x40)\n      0x08c379a000000000000000000000000000000000000000000000000000000000\n      dup2\n      mstore\n      0x04\n      add\n      tag_237\n      swap2\n      swap1\n      tag_238\n      jump\t// in\n    tag_237:\n      mload(0x40)\n      dup1\n      swap2\n      sub\n      swap1\n      revert\n        /* \"@openzeppelin/contracts/utils/Address.sol\":7561:8303  function verifyCallResult(... */\n    tag_232:\n      swap4\n      swap3\n      pop\n      pop\n      pop\n      jump\t// out\n        /* \"#utility.yul\":7:146   */\n    tag_240:\n        /* \"#utility.yul\":53:58   */\n      0x00\n        /* \"#utility.yul\":91:97   */\n      dup2\n        /* \"#utility.yul\":78:98   */\n      calldataload\n        /* \"#utility.yul\":69:98   */\n      swap1\n      pop\n        /* \"#utility.yul\":107:140   */\n      tag_242\n        /* \"#utility.yul\":134:139   */\n      dup2\n        /* \"#utility.yul\":107:140   */\n      tag_243\n      jump\t// in\n    tag_242:\n        /* \"#utility.yul\":7:146   */\n      swap3\n      swap2\n      pop\n      pop\n      jump\t// out\n        /* \"#utility.yul\":152:289   */\n    tag_244:\n        /* \"#utility.yul\":206:211   */\n      0x00\n        /* \"#utility.yul\":237:243   */\n      dup2\n        /* \"#utility.yul\":231:244   */\n      mload\n        /* \"#utility.yul\":222:244   */\n      swap1\n      pop\n        /* \"#utility.yul\":253:283   */\n      tag_246\n        /* \"#utility.yul\":277:282   */\n      dup2\n        /* \"#utility.yul\":253:283   */\n      tag_247\n      jump\t// in\n    tag_246:\n        /* \"#utility.yul\":152:289   */\n      swap3\n      swap2\n      pop\n      pop\n      jump\t// out\n        /* \"#utility.yul\":295:434   */\n    tag_248:\n        /* \"#utility.yul\":341:346   */\n      0x00\n        /* \"#utility.yul\":379:385   */\n      dup2\n        /* \"#utility.yul\":366:386   */\n      calldataload\n        /* \"#utility.yul\":357:386   */\n      swap1\n      pop\n        /* \"#utility.yul\":395:428   */\n      tag_250\n        /* \"#utility.yul\":422:427   */\n      dup2\n        /* \"#utility.yul\":395:428   */\n      tag_251\n      jump\t// in\n    tag_250:\n        /* \"#utility.yul\":295:434   */\n      swap3\n      swap2\n      pop\n      pop\n      jump\t// out\n        /* \"#utility.yul\":440:769   */\n    tag_45:\n        /* \"#utility.yul\":499:505   */\n      0x00\n        /* \"#utility.yul\":548:550   */\n      0x20\n        /* \"#utility.yul\":536:545   */\n      dup3\n        /* \"#utility.yul\":527:534   */\n      dup5\n        /* \"#utility.yul\":523:546   */\n      sub\n        /* \"#utility.yul\":519:551   */\n      slt\n        /* \"#utility.yul\":516:635   */\n      iszero\n      tag_253\n      jumpi\n        /* \"#utility.yul\":554:633   */\n      tag_254\n      tag_255\n      jump\t// in\n    tag_254:\n        /* \"#utility.yul\":516:635   */\n    tag_253:\n        /* \"#utility.yul\":674:675   */\n      0x00\n        /* \"#utility.yul\":699:752   */\n      tag_256\n        /* \"#utility.yul\":744:751   */\n      dup5\n        /* \"#utility.yul\":735:741   */\n      dup3\n        /* \"#utility.yul\":724:733   */\n      dup6\n        /* \"#utility.yul\":720:742   */\n      add\n        /* \"#utility.yul\":699:752   */\n      tag_240\n      jump\t// in\n    tag_256:\n        /* \"#utility.yul\":689:752   */\n      swap2\n      pop\n        /* \"#utility.yul\":645:762   */\n      pop\n        /* \"#utility.yul\":440:769   */\n      swap3\n      swap2\n      pop\n      pop\n      jump\t// out\n        /* \"#utility.yul\":775:1120   */\n    tag_130:\n        /* \"#utility.yul\":842:848   */\n      0x00\n        /* \"#utility.yul\":891:893   */\n      0x20\n        /* \"#utility.yul\":879:888   */\n      dup3\n        /* \"#utility.yul\":870:877   */\n      dup5\n        /* \"#utility.yul\":866:889   */\n      sub\n        /* \"#utility.yul\":862:894   */\n      slt\n        /* \"#utility.yul\":859:978   */\n      iszero\n      tag_258\n      jumpi\n        /* \"#utility.yul\":897:976   */\n      tag_259\n      tag_255\n      jump\t// in\n    tag_259:\n        /* \"#utility.yul\":859:978   */\n    tag_258:\n        /* \"#utility.yul\":1017:1018   */\n      0x00\n        /* \"#utility.yul\":1042:1103   */\n      tag_260\n        /* \"#utility.yul\":1095:1102   */\n      dup5\n        /* \"#utility.yul\":1086:1092   */\n      dup3\n        /* \"#utility.yul\":1075:1084   */\n      dup6\n        /* \"#utility.yul\":1071:1093   */\n      add\n        /* \"#utility.yul\":1042:1103   */\n      tag_244\n      jump\t// in\n    tag_260:\n        /* \"#utility.yul\":1032:1103   */\n      swap2\n      pop\n        /* \"#utility.yul\":988:1113   */\n      pop\n        /* \"#utility.yul\":775:1120   */\n      swap3\n      swap2\n      pop\n      pop\n      jump\t// out\n        /* \"#utility.yul\":1126:1455   */\n    tag_31:\n        /* \"#utility.yul\":1185:1191   */\n      0x00\n        /* \"#utility.yul\":1234:1236   */\n      0x20\n        /* \"#utility.yul\":1222:1231   */\n      dup3\n        /* \"#utility.yul\":1213:1220   */\n      dup5\n        /* \"#utility.yul\":1209:1232   */\n      sub\n        /* \"#utility.yul\":1205:1237   */\n      slt\n        /* \"#utility.yul\":1202:1321   */\n      iszero\n      tag_262\n      jumpi\n        /* \"#utility.yul\":1240:1319   */\n      tag_263\n      tag_255\n      jump\t// in\n    tag_263:\n        /* \"#utility.yul\":1202:1321   */\n    tag_262:\n        /* \"#utility.yul\":1360:1361   */\n      0x00\n        /* \"#utility.yul\":1385:1438   */\n      tag_264\n        /* \"#utility.yul\":1430:1437   */\n      dup5\n        /* \"#utility.yul\":1421:1427   */\n      dup3\n        /* \"#utility.yul\":1410:1419   */\n      dup6\n        /* \"#utility.yul\":1406:1428   */\n      add\n        /* \"#utility.yul\":1385:1438   */\n      tag_248\n      jump\t// in\n    tag_264:\n        /* \"#utility.yul\":1375:1438   */\n      swap2\n      pop\n        /* \"#utility.yul\":1331:1448   */\n      pop\n        /* \"#utility.yul\":1126:1455   */\n      swap3\n      swap2\n      pop\n      pop\n      jump\t// out\n        /* \"#utility.yul\":1461:1579   */\n    tag_265:\n        /* \"#utility.yul\":1548:1572   */\n      tag_267\n        /* \"#utility.yul\":1566:1571   */\n      dup2\n        /* \"#utility.yul\":1548:1572   */\n      tag_268\n      jump\t// in\n    tag_267:\n        /* \"#utility.yul\":1543:1546   */\n      dup3\n        /* \"#utility.yul\":1536:1573   */\n      mstore\n        /* \"#utility.yul\":1461:1579   */\n      pop\n      pop\n      jump\t// out\n        /* \"#utility.yul\":1585:1694   */\n    tag_269:\n        /* \"#utility.yul\":1666:1687   */\n      tag_271\n        /* \"#utility.yul\":1681:1686   */\n      dup2\n        /* \"#utility.yul\":1666:1687   */\n      tag_272\n      jump\t// in\n    tag_271:\n        /* \"#utility.yul\":1661:1664   */\n      dup3\n        /* \"#utility.yul\":1654:1688   */\n      mstore\n        /* \"#utility.yul\":1585:1694   */\n      pop\n      pop\n      jump\t// out\n        /* \"#utility.yul\":1700:2073   */\n    tag_273:\n        /* \"#utility.yul\":1804:1807   */\n      0x00\n        /* \"#utility.yul\":1832:1870   */\n      tag_275\n        /* \"#utility.yul\":1864:1869   */\n      dup3\n        /* \"#utility.yul\":1832:1870   */\n      tag_276\n      jump\t// in\n    tag_275:\n        /* \"#utility.yul\":1886:1974   */\n      tag_277\n        /* \"#utility.yul\":1967:1973   */\n      dup2\n        /* \"#utility.yul\":1962:1965   */\n      dup6\n        /* \"#utility.yul\":1886:1974   */\n      tag_278\n      jump\t// in\n    tag_277:\n        /* \"#utility.yul\":1879:1974   */\n      swap4\n      pop\n        /* \"#utility.yul\":1983:2035   */\n      tag_279\n        /* \"#utility.yul\":2028:2034   */\n      dup2\n        /* \"#utility.yul\":2023:2026   */\n      dup6\n        /* \"#utility.yul\":2016:2020   */\n      0x20\n        /* \"#utility.yul\":2009:2014   */\n      dup7\n        /* \"#utility.yul\":2005:2021   */\n      add\n        /* \"#utility.yul\":1983:2035   */\n      tag_280\n      jump\t// in\n    tag_279:\n        /* \"#utility.yul\":2060:2066   */\n      dup1\n        /* \"#utility.yul\":2055:2058   */\n      dup5\n        /* \"#utility.yul\":2051:2067   */\n      add\n        /* \"#utility.yul\":2044:2067   */\n      swap2\n      pop\n        /* \"#utility.yul\":1808:2073   */\n      pop\n        /* \"#utility.yul\":1700:2073   */\n      swap3\n      swap2\n      pop\n      pop\n      jump\t// out\n        /* \"#utility.yul\":2079:2443   */\n    tag_281:\n        /* \"#utility.yul\":2167:2170   */\n      0x00\n        /* \"#utility.yul\":2195:2234   */\n      tag_283\n        /* \"#utility.yul\":2228:2233   */\n      dup3\n        /* \"#utility.yul\":2195:2234   */\n      tag_284\n      jump\t// in\n    tag_283:\n        /* \"#utility.yul\":2250:2321   */\n      tag_285\n        /* \"#utility.yul\":2314:2320   */\n      dup2\n        /* \"#utility.yul\":2309:2312   */\n      dup6\n        /* \"#utility.yul\":2250:2321   */\n      tag_286\n      jump\t// in\n    tag_285:\n        /* \"#utility.yul\":2243:2321   */\n      swap4\n      pop\n        /* \"#utility.yul\":2330:2382   */\n      tag_287\n        /* \"#utility.yul\":2375:2381   */\n      dup2\n        /* \"#utility.yul\":2370:2373   */\n      dup6\n        /* \"#utility.yul\":2363:2367   */\n      0x20\n        /* \"#utility.yul\":2356:2361   */\n      dup7\n        /* \"#utility.yul\":2352:2368   */\n      add\n        /* \"#utility.yul\":2330:2382   */\n      tag_280\n      jump\t// in\n    tag_287:\n        /* \"#utility.yul\":2407:2436   */\n      tag_288\n        /* \"#utility.yul\":2429:2435   */\n      dup2\n        /* \"#utility.yul\":2407:2436   */\n      tag_289\n      jump\t// in\n    tag_288:\n        /* \"#utility.yul\":2402:2405   */\n      dup5\n        /* \"#utility.yul\":2398:2437   */\n      add\n        /* \"#utility.yul\":2391:2437   */\n      swap2\n      pop\n        /* \"#utility.yul\":2171:2443   */\n      pop\n        /* \"#utility.yul\":2079:2443   */\n      swap3\n      swap2\n      pop\n      pop\n      jump\t// out\n        /* \"#utility.yul\":2449:2815   */\n    tag_290:\n        /* \"#utility.yul\":2591:2594   */\n      0x00\n        /* \"#utility.yul\":2612:2679   */\n      tag_292\n        /* \"#utility.yul\":2676:2678   */\n      0x26\n        /* \"#utility.yul\":2671:2674   */\n      dup4\n        /* \"#utility.yul\":2612:2679   */\n      tag_286\n      jump\t// in\n    tag_292:\n        /* \"#utility.yul\":2605:2679   */\n      swap2\n      pop\n        /* \"#utility.yul\":2688:2781   */\n      tag_293\n        /* \"#utility.yul\":2777:2780   */\n      dup3\n        /* \"#utility.yul\":2688:2781   */\n      tag_294\n      jump\t// in\n    tag_293:\n        /* \"#utility.yul\":2806:2808   */\n      0x40\n        /* \"#utility.yul\":2801:2804   */\n      dup3\n        /* \"#utility.yul\":2797:2809   */\n      add\n        /* \"#utility.yul\":2790:2809   */\n      swap1\n      pop\n        /* \"#utility.yul\":2449:2815   */\n      swap2\n      swap1\n      pop\n      jump\t// out\n        /* \"#utility.yul\":2821:3187   */\n    tag_295:\n        /* \"#utility.yul\":2963:2966   */\n      0x00\n        /* \"#utility.yul\":2984:3051   */\n      tag_297\n        /* \"#utility.yul\":3048:3050   */\n      0x17\n        /* \"#utility.yul\":3043:3046   */\n      dup4\n        /* \"#utility.yul\":2984:3051   */\n      tag_286\n      jump\t// in\n    tag_297:\n        /* \"#utility.yul\":2977:3051   */\n      swap2\n      pop\n        /* \"#utility.yul\":3060:3153   */\n      tag_298\n        /* \"#utility.yul\":3149:3152   */\n      dup3\n        /* \"#utility.yul\":3060:3153   */\n      tag_299\n      jump\t// in\n    tag_298:\n        /* \"#utility.yul\":3178:3180   */\n      0x20\n        /* \"#utility.yul\":3173:3176   */\n      dup3\n        /* \"#utility.yul\":3169:3181   */\n      add\n        /* \"#utility.yul\":3162:3181   */\n      swap1\n      pop\n        /* \"#utility.yul\":2821:3187   */\n      swap2\n      swap1\n      pop\n      jump\t// out\n        /* \"#utility.yul\":3193:3559   */\n    tag_300:\n        /* \"#utility.yul\":3335:3338   */\n      0x00\n        /* \"#utility.yul\":3356:3423   */\n      tag_302\n        /* \"#utility.yul\":3420:3422   */\n      0x12\n        /* \"#utility.yul\":3415:3418   */\n      dup4\n        /* \"#utility.yul\":3356:3423   */\n      tag_286\n      jump\t// in\n    tag_302:\n        /* \"#utility.yul\":3349:3423   */\n      swap2\n      pop\n        /* \"#utility.yul\":3432:3525   */\n      tag_303\n        /* \"#utility.yul\":3521:3524   */\n      dup3\n        /* \"#utility.yul\":3432:3525   */\n      tag_304\n      jump\t// in\n    tag_303:\n        /* \"#utility.yul\":3550:3552   */\n      0x20\n        /* \"#utility.yul\":3545:3548   */\n      dup3\n        /* \"#utility.yul\":3541:3553   */\n      add\n        /* \"#utility.yul\":3534:3553   */\n      swap1\n      pop\n        /* \"#utility.yul\":3193:3559   */\n      swap2\n      swap1\n      pop\n      jump\t// out\n        /* \"#utility.yul\":3565:3931   */\n    tag_305:\n        /* \"#utility.yul\":3707:3710   */\n      0x00\n        /* \"#utility.yul\":3728:3795   */\n      tag_307\n        /* \"#utility.yul\":3792:3794   */\n      0x26\n        /* \"#utility.yul\":3787:3790   */\n      dup4\n        /* \"#utility.yul\":3728:3795   */\n      tag_286\n      jump\t// in\n    tag_307:\n        /* \"#utility.yul\":3721:3795   */\n      swap2\n      pop\n        /* \"#utility.yul\":3804:3897   */\n      tag_308\n        /* \"#utility.yul\":3893:3896   */\n      dup3\n        /* \"#utility.yul\":3804:3897   */\n      tag_309\n      jump\t// in\n    tag_308:\n        /* \"#utility.yul\":3922:3924   */\n      0x40\n        /* \"#utility.yul\":3917:3920   */\n      dup3\n        /* \"#utility.yul\":3913:3925   */\n      add\n        /* \"#utility.yul\":3906:3925   */\n      swap1\n      pop\n        /* \"#utility.yul\":3565:3931   */\n      swap2\n      swap1\n      pop\n      jump\t// out\n        /* \"#utility.yul\":3937:4303   */\n    tag_310:\n        /* \"#utility.yul\":4079:4082   */\n      0x00\n        /* \"#utility.yul\":4100:4167   */\n      tag_312\n        /* \"#utility.yul\":4164:4166   */\n      0x15\n        /* \"#utility.yul\":4159:4162   */\n      dup4\n        /* \"#utility.yul\":4100:4167   */\n      tag_286\n      jump\t// in\n    tag_312:\n        /* \"#utility.yul\":4093:4167   */\n      swap2\n      pop\n        /* \"#utility.yul\":4176:4269   */\n      tag_313\n        /* \"#utility.yul\":4265:4268   */\n      dup3\n        /* \"#utility.yul\":4176:4269   */\n      tag_314\n      jump\t// in\n    tag_313:\n        /* \"#utility.yul\":4294:4296   */\n      0x20\n        /* \"#utility.yul\":4289:4292   */\n      dup3\n        /* \"#utility.yul\":4285:4297   */\n      add\n        /* \"#utility.yul\":4278:4297   */\n      swap1\n      pop\n        /* \"#utility.yul\":3937:4303   */\n      swap2\n      swap1\n      pop\n      jump\t// out\n        /* \"#utility.yul\":4309:4675   */\n    tag_315:\n        /* \"#utility.yul\":4451:4454   */\n      0x00\n        /* \"#utility.yul\":4472:4539   */\n      tag_317\n        /* \"#utility.yul\":4536:4538   */\n      0x20\n        /* \"#utility.yul\":4531:4534   */\n      dup4\n        /* \"#utility.yul\":4472:4539   */\n      tag_286\n      jump\t// in\n    tag_317:\n        /* \"#utility.yul\":4465:4539   */\n      swap2\n      pop\n        /* \"#utility.yul\":4548:4641   */\n      tag_318\n        /* \"#utility.yul\":4637:4640   */\n      dup3\n        /* \"#utility.yul\":4548:4641   */\n      tag_319\n      jump\t// in\n    tag_318:\n        /* \"#utility.yul\":4666:4668   */\n      0x20\n        /* \"#utility.yul\":4661:4664   */\n      dup3\n        /* \"#utility.yul\":4657:4669   */\n      add\n        /* \"#utility.yul\":4650:4669   */\n      swap1\n      pop\n        /* \"#utility.yul\":4309:4675   */\n      swap2\n      swap1\n      pop\n      jump\t// out\n        /* \"#utility.yul\":4681:5043   */\n    tag_320:\n        /* \"#utility.yul\":4822:4825   */\n      0x00\n        /* \"#utility.yul\":4843:4908   */\n      tag_322\n        /* \"#utility.yul\":4906:4907   */\n      0x00\n        /* \"#utility.yul\":4901:4904   */\n      dup4\n        /* \"#utility.yul\":4843:4908   */\n      tag_323\n      jump\t// in\n    tag_322:\n        /* \"#utility.yul\":4836:4908   */\n      swap2\n      pop\n        /* \"#utility.yul\":4917:5010   */\n      tag_324\n        /* \"#utility.yul\":5006:5009   */\n      dup3\n        /* \"#utility.yul\":4917:5010   */\n      tag_325\n      jump\t// in\n    tag_324:\n        /* \"#utility.yul\":5035:5036   */\n      0x00\n        /* \"#utility.yul\":5030:5033   */\n      dup3\n        /* \"#utility.yul\":5026:5037   */\n      add\n        /* \"#utility.yul\":5019:5037   */\n      swap1\n      pop\n        /* \"#utility.yul\":4681:5043   */\n      swap2\n      swap1\n      pop\n      jump\t// out\n        /* \"#utility.yul\":5049:5415   */\n    tag_326:\n        /* \"#utility.yul\":5191:5194   */\n      0x00\n        /* \"#utility.yul\":5212:5279   */\n      tag_328\n        /* \"#utility.yul\":5276:5278   */\n      0x1d\n        /* \"#utility.yul\":5271:5274   */\n      dup4\n        /* \"#utility.yul\":5212:5279   */\n      tag_286\n      jump\t// in\n    tag_328:\n        /* \"#utility.yul\":5205:5279   */\n      swap2\n      pop\n        /* \"#utility.yul\":5288:5381   */\n      tag_329\n        /* \"#utility.yul\":5377:5380   */\n      dup3\n        /* \"#utility.yul\":5288:5381   */\n      tag_330\n      jump\t// in\n    tag_329:\n        /* \"#utility.yul\":5406:5408   */\n      0x20\n        /* \"#utility.yul\":5401:5404   */\n      dup3\n        /* \"#utility.yul\":5397:5409   */\n      add\n        /* \"#utility.yul\":5390:5409   */\n      swap1\n      pop\n        /* \"#utility.yul\":5049:5415   */\n      swap2\n      swap1\n      pop\n      jump\t// out\n        /* \"#utility.yul\":5421:5787   */\n    tag_331:\n        /* \"#utility.yul\":5563:5566   */\n      0x00\n        /* \"#utility.yul\":5584:5651   */\n      tag_333\n        /* \"#utility.yul\":5648:5650   */\n      0x2a\n        /* \"#utility.yul\":5643:5646   */\n      dup4\n        /* \"#utility.yul\":5584:5651   */\n      tag_286\n      jump\t// in\n    tag_333:\n        /* \"#utility.yul\":5577:5651   */\n      swap2\n      pop\n        /* \"#utility.yul\":5660:5753   */\n      tag_334\n        /* \"#utility.yul\":5749:5752   */\n      dup3\n        /* \"#utility.yul\":5660:5753   */\n      tag_335\n      jump\t// in\n    tag_334:\n        /* \"#utility.yul\":5778:5780   */\n      0x40\n        /* \"#utility.yul\":5773:5776   */\n      dup3\n        /* \"#utility.yul\":5769:5781   */\n      add\n        /* \"#utility.yul\":5762:5781   */\n      swap1\n      pop\n        /* \"#utility.yul\":5421:5787   */\n      swap2\n      swap1\n      pop\n      jump\t// out\n        /* \"#utility.yul\":5793:5911   */\n    tag_336:\n        /* \"#utility.yul\":5880:5904   */\n      tag_338\n        /* \"#utility.yul\":5898:5903   */\n      dup2\n        /* \"#utility.yul\":5880:5904   */\n      tag_339\n      jump\t// in\n    tag_338:\n        /* \"#utility.yul\":5875:5878   */\n      dup3\n        /* \"#utility.yul\":5868:5905   */\n      mstore\n        /* \"#utility.yul\":5793:5911   */\n      pop\n      pop\n      jump\t// out\n        /* \"#utility.yul\":5917:6188   */\n    tag_225:\n        /* \"#utility.yul\":6047:6050   */\n      0x00\n        /* \"#utility.yul\":6069:6162   */\n      tag_341\n        /* \"#utility.yul\":6158:6161   */\n      dup3\n        /* \"#utility.yul\":6149:6155   */\n      dup5\n        /* \"#utility.yul\":6069:6162   */\n      tag_273\n      jump\t// in\n    tag_341:\n        /* \"#utility.yul\":6062:6162   */\n      swap2\n      pop\n        /* \"#utility.yul\":6179:6182   */\n      dup2\n        /* \"#utility.yul\":6172:6182   */\n      swap1\n      pop\n        /* \"#utility.yul\":5917:6188   */\n      swap3\n      swap2\n      pop\n      pop\n      jump\t// out\n        /* \"#utility.yul\":6194:6416   */\n    tag_40:\n        /* \"#utility.yul\":6287:6291   */\n      0x00\n        /* \"#utility.yul\":6325:6327   */\n      0x20\n        /* \"#utility.yul\":6314:6323   */\n      dup3\n        /* \"#utility.yul\":6310:6328   */\n      add\n        /* \"#utility.yul\":6302:6328   */\n      swap1\n      pop\n        /* \"#utility.yul\":6338:6409   */\n      tag_343\n        /* \"#utility.yul\":6406:6407   */\n      0x00\n        /* \"#utility.yul\":6395:6404   */\n      dup4\n        /* \"#utility.yul\":6391:6408   */\n      add\n        /* \"#utility.yul\":6382:6388   */\n      dup5\n        /* \"#utility.yul\":6338:6409   */\n      tag_265\n      jump\t// in\n    tag_343:\n        /* \"#utility.yul\":6194:6416   */\n      swap3\n      swap2\n      pop\n      pop\n      jump\t// out\n        /* \"#utility.yul\":6422:6864   */\n    tag_197:\n        /* \"#utility.yul\":6571:6575   */\n      0x00\n        /* \"#utility.yul\":6609:6611   */\n      0x60\n        /* \"#utility.yul\":6598:6607   */\n      dup3\n        /* \"#utility.yul\":6594:6612   */\n      add\n        /* \"#utility.yul\":6586:6612   */\n      swap1\n      pop\n        /* \"#utility.yul\":6622:6693   */\n      tag_345\n        /* \"#utility.yul\":6690:6691   */\n      0x00\n        /* \"#utility.yul\":6679:6688   */\n      dup4\n        /* \"#utility.yul\":6675:6692   */\n      add\n        /* \"#utility.yul\":6666:6672   */\n      dup7\n        /* \"#utility.yul\":6622:6693   */\n      tag_265\n      jump\t// in\n    tag_345:\n        /* \"#utility.yul\":6703:6775   */\n      tag_346\n        /* \"#utility.yul\":6771:6773   */\n      0x20\n        /* \"#utility.yul\":6760:6769   */\n      dup4\n        /* \"#utility.yul\":6756:6774   */\n      add\n        /* \"#utility.yul\":6747:6753   */\n      dup6\n        /* \"#utility.yul\":6703:6775   */\n      tag_265\n      jump\t// in\n    tag_346:\n        /* \"#utility.yul\":6785:6857   */\n      tag_347\n        /* \"#utility.yul\":6853:6855   */\n      0x40\n        /* \"#utility.yul\":6842:6851   */\n      dup4\n        /* \"#utility.yul\":6838:6856   */\n      add\n        /* \"#utility.yul\":6829:6835   */\n      dup5\n        /* \"#utility.yul\":6785:6857   */\n      tag_336\n      jump\t// in\n    tag_347:\n        /* \"#utility.yul\":6422:6864   */\n      swap5\n      swap4\n      pop\n      pop\n      pop\n      pop\n      jump\t// out\n        /* \"#utility.yul\":6870:7618   */\n    tag_104:\n        /* \"#utility.yul\":7119:7123   */\n      0x00\n        /* \"#utility.yul\":7157:7160   */\n      0x80\n        /* \"#utility.yul\":7146:7155   */\n      dup3\n        /* \"#utility.yul\":7142:7161   */\n      add\n        /* \"#utility.yul\":7134:7161   */\n      swap1\n      pop\n        /* \"#utility.yul\":7171:7242   */\n      tag_349\n        /* \"#utility.yul\":7239:7240   */\n      0x00\n        /* \"#utility.yul\":7228:7237   */\n      dup4\n        /* \"#utility.yul\":7224:7241   */\n      add\n        /* \"#utility.yul\":7215:7221   */\n      dup7\n        /* \"#utility.yul\":7171:7242   */\n      tag_265\n      jump\t// in\n    tag_349:\n        /* \"#utility.yul\":7252:7324   */\n      tag_350\n        /* \"#utility.yul\":7320:7322   */\n      0x20\n        /* \"#utility.yul\":7309:7318   */\n      dup4\n        /* \"#utility.yul\":7305:7323   */\n      add\n        /* \"#utility.yul\":7296:7302   */\n      dup6\n        /* \"#utility.yul\":7252:7324   */\n      tag_265\n      jump\t// in\n    tag_350:\n        /* \"#utility.yul\":7334:7406   */\n      tag_351\n        /* \"#utility.yul\":7402:7404   */\n      0x40\n        /* \"#utility.yul\":7391:7400   */\n      dup4\n        /* \"#utility.yul\":7387:7405   */\n      add\n        /* \"#utility.yul\":7378:7384   */\n      dup5\n        /* \"#utility.yul\":7334:7406   */\n      tag_336\n      jump\t// in\n    tag_351:\n        /* \"#utility.yul\":7453:7462   */\n      dup2\n        /* \"#utility.yul\":7447:7451   */\n      dup2\n        /* \"#utility.yul\":7443:7463   */\n      sub\n        /* \"#utility.yul\":7438:7440   */\n      0x60\n        /* \"#utility.yul\":7427:7436   */\n      dup4\n        /* \"#utility.yul\":7423:7441   */\n      add\n        /* \"#utility.yul\":7416:7464   */\n      mstore\n        /* \"#utility.yul\":7481:7611   */\n      tag_352\n        /* \"#utility.yul\":7606:7610   */\n      dup2\n        /* \"#utility.yul\":7481:7611   */\n      tag_320\n      jump\t// in\n    tag_352:\n        /* \"#utility.yul\":7473:7611   */\n      swap1\n      pop\n        /* \"#utility.yul\":6870:7618   */\n      swap5\n      swap4\n      pop\n      pop\n      pop\n      pop\n      jump\t// out\n        /* \"#utility.yul\":7624:7956   */\n    tag_125:\n        /* \"#utility.yul\":7745:7749   */\n      0x00\n        /* \"#utility.yul\":7783:7785   */\n      0x40\n        /* \"#utility.yul\":7772:7781   */\n      dup3\n        /* \"#utility.yul\":7768:7786   */\n      add\n        /* \"#utility.yul\":7760:7786   */\n      swap1\n      pop\n        /* \"#utility.yul\":7796:7867   */\n      tag_354\n        /* \"#utility.yul\":7864:7865   */\n      0x00\n        /* \"#utility.yul\":7853:7862   */\n      dup4\n        /* \"#utility.yul\":7849:7866   */\n      add\n        /* \"#utility.yul\":7840:7846   */\n      dup6\n        /* \"#utility.yul\":7796:7867   */\n      tag_265\n      jump\t// in\n    tag_354:\n        /* \"#utility.yul\":7877:7949   */\n      tag_355\n        /* \"#utility.yul\":7945:7947   */\n      0x20\n        /* \"#utility.yul\":7934:7943   */\n      dup4\n        /* \"#utility.yul\":7930:7948   */\n      add\n        /* \"#utility.yul\":7921:7927   */\n      dup5\n        /* \"#utility.yul\":7877:7949   */\n      tag_336\n      jump\t// in\n    tag_355:\n        /* \"#utility.yul\":7624:7956   */\n      swap4\n      swap3\n      pop\n      pop\n      pop\n      jump\t// out\n        /* \"#utility.yul\":7962:8275   */\n    tag_238:\n        /* \"#utility.yul\":8075:8079   */\n      0x00\n        /* \"#utility.yul\":8113:8115   */\n      0x20\n        /* \"#utility.yul\":8102:8111   */\n      dup3\n        /* \"#utility.yul\":8098:8116   */\n      add\n        /* \"#utility.yul\":8090:8116   */\n      swap1\n      pop\n        /* \"#utility.yul\":8162:8171   */\n      dup2\n        /* \"#utility.yul\":8156:8160   */\n      dup2\n        /* \"#utility.yul\":8152:8172   */\n      sub\n        /* \"#utility.yul\":8148:8149   */\n      0x00\n        /* \"#utility.yul\":8137:8146   */\n      dup4\n        /* \"#utility.yul\":8133:8150   */\n      add\n        /* \"#utility.yul\":8126:8173   */\n      mstore\n        /* \"#utility.yul\":8190:8268   */\n      tag_357\n        /* \"#utility.yul\":8263:8267   */\n      dup2\n        /* \"#utility.yul\":8254:8260   */\n      dup5\n        /* \"#utility.yul\":8190:8268   */\n      tag_281\n      jump\t// in\n    tag_357:\n        /* \"#utility.yul\":8182:8268   */\n      swap1\n      pop\n        /* \"#utility.yul\":7962:8275   */\n      swap3\n      swap2\n      pop\n      pop\n      jump\t// out\n        /* \"#utility.yul\":8281:8700   */\n    tag_182:\n        /* \"#utility.yul\":8447:8451   */\n      0x00\n        /* \"#utility.yul\":8485:8487   */\n      0x20\n        /* \"#utility.yul\":8474:8483   */\n      dup3\n        /* \"#utility.yul\":8470:8488   */\n      add\n        /* \"#utility.yul\":8462:8488   */\n      swap1\n      pop\n        /* \"#utility.yul\":8534:8543   */\n      dup2\n        /* \"#utility.yul\":8528:8532   */\n      dup2\n        /* \"#utility.yul\":8524:8544   */\n      sub\n        /* \"#utility.yul\":8520:8521   */\n      0x00\n        /* \"#utility.yul\":8509:8518   */\n      dup4\n        /* \"#utility.yul\":8505:8522   */\n      add\n        /* \"#utility.yul\":8498:8545   */\n      mstore\n        /* \"#utility.yul\":8562:8693   */\n      tag_359\n        /* \"#utility.yul\":8688:8692   */\n      dup2\n        /* \"#utility.yul\":8562:8693   */\n      tag_290\n      jump\t// in\n    tag_359:\n        /* \"#utility.yul\":8554:8693   */\n      swap1\n      pop\n        /* \"#utility.yul\":8281:8700   */\n      swap2\n      swap1\n      pop\n      jump\t// out\n        /* \"#utility.yul\":8706:9125   */\n    tag_114:\n        /* \"#utility.yul\":8872:8876   */\n      0x00\n        /* \"#utility.yul\":8910:8912   */\n      0x20\n        /* \"#utility.yul\":8899:8908   */\n      dup3\n        /* \"#utility.yul\":8895:8913   */\n      add\n        /* \"#utility.yul\":8887:8913   */\n      swap1\n      pop\n        /* \"#utility.yul\":8959:8968   */\n      dup2\n        /* \"#utility.yul\":8953:8957   */\n      dup2\n        /* \"#utility.yul\":8949:8969   */\n      sub\n        /* \"#utility.yul\":8945:8946   */\n      0x00\n        /* \"#utility.yul\":8934:8943   */\n      dup4\n        /* \"#utility.yul\":8930:8947   */\n      add\n        /* \"#utility.yul\":8923:8970   */\n      mstore\n        /* \"#utility.yul\":8987:9118   */\n      tag_361\n        /* \"#utility.yul\":9113:9117   */\n      dup2\n        /* \"#utility.yul\":8987:9118   */\n      tag_295\n      jump\t// in\n    tag_361:\n        /* \"#utility.yul\":8979:9118   */\n      swap1\n      pop\n        /* \"#utility.yul\":8706:9125   */\n      swap2\n      swap1\n      pop\n      jump\t// out\n        /* \"#utility.yul\":9131:9550   */\n    tag_141:\n        /* \"#utility.yul\":9297:9301   */\n      0x00\n        /* \"#utility.yul\":9335:9337   */\n      0x20\n        /* \"#utility.yul\":9324:9333   */\n      dup3\n        /* \"#utility.yul\":9320:9338   */\n      add\n        /* \"#utility.yul\":9312:9338   */\n      swap1\n      pop\n        /* \"#utility.yul\":9384:9393   */\n      dup2\n        /* \"#utility.yul\":9378:9382   */\n      dup2\n        /* \"#utility.yul\":9374:9394   */\n      sub\n        /* \"#utility.yul\":9370:9371   */\n      0x00\n        /* \"#utility.yul\":9359:9368   */\n      dup4\n        /* \"#utility.yul\":9355:9372   */\n      add\n        /* \"#utility.yul\":9348:9395   */\n      mstore\n        /* \"#utility.yul\":9412:9543   */\n      tag_363\n        /* \"#utility.yul\":9538:9542   */\n      dup2\n        /* \"#utility.yul\":9412:9543   */\n      tag_300\n      jump\t// in\n    tag_363:\n        /* \"#utility.yul\":9404:9543   */\n      swap1\n      pop\n        /* \"#utility.yul\":9131:9550   */\n      swap2\n      swap1\n      pop\n      jump\t// out\n        /* \"#utility.yul\":9556:9975   */\n    tag_218:\n        /* \"#utility.yul\":9722:9726   */\n      0x00\n        /* \"#utility.yul\":9760:9762   */\n      0x20\n        /* \"#utility.yul\":9749:9758   */\n      dup3\n        /* \"#utility.yul\":9745:9763   */\n      add\n        /* \"#utility.yul\":9737:9763   */\n      swap1\n      pop\n        /* \"#utility.yul\":9809:9818   */\n      dup2\n        /* \"#utility.yul\":9803:9807   */\n      dup2\n        /* \"#utility.yul\":9799:9819   */\n      sub\n        /* \"#utility.yul\":9795:9796   */\n      0x00\n        /* \"#utility.yul\":9784:9793   */\n      dup4\n        /* \"#utility.yul\":9780:9797   */\n      add\n        /* \"#utility.yul\":9773:9820   */\n      mstore\n        /* \"#utility.yul\":9837:9968   */\n      tag_365\n        /* \"#utility.yul\":9963:9967   */\n      dup2\n        /* \"#utility.yul\":9837:9968   */\n      tag_305\n      jump\t// in\n    tag_365:\n        /* \"#utility.yul\":9829:9968   */\n      swap1\n      pop\n        /* \"#utility.yul\":9556:9975   */\n      swap2\n      swap1\n      pop\n      jump\t// out\n        /* \"#utility.yul\":9981:10400   */\n    tag_136:\n        /* \"#utility.yul\":10147:10151   */\n      0x00\n        /* \"#utility.yul\":10185:10187   */\n      0x20\n        /* \"#utility.yul\":10174:10183   */\n      dup3\n        /* \"#utility.yul\":10170:10188   */\n      add\n        /* \"#utility.yul\":10162:10188   */\n      swap1\n      pop\n        /* \"#utility.yul\":10234:10243   */\n      dup2\n        /* \"#utility.yul\":10228:10232   */\n      dup2\n        /* \"#utility.yul\":10224:10244   */\n      sub\n        /* \"#utility.yul\":10220:10221   */\n      0x00\n        /* \"#utility.yul\":10209:10218   */\n      dup4\n        /* \"#utility.yul\":10205:10222   */\n      add\n        /* \"#utility.yul\":10198:10245   */\n      mstore\n        /* \"#utility.yul\":10262:10393   */\n      tag_367\n        /* \"#utility.yul\":10388:10392   */\n      dup2\n        /* \"#utility.yul\":10262:10393   */\n      tag_310\n      jump\t// in\n    tag_367:\n        /* \"#utility.yul\":10254:10393   */\n      swap1\n      pop\n        /* \"#utility.yul\":9981:10400   */\n      swap2\n      swap1\n      pop\n      jump\t// out\n        /* \"#utility.yul\":10406:10825   */\n    tag_193:\n        /* \"#utility.yul\":10572:10576   */\n      0x00\n        /* \"#utility.yul\":10610:10612   */\n      0x20\n        /* \"#utility.yul\":10599:10608   */\n      dup3\n        /* \"#utility.yul\":10595:10613   */\n      add\n        /* \"#utility.yul\":10587:10613   */\n      swap1\n      pop\n        /* \"#utility.yul\":10659:10668   */\n      dup2\n        /* \"#utility.yul\":10653:10657   */\n      dup2\n        /* \"#utility.yul\":10649:10669   */\n      sub\n        /* \"#utility.yul\":10645:10646   */\n      0x00\n        /* \"#utility.yul\":10634:10643   */\n      dup4\n        /* \"#utility.yul\":10630:10647   */\n      add\n        /* \"#utility.yul\":10623:10670   */\n      mstore\n        /* \"#utility.yul\":10687:10818   */\n      tag_369\n        /* \"#utility.yul\":10813:10817   */\n      dup2\n        /* \"#utility.yul\":10687:10818   */\n      tag_315\n      jump\t// in\n    tag_369:\n        /* \"#utility.yul\":10679:10818   */\n      swap1\n      pop\n        /* \"#utility.yul\":10406:10825   */\n      swap2\n      swap1\n      pop\n      jump\t// out\n        /* \"#utility.yul\":10831:11250   */\n    tag_223:\n        /* \"#utility.yul\":10997:11001   */\n      0x00\n        /* \"#utility.yul\":11035:11037   */\n      0x20\n        /* \"#utility.yul\":11024:11033   */\n      dup3\n        /* \"#utility.yul\":11020:11038   */\n      add\n        /* \"#utility.yul\":11012:11038   */\n      swap1\n      pop\n        /* \"#utility.yul\":11084:11093   */\n      dup2\n        /* \"#utility.yul\":11078:11082   */\n      dup2\n        /* \"#utility.yul\":11074:11094   */\n      sub\n        /* \"#utility.yul\":11070:11071   */\n      0x00\n        /* \"#utility.yul\":11059:11068   */\n      dup4\n        /* \"#utility.yul\":11055:11072   */\n      add\n        /* \"#utility.yul\":11048:11095   */\n      mstore\n        /* \"#utility.yul\":11112:11243   */\n      tag_371\n        /* \"#utility.yul\":11238:11242   */\n      dup2\n        /* \"#utility.yul\":11112:11243   */\n      tag_326\n      jump\t// in\n    tag_371:\n        /* \"#utility.yul\":11104:11243   */\n      swap1\n      pop\n        /* \"#utility.yul\":10831:11250   */\n      swap2\n      swap1\n      pop\n      jump\t// out\n        /* \"#utility.yul\":11256:11675   */\n    tag_211:\n        /* \"#utility.yul\":11422:11426   */\n      0x00\n        /* \"#utility.yul\":11460:11462   */\n      0x20\n        /* \"#utility.yul\":11449:11458   */\n      dup3\n        /* \"#utility.yul\":11445:11463   */\n      add\n        /* \"#utility.yul\":11437:11463   */\n      swap1\n      pop\n        /* \"#utility.yul\":11509:11518   */\n      dup2\n        /* \"#utility.yul\":11503:11507   */\n      dup2\n        /* \"#utility.yul\":11499:11519   */\n      sub\n        /* \"#utility.yul\":11495:11496   */\n      0x00\n        /* \"#utility.yul\":11484:11493   */\n      dup4\n        /* \"#utility.yul\":11480:11497   */\n      add\n        /* \"#utility.yul\":11473:11520   */\n      mstore\n        /* \"#utility.yul\":11537:11668   */\n      tag_373\n        /* \"#utility.yul\":11663:11667   */\n      dup2\n        /* \"#utility.yul\":11537:11668   */\n      tag_331\n      jump\t// in\n    tag_373:\n        /* \"#utility.yul\":11529:11668   */\n      swap1\n      pop\n        /* \"#utility.yul\":11256:11675   */\n      swap2\n      swap1\n      pop\n      jump\t// out\n        /* \"#utility.yul\":11681:11903   */\n    tag_36:\n        /* \"#utility.yul\":11774:11778   */\n      0x00\n        /* \"#utility.yul\":11812:11814   */\n      0x20\n        /* \"#utility.yul\":11801:11810   */\n      dup3\n        /* \"#utility.yul\":11797:11815   */\n      add\n        /* \"#utility.yul\":11789:11815   */\n      swap1\n      pop\n        /* \"#utility.yul\":11825:11896   */\n      tag_375\n        /* \"#utility.yul\":11893:11894   */\n      0x00\n        /* \"#utility.yul\":11882:11891   */\n      dup4\n        /* \"#utility.yul\":11878:11895   */\n      add\n        /* \"#utility.yul\":11869:11875   */\n      dup5\n        /* \"#utility.yul\":11825:11896   */\n      tag_336\n      jump\t// in\n    tag_375:\n        /* \"#utility.yul\":11681:11903   */\n      swap3\n      swap2\n      pop\n      pop\n      jump\t// out\n        /* \"#utility.yul\":11909:12339   */\n    tag_92:\n        /* \"#utility.yul\":12052:12056   */\n      0x00\n        /* \"#utility.yul\":12090:12092   */\n      0x60\n        /* \"#utility.yul\":12079:12088   */\n      dup3\n        /* \"#utility.yul\":12075:12093   */\n      add\n        /* \"#utility.yul\":12067:12093   */\n      swap1\n      pop\n        /* \"#utility.yul\":12103:12174   */\n      tag_377\n        /* \"#utility.yul\":12171:12172   */\n      0x00\n        /* \"#utility.yul\":12160:12169   */\n      dup4\n        /* \"#utility.yul\":12156:12173   */\n      add\n        /* \"#utility.yul\":12147:12153   */\n      dup7\n        /* \"#utility.yul\":12103:12174   */\n      tag_336\n      jump\t// in\n    tag_377:\n        /* \"#utility.yul\":12184:12256   */\n      tag_378\n        /* \"#utility.yul\":12252:12254   */\n      0x20\n        /* \"#utility.yul\":12241:12250   */\n      dup4\n        /* \"#utility.yul\":12237:12255   */\n      add\n        /* \"#utility.yul\":12228:12234   */\n      dup6\n        /* \"#utility.yul\":12184:12256   */\n      tag_336\n      jump\t// in\n    tag_378:\n        /* \"#utility.yul\":12266:12332   */\n      tag_379\n        /* \"#utility.yul\":12328:12330   */\n      0x40\n        /* \"#utility.yul\":12317:12326   */\n      dup4\n        /* \"#utility.yul\":12313:12331   */\n      add\n        /* \"#utility.yul\":12304:12310   */\n      dup5\n        /* \"#utility.yul\":12266:12332   */\n      tag_269\n      jump\t// in\n    tag_379:\n        /* \"#utility.yul\":11909:12339   */\n      swap5\n      swap4\n      pop\n      pop\n      pop\n      pop\n      jump\t// out\n        /* \"#utility.yul\":12426:12524   */\n    tag_276:\n        /* \"#utility.yul\":12477:12483   */\n      0x00\n        /* \"#utility.yul\":12511:12516   */\n      dup2\n        /* \"#utility.yul\":12505:12517   */\n      mload\n        /* \"#utility.yul\":12495:12517   */\n      swap1\n      pop\n        /* \"#utility.yul\":12426:12524   */\n      swap2\n      swap1\n      pop\n      jump\t// out\n        /* \"#utility.yul\":12530:12629   */\n    tag_284:\n        /* \"#utility.yul\":12582:12588   */\n      0x00\n        /* \"#utility.yul\":12616:12621   */\n      dup2\n        /* \"#utility.yul\":12610:12622   */\n      mload\n        /* \"#utility.yul\":12600:12622   */\n      swap1\n      pop\n        /* \"#utility.yul\":12530:12629   */\n      swap2\n      swap1\n      pop\n      jump\t// out\n        /* \"#utility.yul\":12635:12803   */\n    tag_323:\n        /* \"#utility.yul\":12718:12729   */\n      0x00\n        /* \"#utility.yul\":12752:12758   */\n      dup3\n        /* \"#utility.yul\":12747:12750   */\n      dup3\n        /* \"#utility.yul\":12740:12759   */\n      mstore\n        /* \"#utility.yul\":12792:12796   */\n      0x20\n        /* \"#utility.yul\":12787:12790   */\n      dup3\n        /* \"#utility.yul\":12783:12797   */\n      add\n        /* \"#utility.yul\":12768:12797   */\n      swap1\n      pop\n        /* \"#utility.yul\":12635:12803   */\n      swap3\n      swap2\n      pop\n      pop\n      jump\t// out\n        /* \"#utility.yul\":12809:12956   */\n    tag_278:\n        /* \"#utility.yul\":12910:12921   */\n      0x00\n        /* \"#utility.yul\":12947:12950   */\n      dup2\n        /* \"#utility.yul\":12932:12950   */\n      swap1\n      pop\n        /* \"#utility.yul\":12809:12956   */\n      swap3\n      swap2\n      pop\n      pop\n      jump\t// out\n        /* \"#utility.yul\":12962:13131   */\n    tag_286:\n        /* \"#utility.yul\":13046:13057   */\n      0x00\n        /* \"#utility.yul\":13080:13086   */\n      dup3\n        /* \"#utility.yul\":13075:13078   */\n      dup3\n        /* \"#utility.yul\":13068:13087   */\n      mstore\n        /* \"#utility.yul\":13120:13124   */\n      0x20\n        /* \"#utility.yul\":13115:13118   */\n      dup3\n        /* \"#utility.yul\":13111:13125   */\n      add\n        /* \"#utility.yul\":13096:13125   */\n      swap1\n      pop\n        /* \"#utility.yul\":12962:13131   */\n      swap3\n      swap2\n      pop\n      pop\n      jump\t// out\n        /* \"#utility.yul\":13137:13442   */\n    tag_116:\n        /* \"#utility.yul\":13177:13180   */\n      0x00\n        /* \"#utility.yul\":13196:13216   */\n      tag_388\n        /* \"#utility.yul\":13214:13215   */\n      dup3\n        /* \"#utility.yul\":13196:13216   */\n      tag_339\n      jump\t// in\n    tag_388:\n        /* \"#utility.yul\":13191:13216   */\n      swap2\n      pop\n        /* \"#utility.yul\":13230:13250   */\n      tag_389\n        /* \"#utility.yul\":13248:13249   */\n      dup4\n        /* \"#utility.yul\":13230:13250   */\n      tag_339\n      jump\t// in\n    tag_389:\n        /* \"#utility.yul\":13225:13250   */\n      swap3\n      pop\n        /* \"#utility.yul\":13384:13385   */\n      dup3\n        /* \"#utility.yul\":13316:13382   */\n      0xffffffffffffffffffffffffffffffffffffffffffffffffffffffffffffffff\n        /* \"#utility.yul\":13312:13386   */\n      sub\n        /* \"#utility.yul\":13309:13310   */\n      dup3\n        /* \"#utility.yul\":13306:13387   */\n      gt\n        /* \"#utility.yul\":13303:13410   */\n      iszero\n      tag_390\n      jumpi\n        /* \"#utility.yul\":13390:13408   */\n      tag_391\n      tag_392\n      jump\t// in\n    tag_391:\n        /* \"#utility.yul\":13303:13410   */\n    tag_390:\n        /* \"#utility.yul\":13434:13435   */\n      dup3\n        /* \"#utility.yul\":13431:13432   */\n      dup3\n        /* \"#utility.yul\":13427:13436   */\n      add\n        /* \"#utility.yul\":13420:13436   */\n      swap1\n      pop\n        /* \"#utility.yul\":13137:13442   */\n      swap3\n      swap2\n      pop\n      pop\n      jump\t// out\n        /* \"#utility.yul\":13448:13633   */\n    tag_160:\n        /* \"#utility.yul\":13488:13489   */\n      0x00\n        /* \"#utility.yul\":13505:13525   */\n      tag_394\n        /* \"#utility.yul\":13523:13524   */\n      dup3\n        /* \"#utility.yul\":13505:13525   */\n      tag_339\n      jump\t// in\n    tag_394:\n        /* \"#utility.yul\":13500:13525   */\n      swap2\n      pop\n        /* \"#utility.yul\":13539:13559   */\n      tag_395\n        /* \"#utility.yul\":13557:13558   */\n      dup4\n        /* \"#utility.yul\":13539:13559   */\n      tag_339\n      jump\t// in\n    tag_395:\n        /* \"#utility.yul\":13534:13559   */\n      swap3\n      pop\n        /* \"#utility.yul\":13578:13579   */\n      dup3\n        /* \"#utility.yul\":13568:13603   */\n      tag_396\n      jumpi\n        /* \"#utility.yul\":13583:13601   */\n      tag_397\n      tag_398\n      jump\t// in\n    tag_397:\n        /* \"#utility.yul\":13568:13603   */\n    tag_396:\n        /* \"#utility.yul\":13625:13626   */\n      dup3\n        /* \"#utility.yul\":13622:13623   */\n      dup3\n        /* \"#utility.yul\":13618:13627   */\n      div\n        /* \"#utility.yul\":13613:13627   */\n      swap1\n      pop\n        /* \"#utility.yul\":13448:13633   */\n      swap3\n      swap2\n      pop\n      pop\n      jump\t// out\n        /* \"#utility.yul\":13639:13987   */\n    tag_158:\n        /* \"#utility.yul\":13679:13686   */\n      0x00\n        /* \"#utility.yul\":13702:13722   */\n      tag_400\n        /* \"#utility.yul\":13720:13721   */\n      dup3\n        /* \"#utility.yul\":13702:13722   */\n      tag_339\n      jump\t// in\n    tag_400:\n        /* \"#utility.yul\":13697:13722   */\n      swap2\n      pop\n        /* \"#utility.yul\":13736:13756   */\n      tag_401\n        /* \"#utility.yul\":13754:13755   */\n      dup4\n        /* \"#utility.yul\":13736:13756   */\n      tag_339\n      jump\t// in\n    tag_401:\n        /* \"#utility.yul\":13731:13756   */\n      swap3\n      pop\n        /* \"#utility.yul\":13924:13925   */\n      dup2\n        /* \"#utility.yul\":13856:13922   */\n      0xffffffffffffffffffffffffffffffffffffffffffffffffffffffffffffffff\n        /* \"#utility.yul\":13852:13926   */\n      div\n        /* \"#utility.yul\":13849:13850   */\n      dup4\n        /* \"#utility.yul\":13846:13927   */\n      gt\n        /* \"#utility.yul\":13841:13842   */\n      dup3\n        /* \"#utility.yul\":13834:13843   */\n      iszero\n        /* \"#utility.yul\":13827:13844   */\n      iszero\n        /* \"#utility.yul\":13823:13928   */\n      and\n        /* \"#utility.yul\":13820:13951   */\n      iszero\n      tag_402\n      jumpi\n        /* \"#utility.yul\":13931:13949   */\n      tag_403\n      tag_392\n      jump\t// in\n    tag_403:\n        /* \"#utility.yul\":13820:13951   */\n    tag_402:\n        /* \"#utility.yul\":13979:13980   */\n      dup3\n        /* \"#utility.yul\":13976:13977   */\n      dup3\n        /* \"#utility.yul\":13972:13981   */\n      mul\n        /* \"#utility.yul\":13961:13981   */\n      swap1\n      pop\n        /* \"#utility.yul\":13639:13987   */\n      swap3\n      swap2\n      pop\n      pop\n      jump\t// out\n        /* \"#utility.yul\":13993:14184   */\n    tag_132:\n        /* \"#utility.yul\":14033:14037   */\n      0x00\n        /* \"#utility.yul\":14053:14073   */\n      tag_405\n        /* \"#utility.yul\":14071:14072   */\n      dup3\n        /* \"#utility.yul\":14053:14073   */\n      tag_339\n      jump\t// in\n    tag_405:\n        /* \"#utility.yul\":14048:14073   */\n      swap2\n      pop\n        /* \"#utility.yul\":14087:14107   */\n      tag_406\n        /* \"#utility.yul\":14105:14106   */\n      dup4\n        /* \"#utility.yul\":14087:14107   */\n      tag_339\n      jump\t// in\n    tag_406:\n        /* \"#utility.yul\":14082:14107   */\n      swap3\n      pop\n        /* \"#utility.yul\":14126:14127   */\n      dup3\n        /* \"#utility.yul\":14123:14124   */\n      dup3\n        /* \"#utility.yul\":14120:14128   */\n      lt\n        /* \"#utility.yul\":14117:14151   */\n      iszero\n      tag_407\n      jumpi\n        /* \"#utility.yul\":14131:14149   */\n      tag_408\n      tag_392\n      jump\t// in\n    tag_408:\n        /* \"#utility.yul\":14117:14151   */\n    tag_407:\n        /* \"#utility.yul\":14176:14177   */\n      dup3\n        /* \"#utility.yul\":14173:14174   */\n      dup3\n        /* \"#utility.yul\":14169:14178   */\n      sub\n        /* \"#utility.yul\":14161:14178   */\n      swap1\n      pop\n        /* \"#utility.yul\":13993:14184   */\n      swap3\n      swap2\n      pop\n      pop\n      jump\t// out\n        /* \"#utility.yul\":14190:14286   */\n    tag_268:\n        /* \"#utility.yul\":14227:14234   */\n      0x00\n        /* \"#utility.yul\":14256:14280   */\n      tag_410\n        /* \"#utility.yul\":14274:14279   */\n      dup3\n        /* \"#utility.yul\":14256:14280   */\n      tag_411\n      jump\t// in\n    tag_410:\n        /* \"#utility.yul\":14245:14280   */\n      swap1\n      pop\n        /* \"#utility.yul\":14190:14286   */\n      swap2\n      swap1\n      pop\n      jump\t// out\n        /* \"#utility.yul\":14292:14382   */\n    tag_272:\n        /* \"#utility.yul\":14326:14333   */\n      0x00\n        /* \"#utility.yul\":14369:14374   */\n      dup2\n        /* \"#utility.yul\":14362:14375   */\n      iszero\n        /* \"#utility.yul\":14355:14376   */\n      iszero\n        /* \"#utility.yul\":14344:14376   */\n      swap1\n      pop\n        /* \"#utility.yul\":14292:14382   */\n      swap2\n      swap1\n      pop\n      jump\t// out\n        /* \"#utility.yul\":14388:14514   */\n    tag_411:\n        /* \"#utility.yul\":14425:14432   */\n      0x00\n        /* \"#utility.yul\":14465:14507   */\n      0xffffffffffffffffffffffffffffffffffffffff\n        /* \"#utility.yul\":14458:14463   */\n      dup3\n        /* \"#utility.yul\":14454:14508   */\n      and\n        /* \"#utility.yul\":14443:14508   */\n      swap1\n      pop\n        /* \"#utility.yul\":14388:14514   */\n      swap2\n      swap1\n      pop\n      jump\t// out\n        /* \"#utility.yul\":14520:14597   */\n    tag_339:\n        /* \"#utility.yul\":14557:14564   */\n      0x00\n        /* \"#utility.yul\":14586:14591   */\n      dup2\n        /* \"#utility.yul\":14575:14591   */\n      swap1\n      pop\n        /* \"#utility.yul\":14520:14597   */\n      swap2\n      swap1\n      pop\n      jump\t// out\n        /* \"#utility.yul\":14603:14910   */\n    tag_280:\n        /* \"#utility.yul\":14671:14672   */\n      0x00\n        /* \"#utility.yul\":14681:14794   */\n    tag_416:\n        /* \"#utility.yul\":14695:14701   */\n      dup4\n        /* \"#utility.yul\":14692:14693   */\n      dup2\n        /* \"#utility.yul\":14689:14702   */\n      lt\n        /* \"#utility.yul\":14681:14794   */\n      iszero\n      tag_418\n      jumpi\n        /* \"#utility.yul\":14780:14781   */\n      dup1\n        /* \"#utility.yul\":14775:14778   */\n      dup3\n        /* \"#utility.yul\":14771:14782   */\n      add\n        /* \"#utility.yul\":14765:14783   */\n      mload\n        /* \"#utility.yul\":14761:14762   */\n      dup2\n        /* \"#utility.yul\":14756:14759   */\n      dup5\n        /* \"#utility.yul\":14752:14763   */\n      add\n        /* \"#utility.yul\":14745:14784   */\n      mstore\n        /* \"#utility.yul\":14717:14719   */\n      0x20\n        /* \"#utility.yul\":14714:14715   */\n      dup2\n        /* \"#utility.yul\":14710:14720   */\n      add\n        /* \"#utility.yul\":14705:14720   */\n      swap1\n      pop\n        /* \"#utility.yul\":14681:14794   */\n      jump(tag_416)\n    tag_418:\n        /* \"#utility.yul\":14812:14818   */\n      dup4\n        /* \"#utility.yul\":14809:14810   */\n      dup2\n        /* \"#utility.yul\":14806:14819   */\n      gt\n        /* \"#utility.yul\":14803:14904   */\n      iszero\n      tag_419\n      jumpi\n        /* \"#utility.yul\":14892:14893   */\n      0x00\n        /* \"#utility.yul\":14883:14889   */\n      dup5\n        /* \"#utility.yul\":14878:14881   */\n      dup5\n        /* \"#utility.yul\":14874:14890   */\n      add\n        /* \"#utility.yul\":14867:14894   */\n      mstore\n        /* \"#utility.yul\":14803:14904   */\n    tag_419:\n        /* \"#utility.yul\":14652:14910   */\n      pop\n        /* \"#utility.yul\":14603:14910   */\n      pop\n      pop\n      pop\n      jump\t// out\n        /* \"#utility.yul\":14916:15096   */\n    tag_392:\n        /* \"#utility.yul\":14964:15041   */\n      0x4e487b7100000000000000000000000000000000000000000000000000000000\n        /* \"#utility.yul\":14961:14962   */\n      0x00\n        /* \"#utility.yul\":14954:15042   */\n      mstore\n        /* \"#utility.yul\":15061:15065   */\n      0x11\n        /* \"#utility.yul\":15058:15059   */\n      0x04\n        /* \"#utility.yul\":15051:15066   */\n      mstore\n        /* \"#utility.yul\":15085:15089   */\n      0x24\n        /* \"#utility.yul\":15082:15083   */\n      0x00\n        /* \"#utility.yul\":15075:15090   */\n      revert\n        /* \"#utility.yul\":15102:15282   */\n    tag_398:\n        /* \"#utility.yul\":15150:15227   */\n      0x4e487b7100000000000000000000000000000000000000000000000000000000\n        /* \"#utility.yul\":15147:15148   */\n      0x00\n        /* \"#utility.yul\":15140:15228   */\n      mstore\n        /* \"#utility.yul\":15247:15251   */\n      0x12\n        /* \"#utility.yul\":15244:15245   */\n      0x04\n        /* \"#utility.yul\":15237:15252   */\n      mstore\n        /* \"#utility.yul\":15271:15275   */\n      0x24\n        /* \"#utility.yul\":15268:15269   */\n      0x00\n        /* \"#utility.yul\":15261:15276   */\n      revert\n        /* \"#utility.yul\":15411:15528   */\n    tag_255:\n        /* \"#utility.yul\":15520:15521   */\n      0x00\n        /* \"#utility.yul\":15517:15518   */\n      dup1\n        /* \"#utility.yul\":15510:15522   */\n      revert\n        /* \"#utility.yul\":15534:15636   */\n    tag_289:\n        /* \"#utility.yul\":15575:15581   */\n      0x00\n        /* \"#utility.yul\":15626:15628   */\n      0x1f\n        /* \"#utility.yul\":15622:15629   */\n      not\n        /* \"#utility.yul\":15617:15619   */\n      0x1f\n        /* \"#utility.yul\":15610:15615   */\n      dup4\n        /* \"#utility.yul\":15606:15620   */\n      add\n        /* \"#utility.yul\":15602:15630   */\n      and\n        /* \"#utility.yul\":15592:15630   */\n      swap1\n      pop\n        /* \"#utility.yul\":15534:15636   */\n      swap2\n      swap1\n      pop\n      jump\t// out\n        /* \"#utility.yul\":15642:15867   */\n    tag_294:\n        /* \"#utility.yul\":15782:15816   */\n      0x4f776e61626c653a206e6577206f776e657220697320746865207a65726f2061\n        /* \"#utility.yul\":15778:15779   */\n      0x00\n        /* \"#utility.yul\":15770:15776   */\n      dup3\n        /* \"#utility.yul\":15766:15780   */\n      add\n        /* \"#utility.yul\":15759:15817   */\n      mstore\n        /* \"#utility.yul\":15851:15859   */\n      0x6464726573730000000000000000000000000000000000000000000000000000\n        /* \"#utility.yul\":15846:15848   */\n      0x20\n        /* \"#utility.yul\":15838:15844   */\n      dup3\n        /* \"#utility.yul\":15834:15849   */\n      add\n        /* \"#utility.yul\":15827:15860   */\n      mstore\n        /* \"#utility.yul\":15642:15867   */\n      pop\n      jump\t// out\n        /* \"#utility.yul\":15873:16046   */\n    tag_299:\n        /* \"#utility.yul\":16013:16038   */\n      0x4f6e6c79204f776e65722063616e207472616e73666572000000000000000000\n        /* \"#utility.yul\":16009:16010   */\n      0x00\n        /* \"#utility.yul\":16001:16007   */\n      dup3\n        /* \"#utility.yul\":15997:16011   */\n      add\n        /* \"#utility.yul\":15990:16039   */\n      mstore\n        /* \"#utility.yul\":15873:16046   */\n      pop\n      jump\t// out\n        /* \"#utility.yul\":16052:16220   */\n    tag_304:\n        /* \"#utility.yul\":16192:16212   */\n      0x506c65617365204669727374205374616b650000000000000000000000000000\n        /* \"#utility.yul\":16188:16189   */\n      0x00\n        /* \"#utility.yul\":16180:16186   */\n      dup3\n        /* \"#utility.yul\":16176:16190   */\n      add\n        /* \"#utility.yul\":16169:16213   */\n      mstore\n        /* \"#utility.yul\":16052:16220   */\n      pop\n      jump\t// out\n        /* \"#utility.yul\":16226:16451   */\n    tag_309:\n        /* \"#utility.yul\":16366:16400   */\n      0x416464726573733a20696e73756666696369656e742062616c616e636520666f\n        /* \"#utility.yul\":16362:16363   */\n      0x00\n        /* \"#utility.yul\":16354:16360   */\n      dup3\n        /* \"#utility.yul\":16350:16364   */\n      add\n        /* \"#utility.yul\":16343:16401   */\n      mstore\n        /* \"#utility.yul\":16435:16443   */\n      0x722063616c6c0000000000000000000000000000000000000000000000000000\n        /* \"#utility.yul\":16430:16432   */\n      0x20\n        /* \"#utility.yul\":16422:16428   */\n      dup3\n        /* \"#utility.yul\":16418:16433   */\n      add\n        /* \"#utility.yul\":16411:16444   */\n      mstore\n        /* \"#utility.yul\":16226:16451   */\n      pop\n      jump\t// out\n        /* \"#utility.yul\":16457:16628   */\n    tag_314:\n        /* \"#utility.yul\":16597:16620   */\n      0x506c656173652046697273742057697468447261770000000000000000000000\n        /* \"#utility.yul\":16593:16594   */\n      0x00\n        /* \"#utility.yul\":16585:16591   */\n      dup3\n        /* \"#utility.yul\":16581:16595   */\n      add\n        /* \"#utility.yul\":16574:16621   */\n      mstore\n        /* \"#utility.yul\":16457:16628   */\n      pop\n      jump\t// out\n        /* \"#utility.yul\":16634:16816   */\n    tag_319:\n        /* \"#utility.yul\":16774:16808   */\n      0x4f776e61626c653a2063616c6c6572206973206e6f7420746865206f776e6572\n        /* \"#utility.yul\":16770:16771   */\n      0x00\n        /* \"#utility.yul\":16762:16768   */\n      dup3\n        /* \"#utility.yul\":16758:16772   */\n      add\n        /* \"#utility.yul\":16751:16809   */\n      mstore\n        /* \"#utility.yul\":16634:16816   */\n      pop\n      jump\t// out\n        /* \"#utility.yul\":16822:16936   */\n    tag_325:\n      pop\n      jump\t// out\n        /* \"#utility.yul\":16942:17121   */\n    tag_330:\n        /* \"#utility.yul\":17082:17113   */\n      0x416464726573733a2063616c6c20746f206e6f6e2d636f6e7472616374000000\n        /* \"#utility.yul\":17078:17079   */\n      0x00\n        /* \"#utility.yul\":17070:17076   */\n      dup3\n        /* \"#utility.yul\":17066:17080   */\n      add\n        /* \"#utility.yul\":17059:17114   */\n      mstore\n        /* \"#utility.yul\":16942:17121   */\n      pop\n      jump\t// out\n        /* \"#utility.yul\":17127:17356   */\n    tag_335:\n        /* \"#utility.yul\":17267:17301   */\n      0x5361666545524332303a204552433230206f7065726174696f6e20646964206e\n        /* \"#utility.yul\":17263:17264   */\n      0x00\n        /* \"#utility.yul\":17255:17261   */\n      dup3\n        /* \"#utility.yul\":17251:17265   */\n      add\n        /* \"#utility.yul\":17244:17302   */\n      mstore\n        /* \"#utility.yul\":17336:17348   */\n      0x6f74207375636365656400000000000000000000000000000000000000000000\n        /* \"#utility.yul\":17331:17333   */\n      0x20\n        /* \"#utility.yul\":17323:17329   */\n      dup3\n        /* \"#utility.yul\":17319:17334   */\n      add\n        /* \"#utility.yul\":17312:17349   */\n      mstore\n        /* \"#utility.yul\":17127:17356   */\n      pop\n      jump\t// out\n        /* \"#utility.yul\":17362:17484   */\n    tag_243:\n        /* \"#utility.yul\":17435:17459   */\n      tag_436\n        /* \"#utility.yul\":17453:17458   */\n      dup2\n        /* \"#utility.yul\":17435:17459   */\n      tag_268\n      jump\t// in\n    tag_436:\n        /* \"#utility.yul\":17428:17433   */\n      dup2\n        /* \"#utility.yul\":17425:17460   */\n      eq\n        /* \"#utility.yul\":17415:17478   */\n      tag_437\n      jumpi\n        /* \"#utility.yul\":17474:17475   */\n      0x00\n        /* \"#utility.yul\":17471:17472   */\n      dup1\n        /* \"#utility.yul\":17464:17476   */\n      revert\n        /* \"#utility.yul\":17415:17478   */\n    tag_437:\n        /* \"#utility.yul\":17362:17484   */\n      pop\n      jump\t// out\n        /* \"#utility.yul\":17490:17606   */\n    tag_247:\n        /* \"#utility.yul\":17560:17581   */\n      tag_439\n        /* \"#utility.yul\":17575:17580   */\n      dup2\n        /* \"#utility.yul\":17560:17581   */\n      tag_272\n      jump\t// in\n    tag_439:\n        /* \"#utility.yul\":17553:17558   */\n      dup2\n        /* \"#utility.yul\":17550:17582   */\n      eq\n        /* \"#utility.yul\":17540:17600   */\n      tag_440\n      jumpi\n        /* \"#utility.yul\":17596:17597   */\n      0x00\n        /* \"#utility.yul\":17593:17594   */\n      dup1\n        /* \"#utility.yul\":17586:17598   */\n      revert\n        /* \"#utility.yul\":17540:17600   */\n    tag_440:\n        /* \"#utility.yul\":17490:17606   */\n      pop\n      jump\t// out\n        /* \"#utility.yul\":17612:17734   */\n    tag_251:\n        /* \"#utility.yul\":17685:17709   */\n      tag_442\n        /* \"#utility.yul\":17703:17708   */\n      dup2\n        /* \"#utility.yul\":17685:17709   */\n      tag_339\n      jump\t// in\n    tag_442:\n        /* \"#utility.yul\":17678:17683   */\n      dup2\n        /* \"#utility.yul\":17675:17710   */\n      eq\n        /* \"#utility.yul\":17665:17728   */\n      tag_443\n      jumpi\n        /* \"#utility.yul\":17724:17725   */\n      0x00\n        /* \"#utility.yul\":17721:17722   */\n      dup1\n        /* \"#utility.yul\":17714:17726   */\n      revert\n        /* \"#utility.yul\":17665:17728   */\n    tag_443:\n        /* \"#utility.yul\":17612:17734   */\n      pop\n      jump\t// out\n\n    auxdata: 0xa264697066735822122019c71e7fc2839157191c0ee5817bd55948b514c885865186f97357dda09903f764736f6c63430008070033\n}\n",
				"bytecode": {
					"linkReferences": {},
					"object": "60806040523480156200001157600080fd5b506040516200213c3803806200213c833981810160405281019062000037919062000224565b620000576200004b6200012a60201b60201c565b6200013260201b60201c565b82600160006101000a81548173ffffffffffffffffffffffffffffffffffffffff021916908373ffffffffffffffffffffffffffffffffffffffff1602179055508160078190555080600360006101000a81548173ffffffffffffffffffffffffffffffffffffffff021916908373ffffffffffffffffffffffffffffffffffffffff16021790555033600260006101000a81548173ffffffffffffffffffffffffffffffffffffffff021916908373ffffffffffffffffffffffffffffffffffffffff160217905550505050620002f7565b600033905090565b60008060009054906101000a900473ffffffffffffffffffffffffffffffffffffffff169050816000806101000a81548173ffffffffffffffffffffffffffffffffffffffff021916908373ffffffffffffffffffffffffffffffffffffffff1602179055508173ffffffffffffffffffffffffffffffffffffffff168173ffffffffffffffffffffffffffffffffffffffff167f8be0079c531659141344cd1fd0a4f28419497f9722a3daafe3b4186f6b6457e060405160405180910390a35050565b6000815190506200020781620002c3565b92915050565b6000815190506200021e81620002dd565b92915050565b60008060006060848603121562000240576200023f620002be565b5b60006200025086828701620001f6565b935050602062000263868287016200020d565b92505060406200027686828701620001f6565b9150509250925092565b60006200028d8262000294565b9050919050565b600073ffffffffffffffffffffffffffffffffffffffff82169050919050565b6000819050919050565b600080fd5b620002ce8162000280565b8114620002da57600080fd5b50565b620002e881620002b4565b8114620002f457600080fd5b50565b611e3580620003076000396000f3fe608060405234801561001057600080fd5b506004361061014d5760003560e01c8063715018a6116100c3578063c3c917b01161007c578063c3c917b01461031c578063de9d3ddb1461033a578063e88cc2be14610358578063ee0106d21461038a578063f2fde38b146103a6578063f89d832f146103c25761014d565b8063715018a61461027e5780637b2f247f146102885780638da5cb5b146102a6578063a6021ace146102c4578063a88e132f146102e2578063b7171a2e146102fe5761014d565b80632c07f74f116101155780632c07f74f146101d05780632ffce210146101da5780634d6ce1e51461020a578063574880641461022657806357ea89b6146102565780635eb82e94146102605761014d565b8063023245d7146101525780630ccff6e91461016e57806310fd4fba1461018c578063144dc29c146101aa578063275bd33f146101b4575b600080fd5b61016c60048036038101906101679190611567565b6103de565b005b610176610472565b6040516101839190611964565b60405180910390f35b610194610478565b6040516101a1919061177d565b60405180910390f35b6101b261049e565b005b6101ce60048036038101906101c9919061150d565b61061e565b005b6101d861066a565b005b6101f460048036038101906101ef919061150d565b610833565b6040516102019190611964565b60405180910390f35b610224600480360381019061021f9190611567565b61084b565b005b610240600480360381019061023b919061150d565b6109e3565b60405161024d9190611964565b60405180910390f35b61025e6109fb565b005b610268610c47565b6040516102759190611964565b60405180910390f35b610286610c4d565b005b610290610c61565b60405161029d9190611964565b60405180910390f35b6102ae610ccf565b6040516102bb919061177d565b60405180910390f35b6102cc610cf8565b6040516102d9919061177d565b60405180910390f35b6102fc60048036038101906102f79190611567565b610d1e565b005b610306610de5565b604051610313919061177d565b60405180910390f35b610324610e0b565b6040516103319190611964565b60405180910390f35b610342610ed9565b60405161034f9190611964565b60405180910390f35b610372600480360381019061036d919061150d565b610edf565b6040516103819392919061197f565b60405180910390f35b6103a4600480360381019061039f919061150d565b610f16565b005b6103c060048036038101906103bb919061150d565b610f62565b005b6103dc60048036038101906103d79190611567565b610fe6565b005b600160009054906101000a900473ffffffffffffffffffffffffffffffffffffffff1673ffffffffffffffffffffffffffffffffffffffff1663b88d4fde3033846040518463ffffffff1660e01b815260040161043d939291906117cf565b600060405180830381600087803b15801561045757600080fd5b505af115801561046b573d6000803e3d6000fd5b5050505050565b60065481565b600260009054906101000a900473ffffffffffffffffffffffffffffffffffffffff1681565b6104a6610ff8565b600260009054906101000a900473ffffffffffffffffffffffffffffffffffffffff1673ffffffffffffffffffffffffffffffffffffffff163373ffffffffffffffffffffffffffffffffffffffff1614610536576040517f08c379a000000000000000000000000000000000000000000000000000000000815260040161052d90611884565b60405180910390fd5b612710600a60003373ffffffffffffffffffffffffffffffffffffffff1673ffffffffffffffffffffffffffffffffffffffff168152602001908152602001600020600082825461058791906119f9565b92505081905550612710600660008282546105a291906119f9565b9250508190555061061c33600360009054906101000a900473ffffffffffffffffffffffffffffffffffffffff16612710600360009054906101000a900473ffffffffffffffffffffffffffffffffffffffff1673ffffffffffffffffffffffffffffffffffffffff16611076909392919063ffffffff16565b565b610626610ff8565b80600360006101000a81548173ffffffffffffffffffffffffffffffffffffffff021916908373ffffffffffffffffffffffffffffffffffffffff16021790555050565b600360009054906101000a900473ffffffffffffffffffffffffffffffffffffffff1673ffffffffffffffffffffffffffffffffffffffff1663a9059cbb33600960003373ffffffffffffffffffffffffffffffffffffffff1673ffffffffffffffffffffffffffffffffffffffff168152602001908152602001600020546040518363ffffffff1660e01b8152600401610706929190611819565b602060405180830381600087803b15801561072057600080fd5b505af1158015610734573d6000803e3d6000fd5b505050506040513d601f19601f82011682018060405250810190610758919061153a565b50600960003373ffffffffffffffffffffffffffffffffffffffff1673ffffffffffffffffffffffffffffffffffffffff16815260200190815260200160002054600a60003373ffffffffffffffffffffffffffffffffffffffff1673ffffffffffffffffffffffffffffffffffffffff16815260200190815260200160002060008282546107e79190611ada565b92505081905550600960003373ffffffffffffffffffffffffffffffffffffffff1673ffffffffffffffffffffffffffffffffffffffff16815260200190815260200160002060009055565b600a6020528060005260406000206000915090505481565b600860003373ffffffffffffffffffffffffffffffffffffffff1673ffffffffffffffffffffffffffffffffffffffff16815260200190815260200160002060020160009054906101000a900460ff16156108db576040517f08c379a00000000000000000000000000000000000000000000000000000000081526004016108d2906118e4565b60405180910390fd5b604051806060016040528082815260200142815260200160011515815250600860003373ffffffffffffffffffffffffffffffffffffffff1673ffffffffffffffffffffffffffffffffffffffff168152602001908152602001600020600082015181600001556020820151816001015560408201518160020160006101000a81548160ff0219169083151502179055509050506109e033600360009054906101000a900473ffffffffffffffffffffffffffffffffffffffff1683600360009054906101000a900473ffffffffffffffffffffffffffffffffffffffff1673ffffffffffffffffffffffffffffffffffffffff16611076909392919063ffffffff16565b50565b60096020528060005260406000206000915090505481565b600860003373ffffffffffffffffffffffffffffffffffffffff1673ffffffffffffffffffffffffffffffffffffffff16815260200190815260200160002060020160009054906101000a900460ff16610a8a576040517f08c379a0000000000000000000000000000000000000000000000000000000008152600401610a81906118a4565b60405180910390fd5b6000600860003373ffffffffffffffffffffffffffffffffffffffff1673ffffffffffffffffffffffffffffffffffffffff168152602001908152602001600020600001549050610ad9610e0b565b600960003373ffffffffffffffffffffffffffffffffffffffff1673ffffffffffffffffffffffffffffffffffffffff1681526020019081526020016000206000828254610b2791906119f9565b92505081905550600360009054906101000a900473ffffffffffffffffffffffffffffffffffffffff1673ffffffffffffffffffffffffffffffffffffffff1663a9059cbb33836040518363ffffffff1660e01b8152600401610b8b929190611819565b602060405180830381600087803b158015610ba557600080fd5b505af1158015610bb9573d6000803e3d6000fd5b505050506040513d601f19601f82011682018060405250810190610bdd919061153a565b50600860003373ffffffffffffffffffffffffffffffffffffffff1673ffffffffffffffffffffffffffffffffffffffff16815260200190815260200160002060008082016000905560018201600090556002820160006101000a81549060ff0219169055505050565b60045481565b610c55610ff8565b610c5f60006110ff565b565b6000610c6b610ff8565b60006006546064600a60003373ffffffffffffffffffffffffffffffffffffffff1673ffffffffffffffffffffffffffffffffffffffff16815260200190815260200160002054610cbc9190611a80565b610cc69190611a4f565b90508091505090565b60008060009054906101000a900473ffffffffffffffffffffffffffffffffffffffff16905090565b600360009054906101000a900473ffffffffffffffffffffffffffffffffffffffff1681565b610d26610ff8565b80600a60003373ffffffffffffffffffffffffffffffffffffffff1673ffffffffffffffffffffffffffffffffffffffff1681526020019081526020016000206000828254610d759190611ada565b925050819055508060066000828254610d8e9190611ada565b92505081905550610de23382600360009054906101000a900473ffffffffffffffffffffffffffffffffffffffff1673ffffffffffffffffffffffffffffffffffffffff166111c39092919063ffffffff16565b50565b600160009054906101000a900473ffffffffffffffffffffffffffffffffffffffff1681565b600080600860003373ffffffffffffffffffffffffffffffffffffffff1673ffffffffffffffffffffffffffffffffffffffff1681526020019081526020016000206001015442610e5c9190611ada565b600754600860003373ffffffffffffffffffffffffffffffffffffffff1673ffffffffffffffffffffffffffffffffffffffff16815260200190815260200160002060000154610eac9190611a80565b610eb69190611a80565b9050600061177082610ec89190611a4f565b905042600581905550809250505090565b60055481565b60086020528060005260406000206000915090508060000154908060010154908060020160009054906101000a900460ff16905083565b610f1e610ff8565b80600160006101000a81548173ffffffffffffffffffffffffffffffffffffffff021916908373ffffffffffffffffffffffffffffffffffffffff16021790555050565b610f6a610ff8565b600073ffffffffffffffffffffffffffffffffffffffff168173ffffffffffffffffffffffffffffffffffffffff161415610fda576040517f08c379a0000000000000000000000000000000000000000000000000000000008152600401610fd190611864565b60405180910390fd5b610fe3816110ff565b50565b610fee610ff8565b8060078190555050565b611000611249565b73ffffffffffffffffffffffffffffffffffffffff1661101e610ccf565b73ffffffffffffffffffffffffffffffffffffffff1614611074576040517f08c379a000000000000000000000000000000000000000000000000000000000815260040161106b90611904565b60405180910390fd5b565b6110f9846323b872dd60e01b85858560405160240161109793929190611798565b604051602081830303815290604052907bffffffffffffffffffffffffffffffffffffffffffffffffffffffff19166020820180517bffffffffffffffffffffffffffffffffffffffffffffffffffffffff8381831617835250505050611251565b50505050565b60008060009054906101000a900473ffffffffffffffffffffffffffffffffffffffff169050816000806101000a81548173ffffffffffffffffffffffffffffffffffffffff021916908373ffffffffffffffffffffffffffffffffffffffff1602179055508173ffffffffffffffffffffffffffffffffffffffff168173ffffffffffffffffffffffffffffffffffffffff167f8be0079c531659141344cd1fd0a4f28419497f9722a3daafe3b4186f6b6457e060405160405180910390a35050565b6112448363a9059cbb60e01b84846040516024016111e2929190611819565b604051602081830303815290604052907bffffffffffffffffffffffffffffffffffffffffffffffffffffffff19166020820180517bffffffffffffffffffffffffffffffffffffffffffffffffffffffff8381831617835250505050611251565b505050565b600033905090565b60006112b3826040518060400160405280602081526020017f5361666545524332303a206c6f772d6c6576656c2063616c6c206661696c65648152508573ffffffffffffffffffffffffffffffffffffffff166113189092919063ffffffff16565b905060008151111561131357808060200190518101906112d3919061153a565b611312576040517f08c379a000000000000000000000000000000000000000000000000000000000815260040161130990611944565b60405180910390fd5b5b505050565b60606113278484600085611330565b90509392505050565b606082471015611375576040517f08c379a000000000000000000000000000000000000000000000000000000000815260040161136c906118c4565b60405180910390fd5b61137e85611444565b6113bd576040517f08c379a00000000000000000000000000000000000000000000000000000000081526004016113b490611924565b60405180910390fd5b6000808673ffffffffffffffffffffffffffffffffffffffff1685876040516113e69190611766565b60006040518083038185875af1925050503d8060008114611423576040519150601f19603f3d011682016040523d82523d6000602084013e611428565b606091505b5091509150611438828286611467565b92505050949350505050565b6000808273ffffffffffffffffffffffffffffffffffffffff163b119050919050565b60608315611477578290506114c7565b60008351111561148a5782518084602001fd5b816040517f08c379a00000000000000000000000000000000000000000000000000000000081526004016114be9190611842565b60405180910390fd5b9392505050565b6000813590506114dd81611dba565b92915050565b6000815190506114f281611dd1565b92915050565b60008135905061150781611de8565b92915050565b60006020828403121561152357611522611be7565b5b6000611531848285016114ce565b91505092915050565b6000602082840312156115505761154f611be7565b5b600061155e848285016114e3565b91505092915050565b60006020828403121561157d5761157c611be7565b5b600061158b848285016114f8565b91505092915050565b61159d81611b0e565b82525050565b6115ac81611b20565b82525050565b60006115bd826119b6565b6115c781856119dd565b93506115d7818560208601611b56565b80840191505092915050565b60006115ee826119c1565b6115f881856119e8565b9350611608818560208601611b56565b61161181611bec565b840191505092915050565b60006116296026836119e8565b915061163482611bfd565b604082019050919050565b600061164c6017836119e8565b915061165782611c4c565b602082019050919050565b600061166f6012836119e8565b915061167a82611c75565b602082019050919050565b60006116926026836119e8565b915061169d82611c9e565b604082019050919050565b60006116b56015836119e8565b91506116c082611ced565b602082019050919050565b60006116d86020836119e8565b91506116e382611d16565b602082019050919050565b60006116fb6000836119cc565b915061170682611d3f565b600082019050919050565b600061171e601d836119e8565b915061172982611d42565b602082019050919050565b6000611741602a836119e8565b915061174c82611d6b565b604082019050919050565b61176081611b4c565b82525050565b600061177282846115b2565b915081905092915050565b60006020820190506117926000830184611594565b92915050565b60006060820190506117ad6000830186611594565b6117ba6020830185611594565b6117c76040830184611757565b949350505050565b60006080820190506117e46000830186611594565b6117f16020830185611594565b6117fe6040830184611757565b818103606083015261180f816116ee565b9050949350505050565b600060408201905061182e6000830185611594565b61183b6020830184611757565b9392505050565b6000602082019050818103600083015261185c81846115e3565b905092915050565b6000602082019050818103600083015261187d8161161c565b9050919050565b6000602082019050818103600083015261189d8161163f565b9050919050565b600060208201905081810360008301526118bd81611662565b9050919050565b600060208201905081810360008301526118dd81611685565b9050919050565b600060208201905081810360008301526118fd816116a8565b9050919050565b6000602082019050818103600083015261191d816116cb565b9050919050565b6000602082019050818103600083015261193d81611711565b9050919050565b6000602082019050818103600083015261195d81611734565b9050919050565b60006020820190506119796000830184611757565b92915050565b60006060820190506119946000830186611757565b6119a16020830185611757565b6119ae60408301846115a3565b949350505050565b600081519050919050565b600081519050919050565b600082825260208201905092915050565b600081905092915050565b600082825260208201905092915050565b6000611a0482611b4c565b9150611a0f83611b4c565b9250827fffffffffffffffffffffffffffffffffffffffffffffffffffffffffffffffff03821115611a4457611a43611b89565b5b828201905092915050565b6000611a5a82611b4c565b9150611a6583611b4c565b925082611a7557611a74611bb8565b5b828204905092915050565b6000611a8b82611b4c565b9150611a9683611b4c565b9250817fffffffffffffffffffffffffffffffffffffffffffffffffffffffffffffffff0483118215151615611acf57611ace611b89565b5b828202905092915050565b6000611ae582611b4c565b9150611af083611b4c565b925082821015611b0357611b02611b89565b5b828203905092915050565b6000611b1982611b2c565b9050919050565b60008115159050919050565b600073ffffffffffffffffffffffffffffffffffffffff82169050919050565b6000819050919050565b60005b83811015611b74578082015181840152602081019050611b59565b83811115611b83576000848401525b50505050565b7f4e487b7100000000000000000000000000000000000000000000000000000000600052601160045260246000fd5b7f4e487b7100000000000000000000000000000000000000000000000000000000600052601260045260246000fd5b600080fd5b6000601f19601f8301169050919050565b7f4f776e61626c653a206e6577206f776e657220697320746865207a65726f206160008201527f6464726573730000000000000000000000000000000000000000000000000000602082015250565b7f4f6e6c79204f776e65722063616e207472616e73666572000000000000000000600082015250565b7f506c65617365204669727374205374616b650000000000000000000000000000600082015250565b7f416464726573733a20696e73756666696369656e742062616c616e636520666f60008201527f722063616c6c0000000000000000000000000000000000000000000000000000602082015250565b7f506c656173652046697273742057697468447261770000000000000000000000600082015250565b7f4f776e61626c653a2063616c6c6572206973206e6f7420746865206f776e6572600082015250565b50565b7f416464726573733a2063616c6c20746f206e6f6e2d636f6e7472616374000000600082015250565b7f5361666545524332303a204552433230206f7065726174696f6e20646964206e60008201527f6f74207375636365656400000000000000000000000000000000000000000000602082015250565b611dc381611b0e565b8114611dce57600080fd5b50565b611dda81611b20565b8114611de557600080fd5b50565b611df181611b4c565b8114611dfc57600080fd5b5056fea264697066735822122019c71e7fc2839157191c0ee5817bd55948b514c885865186f97357dda09903f764736f6c63430008070033",
					"opcodes": "PUSH1 0x80 PUSH1 0x40 MSTORE CALLVALUE DUP1 ISZERO PUSH3 0x11 JUMPI PUSH1 0x0 DUP1 REVERT JUMPDEST POP PUSH1 0x40 MLOAD PUSH3 0x213C CODESIZE SUB DUP1 PUSH3 0x213C DUP4 CODECOPY DUP2 DUP2 ADD PUSH1 0x40 MSTORE DUP2 ADD SWAP1 PUSH3 0x37 SWAP2 SWAP1 PUSH3 0x224 JUMP JUMPDEST PUSH3 0x57 PUSH3 0x4B PUSH3 0x12A PUSH1 0x20 SHL PUSH1 0x20 SHR JUMP JUMPDEST PUSH3 0x132 PUSH1 0x20 SHL PUSH1 0x20 SHR JUMP JUMPDEST DUP3 PUSH1 0x1 PUSH1 0x0 PUSH2 0x100 EXP DUP2 SLOAD DUP2 PUSH20 0xFFFFFFFFFFFFFFFFFFFFFFFFFFFFFFFFFFFFFFFF MUL NOT AND SWAP1 DUP4 PUSH20 0xFFFFFFFFFFFFFFFFFFFFFFFFFFFFFFFFFFFFFFFF AND MUL OR SWAP1 SSTORE POP DUP2 PUSH1 0x7 DUP2 SWAP1 SSTORE POP DUP1 PUSH1 0x3 PUSH1 0x0 PUSH2 0x100 EXP DUP2 SLOAD DUP2 PUSH20 0xFFFFFFFFFFFFFFFFFFFFFFFFFFFFFFFFFFFFFFFF MUL NOT AND SWAP1 DUP4 PUSH20 0xFFFFFFFFFFFFFFFFFFFFFFFFFFFFFFFFFFFFFFFF AND MUL OR SWAP1 SSTORE POP CALLER PUSH1 0x2 PUSH1 0x0 PUSH2 0x100 EXP DUP2 SLOAD DUP2 PUSH20 0xFFFFFFFFFFFFFFFFFFFFFFFFFFFFFFFFFFFFFFFF MUL NOT AND SWAP1 DUP4 PUSH20 0xFFFFFFFFFFFFFFFFFFFFFFFFFFFFFFFFFFFFFFFF AND MUL OR SWAP1 SSTORE POP POP POP POP PUSH3 0x2F7 JUMP JUMPDEST PUSH1 0x0 CALLER SWAP1 POP SWAP1 JUMP JUMPDEST PUSH1 0x0 DUP1 PUSH1 0x0 SWAP1 SLOAD SWAP1 PUSH2 0x100 EXP SWAP1 DIV PUSH20 0xFFFFFFFFFFFFFFFFFFFFFFFFFFFFFFFFFFFFFFFF AND SWAP1 POP DUP2 PUSH1 0x0 DUP1 PUSH2 0x100 EXP DUP2 SLOAD DUP2 PUSH20 0xFFFFFFFFFFFFFFFFFFFFFFFFFFFFFFFFFFFFFFFF MUL NOT AND SWAP1 DUP4 PUSH20 0xFFFFFFFFFFFFFFFFFFFFFFFFFFFFFFFFFFFFFFFF AND MUL OR SWAP1 SSTORE POP DUP2 PUSH20 0xFFFFFFFFFFFFFFFFFFFFFFFFFFFFFFFFFFFFFFFF AND DUP2 PUSH20 0xFFFFFFFFFFFFFFFFFFFFFFFFFFFFFFFFFFFFFFFF AND PUSH32 0x8BE0079C531659141344CD1FD0A4F28419497F9722A3DAAFE3B4186F6B6457E0 PUSH1 0x40 MLOAD PUSH1 0x40 MLOAD DUP1 SWAP2 SUB SWAP1 LOG3 POP POP JUMP JUMPDEST PUSH1 0x0 DUP2 MLOAD SWAP1 POP PUSH3 0x207 DUP2 PUSH3 0x2C3 JUMP JUMPDEST SWAP3 SWAP2 POP POP JUMP JUMPDEST PUSH1 0x0 DUP2 MLOAD SWAP1 POP PUSH3 0x21E DUP2 PUSH3 0x2DD JUMP JUMPDEST SWAP3 SWAP2 POP POP JUMP JUMPDEST PUSH1 0x0 DUP1 PUSH1 0x0 PUSH1 0x60 DUP5 DUP7 SUB SLT ISZERO PUSH3 0x240 JUMPI PUSH3 0x23F PUSH3 0x2BE JUMP JUMPDEST JUMPDEST PUSH1 0x0 PUSH3 0x250 DUP7 DUP3 DUP8 ADD PUSH3 0x1F6 JUMP JUMPDEST SWAP4 POP POP PUSH1 0x20 PUSH3 0x263 DUP7 DUP3 DUP8 ADD PUSH3 0x20D JUMP JUMPDEST SWAP3 POP POP PUSH1 0x40 PUSH3 0x276 DUP7 DUP3 DUP8 ADD PUSH3 0x1F6 JUMP JUMPDEST SWAP2 POP POP SWAP3 POP SWAP3 POP SWAP3 JUMP JUMPDEST PUSH1 0x0 PUSH3 0x28D DUP3 PUSH3 0x294 JUMP JUMPDEST SWAP1 POP SWAP2 SWAP1 POP JUMP JUMPDEST PUSH1 0x0 PUSH20 0xFFFFFFFFFFFFFFFFFFFFFFFFFFFFFFFFFFFFFFFF DUP3 AND SWAP1 POP SWAP2 SWAP1 POP JUMP JUMPDEST PUSH1 0x0 DUP2 SWAP1 POP SWAP2 SWAP1 POP JUMP JUMPDEST PUSH1 0x0 DUP1 REVERT JUMPDEST PUSH3 0x2CE DUP2 PUSH3 0x280 JUMP JUMPDEST DUP2 EQ PUSH3 0x2DA JUMPI PUSH1 0x0 DUP1 REVERT JUMPDEST POP JUMP JUMPDEST PUSH3 0x2E8 DUP2 PUSH3 0x2B4 JUMP JUMPDEST DUP2 EQ PUSH3 0x2F4 JUMPI PUSH1 0x0 DUP1 REVERT JUMPDEST POP JUMP JUMPDEST PUSH2 0x1E35 DUP1 PUSH3 0x307 PUSH1 0x0 CODECOPY PUSH1 0x0 RETURN INVALID PUSH1 0x80 PUSH1 0x40 MSTORE CALLVALUE DUP1 ISZERO PUSH2 0x10 JUMPI PUSH1 0x0 DUP1 REVERT JUMPDEST POP PUSH1 0x4 CALLDATASIZE LT PUSH2 0x14D JUMPI PUSH1 0x0 CALLDATALOAD PUSH1 0xE0 SHR DUP1 PUSH4 0x715018A6 GT PUSH2 0xC3 JUMPI DUP1 PUSH4 0xC3C917B0 GT PUSH2 0x7C JUMPI DUP1 PUSH4 0xC3C917B0 EQ PUSH2 0x31C JUMPI DUP1 PUSH4 0xDE9D3DDB EQ PUSH2 0x33A JUMPI DUP1 PUSH4 0xE88CC2BE EQ PUSH2 0x358 JUMPI DUP1 PUSH4 0xEE0106D2 EQ PUSH2 0x38A JUMPI DUP1 PUSH4 0xF2FDE38B EQ PUSH2 0x3A6 JUMPI DUP1 PUSH4 0xF89D832F EQ PUSH2 0x3C2 JUMPI PUSH2 0x14D JUMP JUMPDEST DUP1 PUSH4 0x715018A6 EQ PUSH2 0x27E JUMPI DUP1 PUSH4 0x7B2F247F EQ PUSH2 0x288 JUMPI DUP1 PUSH4 0x8DA5CB5B EQ PUSH2 0x2A6 JUMPI DUP1 PUSH4 0xA6021ACE EQ PUSH2 0x2C4 JUMPI DUP1 PUSH4 0xA88E132F EQ PUSH2 0x2E2 JUMPI DUP1 PUSH4 0xB7171A2E EQ PUSH2 0x2FE JUMPI PUSH2 0x14D JUMP JUMPDEST DUP1 PUSH4 0x2C07F74F GT PUSH2 0x115 JUMPI DUP1 PUSH4 0x2C07F74F EQ PUSH2 0x1D0 JUMPI DUP1 PUSH4 0x2FFCE210 EQ PUSH2 0x1DA JUMPI DUP1 PUSH4 0x4D6CE1E5 EQ PUSH2 0x20A JUMPI DUP1 PUSH4 0x57488064 EQ PUSH2 0x226 JUMPI DUP1 PUSH4 0x57EA89B6 EQ PUSH2 0x256 JUMPI DUP1 PUSH4 0x5EB82E94 EQ PUSH2 0x260 JUMPI PUSH2 0x14D JUMP JUMPDEST DUP1 PUSH4 0x23245D7 EQ PUSH2 0x152 JUMPI DUP1 PUSH4 0xCCFF6E9 EQ PUSH2 0x16E JUMPI DUP1 PUSH4 0x10FD4FBA EQ PUSH2 0x18C JUMPI DUP1 PUSH4 0x144DC29C EQ PUSH2 0x1AA JUMPI DUP1 PUSH4 0x275BD33F EQ PUSH2 0x1B4 JUMPI JUMPDEST PUSH1 0x0 DUP1 REVERT JUMPDEST PUSH2 0x16C PUSH1 0x4 DUP1 CALLDATASIZE SUB DUP2 ADD SWAP1 PUSH2 0x167 SWAP2 SWAP1 PUSH2 0x1567 JUMP JUMPDEST PUSH2 0x3DE JUMP JUMPDEST STOP JUMPDEST PUSH2 0x176 PUSH2 0x472 JUMP JUMPDEST PUSH1 0x40 MLOAD PUSH2 0x183 SWAP2 SWAP1 PUSH2 0x1964 JUMP JUMPDEST PUSH1 0x40 MLOAD DUP1 SWAP2 SUB SWAP1 RETURN JUMPDEST PUSH2 0x194 PUSH2 0x478 JUMP JUMPDEST PUSH1 0x40 MLOAD PUSH2 0x1A1 SWAP2 SWAP1 PUSH2 0x177D JUMP JUMPDEST PUSH1 0x40 MLOAD DUP1 SWAP2 SUB SWAP1 RETURN JUMPDEST PUSH2 0x1B2 PUSH2 0x49E JUMP JUMPDEST STOP JUMPDEST PUSH2 0x1CE PUSH1 0x4 DUP1 CALLDATASIZE SUB DUP2 ADD SWAP1 PUSH2 0x1C9 SWAP2 SWAP1 PUSH2 0x150D JUMP JUMPDEST PUSH2 0x61E JUMP JUMPDEST STOP JUMPDEST PUSH2 0x1D8 PUSH2 0x66A JUMP JUMPDEST STOP JUMPDEST PUSH2 0x1F4 PUSH1 0x4 DUP1 CALLDATASIZE SUB DUP2 ADD SWAP1 PUSH2 0x1EF SWAP2 SWAP1 PUSH2 0x150D JUMP JUMPDEST PUSH2 0x833 JUMP JUMPDEST PUSH1 0x40 MLOAD PUSH2 0x201 SWAP2 SWAP1 PUSH2 0x1964 JUMP JUMPDEST PUSH1 0x40 MLOAD DUP1 SWAP2 SUB SWAP1 RETURN JUMPDEST PUSH2 0x224 PUSH1 0x4 DUP1 CALLDATASIZE SUB DUP2 ADD SWAP1 PUSH2 0x21F SWAP2 SWAP1 PUSH2 0x1567 JUMP JUMPDEST PUSH2 0x84B JUMP JUMPDEST STOP JUMPDEST PUSH2 0x240 PUSH1 0x4 DUP1 CALLDATASIZE SUB DUP2 ADD SWAP1 PUSH2 0x23B SWAP2 SWAP1 PUSH2 0x150D JUMP JUMPDEST PUSH2 0x9E3 JUMP JUMPDEST PUSH1 0x40 MLOAD PUSH2 0x24D SWAP2 SWAP1 PUSH2 0x1964 JUMP JUMPDEST PUSH1 0x40 MLOAD DUP1 SWAP2 SUB SWAP1 RETURN JUMPDEST PUSH2 0x25E PUSH2 0x9FB JUMP JUMPDEST STOP JUMPDEST PUSH2 0x268 PUSH2 0xC47 JUMP JUMPDEST PUSH1 0x40 MLOAD PUSH2 0x275 SWAP2 SWAP1 PUSH2 0x1964 JUMP JUMPDEST PUSH1 0x40 MLOAD DUP1 SWAP2 SUB SWAP1 RETURN JUMPDEST PUSH2 0x286 PUSH2 0xC4D JUMP JUMPDEST STOP JUMPDEST PUSH2 0x290 PUSH2 0xC61 JUMP JUMPDEST PUSH1 0x40 MLOAD PUSH2 0x29D SWAP2 SWAP1 PUSH2 0x1964 JUMP JUMPDEST PUSH1 0x40 MLOAD DUP1 SWAP2 SUB SWAP1 RETURN JUMPDEST PUSH2 0x2AE PUSH2 0xCCF JUMP JUMPDEST PUSH1 0x40 MLOAD PUSH2 0x2BB SWAP2 SWAP1 PUSH2 0x177D JUMP JUMPDEST PUSH1 0x40 MLOAD DUP1 SWAP2 SUB SWAP1 RETURN JUMPDEST PUSH2 0x2CC PUSH2 0xCF8 JUMP JUMPDEST PUSH1 0x40 MLOAD PUSH2 0x2D9 SWAP2 SWAP1 PUSH2 0x177D JUMP JUMPDEST PUSH1 0x40 MLOAD DUP1 SWAP2 SUB SWAP1 RETURN JUMPDEST PUSH2 0x2FC PUSH1 0x4 DUP1 CALLDATASIZE SUB DUP2 ADD SWAP1 PUSH2 0x2F7 SWAP2 SWAP1 PUSH2 0x1567 JUMP JUMPDEST PUSH2 0xD1E JUMP JUMPDEST STOP JUMPDEST PUSH2 0x306 PUSH2 0xDE5 JUMP JUMPDEST PUSH1 0x40 MLOAD PUSH2 0x313 SWAP2 SWAP1 PUSH2 0x177D JUMP JUMPDEST PUSH1 0x40 MLOAD DUP1 SWAP2 SUB SWAP1 RETURN JUMPDEST PUSH2 0x324 PUSH2 0xE0B JUMP JUMPDEST PUSH1 0x40 MLOAD PUSH2 0x331 SWAP2 SWAP1 PUSH2 0x1964 JUMP JUMPDEST PUSH1 0x40 MLOAD DUP1 SWAP2 SUB SWAP1 RETURN JUMPDEST PUSH2 0x342 PUSH2 0xED9 JUMP JUMPDEST PUSH1 0x40 MLOAD PUSH2 0x34F SWAP2 SWAP1 PUSH2 0x1964 JUMP JUMPDEST PUSH1 0x40 MLOAD DUP1 SWAP2 SUB SWAP1 RETURN JUMPDEST PUSH2 0x372 PUSH1 0x4 DUP1 CALLDATASIZE SUB DUP2 ADD SWAP1 PUSH2 0x36D SWAP2 SWAP1 PUSH2 0x150D JUMP JUMPDEST PUSH2 0xEDF JUMP JUMPDEST PUSH1 0x40 MLOAD PUSH2 0x381 SWAP4 SWAP3 SWAP2 SWAP1 PUSH2 0x197F JUMP JUMPDEST PUSH1 0x40 MLOAD DUP1 SWAP2 SUB SWAP1 RETURN JUMPDEST PUSH2 0x3A4 PUSH1 0x4 DUP1 CALLDATASIZE SUB DUP2 ADD SWAP1 PUSH2 0x39F SWAP2 SWAP1 PUSH2 0x150D JUMP JUMPDEST PUSH2 0xF16 JUMP JUMPDEST STOP JUMPDEST PUSH2 0x3C0 PUSH1 0x4 DUP1 CALLDATASIZE SUB DUP2 ADD SWAP1 PUSH2 0x3BB SWAP2 SWAP1 PUSH2 0x150D JUMP JUMPDEST PUSH2 0xF62 JUMP JUMPDEST STOP JUMPDEST PUSH2 0x3DC PUSH1 0x4 DUP1 CALLDATASIZE SUB DUP2 ADD SWAP1 PUSH2 0x3D7 SWAP2 SWAP1 PUSH2 0x1567 JUMP JUMPDEST PUSH2 0xFE6 JUMP JUMPDEST STOP JUMPDEST PUSH1 0x1 PUSH1 0x0 SWAP1 SLOAD SWAP1 PUSH2 0x100 EXP SWAP1 DIV PUSH20 0xFFFFFFFFFFFFFFFFFFFFFFFFFFFFFFFFFFFFFFFF AND PUSH20 0xFFFFFFFFFFFFFFFFFFFFFFFFFFFFFFFFFFFFFFFF AND PUSH4 0xB88D4FDE ADDRESS CALLER DUP5 PUSH1 0x40 MLOAD DUP5 PUSH4 0xFFFFFFFF AND PUSH1 0xE0 SHL DUP2 MSTORE PUSH1 0x4 ADD PUSH2 0x43D SWAP4 SWAP3 SWAP2 SWAP1 PUSH2 0x17CF JUMP JUMPDEST PUSH1 0x0 PUSH1 0x40 MLOAD DUP1 DUP4 SUB DUP2 PUSH1 0x0 DUP8 DUP1 EXTCODESIZE ISZERO DUP1 ISZERO PUSH2 0x457 JUMPI PUSH1 0x0 DUP1 REVERT JUMPDEST POP GAS CALL ISZERO DUP1 ISZERO PUSH2 0x46B JUMPI RETURNDATASIZE PUSH1 0x0 DUP1 RETURNDATACOPY RETURNDATASIZE PUSH1 0x0 REVERT JUMPDEST POP POP POP POP POP JUMP JUMPDEST PUSH1 0x6 SLOAD DUP2 JUMP JUMPDEST PUSH1 0x2 PUSH1 0x0 SWAP1 SLOAD SWAP1 PUSH2 0x100 EXP SWAP1 DIV PUSH20 0xFFFFFFFFFFFFFFFFFFFFFFFFFFFFFFFFFFFFFFFF AND DUP2 JUMP JUMPDEST PUSH2 0x4A6 PUSH2 0xFF8 JUMP JUMPDEST PUSH1 0x2 PUSH1 0x0 SWAP1 SLOAD SWAP1 PUSH2 0x100 EXP SWAP1 DIV PUSH20 0xFFFFFFFFFFFFFFFFFFFFFFFFFFFFFFFFFFFFFFFF AND PUSH20 0xFFFFFFFFFFFFFFFFFFFFFFFFFFFFFFFFFFFFFFFF AND CALLER PUSH20 0xFFFFFFFFFFFFFFFFFFFFFFFFFFFFFFFFFFFFFFFF AND EQ PUSH2 0x536 JUMPI PUSH1 0x40 MLOAD PUSH32 0x8C379A000000000000000000000000000000000000000000000000000000000 DUP2 MSTORE PUSH1 0x4 ADD PUSH2 0x52D SWAP1 PUSH2 0x1884 JUMP JUMPDEST PUSH1 0x40 MLOAD DUP1 SWAP2 SUB SWAP1 REVERT JUMPDEST PUSH2 0x2710 PUSH1 0xA PUSH1 0x0 CALLER PUSH20 0xFFFFFFFFFFFFFFFFFFFFFFFFFFFFFFFFFFFFFFFF AND PUSH20 0xFFFFFFFFFFFFFFFFFFFFFFFFFFFFFFFFFFFFFFFF AND DUP2 MSTORE PUSH1 0x20 ADD SWAP1 DUP2 MSTORE PUSH1 0x20 ADD PUSH1 0x0 KECCAK256 PUSH1 0x0 DUP3 DUP3 SLOAD PUSH2 0x587 SWAP2 SWAP1 PUSH2 0x19F9 JUMP JUMPDEST SWAP3 POP POP DUP2 SWAP1 SSTORE POP PUSH2 0x2710 PUSH1 0x6 PUSH1 0x0 DUP3 DUP3 SLOAD PUSH2 0x5A2 SWAP2 SWAP1 PUSH2 0x19F9 JUMP JUMPDEST SWAP3 POP POP DUP2 SWAP1 SSTORE POP PUSH2 0x61C CALLER PUSH1 0x3 PUSH1 0x0 SWAP1 SLOAD SWAP1 PUSH2 0x100 EXP SWAP1 DIV PUSH20 0xFFFFFFFFFFFFFFFFFFFFFFFFFFFFFFFFFFFFFFFF AND PUSH2 0x2710 PUSH1 0x3 PUSH1 0x0 SWAP1 SLOAD SWAP1 PUSH2 0x100 EXP SWAP1 DIV PUSH20 0xFFFFFFFFFFFFFFFFFFFFFFFFFFFFFFFFFFFFFFFF AND PUSH20 0xFFFFFFFFFFFFFFFFFFFFFFFFFFFFFFFFFFFFFFFF AND PUSH2 0x1076 SWAP1 SWAP4 SWAP3 SWAP2 SWAP1 PUSH4 0xFFFFFFFF AND JUMP JUMPDEST JUMP JUMPDEST PUSH2 0x626 PUSH2 0xFF8 JUMP JUMPDEST DUP1 PUSH1 0x3 PUSH1 0x0 PUSH2 0x100 EXP DUP2 SLOAD DUP2 PUSH20 0xFFFFFFFFFFFFFFFFFFFFFFFFFFFFFFFFFFFFFFFF MUL NOT AND SWAP1 DUP4 PUSH20 0xFFFFFFFFFFFFFFFFFFFFFFFFFFFFFFFFFFFFFFFF AND MUL OR SWAP1 SSTORE POP POP JUMP JUMPDEST PUSH1 0x3 PUSH1 0x0 SWAP1 SLOAD SWAP1 PUSH2 0x100 EXP SWAP1 DIV PUSH20 0xFFFFFFFFFFFFFFFFFFFFFFFFFFFFFFFFFFFFFFFF AND PUSH20 0xFFFFFFFFFFFFFFFFFFFFFFFFFFFFFFFFFFFFFFFF AND PUSH4 0xA9059CBB CALLER PUSH1 0x9 PUSH1 0x0 CALLER PUSH20 0xFFFFFFFFFFFFFFFFFFFFFFFFFFFFFFFFFFFFFFFF AND PUSH20 0xFFFFFFFFFFFFFFFFFFFFFFFFFFFFFFFFFFFFFFFF AND DUP2 MSTORE PUSH1 0x20 ADD SWAP1 DUP2 MSTORE PUSH1 0x20 ADD PUSH1 0x0 KECCAK256 SLOAD PUSH1 0x40 MLOAD DUP4 PUSH4 0xFFFFFFFF AND PUSH1 0xE0 SHL DUP2 MSTORE PUSH1 0x4 ADD PUSH2 0x706 SWAP3 SWAP2 SWAP1 PUSH2 0x1819 JUMP JUMPDEST PUSH1 0x20 PUSH1 0x40 MLOAD DUP1 DUP4 SUB DUP2 PUSH1 0x0 DUP8 DUP1 EXTCODESIZE ISZERO DUP1 ISZERO PUSH2 0x720 JUMPI PUSH1 0x0 DUP1 REVERT JUMPDEST POP GAS CALL ISZERO DUP1 ISZERO PUSH2 0x734 JUMPI RETURNDATASIZE PUSH1 0x0 DUP1 RETURNDATACOPY RETURNDATASIZE PUSH1 0x0 REVERT JUMPDEST POP POP POP POP PUSH1 0x40 MLOAD RETURNDATASIZE PUSH1 0x1F NOT PUSH1 0x1F DUP3 ADD AND DUP3 ADD DUP1 PUSH1 0x40 MSTORE POP DUP2 ADD SWAP1 PUSH2 0x758 SWAP2 SWAP1 PUSH2 0x153A JUMP JUMPDEST POP PUSH1 0x9 PUSH1 0x0 CALLER PUSH20 0xFFFFFFFFFFFFFFFFFFFFFFFFFFFFFFFFFFFFFFFF AND PUSH20 0xFFFFFFFFFFFFFFFFFFFFFFFFFFFFFFFFFFFFFFFF AND DUP2 MSTORE PUSH1 0x20 ADD SWAP1 DUP2 MSTORE PUSH1 0x20 ADD PUSH1 0x0 KECCAK256 SLOAD PUSH1 0xA PUSH1 0x0 CALLER PUSH20 0xFFFFFFFFFFFFFFFFFFFFFFFFFFFFFFFFFFFFFFFF AND PUSH20 0xFFFFFFFFFFFFFFFFFFFFFFFFFFFFFFFFFFFFFFFF AND DUP2 MSTORE PUSH1 0x20 ADD SWAP1 DUP2 MSTORE PUSH1 0x20 ADD PUSH1 0x0 KECCAK256 PUSH1 0x0 DUP3 DUP3 SLOAD PUSH2 0x7E7 SWAP2 SWAP1 PUSH2 0x1ADA JUMP JUMPDEST SWAP3 POP POP DUP2 SWAP1 SSTORE POP PUSH1 0x9 PUSH1 0x0 CALLER PUSH20 0xFFFFFFFFFFFFFFFFFFFFFFFFFFFFFFFFFFFFFFFF AND PUSH20 0xFFFFFFFFFFFFFFFFFFFFFFFFFFFFFFFFFFFFFFFF AND DUP2 MSTORE PUSH1 0x20 ADD SWAP1 DUP2 MSTORE PUSH1 0x20 ADD PUSH1 0x0 KECCAK256 PUSH1 0x0 SWAP1 SSTORE JUMP JUMPDEST PUSH1 0xA PUSH1 0x20 MSTORE DUP1 PUSH1 0x0 MSTORE PUSH1 0x40 PUSH1 0x0 KECCAK256 PUSH1 0x0 SWAP2 POP SWAP1 POP SLOAD DUP2 JUMP JUMPDEST PUSH1 0x8 PUSH1 0x0 CALLER PUSH20 0xFFFFFFFFFFFFFFFFFFFFFFFFFFFFFFFFFFFFFFFF AND PUSH20 0xFFFFFFFFFFFFFFFFFFFFFFFFFFFFFFFFFFFFFFFF AND DUP2 MSTORE PUSH1 0x20 ADD SWAP1 DUP2 MSTORE PUSH1 0x20 ADD PUSH1 0x0 KECCAK256 PUSH1 0x2 ADD PUSH1 0x0 SWAP1 SLOAD SWAP1 PUSH2 0x100 EXP SWAP1 DIV PUSH1 0xFF AND ISZERO PUSH2 0x8DB JUMPI PUSH1 0x40 MLOAD PUSH32 0x8C379A000000000000000000000000000000000000000000000000000000000 DUP2 MSTORE PUSH1 0x4 ADD PUSH2 0x8D2 SWAP1 PUSH2 0x18E4 JUMP JUMPDEST PUSH1 0x40 MLOAD DUP1 SWAP2 SUB SWAP1 REVERT JUMPDEST PUSH1 0x40 MLOAD DUP1 PUSH1 0x60 ADD PUSH1 0x40 MSTORE DUP1 DUP3 DUP2 MSTORE PUSH1 0x20 ADD TIMESTAMP DUP2 MSTORE PUSH1 0x20 ADD PUSH1 0x1 ISZERO ISZERO DUP2 MSTORE POP PUSH1 0x8 PUSH1 0x0 CALLER PUSH20 0xFFFFFFFFFFFFFFFFFFFFFFFFFFFFFFFFFFFFFFFF AND PUSH20 0xFFFFFFFFFFFFFFFFFFFFFFFFFFFFFFFFFFFFFFFF AND DUP2 MSTORE PUSH1 0x20 ADD SWAP1 DUP2 MSTORE PUSH1 0x20 ADD PUSH1 0x0 KECCAK256 PUSH1 0x0 DUP3 ADD MLOAD DUP2 PUSH1 0x0 ADD SSTORE PUSH1 0x20 DUP3 ADD MLOAD DUP2 PUSH1 0x1 ADD SSTORE PUSH1 0x40 DUP3 ADD MLOAD DUP2 PUSH1 0x2 ADD PUSH1 0x0 PUSH2 0x100 EXP DUP2 SLOAD DUP2 PUSH1 0xFF MUL NOT AND SWAP1 DUP4 ISZERO ISZERO MUL OR SWAP1 SSTORE POP SWAP1 POP POP PUSH2 0x9E0 CALLER PUSH1 0x3 PUSH1 0x0 SWAP1 SLOAD SWAP1 PUSH2 0x100 EXP SWAP1 DIV PUSH20 0xFFFFFFFFFFFFFFFFFFFFFFFFFFFFFFFFFFFFFFFF AND DUP4 PUSH1 0x3 PUSH1 0x0 SWAP1 SLOAD SWAP1 PUSH2 0x100 EXP SWAP1 DIV PUSH20 0xFFFFFFFFFFFFFFFFFFFFFFFFFFFFFFFFFFFFFFFF AND PUSH20 0xFFFFFFFFFFFFFFFFFFFFFFFFFFFFFFFFFFFFFFFF AND PUSH2 0x1076 SWAP1 SWAP4 SWAP3 SWAP2 SWAP1 PUSH4 0xFFFFFFFF AND JUMP JUMPDEST POP JUMP JUMPDEST PUSH1 0x9 PUSH1 0x20 MSTORE DUP1 PUSH1 0x0 MSTORE PUSH1 0x40 PUSH1 0x0 KECCAK256 PUSH1 0x0 SWAP2 POP SWAP1 POP SLOAD DUP2 JUMP JUMPDEST PUSH1 0x8 PUSH1 0x0 CALLER PUSH20 0xFFFFFFFFFFFFFFFFFFFFFFFFFFFFFFFFFFFFFFFF AND PUSH20 0xFFFFFFFFFFFFFFFFFFFFFFFFFFFFFFFFFFFFFFFF AND DUP2 MSTORE PUSH1 0x20 ADD SWAP1 DUP2 MSTORE PUSH1 0x20 ADD PUSH1 0x0 KECCAK256 PUSH1 0x2 ADD PUSH1 0x0 SWAP1 SLOAD SWAP1 PUSH2 0x100 EXP SWAP1 DIV PUSH1 0xFF AND PUSH2 0xA8A JUMPI PUSH1 0x40 MLOAD PUSH32 0x8C379A000000000000000000000000000000000000000000000000000000000 DUP2 MSTORE PUSH1 0x4 ADD PUSH2 0xA81 SWAP1 PUSH2 0x18A4 JUMP JUMPDEST PUSH1 0x40 MLOAD DUP1 SWAP2 SUB SWAP1 REVERT JUMPDEST PUSH1 0x0 PUSH1 0x8 PUSH1 0x0 CALLER PUSH20 0xFFFFFFFFFFFFFFFFFFFFFFFFFFFFFFFFFFFFFFFF AND PUSH20 0xFFFFFFFFFFFFFFFFFFFFFFFFFFFFFFFFFFFFFFFF AND DUP2 MSTORE PUSH1 0x20 ADD SWAP1 DUP2 MSTORE PUSH1 0x20 ADD PUSH1 0x0 KECCAK256 PUSH1 0x0 ADD SLOAD SWAP1 POP PUSH2 0xAD9 PUSH2 0xE0B JUMP JUMPDEST PUSH1 0x9 PUSH1 0x0 CALLER PUSH20 0xFFFFFFFFFFFFFFFFFFFFFFFFFFFFFFFFFFFFFFFF AND PUSH20 0xFFFFFFFFFFFFFFFFFFFFFFFFFFFFFFFFFFFFFFFF AND DUP2 MSTORE PUSH1 0x20 ADD SWAP1 DUP2 MSTORE PUSH1 0x20 ADD PUSH1 0x0 KECCAK256 PUSH1 0x0 DUP3 DUP3 SLOAD PUSH2 0xB27 SWAP2 SWAP1 PUSH2 0x19F9 JUMP JUMPDEST SWAP3 POP POP DUP2 SWAP1 SSTORE POP PUSH1 0x3 PUSH1 0x0 SWAP1 SLOAD SWAP1 PUSH2 0x100 EXP SWAP1 DIV PUSH20 0xFFFFFFFFFFFFFFFFFFFFFFFFFFFFFFFFFFFFFFFF AND PUSH20 0xFFFFFFFFFFFFFFFFFFFFFFFFFFFFFFFFFFFFFFFF AND PUSH4 0xA9059CBB CALLER DUP4 PUSH1 0x40 MLOAD DUP4 PUSH4 0xFFFFFFFF AND PUSH1 0xE0 SHL DUP2 MSTORE PUSH1 0x4 ADD PUSH2 0xB8B SWAP3 SWAP2 SWAP1 PUSH2 0x1819 JUMP JUMPDEST PUSH1 0x20 PUSH1 0x40 MLOAD DUP1 DUP4 SUB DUP2 PUSH1 0x0 DUP8 DUP1 EXTCODESIZE ISZERO DUP1 ISZERO PUSH2 0xBA5 JUMPI PUSH1 0x0 DUP1 REVERT JUMPDEST POP GAS CALL ISZERO DUP1 ISZERO PUSH2 0xBB9 JUMPI RETURNDATASIZE PUSH1 0x0 DUP1 RETURNDATACOPY RETURNDATASIZE PUSH1 0x0 REVERT JUMPDEST POP POP POP POP PUSH1 0x40 MLOAD RETURNDATASIZE PUSH1 0x1F NOT PUSH1 0x1F DUP3 ADD AND DUP3 ADD DUP1 PUSH1 0x40 MSTORE POP DUP2 ADD SWAP1 PUSH2 0xBDD SWAP2 SWAP1 PUSH2 0x153A JUMP JUMPDEST POP PUSH1 0x8 PUSH1 0x0 CALLER PUSH20 0xFFFFFFFFFFFFFFFFFFFFFFFFFFFFFFFFFFFFFFFF AND PUSH20 0xFFFFFFFFFFFFFFFFFFFFFFFFFFFFFFFFFFFFFFFF AND DUP2 MSTORE PUSH1 0x20 ADD SWAP1 DUP2 MSTORE PUSH1 0x20 ADD PUSH1 0x0 KECCAK256 PUSH1 0x0 DUP1 DUP3 ADD PUSH1 0x0 SWAP1 SSTORE PUSH1 0x1 DUP3 ADD PUSH1 0x0 SWAP1 SSTORE PUSH1 0x2 DUP3 ADD PUSH1 0x0 PUSH2 0x100 EXP DUP2 SLOAD SWAP1 PUSH1 0xFF MUL NOT AND SWAP1 SSTORE POP POP POP JUMP JUMPDEST PUSH1 0x4 SLOAD DUP2 JUMP JUMPDEST PUSH2 0xC55 PUSH2 0xFF8 JUMP JUMPDEST PUSH2 0xC5F PUSH1 0x0 PUSH2 0x10FF JUMP JUMPDEST JUMP JUMPDEST PUSH1 0x0 PUSH2 0xC6B PUSH2 0xFF8 JUMP JUMPDEST PUSH1 0x0 PUSH1 0x6 SLOAD PUSH1 0x64 PUSH1 0xA PUSH1 0x0 CALLER PUSH20 0xFFFFFFFFFFFFFFFFFFFFFFFFFFFFFFFFFFFFFFFF AND PUSH20 0xFFFFFFFFFFFFFFFFFFFFFFFFFFFFFFFFFFFFFFFF AND DUP2 MSTORE PUSH1 0x20 ADD SWAP1 DUP2 MSTORE PUSH1 0x20 ADD PUSH1 0x0 KECCAK256 SLOAD PUSH2 0xCBC SWAP2 SWAP1 PUSH2 0x1A80 JUMP JUMPDEST PUSH2 0xCC6 SWAP2 SWAP1 PUSH2 0x1A4F JUMP JUMPDEST SWAP1 POP DUP1 SWAP2 POP POP SWAP1 JUMP JUMPDEST PUSH1 0x0 DUP1 PUSH1 0x0 SWAP1 SLOAD SWAP1 PUSH2 0x100 EXP SWAP1 DIV PUSH20 0xFFFFFFFFFFFFFFFFFFFFFFFFFFFFFFFFFFFFFFFF AND SWAP1 POP SWAP1 JUMP JUMPDEST PUSH1 0x3 PUSH1 0x0 SWAP1 SLOAD SWAP1 PUSH2 0x100 EXP SWAP1 DIV PUSH20 0xFFFFFFFFFFFFFFFFFFFFFFFFFFFFFFFFFFFFFFFF AND DUP2 JUMP JUMPDEST PUSH2 0xD26 PUSH2 0xFF8 JUMP JUMPDEST DUP1 PUSH1 0xA PUSH1 0x0 CALLER PUSH20 0xFFFFFFFFFFFFFFFFFFFFFFFFFFFFFFFFFFFFFFFF AND PUSH20 0xFFFFFFFFFFFFFFFFFFFFFFFFFFFFFFFFFFFFFFFF AND DUP2 MSTORE PUSH1 0x20 ADD SWAP1 DUP2 MSTORE PUSH1 0x20 ADD PUSH1 0x0 KECCAK256 PUSH1 0x0 DUP3 DUP3 SLOAD PUSH2 0xD75 SWAP2 SWAP1 PUSH2 0x1ADA JUMP JUMPDEST SWAP3 POP POP DUP2 SWAP1 SSTORE POP DUP1 PUSH1 0x6 PUSH1 0x0 DUP3 DUP3 SLOAD PUSH2 0xD8E SWAP2 SWAP1 PUSH2 0x1ADA JUMP JUMPDEST SWAP3 POP POP DUP2 SWAP1 SSTORE POP PUSH2 0xDE2 CALLER DUP3 PUSH1 0x3 PUSH1 0x0 SWAP1 SLOAD SWAP1 PUSH2 0x100 EXP SWAP1 DIV PUSH20 0xFFFFFFFFFFFFFFFFFFFFFFFFFFFFFFFFFFFFFFFF AND PUSH20 0xFFFFFFFFFFFFFFFFFFFFFFFFFFFFFFFFFFFFFFFF AND PUSH2 0x11C3 SWAP1 SWAP3 SWAP2 SWAP1 PUSH4 0xFFFFFFFF AND JUMP JUMPDEST POP JUMP JUMPDEST PUSH1 0x1 PUSH1 0x0 SWAP1 SLOAD SWAP1 PUSH2 0x100 EXP SWAP1 DIV PUSH20 0xFFFFFFFFFFFFFFFFFFFFFFFFFFFFFFFFFFFFFFFF AND DUP2 JUMP JUMPDEST PUSH1 0x0 DUP1 PUSH1 0x8 PUSH1 0x0 CALLER PUSH20 0xFFFFFFFFFFFFFFFFFFFFFFFFFFFFFFFFFFFFFFFF AND PUSH20 0xFFFFFFFFFFFFFFFFFFFFFFFFFFFFFFFFFFFFFFFF AND DUP2 MSTORE PUSH1 0x20 ADD SWAP1 DUP2 MSTORE PUSH1 0x20 ADD PUSH1 0x0 KECCAK256 PUSH1 0x1 ADD SLOAD TIMESTAMP PUSH2 0xE5C SWAP2 SWAP1 PUSH2 0x1ADA JUMP JUMPDEST PUSH1 0x7 SLOAD PUSH1 0x8 PUSH1 0x0 CALLER PUSH20 0xFFFFFFFFFFFFFFFFFFFFFFFFFFFFFFFFFFFFFFFF AND PUSH20 0xFFFFFFFFFFFFFFFFFFFFFFFFFFFFFFFFFFFFFFFF AND DUP2 MSTORE PUSH1 0x20 ADD SWAP1 DUP2 MSTORE PUSH1 0x20 ADD PUSH1 0x0 KECCAK256 PUSH1 0x0 ADD SLOAD PUSH2 0xEAC SWAP2 SWAP1 PUSH2 0x1A80 JUMP JUMPDEST PUSH2 0xEB6 SWAP2 SWAP1 PUSH2 0x1A80 JUMP JUMPDEST SWAP1 POP PUSH1 0x0 PUSH2 0x1770 DUP3 PUSH2 0xEC8 SWAP2 SWAP1 PUSH2 0x1A4F JUMP JUMPDEST SWAP1 POP TIMESTAMP PUSH1 0x5 DUP2 SWAP1 SSTORE POP DUP1 SWAP3 POP POP POP SWAP1 JUMP JUMPDEST PUSH1 0x5 SLOAD DUP2 JUMP JUMPDEST PUSH1 0x8 PUSH1 0x20 MSTORE DUP1 PUSH1 0x0 MSTORE PUSH1 0x40 PUSH1 0x0 KECCAK256 PUSH1 0x0 SWAP2 POP SWAP1 POP DUP1 PUSH1 0x0 ADD SLOAD SWAP1 DUP1 PUSH1 0x1 ADD SLOAD SWAP1 DUP1 PUSH1 0x2 ADD PUSH1 0x0 SWAP1 SLOAD SWAP1 PUSH2 0x100 EXP SWAP1 DIV PUSH1 0xFF AND SWAP1 POP DUP4 JUMP JUMPDEST PUSH2 0xF1E PUSH2 0xFF8 JUMP JUMPDEST DUP1 PUSH1 0x1 PUSH1 0x0 PUSH2 0x100 EXP DUP2 SLOAD DUP2 PUSH20 0xFFFFFFFFFFFFFFFFFFFFFFFFFFFFFFFFFFFFFFFF MUL NOT AND SWAP1 DUP4 PUSH20 0xFFFFFFFFFFFFFFFFFFFFFFFFFFFFFFFFFFFFFFFF AND MUL OR SWAP1 SSTORE POP POP JUMP JUMPDEST PUSH2 0xF6A PUSH2 0xFF8 JUMP JUMPDEST PUSH1 0x0 PUSH20 0xFFFFFFFFFFFFFFFFFFFFFFFFFFFFFFFFFFFFFFFF AND DUP2 PUSH20 0xFFFFFFFFFFFFFFFFFFFFFFFFFFFFFFFFFFFFFFFF AND EQ ISZERO PUSH2 0xFDA JUMPI PUSH1 0x40 MLOAD PUSH32 0x8C379A000000000000000000000000000000000000000000000000000000000 DUP2 MSTORE PUSH1 0x4 ADD PUSH2 0xFD1 SWAP1 PUSH2 0x1864 JUMP JUMPDEST PUSH1 0x40 MLOAD DUP1 SWAP2 SUB SWAP1 REVERT JUMPDEST PUSH2 0xFE3 DUP2 PUSH2 0x10FF JUMP JUMPDEST POP JUMP JUMPDEST PUSH2 0xFEE PUSH2 0xFF8 JUMP JUMPDEST DUP1 PUSH1 0x7 DUP2 SWAP1 SSTORE POP POP JUMP JUMPDEST PUSH2 0x1000 PUSH2 0x1249 JUMP JUMPDEST PUSH20 0xFFFFFFFFFFFFFFFFFFFFFFFFFFFFFFFFFFFFFFFF AND PUSH2 0x101E PUSH2 0xCCF JUMP JUMPDEST PUSH20 0xFFFFFFFFFFFFFFFFFFFFFFFFFFFFFFFFFFFFFFFF AND EQ PUSH2 0x1074 JUMPI PUSH1 0x40 MLOAD PUSH32 0x8C379A000000000000000000000000000000000000000000000000000000000 DUP2 MSTORE PUSH1 0x4 ADD PUSH2 0x106B SWAP1 PUSH2 0x1904 JUMP JUMPDEST PUSH1 0x40 MLOAD DUP1 SWAP2 SUB SWAP1 REVERT JUMPDEST JUMP JUMPDEST PUSH2 0x10F9 DUP5 PUSH4 0x23B872DD PUSH1 0xE0 SHL DUP6 DUP6 DUP6 PUSH1 0x40 MLOAD PUSH1 0x24 ADD PUSH2 0x1097 SWAP4 SWAP3 SWAP2 SWAP1 PUSH2 0x1798 JUMP JUMPDEST PUSH1 0x40 MLOAD PUSH1 0x20 DUP2 DUP4 SUB SUB DUP2 MSTORE SWAP1 PUSH1 0x40 MSTORE SWAP1 PUSH28 0xFFFFFFFFFFFFFFFFFFFFFFFFFFFFFFFFFFFFFFFFFFFFFFFFFFFFFFFF NOT AND PUSH1 0x20 DUP3 ADD DUP1 MLOAD PUSH28 0xFFFFFFFFFFFFFFFFFFFFFFFFFFFFFFFFFFFFFFFFFFFFFFFFFFFFFFFF DUP4 DUP2 DUP4 AND OR DUP4 MSTORE POP POP POP POP PUSH2 0x1251 JUMP JUMPDEST POP POP POP POP JUMP JUMPDEST PUSH1 0x0 DUP1 PUSH1 0x0 SWAP1 SLOAD SWAP1 PUSH2 0x100 EXP SWAP1 DIV PUSH20 0xFFFFFFFFFFFFFFFFFFFFFFFFFFFFFFFFFFFFFFFF AND SWAP1 POP DUP2 PUSH1 0x0 DUP1 PUSH2 0x100 EXP DUP2 SLOAD DUP2 PUSH20 0xFFFFFFFFFFFFFFFFFFFFFFFFFFFFFFFFFFFFFFFF MUL NOT AND SWAP1 DUP4 PUSH20 0xFFFFFFFFFFFFFFFFFFFFFFFFFFFFFFFFFFFFFFFF AND MUL OR SWAP1 SSTORE POP DUP2 PUSH20 0xFFFFFFFFFFFFFFFFFFFFFFFFFFFFFFFFFFFFFFFF AND DUP2 PUSH20 0xFFFFFFFFFFFFFFFFFFFFFFFFFFFFFFFFFFFFFFFF AND PUSH32 0x8BE0079C531659141344CD1FD0A4F28419497F9722A3DAAFE3B4186F6B6457E0 PUSH1 0x40 MLOAD PUSH1 0x40 MLOAD DUP1 SWAP2 SUB SWAP1 LOG3 POP POP JUMP JUMPDEST PUSH2 0x1244 DUP4 PUSH4 0xA9059CBB PUSH1 0xE0 SHL DUP5 DUP5 PUSH1 0x40 MLOAD PUSH1 0x24 ADD PUSH2 0x11E2 SWAP3 SWAP2 SWAP1 PUSH2 0x1819 JUMP JUMPDEST PUSH1 0x40 MLOAD PUSH1 0x20 DUP2 DUP4 SUB SUB DUP2 MSTORE SWAP1 PUSH1 0x40 MSTORE SWAP1 PUSH28 0xFFFFFFFFFFFFFFFFFFFFFFFFFFFFFFFFFFFFFFFFFFFFFFFFFFFFFFFF NOT AND PUSH1 0x20 DUP3 ADD DUP1 MLOAD PUSH28 0xFFFFFFFFFFFFFFFFFFFFFFFFFFFFFFFFFFFFFFFFFFFFFFFFFFFFFFFF DUP4 DUP2 DUP4 AND OR DUP4 MSTORE POP POP POP POP PUSH2 0x1251 JUMP JUMPDEST POP POP POP JUMP JUMPDEST PUSH1 0x0 CALLER SWAP1 POP SWAP1 JUMP JUMPDEST PUSH1 0x0 PUSH2 0x12B3 DUP3 PUSH1 0x40 MLOAD DUP1 PUSH1 0x40 ADD PUSH1 0x40 MSTORE DUP1 PUSH1 0x20 DUP2 MSTORE PUSH1 0x20 ADD PUSH32 0x5361666545524332303A206C6F772D6C6576656C2063616C6C206661696C6564 DUP2 MSTORE POP DUP6 PUSH20 0xFFFFFFFFFFFFFFFFFFFFFFFFFFFFFFFFFFFFFFFF AND PUSH2 0x1318 SWAP1 SWAP3 SWAP2 SWAP1 PUSH4 0xFFFFFFFF AND JUMP JUMPDEST SWAP1 POP PUSH1 0x0 DUP2 MLOAD GT ISZERO PUSH2 0x1313 JUMPI DUP1 DUP1 PUSH1 0x20 ADD SWAP1 MLOAD DUP2 ADD SWAP1 PUSH2 0x12D3 SWAP2 SWAP1 PUSH2 0x153A JUMP JUMPDEST PUSH2 0x1312 JUMPI PUSH1 0x40 MLOAD PUSH32 0x8C379A000000000000000000000000000000000000000000000000000000000 DUP2 MSTORE PUSH1 0x4 ADD PUSH2 0x1309 SWAP1 PUSH2 0x1944 JUMP JUMPDEST PUSH1 0x40 MLOAD DUP1 SWAP2 SUB SWAP1 REVERT JUMPDEST JUMPDEST POP POP POP JUMP JUMPDEST PUSH1 0x60 PUSH2 0x1327 DUP5 DUP5 PUSH1 0x0 DUP6 PUSH2 0x1330 JUMP JUMPDEST SWAP1 POP SWAP4 SWAP3 POP POP POP JUMP JUMPDEST PUSH1 0x60 DUP3 SELFBALANCE LT ISZERO PUSH2 0x1375 JUMPI PUSH1 0x40 MLOAD PUSH32 0x8C379A000000000000000000000000000000000000000000000000000000000 DUP2 MSTORE PUSH1 0x4 ADD PUSH2 0x136C SWAP1 PUSH2 0x18C4 JUMP JUMPDEST PUSH1 0x40 MLOAD DUP1 SWAP2 SUB SWAP1 REVERT JUMPDEST PUSH2 0x137E DUP6 PUSH2 0x1444 JUMP JUMPDEST PUSH2 0x13BD JUMPI PUSH1 0x40 MLOAD PUSH32 0x8C379A000000000000000000000000000000000000000000000000000000000 DUP2 MSTORE PUSH1 0x4 ADD PUSH2 0x13B4 SWAP1 PUSH2 0x1924 JUMP JUMPDEST PUSH1 0x40 MLOAD DUP1 SWAP2 SUB SWAP1 REVERT JUMPDEST PUSH1 0x0 DUP1 DUP7 PUSH20 0xFFFFFFFFFFFFFFFFFFFFFFFFFFFFFFFFFFFFFFFF AND DUP6 DUP8 PUSH1 0x40 MLOAD PUSH2 0x13E6 SWAP2 SWAP1 PUSH2 0x1766 JUMP JUMPDEST PUSH1 0x0 PUSH1 0x40 MLOAD DUP1 DUP4 SUB DUP2 DUP6 DUP8 GAS CALL SWAP3 POP POP POP RETURNDATASIZE DUP1 PUSH1 0x0 DUP2 EQ PUSH2 0x1423 JUMPI PUSH1 0x40 MLOAD SWAP2 POP PUSH1 0x1F NOT PUSH1 0x3F RETURNDATASIZE ADD AND DUP3 ADD PUSH1 0x40 MSTORE RETURNDATASIZE DUP3 MSTORE RETURNDATASIZE PUSH1 0x0 PUSH1 0x20 DUP5 ADD RETURNDATACOPY PUSH2 0x1428 JUMP JUMPDEST PUSH1 0x60 SWAP2 POP JUMPDEST POP SWAP2 POP SWAP2 POP PUSH2 0x1438 DUP3 DUP3 DUP7 PUSH2 0x1467 JUMP JUMPDEST SWAP3 POP POP POP SWAP5 SWAP4 POP POP POP POP JUMP JUMPDEST PUSH1 0x0 DUP1 DUP3 PUSH20 0xFFFFFFFFFFFFFFFFFFFFFFFFFFFFFFFFFFFFFFFF AND EXTCODESIZE GT SWAP1 POP SWAP2 SWAP1 POP JUMP JUMPDEST PUSH1 0x60 DUP4 ISZERO PUSH2 0x1477 JUMPI DUP3 SWAP1 POP PUSH2 0x14C7 JUMP JUMPDEST PUSH1 0x0 DUP4 MLOAD GT ISZERO PUSH2 0x148A JUMPI DUP3 MLOAD DUP1 DUP5 PUSH1 0x20 ADD REVERT JUMPDEST DUP2 PUSH1 0x40 MLOAD PUSH32 0x8C379A000000000000000000000000000000000000000000000000000000000 DUP2 MSTORE PUSH1 0x4 ADD PUSH2 0x14BE SWAP2 SWAP1 PUSH2 0x1842 JUMP JUMPDEST PUSH1 0x40 MLOAD DUP1 SWAP2 SUB SWAP1 REVERT JUMPDEST SWAP4 SWAP3 POP POP POP JUMP JUMPDEST PUSH1 0x0 DUP2 CALLDATALOAD SWAP1 POP PUSH2 0x14DD DUP2 PUSH2 0x1DBA JUMP JUMPDEST SWAP3 SWAP2 POP POP JUMP JUMPDEST PUSH1 0x0 DUP2 MLOAD SWAP1 POP PUSH2 0x14F2 DUP2 PUSH2 0x1DD1 JUMP JUMPDEST SWAP3 SWAP2 POP POP JUMP JUMPDEST PUSH1 0x0 DUP2 CALLDATALOAD SWAP1 POP PUSH2 0x1507 DUP2 PUSH2 0x1DE8 JUMP JUMPDEST SWAP3 SWAP2 POP POP JUMP JUMPDEST PUSH1 0x0 PUSH1 0x20 DUP3 DUP5 SUB SLT ISZERO PUSH2 0x1523 JUMPI PUSH2 0x1522 PUSH2 0x1BE7 JUMP JUMPDEST JUMPDEST PUSH1 0x0 PUSH2 0x1531 DUP5 DUP3 DUP6 ADD PUSH2 0x14CE JUMP JUMPDEST SWAP2 POP POP SWAP3 SWAP2 POP POP JUMP JUMPDEST PUSH1 0x0 PUSH1 0x20 DUP3 DUP5 SUB SLT ISZERO PUSH2 0x1550 JUMPI PUSH2 0x154F PUSH2 0x1BE7 JUMP JUMPDEST JUMPDEST PUSH1 0x0 PUSH2 0x155E DUP5 DUP3 DUP6 ADD PUSH2 0x14E3 JUMP JUMPDEST SWAP2 POP POP SWAP3 SWAP2 POP POP JUMP JUMPDEST PUSH1 0x0 PUSH1 0x20 DUP3 DUP5 SUB SLT ISZERO PUSH2 0x157D JUMPI PUSH2 0x157C PUSH2 0x1BE7 JUMP JUMPDEST JUMPDEST PUSH1 0x0 PUSH2 0x158B DUP5 DUP3 DUP6 ADD PUSH2 0x14F8 JUMP JUMPDEST SWAP2 POP POP SWAP3 SWAP2 POP POP JUMP JUMPDEST PUSH2 0x159D DUP2 PUSH2 0x1B0E JUMP JUMPDEST DUP3 MSTORE POP POP JUMP JUMPDEST PUSH2 0x15AC DUP2 PUSH2 0x1B20 JUMP JUMPDEST DUP3 MSTORE POP POP JUMP JUMPDEST PUSH1 0x0 PUSH2 0x15BD DUP3 PUSH2 0x19B6 JUMP JUMPDEST PUSH2 0x15C7 DUP2 DUP6 PUSH2 0x19DD JUMP JUMPDEST SWAP4 POP PUSH2 0x15D7 DUP2 DUP6 PUSH1 0x20 DUP7 ADD PUSH2 0x1B56 JUMP JUMPDEST DUP1 DUP5 ADD SWAP2 POP POP SWAP3 SWAP2 POP POP JUMP JUMPDEST PUSH1 0x0 PUSH2 0x15EE DUP3 PUSH2 0x19C1 JUMP JUMPDEST PUSH2 0x15F8 DUP2 DUP6 PUSH2 0x19E8 JUMP JUMPDEST SWAP4 POP PUSH2 0x1608 DUP2 DUP6 PUSH1 0x20 DUP7 ADD PUSH2 0x1B56 JUMP JUMPDEST PUSH2 0x1611 DUP2 PUSH2 0x1BEC JUMP JUMPDEST DUP5 ADD SWAP2 POP POP SWAP3 SWAP2 POP POP JUMP JUMPDEST PUSH1 0x0 PUSH2 0x1629 PUSH1 0x26 DUP4 PUSH2 0x19E8 JUMP JUMPDEST SWAP2 POP PUSH2 0x1634 DUP3 PUSH2 0x1BFD JUMP JUMPDEST PUSH1 0x40 DUP3 ADD SWAP1 POP SWAP2 SWAP1 POP JUMP JUMPDEST PUSH1 0x0 PUSH2 0x164C PUSH1 0x17 DUP4 PUSH2 0x19E8 JUMP JUMPDEST SWAP2 POP PUSH2 0x1657 DUP3 PUSH2 0x1C4C JUMP JUMPDEST PUSH1 0x20 DUP3 ADD SWAP1 POP SWAP2 SWAP1 POP JUMP JUMPDEST PUSH1 0x0 PUSH2 0x166F PUSH1 0x12 DUP4 PUSH2 0x19E8 JUMP JUMPDEST SWAP2 POP PUSH2 0x167A DUP3 PUSH2 0x1C75 JUMP JUMPDEST PUSH1 0x20 DUP3 ADD SWAP1 POP SWAP2 SWAP1 POP JUMP JUMPDEST PUSH1 0x0 PUSH2 0x1692 PUSH1 0x26 DUP4 PUSH2 0x19E8 JUMP JUMPDEST SWAP2 POP PUSH2 0x169D DUP3 PUSH2 0x1C9E JUMP JUMPDEST PUSH1 0x40 DUP3 ADD SWAP1 POP SWAP2 SWAP1 POP JUMP JUMPDEST PUSH1 0x0 PUSH2 0x16B5 PUSH1 0x15 DUP4 PUSH2 0x19E8 JUMP JUMPDEST SWAP2 POP PUSH2 0x16C0 DUP3 PUSH2 0x1CED JUMP JUMPDEST PUSH1 0x20 DUP3 ADD SWAP1 POP SWAP2 SWAP1 POP JUMP JUMPDEST PUSH1 0x0 PUSH2 0x16D8 PUSH1 0x20 DUP4 PUSH2 0x19E8 JUMP JUMPDEST SWAP2 POP PUSH2 0x16E3 DUP3 PUSH2 0x1D16 JUMP JUMPDEST PUSH1 0x20 DUP3 ADD SWAP1 POP SWAP2 SWAP1 POP JUMP JUMPDEST PUSH1 0x0 PUSH2 0x16FB PUSH1 0x0 DUP4 PUSH2 0x19CC JUMP JUMPDEST SWAP2 POP PUSH2 0x1706 DUP3 PUSH2 0x1D3F JUMP JUMPDEST PUSH1 0x0 DUP3 ADD SWAP1 POP SWAP2 SWAP1 POP JUMP JUMPDEST PUSH1 0x0 PUSH2 0x171E PUSH1 0x1D DUP4 PUSH2 0x19E8 JUMP JUMPDEST SWAP2 POP PUSH2 0x1729 DUP3 PUSH2 0x1D42 JUMP JUMPDEST PUSH1 0x20 DUP3 ADD SWAP1 POP SWAP2 SWAP1 POP JUMP JUMPDEST PUSH1 0x0 PUSH2 0x1741 PUSH1 0x2A DUP4 PUSH2 0x19E8 JUMP JUMPDEST SWAP2 POP PUSH2 0x174C DUP3 PUSH2 0x1D6B JUMP JUMPDEST PUSH1 0x40 DUP3 ADD SWAP1 POP SWAP2 SWAP1 POP JUMP JUMPDEST PUSH2 0x1760 DUP2 PUSH2 0x1B4C JUMP JUMPDEST DUP3 MSTORE POP POP JUMP JUMPDEST PUSH1 0x0 PUSH2 0x1772 DUP3 DUP5 PUSH2 0x15B2 JUMP JUMPDEST SWAP2 POP DUP2 SWAP1 POP SWAP3 SWAP2 POP POP JUMP JUMPDEST PUSH1 0x0 PUSH1 0x20 DUP3 ADD SWAP1 POP PUSH2 0x1792 PUSH1 0x0 DUP4 ADD DUP5 PUSH2 0x1594 JUMP JUMPDEST SWAP3 SWAP2 POP POP JUMP JUMPDEST PUSH1 0x0 PUSH1 0x60 DUP3 ADD SWAP1 POP PUSH2 0x17AD PUSH1 0x0 DUP4 ADD DUP7 PUSH2 0x1594 JUMP JUMPDEST PUSH2 0x17BA PUSH1 0x20 DUP4 ADD DUP6 PUSH2 0x1594 JUMP JUMPDEST PUSH2 0x17C7 PUSH1 0x40 DUP4 ADD DUP5 PUSH2 0x1757 JUMP JUMPDEST SWAP5 SWAP4 POP POP POP POP JUMP JUMPDEST PUSH1 0x0 PUSH1 0x80 DUP3 ADD SWAP1 POP PUSH2 0x17E4 PUSH1 0x0 DUP4 ADD DUP7 PUSH2 0x1594 JUMP JUMPDEST PUSH2 0x17F1 PUSH1 0x20 DUP4 ADD DUP6 PUSH2 0x1594 JUMP JUMPDEST PUSH2 0x17FE PUSH1 0x40 DUP4 ADD DUP5 PUSH2 0x1757 JUMP JUMPDEST DUP2 DUP2 SUB PUSH1 0x60 DUP4 ADD MSTORE PUSH2 0x180F DUP2 PUSH2 0x16EE JUMP JUMPDEST SWAP1 POP SWAP5 SWAP4 POP POP POP POP JUMP JUMPDEST PUSH1 0x0 PUSH1 0x40 DUP3 ADD SWAP1 POP PUSH2 0x182E PUSH1 0x0 DUP4 ADD DUP6 PUSH2 0x1594 JUMP JUMPDEST PUSH2 0x183B PUSH1 0x20 DUP4 ADD DUP5 PUSH2 0x1757 JUMP JUMPDEST SWAP4 SWAP3 POP POP POP JUMP JUMPDEST PUSH1 0x0 PUSH1 0x20 DUP3 ADD SWAP1 POP DUP2 DUP2 SUB PUSH1 0x0 DUP4 ADD MSTORE PUSH2 0x185C DUP2 DUP5 PUSH2 0x15E3 JUMP JUMPDEST SWAP1 POP SWAP3 SWAP2 POP POP JUMP JUMPDEST PUSH1 0x0 PUSH1 0x20 DUP3 ADD SWAP1 POP DUP2 DUP2 SUB PUSH1 0x0 DUP4 ADD MSTORE PUSH2 0x187D DUP2 PUSH2 0x161C JUMP JUMPDEST SWAP1 POP SWAP2 SWAP1 POP JUMP JUMPDEST PUSH1 0x0 PUSH1 0x20 DUP3 ADD SWAP1 POP DUP2 DUP2 SUB PUSH1 0x0 DUP4 ADD MSTORE PUSH2 0x189D DUP2 PUSH2 0x163F JUMP JUMPDEST SWAP1 POP SWAP2 SWAP1 POP JUMP JUMPDEST PUSH1 0x0 PUSH1 0x20 DUP3 ADD SWAP1 POP DUP2 DUP2 SUB PUSH1 0x0 DUP4 ADD MSTORE PUSH2 0x18BD DUP2 PUSH2 0x1662 JUMP JUMPDEST SWAP1 POP SWAP2 SWAP1 POP JUMP JUMPDEST PUSH1 0x0 PUSH1 0x20 DUP3 ADD SWAP1 POP DUP2 DUP2 SUB PUSH1 0x0 DUP4 ADD MSTORE PUSH2 0x18DD DUP2 PUSH2 0x1685 JUMP JUMPDEST SWAP1 POP SWAP2 SWAP1 POP JUMP JUMPDEST PUSH1 0x0 PUSH1 0x20 DUP3 ADD SWAP1 POP DUP2 DUP2 SUB PUSH1 0x0 DUP4 ADD MSTORE PUSH2 0x18FD DUP2 PUSH2 0x16A8 JUMP JUMPDEST SWAP1 POP SWAP2 SWAP1 POP JUMP JUMPDEST PUSH1 0x0 PUSH1 0x20 DUP3 ADD SWAP1 POP DUP2 DUP2 SUB PUSH1 0x0 DUP4 ADD MSTORE PUSH2 0x191D DUP2 PUSH2 0x16CB JUMP JUMPDEST SWAP1 POP SWAP2 SWAP1 POP JUMP JUMPDEST PUSH1 0x0 PUSH1 0x20 DUP3 ADD SWAP1 POP DUP2 DUP2 SUB PUSH1 0x0 DUP4 ADD MSTORE PUSH2 0x193D DUP2 PUSH2 0x1711 JUMP JUMPDEST SWAP1 POP SWAP2 SWAP1 POP JUMP JUMPDEST PUSH1 0x0 PUSH1 0x20 DUP3 ADD SWAP1 POP DUP2 DUP2 SUB PUSH1 0x0 DUP4 ADD MSTORE PUSH2 0x195D DUP2 PUSH2 0x1734 JUMP JUMPDEST SWAP1 POP SWAP2 SWAP1 POP JUMP JUMPDEST PUSH1 0x0 PUSH1 0x20 DUP3 ADD SWAP1 POP PUSH2 0x1979 PUSH1 0x0 DUP4 ADD DUP5 PUSH2 0x1757 JUMP JUMPDEST SWAP3 SWAP2 POP POP JUMP JUMPDEST PUSH1 0x0 PUSH1 0x60 DUP3 ADD SWAP1 POP PUSH2 0x1994 PUSH1 0x0 DUP4 ADD DUP7 PUSH2 0x1757 JUMP JUMPDEST PUSH2 0x19A1 PUSH1 0x20 DUP4 ADD DUP6 PUSH2 0x1757 JUMP JUMPDEST PUSH2 0x19AE PUSH1 0x40 DUP4 ADD DUP5 PUSH2 0x15A3 JUMP JUMPDEST SWAP5 SWAP4 POP POP POP POP JUMP JUMPDEST PUSH1 0x0 DUP2 MLOAD SWAP1 POP SWAP2 SWAP1 POP JUMP JUMPDEST PUSH1 0x0 DUP2 MLOAD SWAP1 POP SWAP2 SWAP1 POP JUMP JUMPDEST PUSH1 0x0 DUP3 DUP3 MSTORE PUSH1 0x20 DUP3 ADD SWAP1 POP SWAP3 SWAP2 POP POP JUMP JUMPDEST PUSH1 0x0 DUP2 SWAP1 POP SWAP3 SWAP2 POP POP JUMP JUMPDEST PUSH1 0x0 DUP3 DUP3 MSTORE PUSH1 0x20 DUP3 ADD SWAP1 POP SWAP3 SWAP2 POP POP JUMP JUMPDEST PUSH1 0x0 PUSH2 0x1A04 DUP3 PUSH2 0x1B4C JUMP JUMPDEST SWAP2 POP PUSH2 0x1A0F DUP4 PUSH2 0x1B4C JUMP JUMPDEST SWAP3 POP DUP3 PUSH32 0xFFFFFFFFFFFFFFFFFFFFFFFFFFFFFFFFFFFFFFFFFFFFFFFFFFFFFFFFFFFFFFFF SUB DUP3 GT ISZERO PUSH2 0x1A44 JUMPI PUSH2 0x1A43 PUSH2 0x1B89 JUMP JUMPDEST JUMPDEST DUP3 DUP3 ADD SWAP1 POP SWAP3 SWAP2 POP POP JUMP JUMPDEST PUSH1 0x0 PUSH2 0x1A5A DUP3 PUSH2 0x1B4C JUMP JUMPDEST SWAP2 POP PUSH2 0x1A65 DUP4 PUSH2 0x1B4C JUMP JUMPDEST SWAP3 POP DUP3 PUSH2 0x1A75 JUMPI PUSH2 0x1A74 PUSH2 0x1BB8 JUMP JUMPDEST JUMPDEST DUP3 DUP3 DIV SWAP1 POP SWAP3 SWAP2 POP POP JUMP JUMPDEST PUSH1 0x0 PUSH2 0x1A8B DUP3 PUSH2 0x1B4C JUMP JUMPDEST SWAP2 POP PUSH2 0x1A96 DUP4 PUSH2 0x1B4C JUMP JUMPDEST SWAP3 POP DUP2 PUSH32 0xFFFFFFFFFFFFFFFFFFFFFFFFFFFFFFFFFFFFFFFFFFFFFFFFFFFFFFFFFFFFFFFF DIV DUP4 GT DUP3 ISZERO ISZERO AND ISZERO PUSH2 0x1ACF JUMPI PUSH2 0x1ACE PUSH2 0x1B89 JUMP JUMPDEST JUMPDEST DUP3 DUP3 MUL SWAP1 POP SWAP3 SWAP2 POP POP JUMP JUMPDEST PUSH1 0x0 PUSH2 0x1AE5 DUP3 PUSH2 0x1B4C JUMP JUMPDEST SWAP2 POP PUSH2 0x1AF0 DUP4 PUSH2 0x1B4C JUMP JUMPDEST SWAP3 POP DUP3 DUP3 LT ISZERO PUSH2 0x1B03 JUMPI PUSH2 0x1B02 PUSH2 0x1B89 JUMP JUMPDEST JUMPDEST DUP3 DUP3 SUB SWAP1 POP SWAP3 SWAP2 POP POP JUMP JUMPDEST PUSH1 0x0 PUSH2 0x1B19 DUP3 PUSH2 0x1B2C JUMP JUMPDEST SWAP1 POP SWAP2 SWAP1 POP JUMP JUMPDEST PUSH1 0x0 DUP2 ISZERO ISZERO SWAP1 POP SWAP2 SWAP1 POP JUMP JUMPDEST PUSH1 0x0 PUSH20 0xFFFFFFFFFFFFFFFFFFFFFFFFFFFFFFFFFFFFFFFF DUP3 AND SWAP1 POP SWAP2 SWAP1 POP JUMP JUMPDEST PUSH1 0x0 DUP2 SWAP1 POP SWAP2 SWAP1 POP JUMP JUMPDEST PUSH1 0x0 JUMPDEST DUP4 DUP2 LT ISZERO PUSH2 0x1B74 JUMPI DUP1 DUP3 ADD MLOAD DUP2 DUP5 ADD MSTORE PUSH1 0x20 DUP2 ADD SWAP1 POP PUSH2 0x1B59 JUMP JUMPDEST DUP4 DUP2 GT ISZERO PUSH2 0x1B83 JUMPI PUSH1 0x0 DUP5 DUP5 ADD MSTORE JUMPDEST POP POP POP POP JUMP JUMPDEST PUSH32 0x4E487B7100000000000000000000000000000000000000000000000000000000 PUSH1 0x0 MSTORE PUSH1 0x11 PUSH1 0x4 MSTORE PUSH1 0x24 PUSH1 0x0 REVERT JUMPDEST PUSH32 0x4E487B7100000000000000000000000000000000000000000000000000000000 PUSH1 0x0 MSTORE PUSH1 0x12 PUSH1 0x4 MSTORE PUSH1 0x24 PUSH1 0x0 REVERT JUMPDEST PUSH1 0x0 DUP1 REVERT JUMPDEST PUSH1 0x0 PUSH1 0x1F NOT PUSH1 0x1F DUP4 ADD AND SWAP1 POP SWAP2 SWAP1 POP JUMP JUMPDEST PUSH32 0x4F776E61626C653A206E6577206F776E657220697320746865207A65726F2061 PUSH1 0x0 DUP3 ADD MSTORE PUSH32 0x6464726573730000000000000000000000000000000000000000000000000000 PUSH1 0x20 DUP3 ADD MSTORE POP JUMP JUMPDEST PUSH32 0x4F6E6C79204F776E65722063616E207472616E73666572000000000000000000 PUSH1 0x0 DUP3 ADD MSTORE POP JUMP JUMPDEST PUSH32 0x506C65617365204669727374205374616B650000000000000000000000000000 PUSH1 0x0 DUP3 ADD MSTORE POP JUMP JUMPDEST PUSH32 0x416464726573733A20696E73756666696369656E742062616C616E636520666F PUSH1 0x0 DUP3 ADD MSTORE PUSH32 0x722063616C6C0000000000000000000000000000000000000000000000000000 PUSH1 0x20 DUP3 ADD MSTORE POP JUMP JUMPDEST PUSH32 0x506C656173652046697273742057697468447261770000000000000000000000 PUSH1 0x0 DUP3 ADD MSTORE POP JUMP JUMPDEST PUSH32 0x4F776E61626C653A2063616C6C6572206973206E6F7420746865206F776E6572 PUSH1 0x0 DUP3 ADD MSTORE POP JUMP JUMPDEST POP JUMP JUMPDEST PUSH32 0x416464726573733A2063616C6C20746F206E6F6E2D636F6E7472616374000000 PUSH1 0x0 DUP3 ADD MSTORE POP JUMP JUMPDEST PUSH32 0x5361666545524332303A204552433230206F7065726174696F6E20646964206E PUSH1 0x0 DUP3 ADD MSTORE PUSH32 0x6F74207375636365656400000000000000000000000000000000000000000000 PUSH1 0x20 DUP3 ADD MSTORE POP JUMP JUMPDEST PUSH2 0x1DC3 DUP2 PUSH2 0x1B0E JUMP JUMPDEST DUP2 EQ PUSH2 0x1DCE JUMPI PUSH1 0x0 DUP1 REVERT JUMPDEST POP JUMP JUMPDEST PUSH2 0x1DDA DUP2 PUSH2 0x1B20 JUMP JUMPDEST DUP2 EQ PUSH2 0x1DE5 JUMPI PUSH1 0x0 DUP1 REVERT JUMPDEST POP JUMP JUMPDEST PUSH2 0x1DF1 DUP2 PUSH2 0x1B4C JUMP JUMPDEST DUP2 EQ PUSH2 0x1DFC JUMPI PUSH1 0x0 DUP1 REVERT JUMPDEST POP JUMP INVALID LOG2 PUSH5 0x6970667358 0x22 SLT KECCAK256 NOT 0xC7 0x1E PUSH32 0xC2839157191C0EE5817BD55948B514C885865186F97357DDA09903F764736F6C PUSH4 0x43000807 STOP CALLER "
				},
				"gasEstimates": {
					"creation": {
						"codeDepositCost": "1546600",
						"executionCost": "infinite",
						"totalCost": "infinite"
					},
					"external": {
						"AdminAddToken()": "infinite",
						"AdminWithDrawToken(uint256)": "infinite",
						"Deposit(uint256)": "infinite",
						"Details(address)": "infinite",
						"ERC20Address()": "2603",
						"ERC721address()": "2647",
						"OwnerTokens(address)": "2859",
						"Reward(address)": "2903",
						"UpdateERC20(address)": "27098",
						"UpdateERC721(address)": "27074",
						"UpdateRatePersentage(uint256)": "24916",
						"Utilization()": "infinite",
						"Withdraw()": "infinite",
						"WithdrawReward()": "infinite",
						"calculateIntrest()": "infinite",
						"owenerERC20()": "2582",
						"owner()": "2589",
						"renounceOwnership()": "30421",
						"rewardrate()": "2562",
						"totalOwnerToken()": "2475",
						"transferOwnership(address)": "30857",
						"unstaketimeval()": "2473",
						"withdrawNFT(uint256)": "infinite"
					}
				},
				"methodIdentifiers": {
					"AdminAddToken()": "144dc29c",
					"AdminWithDrawToken(uint256)": "a88e132f",
					"Deposit(uint256)": "4d6ce1e5",
					"Details(address)": "e88cc2be",
					"ERC20Address()": "a6021ace",
					"ERC721address()": "b7171a2e",
					"OwnerTokens(address)": "2ffce210",
					"Reward(address)": "57488064",
					"UpdateERC20(address)": "275bd33f",
					"UpdateERC721(address)": "ee0106d2",
					"UpdateRatePersentage(uint256)": "f89d832f",
					"Utilization()": "7b2f247f",
					"Withdraw()": "57ea89b6",
					"WithdrawReward()": "2c07f74f",
					"calculateIntrest()": "c3c917b0",
					"owenerERC20()": "10fd4fba",
					"owner()": "8da5cb5b",
					"renounceOwnership()": "715018a6",
					"rewardrate()": "5eb82e94",
					"totalOwnerToken()": "0ccff6e9",
					"transferOwnership(address)": "f2fde38b",
					"unstaketimeval()": "de9d3ddb",
					"withdrawNFT(uint256)": "023245d7"
				}
			},
			"storageLayout": {
				"storage": [
					{
						"astId": 7,
						"contract": "contracts/ERC20Stakeable.sol:ERC20Stakeable",
						"label": "_owner",
						"offset": 0,
						"slot": "0",
						"type": "t_address"
					},
					{
						"astId": 996,
						"contract": "contracts/ERC20Stakeable.sol:ERC20Stakeable",
						"label": "ERC721address",
						"offset": 0,
						"slot": "1",
						"type": "t_address"
					},
					{
						"astId": 998,
						"contract": "contracts/ERC20Stakeable.sol:ERC20Stakeable",
						"label": "owenerERC20",
						"offset": 0,
						"slot": "2",
						"type": "t_address"
					},
					{
						"astId": 1000,
						"contract": "contracts/ERC20Stakeable.sol:ERC20Stakeable",
						"label": "ERC20Address",
						"offset": 0,
						"slot": "3",
						"type": "t_address"
					},
					{
						"astId": 1002,
						"contract": "contracts/ERC20Stakeable.sol:ERC20Stakeable",
						"label": "rewardrate",
						"offset": 0,
						"slot": "4",
						"type": "t_uint256"
					},
					{
						"astId": 1004,
						"contract": "contracts/ERC20Stakeable.sol:ERC20Stakeable",
						"label": "unstaketimeval",
						"offset": 0,
						"slot": "5",
						"type": "t_uint256"
					},
					{
						"astId": 1006,
						"contract": "contracts/ERC20Stakeable.sol:ERC20Stakeable",
						"label": "totalOwnerToken",
						"offset": 0,
						"slot": "6",
						"type": "t_uint256"
					},
					{
						"astId": 1008,
						"contract": "contracts/ERC20Stakeable.sol:ERC20Stakeable",
						"label": "rate",
						"offset": 0,
						"slot": "7",
						"type": "t_uint256"
					},
					{
						"astId": 1020,
						"contract": "contracts/ERC20Stakeable.sol:ERC20Stakeable",
						"label": "Details",
						"offset": 0,
						"slot": "8",
						"type": "t_mapping(t_address,t_struct(Staker)1015_storage)"
					},
					{
						"astId": 1024,
						"contract": "contracts/ERC20Stakeable.sol:ERC20Stakeable",
						"label": "Reward",
						"offset": 0,
						"slot": "9",
						"type": "t_mapping(t_address,t_uint256)"
					},
					{
						"astId": 1028,
						"contract": "contracts/ERC20Stakeable.sol:ERC20Stakeable",
						"label": "OwnerTokens",
						"offset": 0,
						"slot": "10",
						"type": "t_mapping(t_address,t_uint256)"
					}
				],
				"types": {
					"t_address": {
						"encoding": "inplace",
						"label": "address",
						"numberOfBytes": "20"
					},
					"t_bool": {
						"encoding": "inplace",
						"label": "bool",
						"numberOfBytes": "1"
					},
					"t_mapping(t_address,t_struct(Staker)1015_storage)": {
						"encoding": "mapping",
						"key": "t_address",
						"label": "mapping(address => struct ERC20Stakeable.Staker)",
						"numberOfBytes": "32",
						"value": "t_struct(Staker)1015_storage"
					},
					"t_mapping(t_address,t_uint256)": {
						"encoding": "mapping",
						"key": "t_address",
						"label": "mapping(address => uint256)",
						"numberOfBytes": "32",
						"value": "t_uint256"
					},
					"t_struct(Staker)1015_storage": {
						"encoding": "inplace",
						"label": "struct ERC20Stakeable.Staker",
						"members": [
							{
								"astId": 1010,
								"contract": "contracts/ERC20Stakeable.sol:ERC20Stakeable",
								"label": "deposited",
								"offset": 0,
								"slot": "0",
								"type": "t_uint256"
							},
							{
								"astId": 1012,
								"contract": "contracts/ERC20Stakeable.sol:ERC20Stakeable",
								"label": "timestake",
								"offset": 0,
								"slot": "1",
								"type": "t_uint256"
							},
							{
								"astId": 1014,
								"contract": "contracts/ERC20Stakeable.sol:ERC20Stakeable",
								"label": "check",
								"offset": 0,
								"slot": "2",
								"type": "t_bool"
							}
						],
						"numberOfBytes": "96"
					},
					"t_uint256": {
						"encoding": "inplace",
						"label": "uint256",
						"numberOfBytes": "32"
					}
				}
			},
			"userdoc": {
				"kind": "user",
				"methods": {},
				"version": 1
			}
		}
	}
}